{
  "contractName": "Betting",
  "abi": [
    {
      "inputs": [],
      "payable": false,
      "stateMutability": "nonpayable",
      "type": "constructor"
    },
    {
      "anonymous": false,
      "inputs": [
        {
          "indexed": false,
          "internalType": "bytes32",
          "name": "queryId",
          "type": "bytes32"
        },
        {
          "indexed": true,
          "internalType": "address",
          "name": "player",
          "type": "address"
        },
        {
          "indexed": false,
          "internalType": "uint256",
          "name": "amount",
          "type": "uint256"
        },
        {
          "indexed": false,
          "internalType": "bool",
          "name": "betWon",
          "type": "bool"
        }
      ],
      "name": "BetComplete",
      "type": "event"
    },
    {
      "anonymous": false,
      "inputs": [
        {
          "indexed": false,
          "internalType": "bytes32",
          "name": "queryId",
          "type": "bytes32"
        },
        {
          "indexed": false,
          "internalType": "string",
          "name": "reason",
          "type": "string"
        }
      ],
      "name": "BetFailed",
      "type": "event"
    },
    {
      "anonymous": false,
      "inputs": [
        {
          "indexed": false,
          "internalType": "bytes32",
          "name": "queryId",
          "type": "bytes32"
        },
        {
          "indexed": true,
          "internalType": "address",
          "name": "player",
          "type": "address"
        },
        {
          "indexed": false,
          "internalType": "uint256",
          "name": "amount",
          "type": "uint256"
        }
      ],
      "name": "BetPlaced",
      "type": "event"
    },
    {
      "anonymous": false,
      "inputs": [
        {
          "indexed": false,
          "internalType": "string",
          "name": "description",
          "type": "string"
        }
      ],
      "name": "LogNewProvableQuery",
      "type": "event"
    },
    {
      "constant": true,
      "inputs": [
        {
          "internalType": "address",
          "name": "",
          "type": "address"
        }
      ],
      "name": "balances",
      "outputs": [
        {
          "internalType": "uint256",
          "name": "",
          "type": "uint256"
        }
      ],
      "payable": false,
      "stateMutability": "view",
      "type": "function"
    },
    {
      "constant": true,
      "inputs": [
        {
          "internalType": "uint256",
          "name": "",
          "type": "uint256"
        }
      ],
      "name": "betToPlayer",
      "outputs": [
        {
          "internalType": "address",
          "name": "",
          "type": "address"
        }
      ],
      "payable": false,
      "stateMutability": "view",
      "type": "function"
    },
    {
      "constant": true,
      "inputs": [
        {
          "internalType": "uint256",
          "name": "",
          "type": "uint256"
        }
      ],
      "name": "bets",
      "outputs": [
        {
          "internalType": "bytes32",
          "name": "queryId",
          "type": "bytes32"
        },
        {
          "internalType": "address",
          "name": "player",
          "type": "address"
        },
        {
          "internalType": "uint256",
          "name": "betAmount",
          "type": "uint256"
        },
        {
          "internalType": "uint256",
          "name": "calculatedBetAmount",
          "type": "uint256"
        },
        {
          "internalType": "bool",
          "name": "betWon",
          "type": "bool"
        },
        {
          "internalType": "bool",
          "name": "isPending",
          "type": "bool"
        }
      ],
      "payable": false,
      "stateMutability": "view",
      "type": "function"
    },
    {
      "constant": true,
      "inputs": [],
      "name": "contractAddress",
      "outputs": [
        {
          "internalType": "address",
          "name": "",
          "type": "address"
        }
      ],
      "payable": false,
      "stateMutability": "view",
      "type": "function"
    },
    {
      "constant": true,
      "inputs": [
        {
          "internalType": "address",
          "name": "",
          "type": "address"
        }
      ],
      "name": "playerBetCount",
      "outputs": [
        {
          "internalType": "uint256",
          "name": "",
          "type": "uint256"
        }
      ],
      "payable": false,
      "stateMutability": "view",
      "type": "function"
    },
    {
      "constant": true,
      "inputs": [],
      "name": "getBetCount",
      "outputs": [
        {
          "internalType": "uint256",
          "name": "",
          "type": "uint256"
        }
      ],
      "payable": false,
      "stateMutability": "view",
      "type": "function"
    },
    {
      "constant": false,
      "inputs": [
        {
          "internalType": "uint256",
          "name": "_amount",
          "type": "uint256"
        }
      ],
      "name": "bet",
      "outputs": [],
      "payable": true,
      "stateMutability": "payable",
      "type": "function"
    },
    {
      "constant": false,
      "inputs": [],
      "name": "update",
      "outputs": [
        {
          "internalType": "bytes32",
          "name": "",
          "type": "bytes32"
        }
      ],
      "payable": true,
      "stateMutability": "payable",
      "type": "function"
    },
    {
      "constant": false,
      "inputs": [
        {
          "internalType": "bytes32",
          "name": "_myid",
          "type": "bytes32"
        },
        {
          "internalType": "string",
          "name": "_result",
          "type": "string"
        }
      ],
      "name": "__callback",
      "outputs": [],
      "payable": false,
      "stateMutability": "nonpayable",
      "type": "function"
    },
    {
      "constant": false,
      "inputs": [
        {
          "internalType": "bytes32",
          "name": "_queryId",
          "type": "bytes32"
        },
        {
          "internalType": "string",
          "name": "_result",
          "type": "string"
        },
        {
          "internalType": "bytes",
          "name": "_proof",
          "type": "bytes"
        }
      ],
      "name": "__callback",
      "outputs": [],
      "payable": false,
      "stateMutability": "nonpayable",
      "type": "function"
    }
  ],
  "bytecode": "0x608060405230600560006101000a81548173ffffffffffffffffffffffffffffffffffffffff021916908373ffffffffffffffffffffffffffffffffffffffff1602179055506200008b6040518060400160405280600681526020017f52616e646f6d0000000000000000000000000000000000000000000000000000815250620000c860201b60201c565b6006553480156200009b57600080fd5b50620000b1603060f81b6200047860201b60201c565b620000c1620007db60201b60201c565b5062002705565b60008073ffffffffffffffffffffffffffffffffffffffff16600160009054906101000a900473ffffffffffffffffffffffffffffffffffffffff1673ffffffffffffffffffffffffffffffffffffffff161480620001595750600062000157600160009054906101000a900473ffffffffffffffffffffffffffffffffffffffff166200085760201b60201c565b145b1562000173576200017160006200086260201b60201c565b505b600160009054906101000a900473ffffffffffffffffffffffffffffffffffffffff1673ffffffffffffffffffffffffffffffffffffffff166338cc48316040518163ffffffff1660e01b8152600401602060405180830381600087803b158015620001de57600080fd5b505af1158015620001f3573d6000803e3d6000fd5b505050506040513d60208110156200020a57600080fd5b810190808051906020019092919050505073ffffffffffffffffffffffffffffffffffffffff166000809054906101000a900473ffffffffffffffffffffffffffffffffffffffff1673ffffffffffffffffffffffffffffffffffffffff16146200035757600160009054906101000a900473ffffffffffffffffffffffffffffffffffffffff1673ffffffffffffffffffffffffffffffffffffffff166338cc48316040518163ffffffff1660e01b8152600401602060405180830381600087803b158015620002da57600080fd5b505af1158015620002ef573d6000803e3d6000fd5b505050506040513d60208110156200030657600080fd5b81019080805190602001909291905050506000806101000a81548173ffffffffffffffffffffffffffffffffffffffff021916908373ffffffffffffffffffffffffffffffffffffffff1602179055505b6000809054906101000a900473ffffffffffffffffffffffffffffffffffffffff1673ffffffffffffffffffffffffffffffffffffffff1663524f3889836040518263ffffffff1660e01b81526004018080602001828103825283818151815260200191508051906020019080838360005b83811015620003e6578082015181840152602081019050620003c9565b50505050905090810190601f168015620004145780820380516001836020036101000a031916815260200191505b5092505050602060405180830381600087803b1580156200043457600080fd5b505af115801562000449573d6000803e3d6000fd5b505050506040513d60208110156200046057600080fd5b81019080805190602001909291905050509050919050565b600073ffffffffffffffffffffffffffffffffffffffff16600160009054906101000a900473ffffffffffffffffffffffffffffffffffffffff1673ffffffffffffffffffffffffffffffffffffffff161480620005085750600062000506600160009054906101000a900473ffffffffffffffffffffffffffffffffffffffff166200085760201b60201c565b145b1562000522576200052060006200086260201b60201c565b505b600160009054906101000a900473ffffffffffffffffffffffffffffffffffffffff1673ffffffffffffffffffffffffffffffffffffffff166338cc48316040518163ffffffff1660e01b8152600401602060405180830381600087803b1580156200058d57600080fd5b505af1158015620005a2573d6000803e3d6000fd5b505050506040513d6020811015620005b957600080fd5b810190808051906020019092919050505073ffffffffffffffffffffffffffffffffffffffff166000809054906101000a900473ffffffffffffffffffffffffffffffffffffffff1673ffffffffffffffffffffffffffffffffffffffff16146200070657600160009054906101000a900473ffffffffffffffffffffffffffffffffffffffff1673ffffffffffffffffffffffffffffffffffffffff166338cc48316040518163ffffffff1660e01b8152600401602060405180830381600087803b1580156200068957600080fd5b505af11580156200069e573d6000803e3d6000fd5b505050506040513d6020811015620006b557600080fd5b81019080805190602001909291905050506000806101000a81548173ffffffffffffffffffffffffffffffffffffffff021916908373ffffffffffffffffffffffffffffffffffffffff1602179055505b6000809054906101000a900473ffffffffffffffffffffffffffffffffffffffff1673ffffffffffffffffffffffffffffffffffffffff1663688dcfd7826040518263ffffffff1660e01b815260040180827effffffffffffffffffffffffffffffffffffffffffffffffffffffffffffff19167effffffffffffffffffffffffffffffffffffffffffffffffffffffffffffff19168152602001915050600060405180830381600087803b158015620007bf57600080fd5b505af1158015620007d4573d6000803e3d6000fd5b5050505050565b60008060009050600062030d409050600062000800836001846200087b60201b60201c565b90507fc4dc360d0a9c0677a3379ae0a3d81e887f761e65fdf3d7e00859d1bcd3c4738960405180806020018281038252603681526020018062006ba26036913960400191505060405180910390a180935050505090565b6000813b9050919050565b60006200087462000e4e60201b60201c565b9050919050565b600080831180156200088e575060208311155b6200089857600080fd5b600a84029350606060016040519080825280601f01601f191660200182016040528015620008d55781602001600182028038833980820191505090505b5090508360f81b81600081518110620008ea57fe5b60200101907effffffffffffffffffffffffffffffffffffffffffffffffffffffffffffff1916908160001a905350606060206040519080825280601f01601f191660200182016040528015620009505781602001600182028038833980820191505090505b509050606060206040519080825280601f01601f1916602001820160405280156200098a5781602001600182028038833980820191505090505b50905060006200099f6200141d60201b60201c565b905060208352424118600143034018602084015260208252806020830152606060206040519080825280601f01601f191660200182016040528015620009f45781602001600182028038833980820191505090505b509050886020820152606060086040519080825280601f01601f19166020018201604052801562000a345781602001600182028038833980820191505090505b50905062000a4f82601860088460006200175660201b60201c565b5062000a5a62002614565b6040518060800160405280878152602001888152602001868152602001848152509050600062000ac76040518060400160405280600681526020017f72616e646f6d0000000000000000000000000000000000000000000000000000815250838c620017b860201b60201c565b9050606060086040519080825280601f01601f19166020018201604052801562000b005781602001600182028038833980820191505090505b50905060208401517f0100000000000000000000000000000000000000000000000000000000000000810460278301537e01000000000000000000000000000000000000000000000000000000000000810460268301537d010000000000000000000000000000000000000000000000000000000000810460258301537c0100000000000000000000000000000000000000000000000000000000810460248301537b01000000000000000000000000000000000000000000000000000000810460238301537a01000000000000000000000000000000000000000000000000000081046022830153790100000000000000000000000000000000000000000000000000810460218301537801000000000000000000000000000000000000000000000000810460208301535062000e3b82828560016004811062000c4157fe5b602002015160028760006004811062000c5657fe5b60200201516040518082805190602001908083835b6020831062000c90578051825260208201915060208101905060208303925062000c6b565b6001836020036101000a038019825116818451168082178552505050505050905001915050602060405180830381855afa15801562000cd3573d6000803e3d6000fd5b5050506040513d602081101562000ce957600080fd5b81019080805190602001909291905050508760026004811062000d0857fe5b60200201516040516020018085805190602001908083835b6020831062000d45578051825260208201915060208101905060208303925062000d20565b6001836020036101000a03801982511681845116808217855250505050505090500184805190602001908083835b6020831062000d98578051825260208201915060208101905060208303925062000d73565b6001836020036101000a03801982511681845116808217855250505050505090500183815260200182805190602001908083835b6020831062000df1578051825260208201915060208101905060208303925062000dcc565b6001836020036101000a0380198251168184511680821785525050505050509050019450505050506040516020818303038152906040528051906020012062001b5060201b60201c565b8199505050505050505050509392505050565b60008062000e76731d3b2638a7cc9f2cb3d298a3da7a90b67e5506ed6200085760201b60201c565b111562000f2257731d3b2638a7cc9f2cb3d298a3da7a90b67e5506ed600160006101000a81548173ffffffffffffffffffffffffffffffffffffffff021916908373ffffffffffffffffffffffffffffffffffffffff16021790555062000f186040518060400160405280600b81526020017f6574685f6d61696e6e657400000000000000000000000000000000000000000081525062001b6c60201b60201c565b600190506200141a565b600062000f4973c03a2615d5efaf5f49f60b7bb6583eaec212fdf16200085760201b60201c565b111562000ff55773c03a2615d5efaf5f49f60b7bb6583eaec212fdf1600160006101000a81548173ffffffffffffffffffffffffffffffffffffffff021916908373ffffffffffffffffffffffffffffffffffffffff16021790555062000feb6040518060400160405280600c81526020017f6574685f726f707374656e33000000000000000000000000000000000000000081525062001b6c60201b60201c565b600190506200141a565b60006200101c73b7a07bcf2ba2f2703b24c0691b5278999c59ac7e6200085760201b60201c565b1115620010c85773b7a07bcf2ba2f2703b24c0691b5278999c59ac7e600160006101000a81548173ffffffffffffffffffffffffffffffffffffffff021916908373ffffffffffffffffffffffffffffffffffffffff160217905550620010be6040518060400160405280600981526020017f6574685f6b6f76616e000000000000000000000000000000000000000000000081525062001b6c60201b60201c565b600190506200141a565b6000620010ef73146500cfd35b22e4a392fe0adc06de1a1368ed486200085760201b60201c565b11156200119b5773146500cfd35b22e4a392fe0adc06de1a1368ed48600160006101000a81548173ffffffffffffffffffffffffffffffffffffffff021916908373ffffffffffffffffffffffffffffffffffffffff160217905550620011916040518060400160405280600b81526020017f6574685f72696e6b65627900000000000000000000000000000000000000000081525062001b6c60201b60201c565b600190506200141a565b6000620011c273a2998efd205fb9d4b4963afb70778d6354ad3a416200085760201b60201c565b11156200126e5773a2998efd205fb9d4b4963afb70778d6354ad3a41600160006101000a81548173ffffffffffffffffffffffffffffffffffffffff021916908373ffffffffffffffffffffffffffffffffffffffff160217905550620012646040518060400160405280600a81526020017f6574685f676f65726c690000000000000000000000000000000000000000000081525062001b6c60201b60201c565b600190506200141a565b600062001295736f485c8bf6fc43ea212e93bbf8ce046c7f1cb4756200085760201b60201c565b1115620012fb57736f485c8bf6fc43ea212e93bbf8ce046c7f1cb475600160006101000a81548173ffffffffffffffffffffffffffffffffffffffff021916908373ffffffffffffffffffffffffffffffffffffffff160217905550600190506200141a565b6000620013227320e12a1f859b3feae5fb2a0a32c18f5a65555bbf6200085760201b60201c565b111562001388577320e12a1f859b3feae5fb2a0a32c18f5a65555bbf600160006101000a81548173ffffffffffffffffffffffffffffffffffffffff021916908373ffffffffffffffffffffffffffffffffffffffff160217905550600190506200141a565b6000620013af7351efaf4c8b3c9afbd5ab9f4bbc82784ab6ef8faa6200085760201b60201c565b111562001415577351efaf4c8b3c9afbd5ab9f4bbc82784ab6ef8faa600160006101000a81548173ffffffffffffffffffffffffffffffffffffffff021916908373ffffffffffffffffffffffffffffffffffffffff160217905550600190506200141a565b600090505b90565b60008073ffffffffffffffffffffffffffffffffffffffff16600160009054906101000a900473ffffffffffffffffffffffffffffffffffffffff1673ffffffffffffffffffffffffffffffffffffffff161480620014ae57506000620014ac600160009054906101000a900473ffffffffffffffffffffffffffffffffffffffff166200085760201b60201c565b145b15620014c857620014c660006200086260201b60201c565b505b600160009054906101000a900473ffffffffffffffffffffffffffffffffffffffff1673ffffffffffffffffffffffffffffffffffffffff166338cc48316040518163ffffffff1660e01b8152600401602060405180830381600087803b1580156200153357600080fd5b505af115801562001548573d6000803e3d6000fd5b505050506040513d60208110156200155f57600080fd5b810190808051906020019092919050505073ffffffffffffffffffffffffffffffffffffffff166000809054906101000a900473ffffffffffffffffffffffffffffffffffffffff1673ffffffffffffffffffffffffffffffffffffffff1614620016ac57600160009054906101000a900473ffffffffffffffffffffffffffffffffffffffff1673ffffffffffffffffffffffffffffffffffffffff166338cc48316040518163ffffffff1660e01b8152600401602060405180830381600087803b1580156200162f57600080fd5b505af115801562001644573d6000803e3d6000fd5b505050506040513d60208110156200165b57600080fd5b81019080805190602001909291905050506000806101000a81548173ffffffffffffffffffffffffffffffffffffffff021916908373ffffffffffffffffffffffffffffffffffffffff1602179055505b6000809054906101000a900473ffffffffffffffffffffffffffffffffffffffff1673ffffffffffffffffffffffffffffffffffffffff1663abaa5f3e6040518163ffffffff1660e01b815260040160206040518083038186803b1580156200171457600080fd5b505afa15801562001729573d6000803e3d6000fd5b505050506040513d60208110156200174057600080fd5b8101908080519060200190929190505050905090565b60606000828501905080845110156200176e57600080fd5b600086602001905060008460200190505b868860200101821015620017a957818901518082880152506020820191506020810190506200177f565b85935050505095945050505050565b60008073ffffffffffffffffffffffffffffffffffffffff16600160009054906101000a900473ffffffffffffffffffffffffffffffffffffffff1673ffffffffffffffffffffffffffffffffffffffff161480620018495750600062001847600160009054906101000a900473ffffffffffffffffffffffffffffffffffffffff166200085760201b60201c565b145b1562001863576200186160006200086260201b60201c565b505b600160009054906101000a900473ffffffffffffffffffffffffffffffffffffffff1673ffffffffffffffffffffffffffffffffffffffff166338cc48316040518163ffffffff1660e01b8152600401602060405180830381600087803b158015620018ce57600080fd5b505af1158015620018e3573d6000803e3d6000fd5b505050506040513d6020811015620018fa57600080fd5b810190808051906020019092919050505073ffffffffffffffffffffffffffffffffffffffff166000809054906101000a900473ffffffffffffffffffffffffffffffffffffffff1673ffffffffffffffffffffffffffffffffffffffff161462001a4757600160009054906101000a900473ffffffffffffffffffffffffffffffffffffffff1673ffffffffffffffffffffffffffffffffffffffff166338cc48316040518163ffffffff1660e01b8152600401602060405180830381600087803b158015620019ca57600080fd5b505af1158015620019df573d6000803e3d6000fd5b505050506040513d6020811015620019f657600080fd5b81019080805190602001909291905050506000806101000a81548173ffffffffffffffffffffffffffffffffffffffff021916908373ffffffffffffffffffffffffffffffffffffffff1602179055505b6060600460405190808252806020026020018201604052801562001a8057816020015b606081526020019060019003908162001a6a5790505b5090508360006004811062001a9157fe5b60200201518160008151811062001aa457fe5b60200260200101819052508360016004811062001abd57fe5b60200201518160018151811062001ad057fe5b60200260200101819052508360026004811062001ae957fe5b60200201518160028151811062001afc57fe5b60200260200101819052508360036004811062001b1557fe5b60200201518160038151811062001b2857fe5b602002602001018190525062001b4685828562001b8860201b60201c565b9150509392505050565b8060036000848152602001908152602001600020819055505050565b806002908051906020019062001b849291906200263c565b5050565b60008073ffffffffffffffffffffffffffffffffffffffff16600160009054906101000a900473ffffffffffffffffffffffffffffffffffffffff1673ffffffffffffffffffffffffffffffffffffffff16148062001c195750600062001c17600160009054906101000a900473ffffffffffffffffffffffffffffffffffffffff166200085760201b60201c565b145b1562001c335762001c3160006200086260201b60201c565b505b600160009054906101000a900473ffffffffffffffffffffffffffffffffffffffff1673ffffffffffffffffffffffffffffffffffffffff166338cc48316040518163ffffffff1660e01b8152600401602060405180830381600087803b15801562001c9e57600080fd5b505af115801562001cb3573d6000803e3d6000fd5b505050506040513d602081101562001cca57600080fd5b810190808051906020019092919050505073ffffffffffffffffffffffffffffffffffffffff166000809054906101000a900473ffffffffffffffffffffffffffffffffffffffff1673ffffffffffffffffffffffffffffffffffffffff161462001e1757600160009054906101000a900473ffffffffffffffffffffffffffffffffffffffff1673ffffffffffffffffffffffffffffffffffffffff166338cc48316040518163ffffffff1660e01b8152600401602060405180830381600087803b15801562001d9a57600080fd5b505af115801562001daf573d6000803e3d6000fd5b505050506040513d602081101562001dc657600080fd5b81019080805190602001909291905050506000806101000a81548173ffffffffffffffffffffffffffffffffffffffff021916908373ffffffffffffffffffffffffffffffffffffffff1602179055505b60008060009054906101000a900473ffffffffffffffffffffffffffffffffffffffff1673ffffffffffffffffffffffffffffffffffffffff16632ef3accc86856040518363ffffffff1660e01b81526004018080602001838152602001828103825284818151815260200191508051906020019080838360005b8381101562001eaf57808201518184015260208101905062001e92565b50505050905090810190601f16801562001edd5780820380516001836020036101000a031916815260200191505b509350505050602060405180830381600087803b15801562001efe57600080fd5b505af115801562001f13573d6000803e3d6000fd5b505050506040513d602081101562001f2a57600080fd5b81019080805190602001909291905050509050823a02670de0b6b3a76400000181111562001f5f576000801b91505062002115565b606062001f72856200211c60201b60201c565b90506000809054906101000a900473ffffffffffffffffffffffffffffffffffffffff1673ffffffffffffffffffffffffffffffffffffffff1663c55c1cb68360008985896040518663ffffffff1660e01b8152600401808581526020018060200180602001848152602001838103835286818151815260200191508051906020019080838360005b838110156200201857808201518184015260208101905062001ffb565b50505050905090810190601f168015620020465780820380516001836020036101000a031916815260200191505b50838103825285818151815260200191508051906020019080838360005b838110156200208157808201518184015260208101905062002064565b50505050905090810190601f168015620020af5780820380516001836020036101000a031916815260200191505b5096505050505050506020604051808303818588803b158015620020d257600080fd5b505af1158015620020e7573d6000803e3d6000fd5b50505050506040513d6020811015620020ff57600080fd5b8101908080519060200190929190505050925050505b9392505050565b60606200212e620021d760201b60201c565b62002138620026c3565b6200215181610400620021e360201b62003ef51760201c565b62002167816200223060201b62003f3f1760201c565b60008090505b8351811015620021b357620021a58482815181106200218857fe5b6020026020010151836200224660201b62003f4d1790919060201c565b80806001019150506200216d565b50620021ca816200227a60201b62003f721760201c565b8060000151915050919050565b60405180590338823950565b6000819050600060208281620021f557fe5b06146200221057602081816200220757fe5b06602003810190505b808360200181815250506040518084526000815281810160405250505050565b620022438160046200229060201b60201c565b50565b6200225b8260028351620022b860201b60201c565b6200227581836200244060201b620040e11790919060201c565b505050565b6200228d8160076200229060201b60201c565b50565b620022b4601f60058360ff16901b17836200250060201b6200418c1790919060201c565b5050565b60178111620022ed57620022e78160058460ff16901b60ff1617846200250060201b6200418c1790919060201c565b6200243b565b60ff81116200233e576200231a601860058460ff16901b17846200250060201b6200418c1790919060201c565b62002337816001856200254960201b620041cc179092919060201c565b506200243a565b61ffff811162002390576200236c601960058460ff16901b17846200250060201b6200418c1790919060201c565b62002389816002856200254960201b620041cc179092919060201c565b5062002439565b63ffffffff8111620023e457620023c0601a60058460ff16901b17846200250060201b6200418c1790919060201c565b620023dd816004856200254960201b620041cc179092919060201c565b5062002438565b67ffffffffffffffff8111620024375762002418601b60058460ff16901b17846200250060201b6200418c1790919060201c565b62002435816008856200254960201b620041cc179092919060201c565b505b5b5b5b5b505050565b6200244a620026c3565b826020015183600001515183510111156200248b576200248a8360026200247d86602001518651620025c360201b60201c565b02620025e160201b60201c565b5b60008060008451905085518051602081830101945086518101825260208701935050505b60208110620024d45781518352602083019250602082019150602081039050620024af565b60006001826020036101000a039050801983511681855116818117865250508694505050505092915050565b816020015160018360000151510111156200252f576200252e826002846020015102620025e160201b60201c565b5b815180516020818301018381536001820183525050505050565b62002553620026c3565b83602001518460000151518301111562002592576200259184600262002584876020015186620025c360201b60201c565b02620025e160201b60201c565b5b60006001836101000a0390508451805184818301018684198251161781528582018352505050849150509392505050565b600081831115620025d757829050620025db565b8190505b92915050565b606082600001519050620025fc8383620021e360201b60201c565b6200260e83826200244060201b60201c565b50505050565b60405180608001604052806004905b6060815260200190600190039081620026235790505090565b828054600181600116156101000203166002900490600052602060002090601f016020900481019282601f106200267f57805160ff1916838001178555620026b0565b82800160010185558215620026b0579182015b82811115620026af57825182559160200191906001019062002692565b5b509050620026bf9190620026dd565b5090565b604051806040016040528060608152602001600081525090565b6200270291905b80821115620026fe576000816000905550600101620026e4565b5090565b90565b61448d80620027156000396000f3fe6080604052600436106100915760003560e01c80637365870b116100595780637365870b14610457578063a2e6204514610485578063a95783b5146104a3578063b93dab0b14610508578063f6b4dfb41461053357610091565b806322af00fa1461009657806327dc297e1461013c57806327e235e31461020e57806338bbfa50146102735780634eb393c6146103dc575b600080fd5b3480156100a257600080fd5b506100cf600480360360208110156100b957600080fd5b810190808035906020019092919050505061058a565b604051808781526020018673ffffffffffffffffffffffffffffffffffffffff1673ffffffffffffffffffffffffffffffffffffffff1681526020018581526020018481526020018315151515815260200182151515158152602001965050505050505060405180910390f35b34801561014857600080fd5b5061020c6004803603604081101561015f57600080fd5b81019080803590602001909291908035906020019064010000000081111561018657600080fd5b82018360208201111561019857600080fd5b803590602001918460018302840111640100000000831117156101ba57600080fd5b91908080601f016020809104026020016040519081016040528093929190818152602001838380828437600081840152601f19601f82011690508083019250505050505050919291929050505061060d565b005b34801561021a57600080fd5b5061025d6004803603602081101561023157600080fd5b81019080803573ffffffffffffffffffffffffffffffffffffffff169060200190929190505050610650565b6040518082815260200191505060405180910390f35b34801561027f57600080fd5b506103da6004803603606081101561029657600080fd5b8101908080359060200190929190803590602001906401000000008111156102bd57600080fd5b8201836020820111156102cf57600080fd5b803590602001918460018302840111640100000000831117156102f157600080fd5b91908080601f016020809104026020016040519081016040528093929190818152602001838380828437600081840152601f19601f8201169050808301925050505050505091929192908035906020019064010000000081111561035457600080fd5b82018360208201111561036657600080fd5b8035906020019184600183028401116401000000008311171561038857600080fd5b91908080601f016020809104026020016040519081016040528093929190818152602001838380828437600081840152601f19601f820116905080830192505050505050509192919290505050610668565b005b3480156103e857600080fd5b50610415600480360360208110156103ff57600080fd5b8101908080359060200190929190505050610b8c565b604051808273ffffffffffffffffffffffffffffffffffffffff1673ffffffffffffffffffffffffffffffffffffffff16815260200191505060405180910390f35b6104836004803603602081101561046d57600080fd5b8101908080359060200190929190505050610bbf565b005b61048d6111a0565b6040518082815260200191505060405180910390f35b3480156104af57600080fd5b506104f2600480360360208110156104c657600080fd5b81019080803573ffffffffffffffffffffffffffffffffffffffff169060200190929190505050611213565b6040518082815260200191505060405180910390f35b34801561051457600080fd5b5061051d61122b565b6040518082815260200191505060405180910390f35b34801561053f57600080fd5b50610548611238565b604051808273ffffffffffffffffffffffffffffffffffffffff1673ffffffffffffffffffffffffffffffffffffffff16815260200191505060405180910390f35b6007818154811061059757fe5b90600052602060002090600502016000915090508060000154908060010160009054906101000a900473ffffffffffffffffffffffffffffffffffffffff16908060020154908060030154908060040160009054906101000a900460ff16908060040160019054906101000a900460ff16905086565b61064c828260006040519080825280601f01601f1916602001820160405280156106465781602001600182028038833980820191505090505b50610668565b5050565b60086020528060005260406000206000915090505481565b61067061125e565b73ffffffffffffffffffffffffffffffffffffffff163373ffffffffffffffffffffffffffffffffffffffff16146106a757600080fd5b60006106b484848461157b565b60ff1614610714577f81816b50aae098d98a0f7930cfef379261913e37ed33759052b5eff95fbb8d5f83604051808281526020018060200182810382526021815260200180614380602191396040019250505060405180910390a1610b87565b60006001806101000a039050600081846040516020018082805190602001908083835b6020831061075a5780518252602082019150602081019050602083039250610737565b6001836020036101000a0380198251168184511680821785525050505050509050019150506040516020818303038152906040528051906020012060001c8161079f57fe5b06905060008090505b600780549050811015610b83576000600782815481106107c457fe5b906000526020600020906005020190508681600001541480156107fc5750600115158160040160019054906101000a900460ff161515145b15610b755760008160040160016101000a81548160ff021916908315150217905550608083116108e35760008160040160006101000a81548160ff0219169083151502179055508060010160009054906101000a900473ffffffffffffffffffffffffffffffffffffffff1673ffffffffffffffffffffffffffffffffffffffff167f0948ef2cfa8c16c7422087516e87bcd3f20c04fe0409205ee89a8b70a1059e918883600201548460040160009054906101000a900460ff166040518084815260200183815260200182151515158152602001935050505060405180910390a2610b74565b60818310610b735760018160040160006101000a81548160ff0219169083151502179055506000610922600283600301546116ab90919063ffffffff16565b90506109988160086000600560009054906101000a900473ffffffffffffffffffffffffffffffffffffffff1673ffffffffffffffffffffffffffffffffffffffff1673ffffffffffffffffffffffffffffffffffffffff1681526020019081526020016000205461173190919063ffffffff16565b60086000600560009054906101000a900473ffffffffffffffffffffffffffffffffffffffff1673ffffffffffffffffffffffffffffffffffffffff1673ffffffffffffffffffffffffffffffffffffffff16815260200190815260200160002081905550610a7381600860008560010160009054906101000a900473ffffffffffffffffffffffffffffffffffffffff1673ffffffffffffffffffffffffffffffffffffffff1673ffffffffffffffffffffffffffffffffffffffff1681526020019081526020016000205461177b90919063ffffffff16565b600860008460010160009054906101000a900473ffffffffffffffffffffffffffffffffffffffff1673ffffffffffffffffffffffffffffffffffffffff1673ffffffffffffffffffffffffffffffffffffffff168152602001908152602001600020819055508160010160009054906101000a900473ffffffffffffffffffffffffffffffffffffffff1673ffffffffffffffffffffffffffffffffffffffff167f0948ef2cfa8c16c7422087516e87bcd3f20c04fe0409205ee89a8b70a1059e9189838560040160009054906101000a900460ff166040518084815260200183815260200182151515158152602001935050505060405180910390a2505b5b5b5080806001019150506107a8565b5050505b505050565b60096020528060005260406000206000915054906101000a900473ffffffffffffffffffffffffffffffffffffffff1681565b662386f26fc1000080341015610c20576040517f08c379a00000000000000000000000000000000000000000000000000000000081526004018080602001828103825260278152602001806143596027913960400191505060405180910390fd5b674563918244f40000341115610c81576040517f08c379a00000000000000000000000000000000000000000000000000000000081526004018080602001828103825260218152602001806143c26021913960400191505060405180910390fd5b813373ffffffffffffffffffffffffffffffffffffffff16311015610ca557600080fd5b610cba6006548361177b90919063ffffffff16565b60086000600560009054906101000a900473ffffffffffffffffffffffffffffffffffffffff1673ffffffffffffffffffffffffffffffffffffffff1673ffffffffffffffffffffffffffffffffffffffff168152602001908152602001600020541015610d2757600080fd5b60086000600560009054906101000a900473ffffffffffffffffffffffffffffffffffffffff1673ffffffffffffffffffffffffffffffffffffffff1673ffffffffffffffffffffffffffffffffffffffff1681526020019081526020016000205460065410610d9657600080fd5b6000610dad6006548461173190919063ffffffff16565b9050610e238160086000600560009054906101000a900473ffffffffffffffffffffffffffffffffffffffff1673ffffffffffffffffffffffffffffffffffffffff1673ffffffffffffffffffffffffffffffffffffffff1681526020019081526020016000205461177b90919063ffffffff16565b60086000600560009054906101000a900473ffffffffffffffffffffffffffffffffffffffff1673ffffffffffffffffffffffffffffffffffffffff1673ffffffffffffffffffffffffffffffffffffffff168152602001908152602001600020819055506000610e926111a0565b90506000600160076040518060c001604052808581526020013373ffffffffffffffffffffffffffffffffffffffff16815260200188815260200186815260200160001515815260200160011515815250908060018154018082558091505090600182039060005260206000209060050201600090919290919091506000820151816000015560208201518160010160006101000a81548173ffffffffffffffffffffffffffffffffffffffff021916908373ffffffffffffffffffffffffffffffffffffffff160217905550604082015181600201556060820151816003015560808201518160040160006101000a81548160ff02191690831515021790555060a08201518160040160016101000a81548160ff0219169083151502179055505050039050336009600083815260200190815260200160002060006101000a81548173ffffffffffffffffffffffffffffffffffffffff021916908373ffffffffffffffffffffffffffffffffffffffff16021790555061105d6001600a60003373ffffffffffffffffffffffffffffffffffffffff1673ffffffffffffffffffffffffffffffffffffffff1681526020019081526020016000205461177b90919063ffffffff16565b600a60003373ffffffffffffffffffffffffffffffffffffffff1673ffffffffffffffffffffffffffffffffffffffff168152602001908152602001600020819055503373ffffffffffffffffffffffffffffffffffffffff167fcd5f79909b53eb4c55b0a2d7004914519bad1e3ade1b3dae6005d528d83da31e8385604051808381526020018281526020019250505060405180910390a2600560009054906101000a900473ffffffffffffffffffffffffffffffffffffffff1673ffffffffffffffffffffffffffffffffffffffff163160086000600560009054906101000a900473ffffffffffffffffffffffffffffffffffffffff1673ffffffffffffffffffffffffffffffffffffffff1673ffffffffffffffffffffffffffffffffffffffff168152602001908152602001600020541461119957fe5b5050505050565b60008060009050600062030d40905060006111bd83600184611803565b90507fc4dc360d0a9c0677a3379ae0a3d81e887f761e65fdf3d7e00859d1bcd3c473896040518080602001828103825260368152602001806144236036913960400191505060405180910390a180935050505090565b600a6020528060005260406000206000915090505481565b6000600780549050905090565b600560009054906101000a900473ffffffffffffffffffffffffffffffffffffffff1681565b60008073ffffffffffffffffffffffffffffffffffffffff16600160009054906101000a900473ffffffffffffffffffffffffffffffffffffffff1673ffffffffffffffffffffffffffffffffffffffff1614806112e6575060006112e4600160009054906101000a900473ffffffffffffffffffffffffffffffffffffffff16611d9e565b145b156112f7576112f56000611da9565b505b600160009054906101000a900473ffffffffffffffffffffffffffffffffffffffff1673ffffffffffffffffffffffffffffffffffffffff166338cc48316040518163ffffffff1660e01b8152600401602060405180830381600087803b15801561136157600080fd5b505af1158015611375573d6000803e3d6000fd5b505050506040513d602081101561138b57600080fd5b810190808051906020019092919050505073ffffffffffffffffffffffffffffffffffffffff166000809054906101000a900473ffffffffffffffffffffffffffffffffffffffff1673ffffffffffffffffffffffffffffffffffffffff16146114d457600160009054906101000a900473ffffffffffffffffffffffffffffffffffffffff1673ffffffffffffffffffffffffffffffffffffffff166338cc48316040518163ffffffff1660e01b8152600401602060405180830381600087803b15801561145957600080fd5b505af115801561146d573d6000803e3d6000fd5b505050506040513d602081101561148357600080fd5b81019080805190602001909291905050506000806101000a81548173ffffffffffffffffffffffffffffffffffffffff021916908373ffffffffffffffffffffffffffffffffffffffff1602179055505b6000809054906101000a900473ffffffffffffffffffffffffffffffffffffffff1673ffffffffffffffffffffffffffffffffffffffff1663c281d19e6040518163ffffffff1660e01b815260040160206040518083038186803b15801561153b57600080fd5b505afa15801561154f573d6000803e3d6000fd5b505050506040513d602081101561156557600080fd5b8101908080519060200190929190505050905090565b60007f4c00000000000000000000000000000000000000000000000000000000000000826000815181106115ab57fe5b602001015160f81c60f81b7effffffffffffffffffffffffffffffffffffffffffffffffffffffffffffff191614158061163e57507f50000000000000000000000000000000000000000000000000000000000000008260018151811061160e57fe5b602001015160f81c60f81b7effffffffffffffffffffffffffffffffffffffffffffffffffffffffffffff191614155b8061166a5750600160ff168260028151811061165657fe5b602001015160f81c60f81b60f81c60ff1614155b1561167857600190506116a4565b600061168d838686611688611dba565b611e5c565b90508061169e5760029150506116a4565b60009150505b9392505050565b6000808314156116be576000905061172b565b60008284029050828482816116cf57fe5b0414611726576040517f08c379a00000000000000000000000000000000000000000000000000000000081526004018080602001828103825260218152602001806143a16021913960400191505060405180910390fd5b809150505b92915050565b600061177383836040518060400160405280601e81526020017f536166654d6174683a207375627472616374696f6e206f766572666c6f770000815250612507565b905092915050565b6000808284019050838110156117f9576040517f08c379a000000000000000000000000000000000000000000000000000000000815260040180806020018281038252601b8152602001807f536166654d6174683a206164646974696f6e206f766572666c6f77000000000081525060200191505060405180910390fd5b8091505092915050565b60008083118015611815575060208311155b61181e57600080fd5b600a84029350606060016040519080825280601f01601f19166020018201604052801561185a5781602001600182028038833980820191505090505b5090508360f81b8160008151811061186e57fe5b60200101907effffffffffffffffffffffffffffffffffffffffffffffffffffffffffffff1916908160001a905350606060206040519080825280601f01601f1916602001820160405280156118d35781602001600182028038833980820191505090505b509050606060206040519080825280601f01601f19166020018201604052801561190c5781602001600182028038833980820191505090505b50905060006119196125c7565b905060208352424118600143034018602084015260208252806020830152606060206040519080825280601f01601f19166020018201604052801561196d5781602001600182028038833980820191505090505b509050886020820152606060086040519080825280601f01601f1916602001820160405280156119ac5781602001600182028038833980820191505090505b5090506119bf82601860088460006128e4565b506119c8614272565b60405180608001604052808781526020018881526020018681526020018481525090506000611a2d6040518060400160405280600681526020017f72616e646f6d0000000000000000000000000000000000000000000000000000815250838c612943565b9050606060086040519080825280601f01601f191660200182016040528015611a655781602001600182028038833980820191505090505b50905060208401517f0100000000000000000000000000000000000000000000000000000000000000810460278301537e01000000000000000000000000000000000000000000000000000000000000810460268301537d010000000000000000000000000000000000000000000000000000000000810460258301537c0100000000000000000000000000000000000000000000000000000000810460248301537b01000000000000000000000000000000000000000000000000000000810460238301537a010000000000000000000000000000000000000000000000000000810460228301537901000000000000000000000000000000000000000000000000008104602183015378010000000000000000000000000000000000000000000000008104602083015350611d8b828285600160048110611ba457fe5b6020020151600287600060048110611bb857fe5b60200201516040518082805190602001908083835b60208310611bf05780518252602082019150602081019050602083039250611bcd565b6001836020036101000a038019825116818451168082178552505050505050905001915050602060405180830381855afa158015611c32573d6000803e3d6000fd5b5050506040513d6020811015611c4757600080fd5b810190808051906020019092919050505087600260048110611c6557fe5b60200201516040516020018085805190602001908083835b60208310611ca05780518252602082019150602081019050602083039250611c7d565b6001836020036101000a03801982511681845116808217855250505050505090500184805190602001908083835b60208310611cf15780518252602082019150602081019050602083039250611cce565b6001836020036101000a03801982511681845116808217855250505050505090500183815260200182805190602001908083835b60208310611d485780518252602082019150602081019050602083039250611d25565b6001836020036101000a03801982511681845116808217855250505050505090500194505050505060405160208183030381529060405280519060200120612cb0565b8199505050505050505050509392505050565b6000813b9050919050565b6000611db3612ccc565b9050919050565b606060028054600181600116156101000203166002900480601f016020809104026020016040519081016040528092919081815260200182805460018160011615610100020316600290048015611e525780601f10611e2757610100808354040283529160200191611e52565b820191906000526020600020905b815481529060010190602001808311611e3557829003601f168201915b5050505050905090565b6000806020600287604581518110611e7057fe5b602001015160f81c60f81b60f81c60ff1601604401019050606060206040519080825280601f01601f191660200182016040528015611ebe5781602001600182028038833980820191505090505b509050611ed0878360208460006128e4565b50600284876040516020018083805190602001908083835b60208310611f0b5780518252602082019150602081019050602083039250611ee8565b6001836020036101000a038019825116818451168082178552505050505050905001828152602001925050506040516020818303038152906040526040518082805190602001908083835b60208310611f795780518252602082019150602081019050602083039250611f56565b6001836020036101000a038019825116818451168082178552505050505050905001915050602060405180830381855afa158015611fbb573d6000803e3d6000fd5b5050506040513d6020811015611fd057600080fd5b8101908080519060200190929190505050604051602001808281526020019150506040516020818303038152906040528051906020012081805190602001201461201f576000925050506124ff565b6060600288600160498601018151811061203557fe5b602001015160f81c60f81b60f81c60ff16016040519080825280601f01601f1916602001820160405280156120795781602001600182028038833980820191505090505b50905061208e886049850183518460006128e4565b506121596002826040518082805190602001908083835b602083106120c857805182526020820191506020810190506020830392506120a5565b6001836020036101000a038019825116818451168082178552505050505050905001915050602060405180830381855afa15801561210a573d6000803e3d6000fd5b5050506040513d602081101561211f57600080fd5b8101908080519060200190929190505050878a600860208801018151811061214357fe5b602001015160f81c60f81b60f81c60ff16613223565b61216957600093505050506124ff565b606060296040519080825280601f01601f19166020018201604052801561219f5781602001600182028038833980820191505090505b5090506121b4896020860160298460006128e4565b506060604080519080825280601f01601f1916602001820160405280156121ea5781602001600182028038833980820191505090505b50905060006041845160296020890101010190506122108b6040830360408560006128e4565b5060006002836040518082805190602001908083835b602083106122495780518252602082019150602081019050602083039250612226565b6001836020036101000a038019825116818451168082178552505050505050905001915050602060405180830381855afa15801561228b573d6000803e3d6000fd5b5050506040513d60208110156122a057600080fd5b8101908080519060200190929190505050905083816040516020018083805190602001908083835b602083106122eb57805182526020820191506020810190506020830392506122c8565b6001836020036101000a0380198251168184511680821785525050505050509050018281526020019250505060405160208183030381529060405280519060200120600360008d815260200190815260200160002054141561236357600360008c815260200190815260200160002060009055612373565b60009750505050505050506124ff565b606060496040519080825280601f01601f1916602001820160405280156123a95781602001600182028038833980820191505090505b5090506123bb8d8960498460006128e4565b506124646002826040518082805190602001908083835b602083106123f557805182526020820191506020810190506020830392506123d2565b6001836020036101000a038019825116818451168082178552505050505050905001915050602060405180830381855afa158015612437573d6000803e3d6000fd5b5050506040513d602081101561244c57600080fd5b810190808051906020019092919050505087866132d3565b612479576000985050505050505050506124ff565b6004600083815260200190815260200160002060009054906101000a900460ff166124d3576124a88d84613491565b6004600084815260200190815260200160002060006101000a81548160ff0219169083151502179055505b6004600083815260200190815260200160002060009054906101000a900460ff16985050505050505050505b949350505050565b60008383111582906125b4576040517f08c379a00000000000000000000000000000000000000000000000000000000081526004018080602001828103825283818151815260200191508051906020019080838360005b8381101561257957808201518184015260208101905061255e565b50505050905090810190601f1680156125a65780820380516001836020036101000a031916815260200191505b509250505060405180910390fd5b5060008385039050809150509392505050565b60008073ffffffffffffffffffffffffffffffffffffffff16600160009054906101000a900473ffffffffffffffffffffffffffffffffffffffff1673ffffffffffffffffffffffffffffffffffffffff16148061264f5750600061264d600160009054906101000a900473ffffffffffffffffffffffffffffffffffffffff16611d9e565b145b156126605761265e6000611da9565b505b600160009054906101000a900473ffffffffffffffffffffffffffffffffffffffff1673ffffffffffffffffffffffffffffffffffffffff166338cc48316040518163ffffffff1660e01b8152600401602060405180830381600087803b1580156126ca57600080fd5b505af11580156126de573d6000803e3d6000fd5b505050506040513d60208110156126f457600080fd5b810190808051906020019092919050505073ffffffffffffffffffffffffffffffffffffffff166000809054906101000a900473ffffffffffffffffffffffffffffffffffffffff1673ffffffffffffffffffffffffffffffffffffffff161461283d57600160009054906101000a900473ffffffffffffffffffffffffffffffffffffffff1673ffffffffffffffffffffffffffffffffffffffff166338cc48316040518163ffffffff1660e01b8152600401602060405180830381600087803b1580156127c257600080fd5b505af11580156127d6573d6000803e3d6000fd5b505050506040513d60208110156127ec57600080fd5b81019080805190602001909291905050506000806101000a81548173ffffffffffffffffffffffffffffffffffffffff021916908373ffffffffffffffffffffffffffffffffffffffff1602179055505b6000809054906101000a900473ffffffffffffffffffffffffffffffffffffffff1673ffffffffffffffffffffffffffffffffffffffff1663abaa5f3e6040518163ffffffff1660e01b815260040160206040518083038186803b1580156128a457600080fd5b505afa1580156128b8573d6000803e3d6000fd5b505050506040513d60208110156128ce57600080fd5b8101908080519060200190929190505050905090565b60606000828501905080845110156128fb57600080fd5b600086602001905060008460200190505b868860200101821015612934578189015180828801525060208201915060208101905061290c565b85935050505095945050505050565b60008073ffffffffffffffffffffffffffffffffffffffff16600160009054906101000a900473ffffffffffffffffffffffffffffffffffffffff1673ffffffffffffffffffffffffffffffffffffffff1614806129cb575060006129c9600160009054906101000a900473ffffffffffffffffffffffffffffffffffffffff16611d9e565b145b156129dc576129da6000611da9565b505b600160009054906101000a900473ffffffffffffffffffffffffffffffffffffffff1673ffffffffffffffffffffffffffffffffffffffff166338cc48316040518163ffffffff1660e01b8152600401602060405180830381600087803b158015612a4657600080fd5b505af1158015612a5a573d6000803e3d6000fd5b505050506040513d6020811015612a7057600080fd5b810190808051906020019092919050505073ffffffffffffffffffffffffffffffffffffffff166000809054906101000a900473ffffffffffffffffffffffffffffffffffffffff1673ffffffffffffffffffffffffffffffffffffffff1614612bb957600160009054906101000a900473ffffffffffffffffffffffffffffffffffffffff1673ffffffffffffffffffffffffffffffffffffffff166338cc48316040518163ffffffff1660e01b8152600401602060405180830381600087803b158015612b3e57600080fd5b505af1158015612b52573d6000803e3d6000fd5b505050506040513d6020811015612b6857600080fd5b81019080805190602001909291905050506000806101000a81548173ffffffffffffffffffffffffffffffffffffffff021916908373ffffffffffffffffffffffffffffffffffffffff1602179055505b60606004604051908082528060200260200182016040528015612bf057816020015b6060815260200190600190039081612bdb5790505b50905083600060048110612c0057fe5b602002015181600081518110612c1257fe5b602002602001018190525083600160048110612c2a57fe5b602002015181600181518110612c3c57fe5b602002602001018190525083600260048110612c5457fe5b602002015181600281518110612c6657fe5b602002602001018190525083600360048110612c7e57fe5b602002015181600381518110612c9057fe5b6020026020010181905250612ca68582856138a9565b9150509392505050565b8060036000848152602001908152602001600020819055505050565b600080612cec731d3b2638a7cc9f2cb3d298a3da7a90b67e5506ed611d9e565b1115612d8e57731d3b2638a7cc9f2cb3d298a3da7a90b67e5506ed600160006101000a81548173ffffffffffffffffffffffffffffffffffffffff021916908373ffffffffffffffffffffffffffffffffffffffff160217905550612d856040518060400160405280600b81526020017f6574685f6d61696e6e6574000000000000000000000000000000000000000000815250613e0b565b60019050613220565b6000612dad73c03a2615d5efaf5f49f60b7bb6583eaec212fdf1611d9e565b1115612e4f5773c03a2615d5efaf5f49f60b7bb6583eaec212fdf1600160006101000a81548173ffffffffffffffffffffffffffffffffffffffff021916908373ffffffffffffffffffffffffffffffffffffffff160217905550612e466040518060400160405280600c81526020017f6574685f726f707374656e330000000000000000000000000000000000000000815250613e0b565b60019050613220565b6000612e6e73b7a07bcf2ba2f2703b24c0691b5278999c59ac7e611d9e565b1115612f105773b7a07bcf2ba2f2703b24c0691b5278999c59ac7e600160006101000a81548173ffffffffffffffffffffffffffffffffffffffff021916908373ffffffffffffffffffffffffffffffffffffffff160217905550612f076040518060400160405280600981526020017f6574685f6b6f76616e0000000000000000000000000000000000000000000000815250613e0b565b60019050613220565b6000612f2f73146500cfd35b22e4a392fe0adc06de1a1368ed48611d9e565b1115612fd15773146500cfd35b22e4a392fe0adc06de1a1368ed48600160006101000a81548173ffffffffffffffffffffffffffffffffffffffff021916908373ffffffffffffffffffffffffffffffffffffffff160217905550612fc86040518060400160405280600b81526020017f6574685f72696e6b656279000000000000000000000000000000000000000000815250613e0b565b60019050613220565b6000612ff073a2998efd205fb9d4b4963afb70778d6354ad3a41611d9e565b11156130925773a2998efd205fb9d4b4963afb70778d6354ad3a41600160006101000a81548173ffffffffffffffffffffffffffffffffffffffff021916908373ffffffffffffffffffffffffffffffffffffffff1602179055506130896040518060400160405280600a81526020017f6574685f676f65726c6900000000000000000000000000000000000000000000815250613e0b565b60019050613220565b60006130b1736f485c8bf6fc43ea212e93bbf8ce046c7f1cb475611d9e565b111561311557736f485c8bf6fc43ea212e93bbf8ce046c7f1cb475600160006101000a81548173ffffffffffffffffffffffffffffffffffffffff021916908373ffffffffffffffffffffffffffffffffffffffff16021790555060019050613220565b60006131347320e12a1f859b3feae5fb2a0a32c18f5a65555bbf611d9e565b1115613198577320e12a1f859b3feae5fb2a0a32c18f5a65555bbf600160006101000a81548173ffffffffffffffffffffffffffffffffffffffff021916908373ffffffffffffffffffffffffffffffffffffffff16021790555060019050613220565b60006131b77351efaf4c8b3c9afbd5ab9f4bbc82784ab6ef8faa611d9e565b111561321b577351efaf4c8b3c9afbd5ab9f4bbc82784ab6ef8faa600160006101000a81548173ffffffffffffffffffffffffffffffffffffffff021916908373ffffffffffffffffffffffffffffffffffffffff16021790555060019050613220565b600090505b90565b600080600190508284511461323757600080fd5b60008090505b838110156132c75784818151811061325157fe5b602001015160f81c60f81b7effffffffffffffffffffffffffffffffffffffffffffffffffffffffffffff191686826020811061328a57fe5b1a60f81b7effffffffffffffffffffffffffffffffffffffffffffffffffffffffffffff1916146132ba57600091505b808060010191505061323d565b50809150509392505050565b6000806000806000606060206040519080825280601f01601f1916602001820160405280156133115781602001600182028038833980820191505090505b509050600060208960038151811061332557fe5b602001015160f81c60f81b60f81c60ff1603600401905061334b898260208560006128e4565b9150606060206040519080825280601f01601f1916602001820160405280156133835781602001600182028038833980820191505090505b5090506022820191506133bf8a60208c60018603815181106133a157fe5b602001015160f81c60f81b60f81c60ff1603840160208460006128e4565b905060208301519450602081015193506133dc8b601b8787613e25565b80975081985050508573ffffffffffffffffffffffffffffffffffffffff16898051906020012060001c73ffffffffffffffffffffffffffffffffffffffff16141561343257600197505050505050505061348a565b61343f8b601c8787613e25565b80975081985050508573ffffffffffffffffffffffffffffffffffffffff16898051906020012060001c73ffffffffffffffffffffffffffffffffffffffff16149750505050505050505b9392505050565b600080606060028560018601815181106134a757fe5b602001015160f81c60f81b60f81c60ff16016040519080825280601f01601f1916602001820160405280156134eb5781602001600182028038833980820191505090505b5090506134fd858583518460006128e4565b506060604080519080825280601f01601f1916602001820160405280156135335781602001600182028038833980820191505090505b50905061354686600460408460006128e4565b50606060626040519080825280601f01601f19166020018201604052801561357d5781602001600182028038833980820191505090505b509050600160f81b8160008151811061359257fe5b60200101907effffffffffffffffffffffffffffffffffffffffffffffffffffffffffffff1916908160001a9053506135d3876041880360418460016128e4565b5060606040518060400160405280602081526020017ffd94fa71bc0ba10d39d464d0d8f465efeef0a2764e3887fcc9df41ded20f505c815250905061361e81600060208560426128e4565b506136c76002836040518082805190602001908083835b602083106136585780518252602082019150602081019050602083039250613635565b6001836020036101000a038019825116818451168082178552505050505050905001915050602060405180830381855afa15801561369a573d6000803e3d6000fd5b5050506040513d60208110156136af57600080fd5b810190808051906020019092919050505085856132d3565b9450846136dc576000955050505050506138a3565b60606040518060600160405280604081526020016143e3604091399050606060426040519080825280601f01601f19166020018201604052801561372f5781602001600182028038833980820191505090505b50905060fe60f81b8160008151811061374457fe5b60200101907effffffffffffffffffffffffffffffffffffffffffffffffffffffffffffff1916908160001a9053506137838a600360418460016128e4565b50606060028b60458151811061379557fe5b602001015160f81c60f81b60f81c60ff16016040519080825280601f01601f1916602001820160405280156137d95781602001600182028038833980820191505090505b5090506137ec8b604483518460006128e4565b506138956002836040518082805190602001908083835b602083106138265780518252602082019150602081019050602083039250613803565b6001836020036101000a038019825116818451168082178552505050505050905001915050602060405180830381855afa158015613868573d6000803e3d6000fd5b5050506040513d602081101561387d57600080fd5b810190808051906020019092919050505082856132d3565b975087985050505050505050505b92915050565b60008073ffffffffffffffffffffffffffffffffffffffff16600160009054906101000a900473ffffffffffffffffffffffffffffffffffffffff1673ffffffffffffffffffffffffffffffffffffffff1614806139315750600061392f600160009054906101000a900473ffffffffffffffffffffffffffffffffffffffff16611d9e565b145b15613942576139406000611da9565b505b600160009054906101000a900473ffffffffffffffffffffffffffffffffffffffff1673ffffffffffffffffffffffffffffffffffffffff166338cc48316040518163ffffffff1660e01b8152600401602060405180830381600087803b1580156139ac57600080fd5b505af11580156139c0573d6000803e3d6000fd5b505050506040513d60208110156139d657600080fd5b810190808051906020019092919050505073ffffffffffffffffffffffffffffffffffffffff166000809054906101000a900473ffffffffffffffffffffffffffffffffffffffff1673ffffffffffffffffffffffffffffffffffffffff1614613b1f57600160009054906101000a900473ffffffffffffffffffffffffffffffffffffffff1673ffffffffffffffffffffffffffffffffffffffff166338cc48316040518163ffffffff1660e01b8152600401602060405180830381600087803b158015613aa457600080fd5b505af1158015613ab8573d6000803e3d6000fd5b505050506040513d6020811015613ace57600080fd5b81019080805190602001909291905050506000806101000a81548173ffffffffffffffffffffffffffffffffffffffff021916908373ffffffffffffffffffffffffffffffffffffffff1602179055505b60008060009054906101000a900473ffffffffffffffffffffffffffffffffffffffff1673ffffffffffffffffffffffffffffffffffffffff16632ef3accc86856040518363ffffffff1660e01b81526004018080602001838152602001828103825284818151815260200191508051906020019080838360005b83811015613bb5578082015181840152602081019050613b9a565b50505050905090810190601f168015613be25780820380516001836020036101000a031916815260200191505b509350505050602060405180830381600087803b158015613c0257600080fd5b505af1158015613c16573d6000803e3d6000fd5b505050506040513d6020811015613c2c57600080fd5b81019080805190602001909291905050509050823a02670de0b6b3a764000001811115613c5f576000801b915050613e04565b6060613c6a85613e69565b90506000809054906101000a900473ffffffffffffffffffffffffffffffffffffffff1673ffffffffffffffffffffffffffffffffffffffff1663c55c1cb68360008985896040518663ffffffff1660e01b8152600401808581526020018060200180602001848152602001838103835286818151815260200191508051906020019080838360005b83811015613d0e578082015181840152602081019050613cf3565b50505050905090810190601f168015613d3b5780820380516001836020036101000a031916815260200191505b50838103825285818151815260200191508051906020019080838360005b83811015613d74578082015181840152602081019050613d59565b50505050905090810190601f168015613da15780820380516001836020036101000a031916815260200191505b5096505050505050506020604051808303818588803b158015613dc357600080fd5b505af1158015613dd7573d6000803e3d6000fd5b50505050506040513d6020811015613dee57600080fd5b8101908080519060200190929190505050925050505b9392505050565b8060029080519060200190613e21929190614299565b5050565b60008060008060405188815287602082015286604082015285606082015260208160808360006001610bb8f192508051915050818193509350505094509492505050565b6060613e73613ee9565b613e7b614319565b613e8781610400613ef5565b613e9081613f3f565b60008090505b8351811015613ed257613ec5848281518110613eae57fe5b602002602001015183613f4d90919063ffffffff16565b8080600101915050613e96565b50613edc81613f72565b8060000151915050919050565b60405180590338823950565b6000819050600060208281613f0657fe5b0614613f1f5760208181613f1657fe5b06602003810190505b808360200181815250506040518084526000815281810160405250505050565b613f4a816004613f80565b50565b613f5a8260028351613fa1565b613f6d81836140e190919063ffffffff16565b505050565b613f7d816007613f80565b50565b613f9d601f60058360ff16901b178361418c90919063ffffffff16565b5050565b60178111613fcd57613fc88160058460ff16901b60ff16178461418c90919063ffffffff16565b6140dc565b60ff811161400e57613ff2601860058460ff16901b178461418c90919063ffffffff16565b614008816001856141cc9092919063ffffffff16565b506140db565b61ffff811161405057614034601960058460ff16901b178461418c90919063ffffffff16565b61404a816002856141cc9092919063ffffffff16565b506140da565b63ffffffff811161409457614078601a60058460ff16901b178461418c90919063ffffffff16565b61408e816004856141cc9092919063ffffffff16565b506140d9565b67ffffffffffffffff81116140d8576140c0601b60058460ff16901b178461418c90919063ffffffff16565b6140d6816008856141cc9092919063ffffffff16565b505b5b5b5b5b505050565b6140e9614319565b826020015183600001515183510111156141195761411883600261411286602001518651614233565b0261424f565b5b60008060008451905085518051602081830101945086518101825260208701935050505b60208110614160578151835260208301925060208201915060208103905061413d565b60006001826020036101000a039050801983511681855116818117865250508694505050505092915050565b816020015160018360000151510111156141b2576141b182600284602001510261424f565b5b815180516020818301018381536001820183525050505050565b6141d4614319565b836020015184600001515183011115614202576142018460026141fb876020015186614233565b0261424f565b5b60006001836101000a0390508451805184818301018684198251161781528582018352505050849150509392505050565b60008183111561424557829050614249565b8190505b92915050565b6060826000015190506142628383613ef5565b61426c83826140e1565b50505050565b60405180608001604052806004905b60608152602001906001900390816142815790505090565b828054600181600116156101000203166002900490600052602060002090601f016020900481019282601f106142da57805160ff1916838001178555614308565b82800160010185558215614308579182015b828111156143075782518255916020019190600101906142ec565b5b5090506143159190614333565b5090565b604051806040016040528060608152602001600081525090565b61435591905b80821115614351576000816000905550600101614339565b5090565b9056fe596f75206d7573742073656e642074686520726571756972656420636f7374206f72206d6f7265546865206265742077617320756e61626c6520746f206265207665726966696564536166654d6174683a206d756c7469706c69636174696f6e206f766572666c6f77596f752063616e2774207761676572206d6f7265207468616e20352065746865727fb956469c5c9b89840d55b43537e66a98dd4811ea0a27224272c2e5622911e8537a2f8e86a46baec82864e98dd01e9ccc2f8bc5dfc9cbe5a91a290498dd96e450726f7661626c65207175657279207761732073656e742c207374616e64696e6720627920666f722074686520616e737765722e2e2ea265627a7a7231582014a374ce1b0966c7b0947d52a436b86cba8a4d897e1692c6154f17880f7f3b6d64736f6c634300050c003250726f7661626c65207175657279207761732073656e742c207374616e64696e6720627920666f722074686520616e737765722e2e2e",
  "source": "import \"./provableAPI.sol\";\nimport './usingModifiers.sol';\nimport './SafeMath.sol';\n\n\npragma solidity 0.5.12;\n\ncontract Betting is usingModifiers, usingProvable  {\n\n    using SafeMath for uint256;\n\n    constructor() public {\n        provable_setProof(proofType_Ledger);\n        update();\n    }\n\n    address public contractAddress = address(this);\n\n    uint QUERY_PRICE = provable_getPrice(\"Random\");\n    uint constant MAX_INT_FROM_BYTE = 256;\n    uint constant NUM_RANDOM_BYTES_REQUESTED = 1;\n\n    event LogNewProvableQuery(string description);\n    event BetPlaced(bytes32 queryId, address indexed player, uint amount);\n    event BetFailed(bytes32 queryId, string reason);\n    event BetComplete(bytes32 queryId, address indexed player, uint amount, bool betWon);\n\n    struct Bet {\n        bytes32 queryId;\n        address player;\n        uint betAmount;\n        uint calculatedBetAmount;\n        bool betWon;\n        bool isPending;\n    }\n\n    Bet[] public bets;\n\n    mapping (address => uint) public balances;\n    mapping (uint => address) public betToPlayer;\n    mapping (address => uint) public playerBetCount;\n\n    function getBetCount() public view returns (uint) {\n        return bets.length;\n    }\n\n    function bet(uint _amount) public payable costs(0.01 ether) setBettingLimit() {\n        require(msg.sender.balance >= _amount);\n        require(balances[contractAddress] >= _amount.add(QUERY_PRICE));\n        require(QUERY_PRICE < balances[contractAddress]);\n\n        uint _calculatedBet = _amount.sub(QUERY_PRICE);\n        balances[contractAddress] = balances[contractAddress].add(_calculatedBet);\n        bytes32 _queryId = update();\n        uint id = bets.push(Bet(_queryId, msg.sender, _amount, _calculatedBet, false, true)) - 1;\n        betToPlayer[id] = msg.sender;\n        playerBetCount[msg.sender] = playerBetCount[msg.sender].add(1);\n        emit BetPlaced(_queryId, msg.sender, _calculatedBet);\n        assert(balances[contractAddress] == contractAddress.balance);\n    }\n\n    function update() payable public returns (bytes32) {\n        uint QUERY_EXECUTION_DELAY = 0;\n        uint GAS_FOR_CALLBACK = 200000;\n        bytes32 queryId = provable_newRandomDSQuery(QUERY_EXECUTION_DELAY, NUM_RANDOM_BYTES_REQUESTED, GAS_FOR_CALLBACK);\n        emit LogNewProvableQuery(\"Provable query was sent, standing by for the answer...\");\n        return queryId;\n    }\n\n    function __callback(bytes32 _queryId, string memory _result, bytes memory _proof) public {\n        require(msg.sender == provable_cbAddress());\n\n        if (provable_randomDS_proofVerify__returnCode(_queryId, _result, _proof) != 0) {\n            emit BetFailed(_queryId, \"The bet was unable to be verified\");\n            return;\n        } else {\n            uint ceiling = (MAX_INT_FROM_BYTE ** NUM_RANDOM_BYTES_REQUESTED) - 1;\n            uint randomNumber = uint(keccak256(abi.encodePacked(_result))) % ceiling;\n\n            for (uint i = 0; i < bets.length; i++) {\n                Bet storage b = bets[i];\n\n                if (b.queryId == _queryId && b.isPending == true) {\n                    b.isPending = false;\n\n                    // Player lost\n                    if (randomNumber <= 128) {\n                        b.betWon = false;\n                        emit BetComplete(_queryId, b.player, b.betAmount, b.betWon);\n\n                    // Player Won\n                    } else if (randomNumber >= 129) {\n                        b.betWon = true;\n                        uint earnings = b.calculatedBetAmount.mul(2);\n                        balances[contractAddress] = balances[contractAddress].sub(earnings);\n                        balances[b.player] = balances[b.player].add(earnings);\n                        emit BetComplete(_queryId, b.player, earnings, b.betWon);\n                    }\n                }\n            }\n        }\n    }\n}\n",
  "sourcePath": "/Users/Sant/Desktop/code/projects/blockchain/ivanontechacademy/coinflip/contracts/Betting.sol",
  "compiler": {
    "name": "solc",
    "version": "0.5.12+commit.7709ece9.Emscripten.clang"
  },
  "schemaVersion": "3.0.19",
  "updatedAt": "2020-02-05T03:18:46.097Z",
  "devdoc": {
    "methods": {
      "__callback(bytes32,string)": {
        "details": "The following `__callback` functions are just placeholders ideally     meant to be defined in child contract when proofs are used.     The function bodies simply silence compiler warnings."
      }
    }
  },
  "userdoc": {
    "methods": {}
  }
}