{
  "contractName": "usingPseudoRandomNumber",
  "abi": [
    {
      "constant": true,
      "inputs": [],
      "name": "random",
      "outputs": [
        {
          "internalType": "uint256",
          "name": "",
          "type": "uint256"
        }
      ],
      "payable": false,
      "stateMutability": "view",
      "type": "function"
    }
  ],
  "bytecode": "0x6080604052348015600f57600080fd5b50608f8061001e6000396000f3fe6080604052348015600f57600080fd5b506004361060285760003560e01c80635ec01e4d14602d575b600080fd5b60336049565b6040518082815260200191505060405180910390f35b600060024281605457fe5b0690509056fea265627a7a7231582085e489c56ca2530a4574f6f54a516f2b480b5283f7b63ca4174f0d969d848c7b64736f6c63430005100032",
  "source": "pragma solidity >=0.4.21 <0.7.0;\n\ncontract usingPseudoRandomNumber {\n  function random() public view returns (uint) {\n    return now % 2;\n  }\n}\n",
  "sourcePath": "/Users/santdeleon/Desktop/code/projects/coinflip/contracts/usingPseudoRandomNumber.sol",
  "compiler": {
    "name": "solc",
    "version": "0.5.16+commit.9c3226ce.Emscripten.clang"
  },
  "schemaVersion": "3.4.1",
  "updatedAt": "2021-06-12T03:04:24.998Z",
  "devdoc": {
    "methods": {}
  },
  "userdoc": {
    "methods": {}
  }
}