{
  "contractName": "Betting",
  "abi": [
    {
      "inputs": [],
      "payable": false,
      "stateMutability": "nonpayable",
      "type": "constructor"
    },
    {
      "anonymous": false,
      "inputs": [
        {
          "indexed": false,
          "internalType": "bytes32",
          "name": "queryId",
          "type": "bytes32"
        },
        {
          "indexed": false,
          "internalType": "address",
          "name": "player",
          "type": "address"
        },
        {
          "indexed": false,
          "internalType": "uint256",
          "name": "amount",
          "type": "uint256"
        },
        {
          "indexed": false,
          "internalType": "bool",
          "name": "betWon",
          "type": "bool"
        }
      ],
      "name": "BetComplete",
      "type": "event"
    },
    {
      "anonymous": false,
      "inputs": [
        {
          "indexed": false,
          "internalType": "bytes32",
          "name": "queryId",
          "type": "bytes32"
        },
        {
          "indexed": false,
          "internalType": "string",
          "name": "reason",
          "type": "string"
        }
      ],
      "name": "BetFailed",
      "type": "event"
    },
    {
      "anonymous": false,
      "inputs": [
        {
          "indexed": false,
          "internalType": "bytes32",
          "name": "queryId",
          "type": "bytes32"
        },
        {
          "indexed": false,
          "internalType": "address",
          "name": "player",
          "type": "address"
        },
        {
          "indexed": false,
          "internalType": "uint256",
          "name": "amount",
          "type": "uint256"
        }
      ],
      "name": "BetPlaced",
      "type": "event"
    },
    {
      "anonymous": false,
      "inputs": [
        {
          "indexed": false,
          "internalType": "string",
          "name": "description",
          "type": "string"
        }
      ],
      "name": "LogNewProvableQuery",
      "type": "event"
    },
    {
      "constant": true,
      "inputs": [
        {
          "internalType": "uint256",
          "name": "",
          "type": "uint256"
        }
      ],
      "name": "betToPlayer",
      "outputs": [
        {
          "internalType": "address",
          "name": "",
          "type": "address"
        }
      ],
      "payable": false,
      "stateMutability": "view",
      "type": "function"
    },
    {
      "constant": true,
      "inputs": [
        {
          "internalType": "uint256",
          "name": "",
          "type": "uint256"
        }
      ],
      "name": "bets",
      "outputs": [
        {
          "internalType": "bytes32",
          "name": "queryId",
          "type": "bytes32"
        },
        {
          "internalType": "address payable",
          "name": "player",
          "type": "address"
        },
        {
          "internalType": "uint256",
          "name": "amount",
          "type": "uint256"
        },
        {
          "internalType": "bool",
          "name": "betWon",
          "type": "bool"
        },
        {
          "internalType": "bool",
          "name": "isPending",
          "type": "bool"
        }
      ],
      "payable": false,
      "stateMutability": "view",
      "type": "function"
    },
    {
      "constant": true,
      "inputs": [
        {
          "internalType": "address",
          "name": "",
          "type": "address"
        }
      ],
      "name": "playerBetCount",
      "outputs": [
        {
          "internalType": "uint256",
          "name": "",
          "type": "uint256"
        }
      ],
      "payable": false,
      "stateMutability": "view",
      "type": "function"
    },
    {
      "constant": false,
      "inputs": [
        {
          "internalType": "uint256",
          "name": "_amount",
          "type": "uint256"
        }
      ],
      "name": "bet",
      "outputs": [],
      "payable": true,
      "stateMutability": "payable",
      "type": "function"
    },
    {
      "constant": false,
      "inputs": [
        {
          "internalType": "bytes32",
          "name": "_myid",
          "type": "bytes32"
        },
        {
          "internalType": "string",
          "name": "_result",
          "type": "string"
        }
      ],
      "name": "__callback",
      "outputs": [],
      "payable": false,
      "stateMutability": "nonpayable",
      "type": "function"
    },
    {
      "constant": false,
      "inputs": [
        {
          "internalType": "bytes32",
          "name": "_queryId",
          "type": "bytes32"
        },
        {
          "internalType": "string",
          "name": "_result",
          "type": "string"
        },
        {
          "internalType": "bytes",
          "name": "_proof",
          "type": "bytes"
        }
      ],
      "name": "__callback",
      "outputs": [],
      "payable": false,
      "stateMutability": "nonpayable",
      "type": "function"
    },
    {
      "constant": false,
      "inputs": [],
      "name": "update",
      "outputs": [
        {
          "internalType": "bytes32",
          "name": "",
          "type": "bytes32"
        }
      ],
      "payable": true,
      "stateMutability": "payable",
      "type": "function"
    }
  ],
  "bytecode": "0x60806040523480156200001157600080fd5b5062000027603060f81b6200003e60201b60201c565b62000037620003a160201b60201c565b50620022cb565b600073ffffffffffffffffffffffffffffffffffffffff16600160009054906101000a900473ffffffffffffffffffffffffffffffffffffffff1673ffffffffffffffffffffffffffffffffffffffff161480620000ce57506000620000cc600160009054906101000a900473ffffffffffffffffffffffffffffffffffffffff166200041d60201b60201c565b145b15620000e857620000e660006200042860201b60201c565b505b600160009054906101000a900473ffffffffffffffffffffffffffffffffffffffff1673ffffffffffffffffffffffffffffffffffffffff166338cc48316040518163ffffffff1660e01b8152600401602060405180830381600087803b1580156200015357600080fd5b505af115801562000168573d6000803e3d6000fd5b505050506040513d60208110156200017f57600080fd5b810190808051906020019092919050505073ffffffffffffffffffffffffffffffffffffffff166000809054906101000a900473ffffffffffffffffffffffffffffffffffffffff1673ffffffffffffffffffffffffffffffffffffffff1614620002cc57600160009054906101000a900473ffffffffffffffffffffffffffffffffffffffff1673ffffffffffffffffffffffffffffffffffffffff166338cc48316040518163ffffffff1660e01b8152600401602060405180830381600087803b1580156200024f57600080fd5b505af115801562000264573d6000803e3d6000fd5b505050506040513d60208110156200027b57600080fd5b81019080805190602001909291905050506000806101000a81548173ffffffffffffffffffffffffffffffffffffffff021916908373ffffffffffffffffffffffffffffffffffffffff1602179055505b6000809054906101000a900473ffffffffffffffffffffffffffffffffffffffff1673ffffffffffffffffffffffffffffffffffffffff1663688dcfd7826040518263ffffffff1660e01b815260040180827effffffffffffffffffffffffffffffffffffffffffffffffffffffffffffff19167effffffffffffffffffffffffffffffffffffffffffffffffffffffffffffff19168152602001915050600060405180830381600087803b1580156200038557600080fd5b505af11580156200039a573d6000803e3d6000fd5b5050505050565b60008060009050600062030d4090506000620003c6836001846200044160201b60201c565b90507fc4dc360d0a9c0677a3379ae0a3d81e887f761e65fdf3d7e00859d1bcd3c473896040518080602001828103825260368152602001806200619c6036913960400191505060405180910390a180935050505090565b6000813b9050919050565b60006200043a62000a1460201b60201c565b9050919050565b6000808311801562000454575060208311155b6200045e57600080fd5b600a84029350606060016040519080825280601f01601f1916602001820160405280156200049b5781602001600182028038833980820191505090505b5090508360f81b81600081518110620004b057fe5b60200101907effffffffffffffffffffffffffffffffffffffffffffffffffffffffffffff1916908160001a905350606060206040519080825280601f01601f191660200182016040528015620005165781602001600182028038833980820191505090505b509050606060206040519080825280601f01601f191660200182016040528015620005505781602001600182028038833980820191505090505b50905060006200056562000fe360201b60201c565b905060208352424118600143034018602084015260208252806020830152606060206040519080825280601f01601f191660200182016040528015620005ba5781602001600182028038833980820191505090505b509050886020820152606060086040519080825280601f01601f191660200182016040528015620005fa5781602001600182028038833980820191505090505b5090506200061582601860088460006200131c60201b60201c565b5062000620620021da565b604051806080016040528087815260200188815260200186815260200184815250905060006200068d6040518060400160405280600681526020017f72616e646f6d0000000000000000000000000000000000000000000000000000815250838c6200137e60201b60201c565b9050606060086040519080825280601f01601f191660200182016040528015620006c65781602001600182028038833980820191505090505b50905060208401517f0100000000000000000000000000000000000000000000000000000000000000810460278301537e01000000000000000000000000000000000000000000000000000000000000810460268301537d010000000000000000000000000000000000000000000000000000000000810460258301537c0100000000000000000000000000000000000000000000000000000000810460248301537b01000000000000000000000000000000000000000000000000000000810460238301537a01000000000000000000000000000000000000000000000000000081046022830153790100000000000000000000000000000000000000000000000000810460218301537801000000000000000000000000000000000000000000000000810460208301535062000a018282856001600481106200080757fe5b60200201516002876000600481106200081c57fe5b60200201516040518082805190602001908083835b6020831062000856578051825260208201915060208101905060208303925062000831565b6001836020036101000a038019825116818451168082178552505050505050905001915050602060405180830381855afa15801562000899573d6000803e3d6000fd5b5050506040513d6020811015620008af57600080fd5b810190808051906020019092919050505087600260048110620008ce57fe5b60200201516040516020018085805190602001908083835b602083106200090b5780518252602082019150602081019050602083039250620008e6565b6001836020036101000a03801982511681845116808217855250505050505090500184805190602001908083835b602083106200095e578051825260208201915060208101905060208303925062000939565b6001836020036101000a03801982511681845116808217855250505050505090500183815260200182805190602001908083835b60208310620009b7578051825260208201915060208101905060208303925062000992565b6001836020036101000a038019825116818451168082178552505050505050905001945050505050604051602081830303815290604052805190602001206200171660201b60201c565b8199505050505050505050509392505050565b60008062000a3c731d3b2638a7cc9f2cb3d298a3da7a90b67e5506ed6200041d60201b60201c565b111562000ae857731d3b2638a7cc9f2cb3d298a3da7a90b67e5506ed600160006101000a81548173ffffffffffffffffffffffffffffffffffffffff021916908373ffffffffffffffffffffffffffffffffffffffff16021790555062000ade6040518060400160405280600b81526020017f6574685f6d61696e6e65740000000000000000000000000000000000000000008152506200173260201b60201c565b6001905062000fe0565b600062000b0f73c03a2615d5efaf5f49f60b7bb6583eaec212fdf16200041d60201b60201c565b111562000bbb5773c03a2615d5efaf5f49f60b7bb6583eaec212fdf1600160006101000a81548173ffffffffffffffffffffffffffffffffffffffff021916908373ffffffffffffffffffffffffffffffffffffffff16021790555062000bb16040518060400160405280600c81526020017f6574685f726f707374656e3300000000000000000000000000000000000000008152506200173260201b60201c565b6001905062000fe0565b600062000be273b7a07bcf2ba2f2703b24c0691b5278999c59ac7e6200041d60201b60201c565b111562000c8e5773b7a07bcf2ba2f2703b24c0691b5278999c59ac7e600160006101000a81548173ffffffffffffffffffffffffffffffffffffffff021916908373ffffffffffffffffffffffffffffffffffffffff16021790555062000c846040518060400160405280600981526020017f6574685f6b6f76616e00000000000000000000000000000000000000000000008152506200173260201b60201c565b6001905062000fe0565b600062000cb573146500cfd35b22e4a392fe0adc06de1a1368ed486200041d60201b60201c565b111562000d615773146500cfd35b22e4a392fe0adc06de1a1368ed48600160006101000a81548173ffffffffffffffffffffffffffffffffffffffff021916908373ffffffffffffffffffffffffffffffffffffffff16021790555062000d576040518060400160405280600b81526020017f6574685f72696e6b6562790000000000000000000000000000000000000000008152506200173260201b60201c565b6001905062000fe0565b600062000d8873a2998efd205fb9d4b4963afb70778d6354ad3a416200041d60201b60201c565b111562000e345773a2998efd205fb9d4b4963afb70778d6354ad3a41600160006101000a81548173ffffffffffffffffffffffffffffffffffffffff021916908373ffffffffffffffffffffffffffffffffffffffff16021790555062000e2a6040518060400160405280600a81526020017f6574685f676f65726c69000000000000000000000000000000000000000000008152506200173260201b60201c565b6001905062000fe0565b600062000e5b736f485c8bf6fc43ea212e93bbf8ce046c7f1cb4756200041d60201b60201c565b111562000ec157736f485c8bf6fc43ea212e93bbf8ce046c7f1cb475600160006101000a81548173ffffffffffffffffffffffffffffffffffffffff021916908373ffffffffffffffffffffffffffffffffffffffff1602179055506001905062000fe0565b600062000ee87320e12a1f859b3feae5fb2a0a32c18f5a65555bbf6200041d60201b60201c565b111562000f4e577320e12a1f859b3feae5fb2a0a32c18f5a65555bbf600160006101000a81548173ffffffffffffffffffffffffffffffffffffffff021916908373ffffffffffffffffffffffffffffffffffffffff1602179055506001905062000fe0565b600062000f757351efaf4c8b3c9afbd5ab9f4bbc82784ab6ef8faa6200041d60201b60201c565b111562000fdb577351efaf4c8b3c9afbd5ab9f4bbc82784ab6ef8faa600160006101000a81548173ffffffffffffffffffffffffffffffffffffffff021916908373ffffffffffffffffffffffffffffffffffffffff1602179055506001905062000fe0565b600090505b90565b60008073ffffffffffffffffffffffffffffffffffffffff16600160009054906101000a900473ffffffffffffffffffffffffffffffffffffffff1673ffffffffffffffffffffffffffffffffffffffff161480620010745750600062001072600160009054906101000a900473ffffffffffffffffffffffffffffffffffffffff166200041d60201b60201c565b145b156200108e576200108c60006200042860201b60201c565b505b600160009054906101000a900473ffffffffffffffffffffffffffffffffffffffff1673ffffffffffffffffffffffffffffffffffffffff166338cc48316040518163ffffffff1660e01b8152600401602060405180830381600087803b158015620010f957600080fd5b505af11580156200110e573d6000803e3d6000fd5b505050506040513d60208110156200112557600080fd5b810190808051906020019092919050505073ffffffffffffffffffffffffffffffffffffffff166000809054906101000a900473ffffffffffffffffffffffffffffffffffffffff1673ffffffffffffffffffffffffffffffffffffffff16146200127257600160009054906101000a900473ffffffffffffffffffffffffffffffffffffffff1673ffffffffffffffffffffffffffffffffffffffff166338cc48316040518163ffffffff1660e01b8152600401602060405180830381600087803b158015620011f557600080fd5b505af11580156200120a573d6000803e3d6000fd5b505050506040513d60208110156200122157600080fd5b81019080805190602001909291905050506000806101000a81548173ffffffffffffffffffffffffffffffffffffffff021916908373ffffffffffffffffffffffffffffffffffffffff1602179055505b6000809054906101000a900473ffffffffffffffffffffffffffffffffffffffff1673ffffffffffffffffffffffffffffffffffffffff1663abaa5f3e6040518163ffffffff1660e01b815260040160206040518083038186803b158015620012da57600080fd5b505afa158015620012ef573d6000803e3d6000fd5b505050506040513d60208110156200130657600080fd5b8101908080519060200190929190505050905090565b60606000828501905080845110156200133457600080fd5b600086602001905060008460200190505b8688602001018210156200136f578189015180828801525060208201915060208101905062001345565b85935050505095945050505050565b60008073ffffffffffffffffffffffffffffffffffffffff16600160009054906101000a900473ffffffffffffffffffffffffffffffffffffffff1673ffffffffffffffffffffffffffffffffffffffff1614806200140f575060006200140d600160009054906101000a900473ffffffffffffffffffffffffffffffffffffffff166200041d60201b60201c565b145b1562001429576200142760006200042860201b60201c565b505b600160009054906101000a900473ffffffffffffffffffffffffffffffffffffffff1673ffffffffffffffffffffffffffffffffffffffff166338cc48316040518163ffffffff1660e01b8152600401602060405180830381600087803b1580156200149457600080fd5b505af1158015620014a9573d6000803e3d6000fd5b505050506040513d6020811015620014c057600080fd5b810190808051906020019092919050505073ffffffffffffffffffffffffffffffffffffffff166000809054906101000a900473ffffffffffffffffffffffffffffffffffffffff1673ffffffffffffffffffffffffffffffffffffffff16146200160d57600160009054906101000a900473ffffffffffffffffffffffffffffffffffffffff1673ffffffffffffffffffffffffffffffffffffffff166338cc48316040518163ffffffff1660e01b8152600401602060405180830381600087803b1580156200159057600080fd5b505af1158015620015a5573d6000803e3d6000fd5b505050506040513d6020811015620015bc57600080fd5b81019080805190602001909291905050506000806101000a81548173ffffffffffffffffffffffffffffffffffffffff021916908373ffffffffffffffffffffffffffffffffffffffff1602179055505b606060046040519080825280602002602001820160405280156200164657816020015b6060815260200190600190039081620016305790505b509050836000600481106200165757fe5b6020020151816000815181106200166a57fe5b6020026020010181905250836001600481106200168357fe5b6020020151816001815181106200169657fe5b602002602001018190525083600260048110620016af57fe5b602002015181600281518110620016c257fe5b602002602001018190525083600360048110620016db57fe5b602002015181600381518110620016ee57fe5b60200260200101819052506200170c8582856200174e60201b60201c565b9150509392505050565b8060036000848152602001908152602001600020819055505050565b80600290805190602001906200174a92919062002202565b5050565b60008073ffffffffffffffffffffffffffffffffffffffff16600160009054906101000a900473ffffffffffffffffffffffffffffffffffffffff1673ffffffffffffffffffffffffffffffffffffffff161480620017df57506000620017dd600160009054906101000a900473ffffffffffffffffffffffffffffffffffffffff166200041d60201b60201c565b145b15620017f957620017f760006200042860201b60201c565b505b600160009054906101000a900473ffffffffffffffffffffffffffffffffffffffff1673ffffffffffffffffffffffffffffffffffffffff166338cc48316040518163ffffffff1660e01b8152600401602060405180830381600087803b1580156200186457600080fd5b505af115801562001879573d6000803e3d6000fd5b505050506040513d60208110156200189057600080fd5b810190808051906020019092919050505073ffffffffffffffffffffffffffffffffffffffff166000809054906101000a900473ffffffffffffffffffffffffffffffffffffffff1673ffffffffffffffffffffffffffffffffffffffff1614620019dd57600160009054906101000a900473ffffffffffffffffffffffffffffffffffffffff1673ffffffffffffffffffffffffffffffffffffffff166338cc48316040518163ffffffff1660e01b8152600401602060405180830381600087803b1580156200196057600080fd5b505af115801562001975573d6000803e3d6000fd5b505050506040513d60208110156200198c57600080fd5b81019080805190602001909291905050506000806101000a81548173ffffffffffffffffffffffffffffffffffffffff021916908373ffffffffffffffffffffffffffffffffffffffff1602179055505b60008060009054906101000a900473ffffffffffffffffffffffffffffffffffffffff1673ffffffffffffffffffffffffffffffffffffffff16632ef3accc86856040518363ffffffff1660e01b81526004018080602001838152602001828103825284818151815260200191508051906020019080838360005b8381101562001a7557808201518184015260208101905062001a58565b50505050905090810190601f16801562001aa35780820380516001836020036101000a031916815260200191505b509350505050602060405180830381600087803b15801562001ac457600080fd5b505af115801562001ad9573d6000803e3d6000fd5b505050506040513d602081101562001af057600080fd5b81019080805190602001909291905050509050823a02670de0b6b3a76400000181111562001b25576000801b91505062001cdb565b606062001b388562001ce260201b60201c565b90506000809054906101000a900473ffffffffffffffffffffffffffffffffffffffff1673ffffffffffffffffffffffffffffffffffffffff1663c55c1cb68360008985896040518663ffffffff1660e01b8152600401808581526020018060200180602001848152602001838103835286818151815260200191508051906020019080838360005b8381101562001bde57808201518184015260208101905062001bc1565b50505050905090810190601f16801562001c0c5780820380516001836020036101000a031916815260200191505b50838103825285818151815260200191508051906020019080838360005b8381101562001c4757808201518184015260208101905062001c2a565b50505050905090810190601f16801562001c755780820380516001836020036101000a031916815260200191505b5096505050505050506020604051808303818588803b15801562001c9857600080fd5b505af115801562001cad573d6000803e3d6000fd5b50505050506040513d602081101562001cc557600080fd5b8101908080519060200190929190505050925050505b9392505050565b606062001cf462001d9d60201b60201c565b62001cfe62002289565b62001d178161040062001da960201b620038f41760201c565b62001d2d8162001df660201b6200393e1760201c565b60008090505b835181101562001d795762001d6b84828151811062001d4e57fe5b60200260200101518362001e0c60201b6200394c1790919060201c565b808060010191505062001d33565b5062001d908162001e4060201b620039711760201c565b8060000151915050919050565b60405180590338823950565b600081905060006020828162001dbb57fe5b061462001dd6576020818162001dcd57fe5b06602003810190505b808360200181815250506040518084526000815281810160405250505050565b62001e0981600462001e5660201b60201c565b50565b62001e21826002835162001e7e60201b60201c565b62001e3b81836200200660201b62003ae01790919060201c565b505050565b62001e5381600762001e5660201b60201c565b50565b62001e7a601f60058360ff16901b1783620020c660201b62003b8b1790919060201c565b5050565b6017811162001eb35762001ead8160058460ff16901b60ff161784620020c660201b62003b8b1790919060201c565b62002001565b60ff811162001f045762001ee0601860058460ff16901b1784620020c660201b62003b8b1790919060201c565b62001efd816001856200210f60201b62003bcb179092919060201c565b5062002000565b61ffff811162001f565762001f32601960058460ff16901b1784620020c660201b62003b8b1790919060201c565b62001f4f816002856200210f60201b62003bcb179092919060201c565b5062001fff565b63ffffffff811162001faa5762001f86601a60058460ff16901b1784620020c660201b62003b8b1790919060201c565b62001fa3816004856200210f60201b62003bcb179092919060201c565b5062001ffe565b67ffffffffffffffff811162001ffd5762001fde601b60058460ff16901b1784620020c660201b62003b8b1790919060201c565b62001ffb816008856200210f60201b62003bcb179092919060201c565b505b5b5b5b5b505050565b6200201062002289565b8260200151836000015151835101111562002051576200205083600262002043866020015186516200218960201b60201c565b02620021a760201b60201c565b5b60008060008451905085518051602081830101945086518101825260208701935050505b602081106200209a578151835260208301925060208201915060208103905062002075565b60006001826020036101000a039050801983511681855116818117865250508694505050505092915050565b81602001516001836000015151011115620020f557620020f4826002846020015102620021a760201b60201c565b5b815180516020818301018381536001820183525050505050565b6200211962002289565b8360200151846000015151830111156200215857620021578460026200214a8760200151866200218960201b60201c565b02620021a760201b60201c565b5b60006001836101000a0390508451805184818301018684198251161781528582018352505050849150509392505050565b6000818311156200219d57829050620021a1565b8190505b92915050565b606082600001519050620021c2838362001da960201b60201c565b620021d483826200200660201b60201c565b50505050565b60405180608001604052806004905b6060815260200190600190039081620021e95790505090565b828054600181600116156101000203166002900490600052602060002090601f016020900481019282601f106200224557805160ff191683800117855562002276565b8280016001018555821562002276579182015b828111156200227557825182559160200191906001019062002258565b5b509050620022859190620022a3565b5090565b604051806040016040528060608152602001600081525090565b620022c891905b80821115620022c4576000816000905550600101620022aa565b5090565b90565b613ec180620022db6000396000f3fe6080604052600436106100705760003560e01c80634eb393c61161004e5780634eb393c61461034f5780637365870b146103ca578063a2e62045146103f8578063a95783b51461041657610070565b806322af00fa1461007557806327dc297e1461011457806338bbfa50146101e6575b600080fd5b34801561008157600080fd5b506100ae6004803603602081101561009857600080fd5b810190808035906020019092919050505061047b565b604051808681526020018573ffffffffffffffffffffffffffffffffffffffff1673ffffffffffffffffffffffffffffffffffffffff16815260200184815260200183151515158152602001821515151581526020019550505050505060405180910390f35b34801561012057600080fd5b506101e46004803603604081101561013757600080fd5b81019080803590602001909291908035906020019064010000000081111561015e57600080fd5b82018360208201111561017057600080fd5b8035906020019184600183028401116401000000008311171561019257600080fd5b91908080601f016020809104026020016040519081016040528093929190818152602001838380828437600081840152601f19601f8201169050808301925050505050505091929192905050506104f8565b005b3480156101f257600080fd5b5061034d6004803603606081101561020957600080fd5b81019080803590602001909291908035906020019064010000000081111561023057600080fd5b82018360208201111561024257600080fd5b8035906020019184600183028401116401000000008311171561026457600080fd5b91908080601f016020809104026020016040519081016040528093929190818152602001838380828437600081840152601f19601f820116905080830192505050505050509192919290803590602001906401000000008111156102c757600080fd5b8201836020820111156102d957600080fd5b803590602001918460018302840111640100000000831117156102fb57600080fd5b91908080601f016020809104026020016040519081016040528093929190818152602001838380828437600081840152601f19601f82011690508083019250505050505050919291929050505061053b565b005b34801561035b57600080fd5b506103886004803603602081101561037257600080fd5b810190808035906020019092919050505061094e565b604051808273ffffffffffffffffffffffffffffffffffffffff1673ffffffffffffffffffffffffffffffffffffffff16815260200191505060405180910390f35b6103f6600480360360208110156103e057600080fd5b8101908080359060200190929190505050610981565b005b610400610d64565b6040518082815260200191505060405180910390f35b34801561042257600080fd5b506104656004803603602081101561043957600080fd5b81019080803573ffffffffffffffffffffffffffffffffffffffff169060200190929190505050610dd7565b6040518082815260200191505060405180910390f35b6005818154811061048857fe5b90600052602060002090600402016000915090508060000154908060010160009054906101000a900473ffffffffffffffffffffffffffffffffffffffff16908060020154908060030160009054906101000a900460ff16908060030160019054906101000a900460ff16905085565b610537828260006040519080825280601f01601f1916602001820160405280156105315781602001600182028038833980820191505090505b5061053b565b5050565b610543610def565b73ffffffffffffffffffffffffffffffffffffffff163373ffffffffffffffffffffffffffffffffffffffff161461057a57600080fd5b600061058784848461110c565b60ff16146105e7577f81816b50aae098d98a0f7930cfef379261913e37ed33759052b5eff95fbb8d5f83604051808281526020018060200182810382526021815260200180613db4602191396040019250505060405180910390a1610949565b60006001806101000a039050600081846040516020018082805190602001908083835b6020831061062d578051825260208201915060208101905060208303925061060a565b6001836020036101000a0380198251168184511680821785525050505050509050019150506040516020818303038152906040528051906020012060001c8161067257fe5b06905060008090505b6005805490508110156109455760006005828154811061069757fe5b906000526020600020906004020190508681600001541480156106cf5750600115158160030160019054906101000a900460ff161515145b156109375760008160030160016101000a81548160ff021916908315150217905550608083116107d35760008160030160006101000a81548160ff0219169083151502179055507f0948ef2cfa8c16c7422087516e87bcd3f20c04fe0409205ee89a8b70a1059e91878260010160009054906101000a900473ffffffffffffffffffffffffffffffffffffffff1683600201548460030160009054906101000a900460ff16604051808581526020018473ffffffffffffffffffffffffffffffffffffffff1673ffffffffffffffffffffffffffffffffffffffff1681526020018381526020018215151515815260200194505050505060405180910390a1610936565b608183106109355760006107f56002836002015461123c90919063ffffffff16565b905060018260030160006101000a81548160ff0219169083151502179055508160010160009054906101000a900473ffffffffffffffffffffffffffffffffffffffff1673ffffffffffffffffffffffffffffffffffffffff166108fc829081150290604051600060405180830381858888f1935050505015801561087e573d6000803e3d6000fd5b507f0948ef2cfa8c16c7422087516e87bcd3f20c04fe0409205ee89a8b70a1059e91888360010160009054906101000a900473ffffffffffffffffffffffffffffffffffffffff16838560030160009054906101000a900460ff16604051808581526020018473ffffffffffffffffffffffffffffffffffffffff1673ffffffffffffffffffffffffffffffffffffffff1681526020018381526020018215151515815260200194505050505060405180910390a1505b5b5b50808060010191505061067b565b5050505b505050565b60066020528060005260406000206000915054906101000a900473ffffffffffffffffffffffffffffffffffffffff1681565b662386f26fc10000803410156109e2576040517f08c379a0000000000000000000000000000000000000000000000000000000008152600401808060200182810382526027815260200180613d8d6027913960400191505060405180910390fd5b674563918244f40000341115610a43576040517f08c379a0000000000000000000000000000000000000000000000000000000008152600401808060200182810382526021815260200180613df66021913960400191505060405180910390fd5b3382808273ffffffffffffffffffffffffffffffffffffffff16311015610ab5576040517f08c379a0000000000000000000000000000000000000000000000000000000008152600401808060200182810382526035815260200180613d586035913960400191505060405180910390fd5b3084808273ffffffffffffffffffffffffffffffffffffffff16311015610b27576040517f08c379a0000000000000000000000000000000000000000000000000000000008152600401808060200182810382526035815260200180613d586035913960400191505060405180910390fd5b6000610b31610d64565b90506000600160056040518060a001604052808581526020013373ffffffffffffffffffffffffffffffffffffffff1681526020018b815260200160001515815260200160011515815250908060018154018082558091505090600182039060005260206000209060040201600090919290919091506000820151816000015560208201518160010160006101000a81548173ffffffffffffffffffffffffffffffffffffffff021916908373ffffffffffffffffffffffffffffffffffffffff1602179055506040820151816002015560608201518160030160006101000a81548160ff02191690831515021790555060808201518160030160016101000a81548160ff0219169083151502179055505050039050336006600083815260200190815260200160002060006101000a81548173ffffffffffffffffffffffffffffffffffffffff021916908373ffffffffffffffffffffffffffffffffffffffff1602179055506001600760003373ffffffffffffffffffffffffffffffffffffffff1673ffffffffffffffffffffffffffffffffffffffff168152602001908152602001600020600082825401925050819055507fcd5f79909b53eb4c55b0a2d7004914519bad1e3ade1b3dae6005d528d83da31e82338a604051808481526020018373ffffffffffffffffffffffffffffffffffffffff1673ffffffffffffffffffffffffffffffffffffffff168152602001828152602001935050505060405180910390a15050505050505050565b60008060009050600062030d4090506000610d81836001846112c2565b90507fc4dc360d0a9c0677a3379ae0a3d81e887f761e65fdf3d7e00859d1bcd3c47389604051808060200182810382526036815260200180613e576036913960400191505060405180910390a180935050505090565b60076020528060005260406000206000915090505481565b60008073ffffffffffffffffffffffffffffffffffffffff16600160009054906101000a900473ffffffffffffffffffffffffffffffffffffffff1673ffffffffffffffffffffffffffffffffffffffff161480610e7757506000610e75600160009054906101000a900473ffffffffffffffffffffffffffffffffffffffff1661185d565b145b15610e8857610e866000611868565b505b600160009054906101000a900473ffffffffffffffffffffffffffffffffffffffff1673ffffffffffffffffffffffffffffffffffffffff166338cc48316040518163ffffffff1660e01b8152600401602060405180830381600087803b158015610ef257600080fd5b505af1158015610f06573d6000803e3d6000fd5b505050506040513d6020811015610f1c57600080fd5b810190808051906020019092919050505073ffffffffffffffffffffffffffffffffffffffff166000809054906101000a900473ffffffffffffffffffffffffffffffffffffffff1673ffffffffffffffffffffffffffffffffffffffff161461106557600160009054906101000a900473ffffffffffffffffffffffffffffffffffffffff1673ffffffffffffffffffffffffffffffffffffffff166338cc48316040518163ffffffff1660e01b8152600401602060405180830381600087803b158015610fea57600080fd5b505af1158015610ffe573d6000803e3d6000fd5b505050506040513d602081101561101457600080fd5b81019080805190602001909291905050506000806101000a81548173ffffffffffffffffffffffffffffffffffffffff021916908373ffffffffffffffffffffffffffffffffffffffff1602179055505b6000809054906101000a900473ffffffffffffffffffffffffffffffffffffffff1673ffffffffffffffffffffffffffffffffffffffff1663c281d19e6040518163ffffffff1660e01b815260040160206040518083038186803b1580156110cc57600080fd5b505afa1580156110e0573d6000803e3d6000fd5b505050506040513d60208110156110f657600080fd5b8101908080519060200190929190505050905090565b60007f4c000000000000000000000000000000000000000000000000000000000000008260008151811061113c57fe5b602001015160f81c60f81b7effffffffffffffffffffffffffffffffffffffffffffffffffffffffffffff19161415806111cf57507f50000000000000000000000000000000000000000000000000000000000000008260018151811061119f57fe5b602001015160f81c60f81b7effffffffffffffffffffffffffffffffffffffffffffffffffffffffffffff191614155b806111fb5750600160ff16826002815181106111e757fe5b602001015160f81c60f81b60f81c60ff1614155b156112095760019050611235565b600061121e838686611219611879565b61191b565b90508061122f576002915050611235565b60009150505b9392505050565b60008083141561124f57600090506112bc565b600082840290508284828161126057fe5b04146112b7576040517f08c379a0000000000000000000000000000000000000000000000000000000008152600401808060200182810382526021815260200180613dd56021913960400191505060405180910390fd5b809150505b92915050565b600080831180156112d4575060208311155b6112dd57600080fd5b600a84029350606060016040519080825280601f01601f1916602001820160405280156113195781602001600182028038833980820191505090505b5090508360f81b8160008151811061132d57fe5b60200101907effffffffffffffffffffffffffffffffffffffffffffffffffffffffffffff1916908160001a905350606060206040519080825280601f01601f1916602001820160405280156113925781602001600182028038833980820191505090505b509050606060206040519080825280601f01601f1916602001820160405280156113cb5781602001600182028038833980820191505090505b50905060006113d8611fc6565b905060208352424118600143034018602084015260208252806020830152606060206040519080825280601f01601f19166020018201604052801561142c5781602001600182028038833980820191505090505b509050886020820152606060086040519080825280601f01601f19166020018201604052801561146b5781602001600182028038833980820191505090505b50905061147e82601860088460006122e3565b50611487613c71565b604051806080016040528087815260200188815260200186815260200184815250905060006114ec6040518060400160405280600681526020017f72616e646f6d0000000000000000000000000000000000000000000000000000815250838c612342565b9050606060086040519080825280601f01601f1916602001820160405280156115245781602001600182028038833980820191505090505b50905060208401517f0100000000000000000000000000000000000000000000000000000000000000810460278301537e01000000000000000000000000000000000000000000000000000000000000810460268301537d010000000000000000000000000000000000000000000000000000000000810460258301537c0100000000000000000000000000000000000000000000000000000000810460248301537b01000000000000000000000000000000000000000000000000000000810460238301537a01000000000000000000000000000000000000000000000000000081046022830153790100000000000000000000000000000000000000000000000000810460218301537801000000000000000000000000000000000000000000000000810460208301535061184a82828560016004811061166357fe5b602002015160028760006004811061167757fe5b60200201516040518082805190602001908083835b602083106116af578051825260208201915060208101905060208303925061168c565b6001836020036101000a038019825116818451168082178552505050505050905001915050602060405180830381855afa1580156116f1573d6000803e3d6000fd5b5050506040513d602081101561170657600080fd5b81019080805190602001909291905050508760026004811061172457fe5b60200201516040516020018085805190602001908083835b6020831061175f578051825260208201915060208101905060208303925061173c565b6001836020036101000a03801982511681845116808217855250505050505090500184805190602001908083835b602083106117b0578051825260208201915060208101905060208303925061178d565b6001836020036101000a03801982511681845116808217855250505050505090500183815260200182805190602001908083835b6020831061180757805182526020820191506020810190506020830392506117e4565b6001836020036101000a038019825116818451168082178552505050505050905001945050505050604051602081830303815290604052805190602001206126af565b8199505050505050505050509392505050565b6000813b9050919050565b60006118726126cb565b9050919050565b606060028054600181600116156101000203166002900480601f0160208091040260200160405190810160405280929190818152602001828054600181600116156101000203166002900480156119115780601f106118e657610100808354040283529160200191611911565b820191906000526020600020905b8154815290600101906020018083116118f457829003601f168201915b5050505050905090565b600080602060028760458151811061192f57fe5b602001015160f81c60f81b60f81c60ff1601604401019050606060206040519080825280601f01601f19166020018201604052801561197d5781602001600182028038833980820191505090505b50905061198f878360208460006122e3565b50600284876040516020018083805190602001908083835b602083106119ca57805182526020820191506020810190506020830392506119a7565b6001836020036101000a038019825116818451168082178552505050505050905001828152602001925050506040516020818303038152906040526040518082805190602001908083835b60208310611a385780518252602082019150602081019050602083039250611a15565b6001836020036101000a038019825116818451168082178552505050505050905001915050602060405180830381855afa158015611a7a573d6000803e3d6000fd5b5050506040513d6020811015611a8f57600080fd5b81019080805190602001909291905050506040516020018082815260200191505060405160208183030381529060405280519060200120818051906020012014611ade57600092505050611fbe565b60606002886001604986010181518110611af457fe5b602001015160f81c60f81b60f81c60ff16016040519080825280601f01601f191660200182016040528015611b385781602001600182028038833980820191505090505b509050611b4d886049850183518460006122e3565b50611c186002826040518082805190602001908083835b60208310611b875780518252602082019150602081019050602083039250611b64565b6001836020036101000a038019825116818451168082178552505050505050905001915050602060405180830381855afa158015611bc9573d6000803e3d6000fd5b5050506040513d6020811015611bde57600080fd5b8101908080519060200190929190505050878a6008602088010181518110611c0257fe5b602001015160f81c60f81b60f81c60ff16612c22565b611c285760009350505050611fbe565b606060296040519080825280601f01601f191660200182016040528015611c5e5781602001600182028038833980820191505090505b509050611c73896020860160298460006122e3565b506060604080519080825280601f01601f191660200182016040528015611ca95781602001600182028038833980820191505090505b5090506000604184516029602089010101019050611ccf8b6040830360408560006122e3565b5060006002836040518082805190602001908083835b60208310611d085780518252602082019150602081019050602083039250611ce5565b6001836020036101000a038019825116818451168082178552505050505050905001915050602060405180830381855afa158015611d4a573d6000803e3d6000fd5b5050506040513d6020811015611d5f57600080fd5b8101908080519060200190929190505050905083816040516020018083805190602001908083835b60208310611daa5780518252602082019150602081019050602083039250611d87565b6001836020036101000a0380198251168184511680821785525050505050509050018281526020019250505060405160208183030381529060405280519060200120600360008d8152602001908152602001600020541415611e2257600360008c815260200190815260200160002060009055611e32565b6000975050505050505050611fbe565b606060496040519080825280601f01601f191660200182016040528015611e685781602001600182028038833980820191505090505b509050611e7a8d8960498460006122e3565b50611f236002826040518082805190602001908083835b60208310611eb45780518252602082019150602081019050602083039250611e91565b6001836020036101000a038019825116818451168082178552505050505050905001915050602060405180830381855afa158015611ef6573d6000803e3d6000fd5b5050506040513d6020811015611f0b57600080fd5b81019080805190602001909291905050508786612cd2565b611f3857600098505050505050505050611fbe565b6004600083815260200190815260200160002060009054906101000a900460ff16611f9257611f678d84612e90565b6004600084815260200190815260200160002060006101000a81548160ff0219169083151502179055505b6004600083815260200190815260200160002060009054906101000a900460ff16985050505050505050505b949350505050565b60008073ffffffffffffffffffffffffffffffffffffffff16600160009054906101000a900473ffffffffffffffffffffffffffffffffffffffff1673ffffffffffffffffffffffffffffffffffffffff16148061204e5750600061204c600160009054906101000a900473ffffffffffffffffffffffffffffffffffffffff1661185d565b145b1561205f5761205d6000611868565b505b600160009054906101000a900473ffffffffffffffffffffffffffffffffffffffff1673ffffffffffffffffffffffffffffffffffffffff166338cc48316040518163ffffffff1660e01b8152600401602060405180830381600087803b1580156120c957600080fd5b505af11580156120dd573d6000803e3d6000fd5b505050506040513d60208110156120f357600080fd5b810190808051906020019092919050505073ffffffffffffffffffffffffffffffffffffffff166000809054906101000a900473ffffffffffffffffffffffffffffffffffffffff1673ffffffffffffffffffffffffffffffffffffffff161461223c57600160009054906101000a900473ffffffffffffffffffffffffffffffffffffffff1673ffffffffffffffffffffffffffffffffffffffff166338cc48316040518163ffffffff1660e01b8152600401602060405180830381600087803b1580156121c157600080fd5b505af11580156121d5573d6000803e3d6000fd5b505050506040513d60208110156121eb57600080fd5b81019080805190602001909291905050506000806101000a81548173ffffffffffffffffffffffffffffffffffffffff021916908373ffffffffffffffffffffffffffffffffffffffff1602179055505b6000809054906101000a900473ffffffffffffffffffffffffffffffffffffffff1673ffffffffffffffffffffffffffffffffffffffff1663abaa5f3e6040518163ffffffff1660e01b815260040160206040518083038186803b1580156122a357600080fd5b505afa1580156122b7573d6000803e3d6000fd5b505050506040513d60208110156122cd57600080fd5b8101908080519060200190929190505050905090565b60606000828501905080845110156122fa57600080fd5b600086602001905060008460200190505b868860200101821015612333578189015180828801525060208201915060208101905061230b565b85935050505095945050505050565b60008073ffffffffffffffffffffffffffffffffffffffff16600160009054906101000a900473ffffffffffffffffffffffffffffffffffffffff1673ffffffffffffffffffffffffffffffffffffffff1614806123ca575060006123c8600160009054906101000a900473ffffffffffffffffffffffffffffffffffffffff1661185d565b145b156123db576123d96000611868565b505b600160009054906101000a900473ffffffffffffffffffffffffffffffffffffffff1673ffffffffffffffffffffffffffffffffffffffff166338cc48316040518163ffffffff1660e01b8152600401602060405180830381600087803b15801561244557600080fd5b505af1158015612459573d6000803e3d6000fd5b505050506040513d602081101561246f57600080fd5b810190808051906020019092919050505073ffffffffffffffffffffffffffffffffffffffff166000809054906101000a900473ffffffffffffffffffffffffffffffffffffffff1673ffffffffffffffffffffffffffffffffffffffff16146125b857600160009054906101000a900473ffffffffffffffffffffffffffffffffffffffff1673ffffffffffffffffffffffffffffffffffffffff166338cc48316040518163ffffffff1660e01b8152600401602060405180830381600087803b15801561253d57600080fd5b505af1158015612551573d6000803e3d6000fd5b505050506040513d602081101561256757600080fd5b81019080805190602001909291905050506000806101000a81548173ffffffffffffffffffffffffffffffffffffffff021916908373ffffffffffffffffffffffffffffffffffffffff1602179055505b606060046040519080825280602002602001820160405280156125ef57816020015b60608152602001906001900390816125da5790505b509050836000600481106125ff57fe5b60200201518160008151811061261157fe5b60200260200101819052508360016004811061262957fe5b60200201518160018151811061263b57fe5b60200260200101819052508360026004811061265357fe5b60200201518160028151811061266557fe5b60200260200101819052508360036004811061267d57fe5b60200201518160038151811061268f57fe5b60200260200101819052506126a58582856132a8565b9150509392505050565b8060036000848152602001908152602001600020819055505050565b6000806126eb731d3b2638a7cc9f2cb3d298a3da7a90b67e5506ed61185d565b111561278d57731d3b2638a7cc9f2cb3d298a3da7a90b67e5506ed600160006101000a81548173ffffffffffffffffffffffffffffffffffffffff021916908373ffffffffffffffffffffffffffffffffffffffff1602179055506127846040518060400160405280600b81526020017f6574685f6d61696e6e657400000000000000000000000000000000000000000081525061380a565b60019050612c1f565b60006127ac73c03a2615d5efaf5f49f60b7bb6583eaec212fdf161185d565b111561284e5773c03a2615d5efaf5f49f60b7bb6583eaec212fdf1600160006101000a81548173ffffffffffffffffffffffffffffffffffffffff021916908373ffffffffffffffffffffffffffffffffffffffff1602179055506128456040518060400160405280600c81526020017f6574685f726f707374656e33000000000000000000000000000000000000000081525061380a565b60019050612c1f565b600061286d73b7a07bcf2ba2f2703b24c0691b5278999c59ac7e61185d565b111561290f5773b7a07bcf2ba2f2703b24c0691b5278999c59ac7e600160006101000a81548173ffffffffffffffffffffffffffffffffffffffff021916908373ffffffffffffffffffffffffffffffffffffffff1602179055506129066040518060400160405280600981526020017f6574685f6b6f76616e000000000000000000000000000000000000000000000081525061380a565b60019050612c1f565b600061292e73146500cfd35b22e4a392fe0adc06de1a1368ed4861185d565b11156129d05773146500cfd35b22e4a392fe0adc06de1a1368ed48600160006101000a81548173ffffffffffffffffffffffffffffffffffffffff021916908373ffffffffffffffffffffffffffffffffffffffff1602179055506129c76040518060400160405280600b81526020017f6574685f72696e6b65627900000000000000000000000000000000000000000081525061380a565b60019050612c1f565b60006129ef73a2998efd205fb9d4b4963afb70778d6354ad3a4161185d565b1115612a915773a2998efd205fb9d4b4963afb70778d6354ad3a41600160006101000a81548173ffffffffffffffffffffffffffffffffffffffff021916908373ffffffffffffffffffffffffffffffffffffffff160217905550612a886040518060400160405280600a81526020017f6574685f676f65726c690000000000000000000000000000000000000000000081525061380a565b60019050612c1f565b6000612ab0736f485c8bf6fc43ea212e93bbf8ce046c7f1cb47561185d565b1115612b1457736f485c8bf6fc43ea212e93bbf8ce046c7f1cb475600160006101000a81548173ffffffffffffffffffffffffffffffffffffffff021916908373ffffffffffffffffffffffffffffffffffffffff16021790555060019050612c1f565b6000612b337320e12a1f859b3feae5fb2a0a32c18f5a65555bbf61185d565b1115612b97577320e12a1f859b3feae5fb2a0a32c18f5a65555bbf600160006101000a81548173ffffffffffffffffffffffffffffffffffffffff021916908373ffffffffffffffffffffffffffffffffffffffff16021790555060019050612c1f565b6000612bb67351efaf4c8b3c9afbd5ab9f4bbc82784ab6ef8faa61185d565b1115612c1a577351efaf4c8b3c9afbd5ab9f4bbc82784ab6ef8faa600160006101000a81548173ffffffffffffffffffffffffffffffffffffffff021916908373ffffffffffffffffffffffffffffffffffffffff16021790555060019050612c1f565b600090505b90565b6000806001905082845114612c3657600080fd5b60008090505b83811015612cc657848181518110612c5057fe5b602001015160f81c60f81b7effffffffffffffffffffffffffffffffffffffffffffffffffffffffffffff1916868260208110612c8957fe5b1a60f81b7effffffffffffffffffffffffffffffffffffffffffffffffffffffffffffff191614612cb957600091505b8080600101915050612c3c565b50809150509392505050565b6000806000806000606060206040519080825280601f01601f191660200182016040528015612d105781602001600182028038833980820191505090505b5090506000602089600381518110612d2457fe5b602001015160f81c60f81b60f81c60ff16036004019050612d4a898260208560006122e3565b9150606060206040519080825280601f01601f191660200182016040528015612d825781602001600182028038833980820191505090505b509050602282019150612dbe8a60208c6001860381518110612da057fe5b602001015160f81c60f81b60f81c60ff1603840160208460006122e3565b90506020830151945060208101519350612ddb8b601b8787613824565b80975081985050508573ffffffffffffffffffffffffffffffffffffffff16898051906020012060001c73ffffffffffffffffffffffffffffffffffffffff161415612e31576001975050505050505050612e89565b612e3e8b601c8787613824565b80975081985050508573ffffffffffffffffffffffffffffffffffffffff16898051906020012060001c73ffffffffffffffffffffffffffffffffffffffff16149750505050505050505b9392505050565b60008060606002856001860181518110612ea657fe5b602001015160f81c60f81b60f81c60ff16016040519080825280601f01601f191660200182016040528015612eea5781602001600182028038833980820191505090505b509050612efc858583518460006122e3565b506060604080519080825280601f01601f191660200182016040528015612f325781602001600182028038833980820191505090505b509050612f4586600460408460006122e3565b50606060626040519080825280601f01601f191660200182016040528015612f7c5781602001600182028038833980820191505090505b509050600160f81b81600081518110612f9157fe5b60200101907effffffffffffffffffffffffffffffffffffffffffffffffffffffffffffff1916908160001a905350612fd2876041880360418460016122e3565b5060606040518060400160405280602081526020017ffd94fa71bc0ba10d39d464d0d8f465efeef0a2764e3887fcc9df41ded20f505c815250905061301d81600060208560426122e3565b506130c66002836040518082805190602001908083835b602083106130575780518252602082019150602081019050602083039250613034565b6001836020036101000a038019825116818451168082178552505050505050905001915050602060405180830381855afa158015613099573d6000803e3d6000fd5b5050506040513d60208110156130ae57600080fd5b81019080805190602001909291905050508585612cd2565b9450846130db576000955050505050506132a2565b6060604051806060016040528060408152602001613e17604091399050606060426040519080825280601f01601f19166020018201604052801561312e5781602001600182028038833980820191505090505b50905060fe60f81b8160008151811061314357fe5b60200101907effffffffffffffffffffffffffffffffffffffffffffffffffffffffffffff1916908160001a9053506131828a600360418460016122e3565b50606060028b60458151811061319457fe5b602001015160f81c60f81b60f81c60ff16016040519080825280601f01601f1916602001820160405280156131d85781602001600182028038833980820191505090505b5090506131eb8b604483518460006122e3565b506132946002836040518082805190602001908083835b602083106132255780518252602082019150602081019050602083039250613202565b6001836020036101000a038019825116818451168082178552505050505050905001915050602060405180830381855afa158015613267573d6000803e3d6000fd5b5050506040513d602081101561327c57600080fd5b81019080805190602001909291905050508285612cd2565b975087985050505050505050505b92915050565b60008073ffffffffffffffffffffffffffffffffffffffff16600160009054906101000a900473ffffffffffffffffffffffffffffffffffffffff1673ffffffffffffffffffffffffffffffffffffffff1614806133305750600061332e600160009054906101000a900473ffffffffffffffffffffffffffffffffffffffff1661185d565b145b156133415761333f6000611868565b505b600160009054906101000a900473ffffffffffffffffffffffffffffffffffffffff1673ffffffffffffffffffffffffffffffffffffffff166338cc48316040518163ffffffff1660e01b8152600401602060405180830381600087803b1580156133ab57600080fd5b505af11580156133bf573d6000803e3d6000fd5b505050506040513d60208110156133d557600080fd5b810190808051906020019092919050505073ffffffffffffffffffffffffffffffffffffffff166000809054906101000a900473ffffffffffffffffffffffffffffffffffffffff1673ffffffffffffffffffffffffffffffffffffffff161461351e57600160009054906101000a900473ffffffffffffffffffffffffffffffffffffffff1673ffffffffffffffffffffffffffffffffffffffff166338cc48316040518163ffffffff1660e01b8152600401602060405180830381600087803b1580156134a357600080fd5b505af11580156134b7573d6000803e3d6000fd5b505050506040513d60208110156134cd57600080fd5b81019080805190602001909291905050506000806101000a81548173ffffffffffffffffffffffffffffffffffffffff021916908373ffffffffffffffffffffffffffffffffffffffff1602179055505b60008060009054906101000a900473ffffffffffffffffffffffffffffffffffffffff1673ffffffffffffffffffffffffffffffffffffffff16632ef3accc86856040518363ffffffff1660e01b81526004018080602001838152602001828103825284818151815260200191508051906020019080838360005b838110156135b4578082015181840152602081019050613599565b50505050905090810190601f1680156135e15780820380516001836020036101000a031916815260200191505b509350505050602060405180830381600087803b15801561360157600080fd5b505af1158015613615573d6000803e3d6000fd5b505050506040513d602081101561362b57600080fd5b81019080805190602001909291905050509050823a02670de0b6b3a76400000181111561365e576000801b915050613803565b606061366985613868565b90506000809054906101000a900473ffffffffffffffffffffffffffffffffffffffff1673ffffffffffffffffffffffffffffffffffffffff1663c55c1cb68360008985896040518663ffffffff1660e01b8152600401808581526020018060200180602001848152602001838103835286818151815260200191508051906020019080838360005b8381101561370d5780820151818401526020810190506136f2565b50505050905090810190601f16801561373a5780820380516001836020036101000a031916815260200191505b50838103825285818151815260200191508051906020019080838360005b83811015613773578082015181840152602081019050613758565b50505050905090810190601f1680156137a05780820380516001836020036101000a031916815260200191505b5096505050505050506020604051808303818588803b1580156137c257600080fd5b505af11580156137d6573d6000803e3d6000fd5b50505050506040513d60208110156137ed57600080fd5b8101908080519060200190929190505050925050505b9392505050565b8060029080519060200190613820929190613c98565b5050565b60008060008060405188815287602082015286604082015285606082015260208160808360006001610bb8f192508051915050818193509350505094509492505050565b60606138726138e8565b61387a613d18565b613886816104006138f4565b61388f8161393e565b60008090505b83518110156138d1576138c48482815181106138ad57fe5b60200260200101518361394c90919063ffffffff16565b8080600101915050613895565b506138db81613971565b8060000151915050919050565b60405180590338823950565b600081905060006020828161390557fe5b061461391e576020818161391557fe5b06602003810190505b808360200181815250506040518084526000815281810160405250505050565b61394981600461397f565b50565b61395982600283516139a0565b61396c8183613ae090919063ffffffff16565b505050565b61397c81600761397f565b50565b61399c601f60058360ff16901b1783613b8b90919063ffffffff16565b5050565b601781116139cc576139c78160058460ff16901b60ff161784613b8b90919063ffffffff16565b613adb565b60ff8111613a0d576139f1601860058460ff16901b1784613b8b90919063ffffffff16565b613a0781600185613bcb9092919063ffffffff16565b50613ada565b61ffff8111613a4f57613a33601960058460ff16901b1784613b8b90919063ffffffff16565b613a4981600285613bcb9092919063ffffffff16565b50613ad9565b63ffffffff8111613a9357613a77601a60058460ff16901b1784613b8b90919063ffffffff16565b613a8d81600485613bcb9092919063ffffffff16565b50613ad8565b67ffffffffffffffff8111613ad757613abf601b60058460ff16901b1784613b8b90919063ffffffff16565b613ad581600885613bcb9092919063ffffffff16565b505b5b5b5b5b505050565b613ae8613d18565b82602001518360000151518351011115613b1857613b17836002613b1186602001518651613c32565b02613c4e565b5b60008060008451905085518051602081830101945086518101825260208701935050505b60208110613b5f5781518352602083019250602082019150602081039050613b3c565b60006001826020036101000a039050801983511681855116818117865250508694505050505092915050565b81602001516001836000015151011115613bb157613bb0826002846020015102613c4e565b5b815180516020818301018381536001820183525050505050565b613bd3613d18565b836020015184600001515183011115613c0157613c00846002613bfa876020015186613c32565b02613c4e565b5b60006001836101000a0390508451805184818301018684198251161781528582018352505050849150509392505050565b600081831115613c4457829050613c48565b8190505b92915050565b606082600001519050613c6183836138f4565b613c6b8382613ae0565b50505050565b60405180608001604052806004905b6060815260200190600190039081613c805790505090565b828054600181600116156101000203166002900490600052602060002090601f016020900481019282601f10613cd957805160ff1916838001178555613d07565b82800160010185558215613d07579182015b82811115613d06578251825591602001919060010190613ceb565b5b509050613d149190613d32565b5090565b604051806040016040528060608152602001600081525090565b613d5491905b80821115613d50576000816000905550600101613d38565b5090565b9056fe546865726520617265206e6f7420656e6f7567682066756e647320746f206372656174652074686973207472616e73616374696f6e596f75206d7573742073656e642074686520726571756972656420636f7374206f72206d6f7265546865206265742077617320756e61626c6520746f206265207665726966696564536166654d6174683a206d756c7469706c69636174696f6e206f766572666c6f77596f752063616e2774207761676572206d6f7265207468616e20352065746865727fb956469c5c9b89840d55b43537e66a98dd4811ea0a27224272c2e5622911e8537a2f8e86a46baec82864e98dd01e9ccc2f8bc5dfc9cbe5a91a290498dd96e450726f7661626c65207175657279207761732073656e742c207374616e64696e6720627920666f722074686520616e737765722e2e2ea265627a7a723158208e88b6fc184bccbfeb6a42ac92ac475be39183925efc6204116894c5f8b6d5de64736f6c634300050c003250726f7661626c65207175657279207761732073656e742c207374616e64696e6720627920666f722074686520616e737765722e2e2e",
  "source": "import \"./provableAPI.sol\";\nimport './usingModifiers.sol';\nimport './SafeMath.sol';\n\n\npragma solidity 0.5.12;\n\ncontract Betting is usingModifiers, usingProvable  {\n    using SafeMath for uint256;\n\n    constructor() public {\n        provable_setProof(proofType_Ledger);\n        update();\n    }\n\n    uint constant MAX_INT_FROM_BYTE = 256;\n    uint constant NUM_RANDOM_BYTES_REQUESTED = 1;\n\n    event LogNewProvableQuery(string description);\n    event BetPlaced(bytes32 queryId, address player, uint amount);\n    event BetFailed(bytes32 queryId, string reason);\n    event BetComplete(bytes32 queryId, address player, uint amount, bool betWon);\n\n    struct Bet {\n        bytes32 queryId;\n        address payable player;\n        uint amount;\n        bool betWon;\n        bool isPending;\n    }\n\n    Bet[] public bets;\n\n    mapping (uint => address) public betToPlayer;\n    mapping (address => uint) public playerBetCount;\n\n    function bet(uint _amount) public payable\n        costs(0.01 ether)\n        setBettingLimit()\n        mustHaveRequiredFunds(msg.sender, _amount)\n        mustHaveRequiredFunds(address(this), _amount)\n    {\n        bytes32 _queryId = update();\n        uint id = bets.push(Bet(_queryId, msg.sender, _amount, false, true)) - 1;\n        betToPlayer[id] = msg.sender;\n        playerBetCount[msg.sender] += 1;\n        emit BetPlaced(_queryId, msg.sender, _amount);\n    }\n\n    function __callback(bytes32 _queryId, string memory _result, bytes memory _proof) public {\n        require(msg.sender == provable_cbAddress());\n\n        if (provable_randomDS_proofVerify__returnCode(_queryId, _result, _proof) != 0) {\n            emit BetFailed(_queryId, \"The bet was unable to be verified\");\n            return;\n        } else {\n            uint ceiling = (MAX_INT_FROM_BYTE ** NUM_RANDOM_BYTES_REQUESTED) - 1;\n            uint randomNumber = uint(keccak256(abi.encodePacked(_result))) % ceiling;\n\n            for (uint i = 0; i < bets.length; i++) {\n                Bet storage b = bets[i];\n\n                if (b.queryId == _queryId && b.isPending == true) {\n                    b.isPending = false;\n\n                    // Player lost\n                    if (randomNumber <= 128) {\n                        b.betWon = false;\n                        emit BetComplete(_queryId, b.player, b.amount, b.betWon);\n\n                    // Player Won\n                    } else if (randomNumber >= 129) {\n                        uint earnings = b.amount.mul(2);\n\n                        b.betWon = true;\n                        address(b.player).transfer(earnings);\n                        emit BetComplete(_queryId, b.player, earnings, b.betWon);\n                    }\n                }\n            }\n        }\n    }\n\n    function update() payable public returns (bytes32) {\n        uint QUERY_EXECUTION_DELAY = 0;\n        uint GAS_FOR_CALLBACK = 200000;\n        bytes32 queryId = provable_newRandomDSQuery(QUERY_EXECUTION_DELAY, NUM_RANDOM_BYTES_REQUESTED, GAS_FOR_CALLBACK);\n        emit LogNewProvableQuery(\"Provable query was sent, standing by for the answer...\");\n        return queryId;\n    }\n}\n",
  "sourcePath": "/Users/Sant/Desktop/code/projects/blockchain/ivanontechacademy/coinflip/contracts/Betting.sol",
  "compiler": {
    "name": "solc",
    "version": "0.5.12+commit.7709ece9.Emscripten.clang"
  },
  "schemaVersion": "3.0.19",
  "updatedAt": "2020-01-31T17:04:43.937Z",
  "devdoc": {
    "methods": {
      "__callback(bytes32,string)": {
        "details": "The following `__callback` functions are just placeholders ideally     meant to be defined in child contract when proofs are used.     The function bodies simply silence compiler warnings."
      }
    }
  },
  "userdoc": {
    "methods": {}
  }
}