{
  "contractName": "Betting",
  "abi": [
    {
      "inputs": [],
      "payable": false,
      "stateMutability": "nonpayable",
      "type": "constructor"
    },
    {
      "anonymous": false,
      "inputs": [
        {
          "indexed": false,
          "internalType": "bytes32",
          "name": "queryId",
          "type": "bytes32"
        },
        {
          "indexed": true,
          "internalType": "address",
          "name": "player",
          "type": "address"
        },
        {
          "indexed": false,
          "internalType": "uint256",
          "name": "amount",
          "type": "uint256"
        },
        {
          "indexed": false,
          "internalType": "bool",
          "name": "betWon",
          "type": "bool"
        }
      ],
      "name": "BetComplete",
      "type": "event"
    },
    {
      "anonymous": false,
      "inputs": [
        {
          "indexed": false,
          "internalType": "bytes32",
          "name": "queryId",
          "type": "bytes32"
        },
        {
          "indexed": false,
          "internalType": "string",
          "name": "reason",
          "type": "string"
        }
      ],
      "name": "BetFailed",
      "type": "event"
    },
    {
      "anonymous": false,
      "inputs": [
        {
          "indexed": false,
          "internalType": "bytes32",
          "name": "queryId",
          "type": "bytes32"
        },
        {
          "indexed": true,
          "internalType": "address",
          "name": "player",
          "type": "address"
        },
        {
          "indexed": false,
          "internalType": "uint256",
          "name": "amount",
          "type": "uint256"
        }
      ],
      "name": "BetPlaced",
      "type": "event"
    },
    {
      "anonymous": false,
      "inputs": [
        {
          "indexed": false,
          "internalType": "string",
          "name": "description",
          "type": "string"
        }
      ],
      "name": "LogNewProvableQuery",
      "type": "event"
    },
    {
      "constant": true,
      "inputs": [
        {
          "internalType": "address",
          "name": "",
          "type": "address"
        }
      ],
      "name": "balances",
      "outputs": [
        {
          "internalType": "uint256",
          "name": "",
          "type": "uint256"
        }
      ],
      "payable": false,
      "stateMutability": "view",
      "type": "function"
    },
    {
      "constant": true,
      "inputs": [
        {
          "internalType": "uint256",
          "name": "",
          "type": "uint256"
        }
      ],
      "name": "betToPlayer",
      "outputs": [
        {
          "internalType": "address",
          "name": "",
          "type": "address"
        }
      ],
      "payable": false,
      "stateMutability": "view",
      "type": "function"
    },
    {
      "constant": true,
      "inputs": [
        {
          "internalType": "uint256",
          "name": "",
          "type": "uint256"
        }
      ],
      "name": "bets",
      "outputs": [
        {
          "internalType": "bytes32",
          "name": "queryId",
          "type": "bytes32"
        },
        {
          "internalType": "address",
          "name": "player",
          "type": "address"
        },
        {
          "internalType": "uint256",
          "name": "betAmount",
          "type": "uint256"
        },
        {
          "internalType": "uint256",
          "name": "calculatedBetAmount",
          "type": "uint256"
        },
        {
          "internalType": "bool",
          "name": "betWon",
          "type": "bool"
        },
        {
          "internalType": "bool",
          "name": "isPending",
          "type": "bool"
        }
      ],
      "payable": false,
      "stateMutability": "view",
      "type": "function"
    },
    {
      "constant": true,
      "inputs": [],
      "name": "contractAddress",
      "outputs": [
        {
          "internalType": "address",
          "name": "",
          "type": "address"
        }
      ],
      "payable": false,
      "stateMutability": "view",
      "type": "function"
    },
    {
      "constant": true,
      "inputs": [
        {
          "internalType": "address",
          "name": "",
          "type": "address"
        }
      ],
      "name": "playerBetCount",
      "outputs": [
        {
          "internalType": "uint256",
          "name": "",
          "type": "uint256"
        }
      ],
      "payable": false,
      "stateMutability": "view",
      "type": "function"
    },
    {
      "constant": true,
      "inputs": [],
      "name": "getBetCount",
      "outputs": [
        {
          "internalType": "uint256",
          "name": "",
          "type": "uint256"
        }
      ],
      "payable": false,
      "stateMutability": "view",
      "type": "function"
    },
    {
      "constant": false,
      "inputs": [],
      "name": "bet",
      "outputs": [],
      "payable": true,
      "stateMutability": "payable",
      "type": "function"
    },
    {
      "constant": false,
      "inputs": [],
      "name": "update",
      "outputs": [
        {
          "internalType": "bytes32",
          "name": "",
          "type": "bytes32"
        }
      ],
      "payable": true,
      "stateMutability": "payable",
      "type": "function"
    },
    {
      "constant": false,
      "inputs": [
        {
          "internalType": "bytes32",
          "name": "_myid",
          "type": "bytes32"
        },
        {
          "internalType": "string",
          "name": "_result",
          "type": "string"
        }
      ],
      "name": "__callback",
      "outputs": [],
      "payable": false,
      "stateMutability": "nonpayable",
      "type": "function"
    },
    {
      "constant": false,
      "inputs": [
        {
          "internalType": "bytes32",
          "name": "_queryId",
          "type": "bytes32"
        },
        {
          "internalType": "string",
          "name": "_result",
          "type": "string"
        },
        {
          "internalType": "bytes",
          "name": "_proof",
          "type": "bytes"
        }
      ],
      "name": "__callback",
      "outputs": [],
      "payable": false,
      "stateMutability": "nonpayable",
      "type": "function"
    }
  ],
  "bytecode": "0x608060405230600560006101000a81548173ffffffffffffffffffffffffffffffffffffffff021916908373ffffffffffffffffffffffffffffffffffffffff1602179055503480156200005257600080fd5b5062000068603060f81b6200007f60201b60201c565b62000078620003e260201b60201c565b506200230c565b600073ffffffffffffffffffffffffffffffffffffffff16600160009054906101000a900473ffffffffffffffffffffffffffffffffffffffff1673ffffffffffffffffffffffffffffffffffffffff1614806200010f575060006200010d600160009054906101000a900473ffffffffffffffffffffffffffffffffffffffff166200045e60201b60201c565b145b1562000129576200012760006200046960201b60201c565b505b600160009054906101000a900473ffffffffffffffffffffffffffffffffffffffff1673ffffffffffffffffffffffffffffffffffffffff166338cc48316040518163ffffffff1660e01b8152600401602060405180830381600087803b1580156200019457600080fd5b505af1158015620001a9573d6000803e3d6000fd5b505050506040513d6020811015620001c057600080fd5b810190808051906020019092919050505073ffffffffffffffffffffffffffffffffffffffff166000809054906101000a900473ffffffffffffffffffffffffffffffffffffffff1673ffffffffffffffffffffffffffffffffffffffff16146200030d57600160009054906101000a900473ffffffffffffffffffffffffffffffffffffffff1673ffffffffffffffffffffffffffffffffffffffff166338cc48316040518163ffffffff1660e01b8152600401602060405180830381600087803b1580156200029057600080fd5b505af1158015620002a5573d6000803e3d6000fd5b505050506040513d6020811015620002bc57600080fd5b81019080805190602001909291905050506000806101000a81548173ffffffffffffffffffffffffffffffffffffffff021916908373ffffffffffffffffffffffffffffffffffffffff1602179055505b6000809054906101000a900473ffffffffffffffffffffffffffffffffffffffff1673ffffffffffffffffffffffffffffffffffffffff1663688dcfd7826040518263ffffffff1660e01b815260040180827effffffffffffffffffffffffffffffffffffffffffffffffffffffffffffff19167effffffffffffffffffffffffffffffffffffffffffffffffffffffffffffff19168152602001915050600060405180830381600087803b158015620003c657600080fd5b505af1158015620003db573d6000803e3d6000fd5b5050505050565b60008060009050600062030d409050600062000407836001846200048260201b60201c565b90507fc4dc360d0a9c0677a3379ae0a3d81e887f761e65fdf3d7e00859d1bcd3c4738960405180806020018281038252603681526020018062006b146036913960400191505060405180910390a180935050505090565b6000813b9050919050565b60006200047b62000a5560201b60201c565b9050919050565b6000808311801562000495575060208311155b6200049f57600080fd5b600a84029350606060016040519080825280601f01601f191660200182016040528015620004dc5781602001600182028038833980820191505090505b5090508360f81b81600081518110620004f157fe5b60200101907effffffffffffffffffffffffffffffffffffffffffffffffffffffffffffff1916908160001a905350606060206040519080825280601f01601f191660200182016040528015620005575781602001600182028038833980820191505090505b509050606060206040519080825280601f01601f191660200182016040528015620005915781602001600182028038833980820191505090505b5090506000620005a66200102460201b60201c565b905060208352424118600143034018602084015260208252806020830152606060206040519080825280601f01601f191660200182016040528015620005fb5781602001600182028038833980820191505090505b509050886020820152606060086040519080825280601f01601f1916602001820160405280156200063b5781602001600182028038833980820191505090505b5090506200065682601860088460006200135d60201b60201c565b50620006616200221b565b60405180608001604052808781526020018881526020018681526020018481525090506000620006ce6040518060400160405280600681526020017f72616e646f6d0000000000000000000000000000000000000000000000000000815250838c620013bf60201b60201c565b9050606060086040519080825280601f01601f191660200182016040528015620007075781602001600182028038833980820191505090505b50905060208401517f0100000000000000000000000000000000000000000000000000000000000000810460278301537e01000000000000000000000000000000000000000000000000000000000000810460268301537d010000000000000000000000000000000000000000000000000000000000810460258301537c0100000000000000000000000000000000000000000000000000000000810460248301537b01000000000000000000000000000000000000000000000000000000810460238301537a01000000000000000000000000000000000000000000000000000081046022830153790100000000000000000000000000000000000000000000000000810460218301537801000000000000000000000000000000000000000000000000810460208301535062000a428282856001600481106200084857fe5b60200201516002876000600481106200085d57fe5b60200201516040518082805190602001908083835b6020831062000897578051825260208201915060208101905060208303925062000872565b6001836020036101000a038019825116818451168082178552505050505050905001915050602060405180830381855afa158015620008da573d6000803e3d6000fd5b5050506040513d6020811015620008f057600080fd5b8101908080519060200190929190505050876002600481106200090f57fe5b60200201516040516020018085805190602001908083835b602083106200094c578051825260208201915060208101905060208303925062000927565b6001836020036101000a03801982511681845116808217855250505050505090500184805190602001908083835b602083106200099f57805182526020820191506020810190506020830392506200097a565b6001836020036101000a03801982511681845116808217855250505050505090500183815260200182805190602001908083835b60208310620009f85780518252602082019150602081019050602083039250620009d3565b6001836020036101000a038019825116818451168082178552505050505050905001945050505050604051602081830303815290604052805190602001206200175760201b60201c565b8199505050505050505050509392505050565b60008062000a7d731d3b2638a7cc9f2cb3d298a3da7a90b67e5506ed6200045e60201b60201c565b111562000b2957731d3b2638a7cc9f2cb3d298a3da7a90b67e5506ed600160006101000a81548173ffffffffffffffffffffffffffffffffffffffff021916908373ffffffffffffffffffffffffffffffffffffffff16021790555062000b1f6040518060400160405280600b81526020017f6574685f6d61696e6e65740000000000000000000000000000000000000000008152506200177360201b60201c565b6001905062001021565b600062000b5073c03a2615d5efaf5f49f60b7bb6583eaec212fdf16200045e60201b60201c565b111562000bfc5773c03a2615d5efaf5f49f60b7bb6583eaec212fdf1600160006101000a81548173ffffffffffffffffffffffffffffffffffffffff021916908373ffffffffffffffffffffffffffffffffffffffff16021790555062000bf26040518060400160405280600c81526020017f6574685f726f707374656e3300000000000000000000000000000000000000008152506200177360201b60201c565b6001905062001021565b600062000c2373b7a07bcf2ba2f2703b24c0691b5278999c59ac7e6200045e60201b60201c565b111562000ccf5773b7a07bcf2ba2f2703b24c0691b5278999c59ac7e600160006101000a81548173ffffffffffffffffffffffffffffffffffffffff021916908373ffffffffffffffffffffffffffffffffffffffff16021790555062000cc56040518060400160405280600981526020017f6574685f6b6f76616e00000000000000000000000000000000000000000000008152506200177360201b60201c565b6001905062001021565b600062000cf673146500cfd35b22e4a392fe0adc06de1a1368ed486200045e60201b60201c565b111562000da25773146500cfd35b22e4a392fe0adc06de1a1368ed48600160006101000a81548173ffffffffffffffffffffffffffffffffffffffff021916908373ffffffffffffffffffffffffffffffffffffffff16021790555062000d986040518060400160405280600b81526020017f6574685f72696e6b6562790000000000000000000000000000000000000000008152506200177360201b60201c565b6001905062001021565b600062000dc973a2998efd205fb9d4b4963afb70778d6354ad3a416200045e60201b60201c565b111562000e755773a2998efd205fb9d4b4963afb70778d6354ad3a41600160006101000a81548173ffffffffffffffffffffffffffffffffffffffff021916908373ffffffffffffffffffffffffffffffffffffffff16021790555062000e6b6040518060400160405280600a81526020017f6574685f676f65726c69000000000000000000000000000000000000000000008152506200177360201b60201c565b6001905062001021565b600062000e9c736f485c8bf6fc43ea212e93bbf8ce046c7f1cb4756200045e60201b60201c565b111562000f0257736f485c8bf6fc43ea212e93bbf8ce046c7f1cb475600160006101000a81548173ffffffffffffffffffffffffffffffffffffffff021916908373ffffffffffffffffffffffffffffffffffffffff1602179055506001905062001021565b600062000f297320e12a1f859b3feae5fb2a0a32c18f5a65555bbf6200045e60201b60201c565b111562000f8f577320e12a1f859b3feae5fb2a0a32c18f5a65555bbf600160006101000a81548173ffffffffffffffffffffffffffffffffffffffff021916908373ffffffffffffffffffffffffffffffffffffffff1602179055506001905062001021565b600062000fb67351efaf4c8b3c9afbd5ab9f4bbc82784ab6ef8faa6200045e60201b60201c565b11156200101c577351efaf4c8b3c9afbd5ab9f4bbc82784ab6ef8faa600160006101000a81548173ffffffffffffffffffffffffffffffffffffffff021916908373ffffffffffffffffffffffffffffffffffffffff1602179055506001905062001021565b600090505b90565b60008073ffffffffffffffffffffffffffffffffffffffff16600160009054906101000a900473ffffffffffffffffffffffffffffffffffffffff1673ffffffffffffffffffffffffffffffffffffffff161480620010b557506000620010b3600160009054906101000a900473ffffffffffffffffffffffffffffffffffffffff166200045e60201b60201c565b145b15620010cf57620010cd60006200046960201b60201c565b505b600160009054906101000a900473ffffffffffffffffffffffffffffffffffffffff1673ffffffffffffffffffffffffffffffffffffffff166338cc48316040518163ffffffff1660e01b8152600401602060405180830381600087803b1580156200113a57600080fd5b505af11580156200114f573d6000803e3d6000fd5b505050506040513d60208110156200116657600080fd5b810190808051906020019092919050505073ffffffffffffffffffffffffffffffffffffffff166000809054906101000a900473ffffffffffffffffffffffffffffffffffffffff1673ffffffffffffffffffffffffffffffffffffffff1614620012b357600160009054906101000a900473ffffffffffffffffffffffffffffffffffffffff1673ffffffffffffffffffffffffffffffffffffffff166338cc48316040518163ffffffff1660e01b8152600401602060405180830381600087803b1580156200123657600080fd5b505af11580156200124b573d6000803e3d6000fd5b505050506040513d60208110156200126257600080fd5b81019080805190602001909291905050506000806101000a81548173ffffffffffffffffffffffffffffffffffffffff021916908373ffffffffffffffffffffffffffffffffffffffff1602179055505b6000809054906101000a900473ffffffffffffffffffffffffffffffffffffffff1673ffffffffffffffffffffffffffffffffffffffff1663abaa5f3e6040518163ffffffff1660e01b815260040160206040518083038186803b1580156200131b57600080fd5b505afa15801562001330573d6000803e3d6000fd5b505050506040513d60208110156200134757600080fd5b8101908080519060200190929190505050905090565b60606000828501905080845110156200137557600080fd5b600086602001905060008460200190505b868860200101821015620013b0578189015180828801525060208201915060208101905062001386565b85935050505095945050505050565b60008073ffffffffffffffffffffffffffffffffffffffff16600160009054906101000a900473ffffffffffffffffffffffffffffffffffffffff1673ffffffffffffffffffffffffffffffffffffffff16148062001450575060006200144e600160009054906101000a900473ffffffffffffffffffffffffffffffffffffffff166200045e60201b60201c565b145b156200146a576200146860006200046960201b60201c565b505b600160009054906101000a900473ffffffffffffffffffffffffffffffffffffffff1673ffffffffffffffffffffffffffffffffffffffff166338cc48316040518163ffffffff1660e01b8152600401602060405180830381600087803b158015620014d557600080fd5b505af1158015620014ea573d6000803e3d6000fd5b505050506040513d60208110156200150157600080fd5b810190808051906020019092919050505073ffffffffffffffffffffffffffffffffffffffff166000809054906101000a900473ffffffffffffffffffffffffffffffffffffffff1673ffffffffffffffffffffffffffffffffffffffff16146200164e57600160009054906101000a900473ffffffffffffffffffffffffffffffffffffffff1673ffffffffffffffffffffffffffffffffffffffff166338cc48316040518163ffffffff1660e01b8152600401602060405180830381600087803b158015620015d157600080fd5b505af1158015620015e6573d6000803e3d6000fd5b505050506040513d6020811015620015fd57600080fd5b81019080805190602001909291905050506000806101000a81548173ffffffffffffffffffffffffffffffffffffffff021916908373ffffffffffffffffffffffffffffffffffffffff1602179055505b606060046040519080825280602002602001820160405280156200168757816020015b6060815260200190600190039081620016715790505b509050836000600481106200169857fe5b602002015181600081518110620016ab57fe5b602002602001018190525083600160048110620016c457fe5b602002015181600181518110620016d757fe5b602002602001018190525083600260048110620016f057fe5b6020020151816002815181106200170357fe5b6020026020010181905250836003600481106200171c57fe5b6020020151816003815181106200172f57fe5b60200260200101819052506200174d8582856200178f60201b60201c565b9150509392505050565b8060036000848152602001908152602001600020819055505050565b80600290805190602001906200178b92919062002243565b5050565b60008073ffffffffffffffffffffffffffffffffffffffff16600160009054906101000a900473ffffffffffffffffffffffffffffffffffffffff1673ffffffffffffffffffffffffffffffffffffffff16148062001820575060006200181e600160009054906101000a900473ffffffffffffffffffffffffffffffffffffffff166200045e60201b60201c565b145b156200183a576200183860006200046960201b60201c565b505b600160009054906101000a900473ffffffffffffffffffffffffffffffffffffffff1673ffffffffffffffffffffffffffffffffffffffff166338cc48316040518163ffffffff1660e01b8152600401602060405180830381600087803b158015620018a557600080fd5b505af1158015620018ba573d6000803e3d6000fd5b505050506040513d6020811015620018d157600080fd5b810190808051906020019092919050505073ffffffffffffffffffffffffffffffffffffffff166000809054906101000a900473ffffffffffffffffffffffffffffffffffffffff1673ffffffffffffffffffffffffffffffffffffffff161462001a1e57600160009054906101000a900473ffffffffffffffffffffffffffffffffffffffff1673ffffffffffffffffffffffffffffffffffffffff166338cc48316040518163ffffffff1660e01b8152600401602060405180830381600087803b158015620019a157600080fd5b505af1158015620019b6573d6000803e3d6000fd5b505050506040513d6020811015620019cd57600080fd5b81019080805190602001909291905050506000806101000a81548173ffffffffffffffffffffffffffffffffffffffff021916908373ffffffffffffffffffffffffffffffffffffffff1602179055505b60008060009054906101000a900473ffffffffffffffffffffffffffffffffffffffff1673ffffffffffffffffffffffffffffffffffffffff16632ef3accc86856040518363ffffffff1660e01b81526004018080602001838152602001828103825284818151815260200191508051906020019080838360005b8381101562001ab657808201518184015260208101905062001a99565b50505050905090810190601f16801562001ae45780820380516001836020036101000a031916815260200191505b509350505050602060405180830381600087803b15801562001b0557600080fd5b505af115801562001b1a573d6000803e3d6000fd5b505050506040513d602081101562001b3157600080fd5b81019080805190602001909291905050509050823a02670de0b6b3a76400000181111562001b66576000801b91505062001d1c565b606062001b798562001d2360201b60201c565b90506000809054906101000a900473ffffffffffffffffffffffffffffffffffffffff1673ffffffffffffffffffffffffffffffffffffffff1663c55c1cb68360008985896040518663ffffffff1660e01b8152600401808581526020018060200180602001848152602001838103835286818151815260200191508051906020019080838360005b8381101562001c1f57808201518184015260208101905062001c02565b50505050905090810190601f16801562001c4d5780820380516001836020036101000a031916815260200191505b50838103825285818151815260200191508051906020019080838360005b8381101562001c8857808201518184015260208101905062001c6b565b50505050905090810190601f16801562001cb65780820380516001836020036101000a031916815260200191505b5096505050505050506020604051808303818588803b15801562001cd957600080fd5b505af115801562001cee573d6000803e3d6000fd5b50505050506040513d602081101562001d0657600080fd5b8101908080519060200190929190505050925050505b9392505050565b606062001d3562001dde60201b60201c565b62001d3f620022ca565b62001d588161040062001dea60201b6200422b1760201c565b62001d6e8162001e3760201b620042751760201c565b60008090505b835181101562001dba5762001dac84828151811062001d8f57fe5b60200260200101518362001e4d60201b620042831790919060201c565b808060010191505062001d74565b5062001dd18162001e8160201b620042a81760201c565b8060000151915050919050565b60405180590338823950565b600081905060006020828162001dfc57fe5b061462001e17576020818162001e0e57fe5b06602003810190505b808360200181815250506040518084526000815281810160405250505050565b62001e4a81600462001e9760201b60201c565b50565b62001e62826002835162001ebf60201b60201c565b62001e7c81836200204760201b620044171790919060201c565b505050565b62001e9481600762001e9760201b60201c565b50565b62001ebb601f60058360ff16901b17836200210760201b620044c21790919060201c565b5050565b6017811162001ef45762001eee8160058460ff16901b60ff1617846200210760201b620044c21790919060201c565b62002042565b60ff811162001f455762001f21601860058460ff16901b17846200210760201b620044c21790919060201c565b62001f3e816001856200215060201b62004502179092919060201c565b5062002041565b61ffff811162001f975762001f73601960058460ff16901b17846200210760201b620044c21790919060201c565b62001f90816002856200215060201b62004502179092919060201c565b5062002040565b63ffffffff811162001feb5762001fc7601a60058460ff16901b17846200210760201b620044c21790919060201c565b62001fe4816004856200215060201b62004502179092919060201c565b506200203f565b67ffffffffffffffff81116200203e576200201f601b60058460ff16901b17846200210760201b620044c21790919060201c565b6200203c816008856200215060201b62004502179092919060201c565b505b5b5b5b5b505050565b62002051620022ca565b826020015183600001515183510111156200209257620020918360026200208486602001518651620021ca60201b60201c565b02620021e860201b60201c565b5b60008060008451905085518051602081830101945086518101825260208701935050505b60208110620020db5781518352602083019250602082019150602081039050620020b6565b60006001826020036101000a039050801983511681855116818117865250508694505050505092915050565b81602001516001836000015151011115620021365762002135826002846020015102620021e860201b60201c565b5b815180516020818301018381536001820183525050505050565b6200215a620022ca565b8360200151846000015151830111156200219957620021988460026200218b876020015186620021ca60201b60201c565b02620021e860201b60201c565b5b60006001836101000a0390508451805184818301018684198251161781528582018352505050849150509392505050565b600081831115620021de57829050620021e2565b8190505b92915050565b60608260000151905062002203838362001dea60201b60201c565b6200221583826200204760201b60201c565b50505050565b60405180608001604052806004905b60608152602001906001900390816200222a5790505090565b828054600181600116156101000203166002900490600052602060002090601f016020900481019282601f106200228657805160ff1916838001178555620022b7565b82800160010185558215620022b7579182015b82811115620022b657825182559160200191906001019062002299565b5b509050620022c69190620022e4565b5090565b604051806040016040528060608152602001600081525090565b6200230991905b8082111562002305576000816000905550600101620022eb565b5090565b90565b6147f8806200231c6000396000f3fe6080604052600436106100915760003560e01c80634eb393c6116100595780634eb393c6146103e6578063a2e6204514610461578063a95783b51461047f578063b93dab0b146104e4578063f6b4dfb41461050f57610091565b806311610c251461009657806322af00fa146100a057806327dc297e1461014657806327e235e31461021857806338bbfa501461027d575b600080fd5b61009e610566565b005b3480156100ac57600080fd5b506100d9600480360360208110156100c357600080fd5b8101908080359060200190929190505050610be9565b604051808781526020018673ffffffffffffffffffffffffffffffffffffffff1673ffffffffffffffffffffffffffffffffffffffff1681526020018581526020018481526020018315151515815260200182151515158152602001965050505050505060405180910390f35b34801561015257600080fd5b506102166004803603604081101561016957600080fd5b81019080803590602001909291908035906020019064010000000081111561019057600080fd5b8201836020820111156101a257600080fd5b803590602001918460018302840111640100000000831117156101c457600080fd5b91908080601f016020809104026020016040519081016040528093929190818152602001838380828437600081840152601f19601f820116905080830192505050505050509192919290505050610c6c565b005b34801561022457600080fd5b506102676004803603602081101561023b57600080fd5b81019080803573ffffffffffffffffffffffffffffffffffffffff169060200190929190505050610caf565b6040518082815260200191505060405180910390f35b34801561028957600080fd5b506103e4600480360360608110156102a057600080fd5b8101908080359060200190929190803590602001906401000000008111156102c757600080fd5b8201836020820111156102d957600080fd5b803590602001918460018302840111640100000000831117156102fb57600080fd5b91908080601f016020809104026020016040519081016040528093929190818152602001838380828437600081840152601f19601f8201169050808301925050505050505091929192908035906020019064010000000081111561035e57600080fd5b82018360208201111561037057600080fd5b8035906020019184600183028401116401000000008311171561039257600080fd5b91908080601f016020809104026020016040519081016040528093929190818152602001838380828437600081840152601f19601f820116905080830192505050505050509192919290505050610cc7565b005b3480156103f257600080fd5b5061041f6004803603602081101561040957600080fd5b8101908080359060200190929190505050611112565b604051808273ffffffffffffffffffffffffffffffffffffffff1673ffffffffffffffffffffffffffffffffffffffff16815260200191505060405180910390f35b610469611145565b6040518082815260200191505060405180910390f35b34801561048b57600080fd5b506104ce600480360360208110156104a257600080fd5b81019080803573ffffffffffffffffffffffffffffffffffffffff1690602001909291905050506111b8565b6040518082815260200191505060405180910390f35b3480156104f057600080fd5b506104f96111d0565b6040518082815260200191505060405180910390f35b34801561051b57600080fd5b506105246111dd565b604051808273ffffffffffffffffffffffffffffffffffffffff1673ffffffffffffffffffffffffffffffffffffffff16815260200191505060405180910390f35b662386f26fc10000803410156105c7576040517f08c379a00000000000000000000000000000000000000000000000000000000081526004018080602001828103825260278152602001806146c46027913960400191505060405180910390fd5b674563918244f40000341115610628576040517f08c379a000000000000000000000000000000000000000000000000000000000815260040180806020018281038252602181526020018061472d6021913960400191505060405180910390fd5b3334808273ffffffffffffffffffffffffffffffffffffffff1631101561069a576040517f08c379a000000000000000000000000000000000000000000000000000000000815260040180806020018281038252603581526020018061468f6035913960400191505060405180910390fd5b600560009054906101000a900473ffffffffffffffffffffffffffffffffffffffff1634808273ffffffffffffffffffffffffffffffffffffffff1631101561072e576040517f08c379a000000000000000000000000000000000000000000000000000000000815260040180806020018281038252603581526020018061468f6035913960400191505060405180910390fd5b600061076e6040518060400160405280600681526020017f52616e646f6d0000000000000000000000000000000000000000000000000000815250611203565b905060076000600560009054906101000a900473ffffffffffffffffffffffffffffffffffffffff1673ffffffffffffffffffffffffffffffffffffffff1673ffffffffffffffffffffffffffffffffffffffff1681526020019081526020016000205481106107dd57600080fd5b60006107f2823461159490919063ffffffff16565b90506108688160076000600560009054906101000a900473ffffffffffffffffffffffffffffffffffffffff1673ffffffffffffffffffffffffffffffffffffffff1673ffffffffffffffffffffffffffffffffffffffff168152602001908152602001600020546115de90919063ffffffff16565b60076000600560009054906101000a900473ffffffffffffffffffffffffffffffffffffffff1673ffffffffffffffffffffffffffffffffffffffff1673ffffffffffffffffffffffffffffffffffffffff1681526020019081526020016000208190555060006108d7611145565b90506000600160066040518060c001604052808581526020013373ffffffffffffffffffffffffffffffffffffffff16815260200134815260200186815260200160001515815260200160011515815250908060018154018082558091505090600182039060005260206000209060050201600090919290919091506000820151816000015560208201518160010160006101000a81548173ffffffffffffffffffffffffffffffffffffffff021916908373ffffffffffffffffffffffffffffffffffffffff160217905550604082015181600201556060820151816003015560808201518160040160006101000a81548160ff02191690831515021790555060a08201518160040160016101000a81548160ff0219169083151502179055505050039050336008600083815260200190815260200160002060006101000a81548173ffffffffffffffffffffffffffffffffffffffff021916908373ffffffffffffffffffffffffffffffffffffffff160217905550610aa26001600960003373ffffffffffffffffffffffffffffffffffffffff1673ffffffffffffffffffffffffffffffffffffffff168152602001908152602001600020546115de90919063ffffffff16565b600960003373ffffffffffffffffffffffffffffffffffffffff1673ffffffffffffffffffffffffffffffffffffffff168152602001908152602001600020819055503373ffffffffffffffffffffffffffffffffffffffff167fcd5f79909b53eb4c55b0a2d7004914519bad1e3ade1b3dae6005d528d83da31e8385604051808381526020018281526020019250505060405180910390a2600560009054906101000a900473ffffffffffffffffffffffffffffffffffffffff1673ffffffffffffffffffffffffffffffffffffffff163160076000600560009054906101000a900473ffffffffffffffffffffffffffffffffffffffff1673ffffffffffffffffffffffffffffffffffffffff1673ffffffffffffffffffffffffffffffffffffffff1681526020019081526020016000205414610bde57fe5b505050505050505050565b60068181548110610bf657fe5b90600052602060002090600502016000915090508060000154908060010160009054906101000a900473ffffffffffffffffffffffffffffffffffffffff16908060020154908060030154908060040160009054906101000a900460ff16908060040160019054906101000a900460ff16905086565b610cab828260006040519080825280601f01601f191660200182016040528015610ca55781602001600182028038833980820191505090505b50610cc7565b5050565b60076020528060005260406000206000915090505481565b610ccf611666565b73ffffffffffffffffffffffffffffffffffffffff163373ffffffffffffffffffffffffffffffffffffffff1614610d0657600080fd5b6000610d13848484611983565b60ff1614610d73577f81816b50aae098d98a0f7930cfef379261913e37ed33759052b5eff95fbb8d5f836040518082815260200180602001828103825260218152602001806146eb602191396040019250505060405180910390a161110d565b60006001806101000a039050600081846040516020018082805190602001908083835b60208310610db95780518252602082019150602081019050602083039250610d96565b6001836020036101000a0380198251168184511680821785525050505050509050019150506040516020818303038152906040528051906020012060001c81610dfe57fe5b06905060008090505b60068054905081101561110957600060068281548110610e2357fe5b90600052602060002090600502019050868160000154148015610e5b5750600115158160040160019054906101000a900460ff161515145b156110fb5760008160040160016101000a81548160ff02191690831515021790555060808311610f425760008160040160006101000a81548160ff0219169083151502179055508060010160009054906101000a900473ffffffffffffffffffffffffffffffffffffffff1673ffffffffffffffffffffffffffffffffffffffff167f0948ef2cfa8c16c7422087516e87bcd3f20c04fe0409205ee89a8b70a1059e918883600201548460040160009054906101000a900460ff166040518084815260200183815260200182151515158152602001935050505060405180910390a26110fa565b608183106110f95760018160040160006101000a81548160ff0219169083151502179055506000610f8160028360030154611ab390919063ffffffff16565b9050610ff981600760008560010160009054906101000a900473ffffffffffffffffffffffffffffffffffffffff1673ffffffffffffffffffffffffffffffffffffffff1673ffffffffffffffffffffffffffffffffffffffff168152602001908152602001600020546115de90919063ffffffff16565b600760008460010160009054906101000a900473ffffffffffffffffffffffffffffffffffffffff1673ffffffffffffffffffffffffffffffffffffffff1673ffffffffffffffffffffffffffffffffffffffff168152602001908152602001600020819055508160010160009054906101000a900473ffffffffffffffffffffffffffffffffffffffff1673ffffffffffffffffffffffffffffffffffffffff167f0948ef2cfa8c16c7422087516e87bcd3f20c04fe0409205ee89a8b70a1059e9189838560040160009054906101000a900460ff166040518084815260200183815260200182151515158152602001935050505060405180910390a2505b5b5b508080600101915050610e07565b5050505b505050565b60086020528060005260406000206000915054906101000a900473ffffffffffffffffffffffffffffffffffffffff1681565b60008060009050600062030d409050600061116283600184611b39565b90507fc4dc360d0a9c0677a3379ae0a3d81e887f761e65fdf3d7e00859d1bcd3c4738960405180806020018281038252603681526020018061478e6036913960400191505060405180910390a180935050505090565b60096020528060005260406000206000915090505481565b6000600680549050905090565b600560009054906101000a900473ffffffffffffffffffffffffffffffffffffffff1681565b60008073ffffffffffffffffffffffffffffffffffffffff16600160009054906101000a900473ffffffffffffffffffffffffffffffffffffffff1673ffffffffffffffffffffffffffffffffffffffff16148061128b57506000611289600160009054906101000a900473ffffffffffffffffffffffffffffffffffffffff166120d4565b145b1561129c5761129a60006120df565b505b600160009054906101000a900473ffffffffffffffffffffffffffffffffffffffff1673ffffffffffffffffffffffffffffffffffffffff166338cc48316040518163ffffffff1660e01b8152600401602060405180830381600087803b15801561130657600080fd5b505af115801561131a573d6000803e3d6000fd5b505050506040513d602081101561133057600080fd5b810190808051906020019092919050505073ffffffffffffffffffffffffffffffffffffffff166000809054906101000a900473ffffffffffffffffffffffffffffffffffffffff1673ffffffffffffffffffffffffffffffffffffffff161461147957600160009054906101000a900473ffffffffffffffffffffffffffffffffffffffff1673ffffffffffffffffffffffffffffffffffffffff166338cc48316040518163ffffffff1660e01b8152600401602060405180830381600087803b1580156113fe57600080fd5b505af1158015611412573d6000803e3d6000fd5b505050506040513d602081101561142857600080fd5b81019080805190602001909291905050506000806101000a81548173ffffffffffffffffffffffffffffffffffffffff021916908373ffffffffffffffffffffffffffffffffffffffff1602179055505b6000809054906101000a900473ffffffffffffffffffffffffffffffffffffffff1673ffffffffffffffffffffffffffffffffffffffff1663524f3889836040518263ffffffff1660e01b81526004018080602001828103825283818151815260200191508051906020019080838360005b838110156115065780820151818401526020810190506114eb565b50505050905090810190601f1680156115335780820380516001836020036101000a031916815260200191505b5092505050602060405180830381600087803b15801561155257600080fd5b505af1158015611566573d6000803e3d6000fd5b505050506040513d602081101561157c57600080fd5b81019080805190602001909291905050509050919050565b60006115d683836040518060400160405280601e81526020017f536166654d6174683a207375627472616374696f6e206f766572666c6f7700008152506120f0565b905092915050565b60008082840190508381101561165c576040517f08c379a000000000000000000000000000000000000000000000000000000000815260040180806020018281038252601b8152602001807f536166654d6174683a206164646974696f6e206f766572666c6f77000000000081525060200191505060405180910390fd5b8091505092915050565b60008073ffffffffffffffffffffffffffffffffffffffff16600160009054906101000a900473ffffffffffffffffffffffffffffffffffffffff1673ffffffffffffffffffffffffffffffffffffffff1614806116ee575060006116ec600160009054906101000a900473ffffffffffffffffffffffffffffffffffffffff166120d4565b145b156116ff576116fd60006120df565b505b600160009054906101000a900473ffffffffffffffffffffffffffffffffffffffff1673ffffffffffffffffffffffffffffffffffffffff166338cc48316040518163ffffffff1660e01b8152600401602060405180830381600087803b15801561176957600080fd5b505af115801561177d573d6000803e3d6000fd5b505050506040513d602081101561179357600080fd5b810190808051906020019092919050505073ffffffffffffffffffffffffffffffffffffffff166000809054906101000a900473ffffffffffffffffffffffffffffffffffffffff1673ffffffffffffffffffffffffffffffffffffffff16146118dc57600160009054906101000a900473ffffffffffffffffffffffffffffffffffffffff1673ffffffffffffffffffffffffffffffffffffffff166338cc48316040518163ffffffff1660e01b8152600401602060405180830381600087803b15801561186157600080fd5b505af1158015611875573d6000803e3d6000fd5b505050506040513d602081101561188b57600080fd5b81019080805190602001909291905050506000806101000a81548173ffffffffffffffffffffffffffffffffffffffff021916908373ffffffffffffffffffffffffffffffffffffffff1602179055505b6000809054906101000a900473ffffffffffffffffffffffffffffffffffffffff1673ffffffffffffffffffffffffffffffffffffffff1663c281d19e6040518163ffffffff1660e01b815260040160206040518083038186803b15801561194357600080fd5b505afa158015611957573d6000803e3d6000fd5b505050506040513d602081101561196d57600080fd5b8101908080519060200190929190505050905090565b60007f4c00000000000000000000000000000000000000000000000000000000000000826000815181106119b357fe5b602001015160f81c60f81b7effffffffffffffffffffffffffffffffffffffffffffffffffffffffffffff1916141580611a4657507f500000000000000000000000000000000000000000000000000000000000000082600181518110611a1657fe5b602001015160f81c60f81b7effffffffffffffffffffffffffffffffffffffffffffffffffffffffffffff191614155b80611a725750600160ff1682600281518110611a5e57fe5b602001015160f81c60f81b60f81c60ff1614155b15611a805760019050611aac565b6000611a95838686611a906121b0565b612252565b905080611aa6576002915050611aac565b60009150505b9392505050565b600080831415611ac65760009050611b33565b6000828402905082848281611ad757fe5b0414611b2e576040517f08c379a000000000000000000000000000000000000000000000000000000000815260040180806020018281038252602181526020018061470c6021913960400191505060405180910390fd5b809150505b92915050565b60008083118015611b4b575060208311155b611b5457600080fd5b600a84029350606060016040519080825280601f01601f191660200182016040528015611b905781602001600182028038833980820191505090505b5090508360f81b81600081518110611ba457fe5b60200101907effffffffffffffffffffffffffffffffffffffffffffffffffffffffffffff1916908160001a905350606060206040519080825280601f01601f191660200182016040528015611c095781602001600182028038833980820191505090505b509050606060206040519080825280601f01601f191660200182016040528015611c425781602001600182028038833980820191505090505b5090506000611c4f6128fd565b905060208352424118600143034018602084015260208252806020830152606060206040519080825280601f01601f191660200182016040528015611ca35781602001600182028038833980820191505090505b509050886020820152606060086040519080825280601f01601f191660200182016040528015611ce25781602001600182028038833980820191505090505b509050611cf58260186008846000612c1a565b50611cfe6145a8565b60405180608001604052808781526020018881526020018681526020018481525090506000611d636040518060400160405280600681526020017f72616e646f6d0000000000000000000000000000000000000000000000000000815250838c612c79565b9050606060086040519080825280601f01601f191660200182016040528015611d9b5781602001600182028038833980820191505090505b50905060208401517f0100000000000000000000000000000000000000000000000000000000000000810460278301537e01000000000000000000000000000000000000000000000000000000000000810460268301537d010000000000000000000000000000000000000000000000000000000000810460258301537c0100000000000000000000000000000000000000000000000000000000810460248301537b01000000000000000000000000000000000000000000000000000000810460238301537a0100000000000000000000000000000000000000000000000000008104602283015379010000000000000000000000000000000000000000000000000081046021830153780100000000000000000000000000000000000000000000000081046020830153506120c1828285600160048110611eda57fe5b6020020151600287600060048110611eee57fe5b60200201516040518082805190602001908083835b60208310611f265780518252602082019150602081019050602083039250611f03565b6001836020036101000a038019825116818451168082178552505050505050905001915050602060405180830381855afa158015611f68573d6000803e3d6000fd5b5050506040513d6020811015611f7d57600080fd5b810190808051906020019092919050505087600260048110611f9b57fe5b60200201516040516020018085805190602001908083835b60208310611fd65780518252602082019150602081019050602083039250611fb3565b6001836020036101000a03801982511681845116808217855250505050505090500184805190602001908083835b602083106120275780518252602082019150602081019050602083039250612004565b6001836020036101000a03801982511681845116808217855250505050505090500183815260200182805190602001908083835b6020831061207e578051825260208201915060208101905060208303925061205b565b6001836020036101000a03801982511681845116808217855250505050505090500194505050505060405160208183030381529060405280519060200120612fe6565b8199505050505050505050509392505050565b6000813b9050919050565b60006120e9613002565b9050919050565b600083831115829061219d576040517f08c379a00000000000000000000000000000000000000000000000000000000081526004018080602001828103825283818151815260200191508051906020019080838360005b83811015612162578082015181840152602081019050612147565b50505050905090810190601f16801561218f5780820380516001836020036101000a031916815260200191505b509250505060405180910390fd5b5060008385039050809150509392505050565b606060028054600181600116156101000203166002900480601f0160208091040260200160405190810160405280929190818152602001828054600181600116156101000203166002900480156122485780601f1061221d57610100808354040283529160200191612248565b820191906000526020600020905b81548152906001019060200180831161222b57829003601f168201915b5050505050905090565b600080602060028760458151811061226657fe5b602001015160f81c60f81b60f81c60ff1601604401019050606060206040519080825280601f01601f1916602001820160405280156122b45781602001600182028038833980820191505090505b5090506122c687836020846000612c1a565b50600284876040516020018083805190602001908083835b6020831061230157805182526020820191506020810190506020830392506122de565b6001836020036101000a038019825116818451168082178552505050505050905001828152602001925050506040516020818303038152906040526040518082805190602001908083835b6020831061236f578051825260208201915060208101905060208303925061234c565b6001836020036101000a038019825116818451168082178552505050505050905001915050602060405180830381855afa1580156123b1573d6000803e3d6000fd5b5050506040513d60208110156123c657600080fd5b81019080805190602001909291905050506040516020018082815260200191505060405160208183030381529060405280519060200120818051906020012014612415576000925050506128f5565b6060600288600160498601018151811061242b57fe5b602001015160f81c60f81b60f81c60ff16016040519080825280601f01601f19166020018201604052801561246f5781602001600182028038833980820191505090505b50905061248488604985018351846000612c1a565b5061254f6002826040518082805190602001908083835b602083106124be578051825260208201915060208101905060208303925061249b565b6001836020036101000a038019825116818451168082178552505050505050905001915050602060405180830381855afa158015612500573d6000803e3d6000fd5b5050506040513d602081101561251557600080fd5b8101908080519060200190929190505050878a600860208801018151811061253957fe5b602001015160f81c60f81b60f81c60ff16613559565b61255f57600093505050506128f5565b606060296040519080825280601f01601f1916602001820160405280156125955781602001600182028038833980820191505090505b5090506125aa89602086016029846000612c1a565b506060604080519080825280601f01601f1916602001820160405280156125e05781602001600182028038833980820191505090505b50905060006041845160296020890101010190506126068b604083036040856000612c1a565b5060006002836040518082805190602001908083835b6020831061263f578051825260208201915060208101905060208303925061261c565b6001836020036101000a038019825116818451168082178552505050505050905001915050602060405180830381855afa158015612681573d6000803e3d6000fd5b5050506040513d602081101561269657600080fd5b8101908080519060200190929190505050905083816040516020018083805190602001908083835b602083106126e157805182526020820191506020810190506020830392506126be565b6001836020036101000a0380198251168184511680821785525050505050509050018281526020019250505060405160208183030381529060405280519060200120600360008d815260200190815260200160002054141561275957600360008c815260200190815260200160002060009055612769565b60009750505050505050506128f5565b606060496040519080825280601f01601f19166020018201604052801561279f5781602001600182028038833980820191505090505b5090506127b18d896049846000612c1a565b5061285a6002826040518082805190602001908083835b602083106127eb57805182526020820191506020810190506020830392506127c8565b6001836020036101000a038019825116818451168082178552505050505050905001915050602060405180830381855afa15801561282d573d6000803e3d6000fd5b5050506040513d602081101561284257600080fd5b81019080805190602001909291905050508786613609565b61286f576000985050505050505050506128f5565b6004600083815260200190815260200160002060009054906101000a900460ff166128c95761289e8d846137c7565b6004600084815260200190815260200160002060006101000a81548160ff0219169083151502179055505b6004600083815260200190815260200160002060009054906101000a900460ff16985050505050505050505b949350505050565b60008073ffffffffffffffffffffffffffffffffffffffff16600160009054906101000a900473ffffffffffffffffffffffffffffffffffffffff1673ffffffffffffffffffffffffffffffffffffffff16148061298557506000612983600160009054906101000a900473ffffffffffffffffffffffffffffffffffffffff166120d4565b145b156129965761299460006120df565b505b600160009054906101000a900473ffffffffffffffffffffffffffffffffffffffff1673ffffffffffffffffffffffffffffffffffffffff166338cc48316040518163ffffffff1660e01b8152600401602060405180830381600087803b158015612a0057600080fd5b505af1158015612a14573d6000803e3d6000fd5b505050506040513d6020811015612a2a57600080fd5b810190808051906020019092919050505073ffffffffffffffffffffffffffffffffffffffff166000809054906101000a900473ffffffffffffffffffffffffffffffffffffffff1673ffffffffffffffffffffffffffffffffffffffff1614612b7357600160009054906101000a900473ffffffffffffffffffffffffffffffffffffffff1673ffffffffffffffffffffffffffffffffffffffff166338cc48316040518163ffffffff1660e01b8152600401602060405180830381600087803b158015612af857600080fd5b505af1158015612b0c573d6000803e3d6000fd5b505050506040513d6020811015612b2257600080fd5b81019080805190602001909291905050506000806101000a81548173ffffffffffffffffffffffffffffffffffffffff021916908373ffffffffffffffffffffffffffffffffffffffff1602179055505b6000809054906101000a900473ffffffffffffffffffffffffffffffffffffffff1673ffffffffffffffffffffffffffffffffffffffff1663abaa5f3e6040518163ffffffff1660e01b815260040160206040518083038186803b158015612bda57600080fd5b505afa158015612bee573d6000803e3d6000fd5b505050506040513d6020811015612c0457600080fd5b8101908080519060200190929190505050905090565b6060600082850190508084511015612c3157600080fd5b600086602001905060008460200190505b868860200101821015612c6a5781890151808288015250602082019150602081019050612c42565b85935050505095945050505050565b60008073ffffffffffffffffffffffffffffffffffffffff16600160009054906101000a900473ffffffffffffffffffffffffffffffffffffffff1673ffffffffffffffffffffffffffffffffffffffff161480612d0157506000612cff600160009054906101000a900473ffffffffffffffffffffffffffffffffffffffff166120d4565b145b15612d1257612d1060006120df565b505b600160009054906101000a900473ffffffffffffffffffffffffffffffffffffffff1673ffffffffffffffffffffffffffffffffffffffff166338cc48316040518163ffffffff1660e01b8152600401602060405180830381600087803b158015612d7c57600080fd5b505af1158015612d90573d6000803e3d6000fd5b505050506040513d6020811015612da657600080fd5b810190808051906020019092919050505073ffffffffffffffffffffffffffffffffffffffff166000809054906101000a900473ffffffffffffffffffffffffffffffffffffffff1673ffffffffffffffffffffffffffffffffffffffff1614612eef57600160009054906101000a900473ffffffffffffffffffffffffffffffffffffffff1673ffffffffffffffffffffffffffffffffffffffff166338cc48316040518163ffffffff1660e01b8152600401602060405180830381600087803b158015612e7457600080fd5b505af1158015612e88573d6000803e3d6000fd5b505050506040513d6020811015612e9e57600080fd5b81019080805190602001909291905050506000806101000a81548173ffffffffffffffffffffffffffffffffffffffff021916908373ffffffffffffffffffffffffffffffffffffffff1602179055505b60606004604051908082528060200260200182016040528015612f2657816020015b6060815260200190600190039081612f115790505b50905083600060048110612f3657fe5b602002015181600081518110612f4857fe5b602002602001018190525083600160048110612f6057fe5b602002015181600181518110612f7257fe5b602002602001018190525083600260048110612f8a57fe5b602002015181600281518110612f9c57fe5b602002602001018190525083600360048110612fb457fe5b602002015181600381518110612fc657fe5b6020026020010181905250612fdc858285613bdf565b9150509392505050565b8060036000848152602001908152602001600020819055505050565b600080613022731d3b2638a7cc9f2cb3d298a3da7a90b67e5506ed6120d4565b11156130c457731d3b2638a7cc9f2cb3d298a3da7a90b67e5506ed600160006101000a81548173ffffffffffffffffffffffffffffffffffffffff021916908373ffffffffffffffffffffffffffffffffffffffff1602179055506130bb6040518060400160405280600b81526020017f6574685f6d61696e6e6574000000000000000000000000000000000000000000815250614141565b60019050613556565b60006130e373c03a2615d5efaf5f49f60b7bb6583eaec212fdf16120d4565b11156131855773c03a2615d5efaf5f49f60b7bb6583eaec212fdf1600160006101000a81548173ffffffffffffffffffffffffffffffffffffffff021916908373ffffffffffffffffffffffffffffffffffffffff16021790555061317c6040518060400160405280600c81526020017f6574685f726f707374656e330000000000000000000000000000000000000000815250614141565b60019050613556565b60006131a473b7a07bcf2ba2f2703b24c0691b5278999c59ac7e6120d4565b11156132465773b7a07bcf2ba2f2703b24c0691b5278999c59ac7e600160006101000a81548173ffffffffffffffffffffffffffffffffffffffff021916908373ffffffffffffffffffffffffffffffffffffffff16021790555061323d6040518060400160405280600981526020017f6574685f6b6f76616e0000000000000000000000000000000000000000000000815250614141565b60019050613556565b600061326573146500cfd35b22e4a392fe0adc06de1a1368ed486120d4565b11156133075773146500cfd35b22e4a392fe0adc06de1a1368ed48600160006101000a81548173ffffffffffffffffffffffffffffffffffffffff021916908373ffffffffffffffffffffffffffffffffffffffff1602179055506132fe6040518060400160405280600b81526020017f6574685f72696e6b656279000000000000000000000000000000000000000000815250614141565b60019050613556565b600061332673a2998efd205fb9d4b4963afb70778d6354ad3a416120d4565b11156133c85773a2998efd205fb9d4b4963afb70778d6354ad3a41600160006101000a81548173ffffffffffffffffffffffffffffffffffffffff021916908373ffffffffffffffffffffffffffffffffffffffff1602179055506133bf6040518060400160405280600a81526020017f6574685f676f65726c6900000000000000000000000000000000000000000000815250614141565b60019050613556565b60006133e7736f485c8bf6fc43ea212e93bbf8ce046c7f1cb4756120d4565b111561344b57736f485c8bf6fc43ea212e93bbf8ce046c7f1cb475600160006101000a81548173ffffffffffffffffffffffffffffffffffffffff021916908373ffffffffffffffffffffffffffffffffffffffff16021790555060019050613556565b600061346a7320e12a1f859b3feae5fb2a0a32c18f5a65555bbf6120d4565b11156134ce577320e12a1f859b3feae5fb2a0a32c18f5a65555bbf600160006101000a81548173ffffffffffffffffffffffffffffffffffffffff021916908373ffffffffffffffffffffffffffffffffffffffff16021790555060019050613556565b60006134ed7351efaf4c8b3c9afbd5ab9f4bbc82784ab6ef8faa6120d4565b1115613551577351efaf4c8b3c9afbd5ab9f4bbc82784ab6ef8faa600160006101000a81548173ffffffffffffffffffffffffffffffffffffffff021916908373ffffffffffffffffffffffffffffffffffffffff16021790555060019050613556565b600090505b90565b600080600190508284511461356d57600080fd5b60008090505b838110156135fd5784818151811061358757fe5b602001015160f81c60f81b7effffffffffffffffffffffffffffffffffffffffffffffffffffffffffffff19168682602081106135c057fe5b1a60f81b7effffffffffffffffffffffffffffffffffffffffffffffffffffffffffffff1916146135f057600091505b8080600101915050613573565b50809150509392505050565b6000806000806000606060206040519080825280601f01601f1916602001820160405280156136475781602001600182028038833980820191505090505b509050600060208960038151811061365b57fe5b602001015160f81c60f81b60f81c60ff1603600401905061368189826020856000612c1a565b9150606060206040519080825280601f01601f1916602001820160405280156136b95781602001600182028038833980820191505090505b5090506022820191506136f58a60208c60018603815181106136d757fe5b602001015160f81c60f81b60f81c60ff160384016020846000612c1a565b905060208301519450602081015193506137128b601b878761415b565b80975081985050508573ffffffffffffffffffffffffffffffffffffffff16898051906020012060001c73ffffffffffffffffffffffffffffffffffffffff1614156137685760019750505050505050506137c0565b6137758b601c878761415b565b80975081985050508573ffffffffffffffffffffffffffffffffffffffff16898051906020012060001c73ffffffffffffffffffffffffffffffffffffffff16149750505050505050505b9392505050565b600080606060028560018601815181106137dd57fe5b602001015160f81c60f81b60f81c60ff16016040519080825280601f01601f1916602001820160405280156138215781602001600182028038833980820191505090505b50905061383385858351846000612c1a565b506060604080519080825280601f01601f1916602001820160405280156138695781602001600182028038833980820191505090505b50905061387c8660046040846000612c1a565b50606060626040519080825280601f01601f1916602001820160405280156138b35781602001600182028038833980820191505090505b509050600160f81b816000815181106138c857fe5b60200101907effffffffffffffffffffffffffffffffffffffffffffffffffffffffffffff1916908160001a90535061390987604188036041846001612c1a565b5060606040518060400160405280602081526020017ffd94fa71bc0ba10d39d464d0d8f465efeef0a2764e3887fcc9df41ded20f505c81525090506139548160006020856042612c1a565b506139fd6002836040518082805190602001908083835b6020831061398e578051825260208201915060208101905060208303925061396b565b6001836020036101000a038019825116818451168082178552505050505050905001915050602060405180830381855afa1580156139d0573d6000803e3d6000fd5b5050506040513d60208110156139e557600080fd5b81019080805190602001909291905050508585613609565b945084613a1257600095505050505050613bd9565b606060405180606001604052806040815260200161474e604091399050606060426040519080825280601f01601f191660200182016040528015613a655781602001600182028038833980820191505090505b50905060fe60f81b81600081518110613a7a57fe5b60200101907effffffffffffffffffffffffffffffffffffffffffffffffffffffffffffff1916908160001a905350613ab98a60036041846001612c1a565b50606060028b604581518110613acb57fe5b602001015160f81c60f81b60f81c60ff16016040519080825280601f01601f191660200182016040528015613b0f5781602001600182028038833980820191505090505b509050613b228b60448351846000612c1a565b50613bcb6002836040518082805190602001908083835b60208310613b5c5780518252602082019150602081019050602083039250613b39565b6001836020036101000a038019825116818451168082178552505050505050905001915050602060405180830381855afa158015613b9e573d6000803e3d6000fd5b5050506040513d6020811015613bb357600080fd5b81019080805190602001909291905050508285613609565b975087985050505050505050505b92915050565b60008073ffffffffffffffffffffffffffffffffffffffff16600160009054906101000a900473ffffffffffffffffffffffffffffffffffffffff1673ffffffffffffffffffffffffffffffffffffffff161480613c6757506000613c65600160009054906101000a900473ffffffffffffffffffffffffffffffffffffffff166120d4565b145b15613c7857613c7660006120df565b505b600160009054906101000a900473ffffffffffffffffffffffffffffffffffffffff1673ffffffffffffffffffffffffffffffffffffffff166338cc48316040518163ffffffff1660e01b8152600401602060405180830381600087803b158015613ce257600080fd5b505af1158015613cf6573d6000803e3d6000fd5b505050506040513d6020811015613d0c57600080fd5b810190808051906020019092919050505073ffffffffffffffffffffffffffffffffffffffff166000809054906101000a900473ffffffffffffffffffffffffffffffffffffffff1673ffffffffffffffffffffffffffffffffffffffff1614613e5557600160009054906101000a900473ffffffffffffffffffffffffffffffffffffffff1673ffffffffffffffffffffffffffffffffffffffff166338cc48316040518163ffffffff1660e01b8152600401602060405180830381600087803b158015613dda57600080fd5b505af1158015613dee573d6000803e3d6000fd5b505050506040513d6020811015613e0457600080fd5b81019080805190602001909291905050506000806101000a81548173ffffffffffffffffffffffffffffffffffffffff021916908373ffffffffffffffffffffffffffffffffffffffff1602179055505b60008060009054906101000a900473ffffffffffffffffffffffffffffffffffffffff1673ffffffffffffffffffffffffffffffffffffffff16632ef3accc86856040518363ffffffff1660e01b81526004018080602001838152602001828103825284818151815260200191508051906020019080838360005b83811015613eeb578082015181840152602081019050613ed0565b50505050905090810190601f168015613f185780820380516001836020036101000a031916815260200191505b509350505050602060405180830381600087803b158015613f3857600080fd5b505af1158015613f4c573d6000803e3d6000fd5b505050506040513d6020811015613f6257600080fd5b81019080805190602001909291905050509050823a02670de0b6b3a764000001811115613f95576000801b91505061413a565b6060613fa08561419f565b90506000809054906101000a900473ffffffffffffffffffffffffffffffffffffffff1673ffffffffffffffffffffffffffffffffffffffff1663c55c1cb68360008985896040518663ffffffff1660e01b8152600401808581526020018060200180602001848152602001838103835286818151815260200191508051906020019080838360005b83811015614044578082015181840152602081019050614029565b50505050905090810190601f1680156140715780820380516001836020036101000a031916815260200191505b50838103825285818151815260200191508051906020019080838360005b838110156140aa57808201518184015260208101905061408f565b50505050905090810190601f1680156140d75780820380516001836020036101000a031916815260200191505b5096505050505050506020604051808303818588803b1580156140f957600080fd5b505af115801561410d573d6000803e3d6000fd5b50505050506040513d602081101561412457600080fd5b8101908080519060200190929190505050925050505b9392505050565b80600290805190602001906141579291906145cf565b5050565b60008060008060405188815287602082015286604082015285606082015260208160808360006001610bb8f192508051915050818193509350505094509492505050565b60606141a961421f565b6141b161464f565b6141bd8161040061422b565b6141c681614275565b60008090505b8351811015614208576141fb8482815181106141e457fe5b60200260200101518361428390919063ffffffff16565b80806001019150506141cc565b50614212816142a8565b8060000151915050919050565b60405180590338823950565b600081905060006020828161423c57fe5b0614614255576020818161424c57fe5b06602003810190505b808360200181815250506040518084526000815281810160405250505050565b6142808160046142b6565b50565b61429082600283516142d7565b6142a3818361441790919063ffffffff16565b505050565b6142b38160076142b6565b50565b6142d3601f60058360ff16901b17836144c290919063ffffffff16565b5050565b60178111614303576142fe8160058460ff16901b60ff1617846144c290919063ffffffff16565b614412565b60ff811161434457614328601860058460ff16901b17846144c290919063ffffffff16565b61433e816001856145029092919063ffffffff16565b50614411565b61ffff81116143865761436a601960058460ff16901b17846144c290919063ffffffff16565b614380816002856145029092919063ffffffff16565b50614410565b63ffffffff81116143ca576143ae601a60058460ff16901b17846144c290919063ffffffff16565b6143c4816004856145029092919063ffffffff16565b5061440f565b67ffffffffffffffff811161440e576143f6601b60058460ff16901b17846144c290919063ffffffff16565b61440c816008856145029092919063ffffffff16565b505b5b5b5b5b505050565b61441f61464f565b8260200151836000015151835101111561444f5761444e83600261444886602001518651614569565b02614585565b5b60008060008451905085518051602081830101945086518101825260208701935050505b602081106144965781518352602083019250602082019150602081039050614473565b60006001826020036101000a039050801983511681855116818117865250508694505050505092915050565b816020015160018360000151510111156144e8576144e7826002846020015102614585565b5b815180516020818301018381536001820183525050505050565b61450a61464f565b83602001518460000151518301111561453857614537846002614531876020015186614569565b02614585565b5b60006001836101000a0390508451805184818301018684198251161781528582018352505050849150509392505050565b60008183111561457b5782905061457f565b8190505b92915050565b606082600001519050614598838361422b565b6145a28382614417565b50505050565b60405180608001604052806004905b60608152602001906001900390816145b75790505090565b828054600181600116156101000203166002900490600052602060002090601f016020900481019282601f1061461057805160ff191683800117855561463e565b8280016001018555821561463e579182015b8281111561463d578251825591602001919060010190614622565b5b50905061464b9190614669565b5090565b604051806040016040528060608152602001600081525090565b61468b91905b8082111561468757600081600090555060010161466f565b5090565b9056fe546865726520617265206e6f7420656e6f7567682066756e647320746f206372656174652074686973207472616e73616374696f6e596f75206d7573742073656e642074686520726571756972656420636f7374206f72206d6f7265546865206265742077617320756e61626c6520746f206265207665726966696564536166654d6174683a206d756c7469706c69636174696f6e206f766572666c6f77596f752063616e2774207761676572206d6f7265207468616e20352065746865727fb956469c5c9b89840d55b43537e66a98dd4811ea0a27224272c2e5622911e8537a2f8e86a46baec82864e98dd01e9ccc2f8bc5dfc9cbe5a91a290498dd96e450726f7661626c65207175657279207761732073656e742c207374616e64696e6720627920666f722074686520616e737765722e2e2ea265627a7a72315820a4bad64d73338017e105befc2edf62fb261928b8c41032c98266c6b0463dc53864736f6c634300050c003250726f7661626c65207175657279207761732073656e742c207374616e64696e6720627920666f722074686520616e737765722e2e2e",
  "source": "import \"./provableAPI.sol\";\nimport './usingModifiers.sol';\nimport './SafeMath.sol';\n\n\npragma solidity 0.5.12;\n\ncontract Betting is usingModifiers, usingProvable  {\n\n    using SafeMath for uint256;\n\n    constructor() public {\n        provable_setProof(proofType_Ledger);\n        update();\n    }\n\n    address public contractAddress = address(this);\n\n    uint constant MAX_INT_FROM_BYTE = 256;\n    uint constant NUM_RANDOM_BYTES_REQUESTED = 1;\n\n    event LogNewProvableQuery(string description);\n    event BetPlaced(bytes32 queryId, address indexed player, uint amount);\n    event BetFailed(bytes32 queryId, string reason);\n    event BetComplete(bytes32 queryId, address indexed player, uint amount, bool betWon);\n\n    struct Bet {\n        bytes32 queryId;\n        address player;\n        uint betAmount;\n        uint calculatedBetAmount;\n        bool betWon;\n        bool isPending;\n    }\n\n    Bet[] public bets;\n\n    mapping (address => uint) public balances;\n    mapping (uint => address) public betToPlayer;\n    mapping (address => uint) public playerBetCount;\n\n    function getBetCount() public view returns (uint) {\n        return bets.length;\n    }\n\n    function bet() public payable\n        costs(0.01 ether)\n        setBettingLimit()\n        mustHaveRequiredFunds(msg.sender, msg.value)\n        mustHaveRequiredFunds(contractAddress, msg.value)\n    {\n        uint queryPrice = provable_getPrice(\"Random\");\n        require(queryPrice < balances[contractAddress]);\n        uint _calculatedBet = msg.value.sub(queryPrice);\n        balances[contractAddress] = balances[contractAddress].add(_calculatedBet);\n        bytes32 _queryId = update();\n        uint id = bets.push(Bet(_queryId, msg.sender, msg.value, _calculatedBet, false, true)) - 1;\n        betToPlayer[id] = msg.sender;\n        playerBetCount[msg.sender] = playerBetCount[msg.sender].add(1);\n        emit BetPlaced(_queryId, msg.sender, _calculatedBet);\n        assert(balances[contractAddress] == contractAddress.balance);\n    }\n\n    function update() payable public returns (bytes32) {\n        uint QUERY_EXECUTION_DELAY = 0;\n        uint GAS_FOR_CALLBACK = 200000;\n        bytes32 queryId = provable_newRandomDSQuery(QUERY_EXECUTION_DELAY, NUM_RANDOM_BYTES_REQUESTED, GAS_FOR_CALLBACK);\n        emit LogNewProvableQuery(\"Provable query was sent, standing by for the answer...\");\n        return queryId;\n    }\n\n    function __callback(bytes32 _queryId, string memory _result, bytes memory _proof) public {\n        require(msg.sender == provable_cbAddress());\n\n        if (provable_randomDS_proofVerify__returnCode(_queryId, _result, _proof) != 0) {\n            emit BetFailed(_queryId, \"The bet was unable to be verified\");\n            return;\n        } else {\n            uint ceiling = (MAX_INT_FROM_BYTE ** NUM_RANDOM_BYTES_REQUESTED) - 1;\n            uint randomNumber = uint(keccak256(abi.encodePacked(_result))) % ceiling;\n\n            for (uint i = 0; i < bets.length; i++) {\n                Bet storage b = bets[i];\n\n                if (b.queryId == _queryId && b.isPending == true) {\n                    b.isPending = false;\n\n                    // Player lost\n                    if (randomNumber <= 128) {\n                        b.betWon = false;\n                        emit BetComplete(_queryId, b.player, b.betAmount, b.betWon);\n\n                    // Player Won\n                    } else if (randomNumber >= 129) {\n                        b.betWon = true;\n                        uint earnings = b.calculatedBetAmount.mul(2);\n                        balances[b.player] = balances[b.player].add(earnings);\n                        emit BetComplete(_queryId, b.player, earnings, b.betWon);\n                    }\n                }\n            }\n        }\n    }\n}\n",
  "sourcePath": "/Users/Sant/Desktop/code/projects/blockchain/ivanontechacademy/coinflip/contracts/Betting.sol",
  "compiler": {
    "name": "solc",
    "version": "0.5.12+commit.7709ece9.Emscripten.clang"
  },
  "schemaVersion": "3.0.19",
  "updatedAt": "2020-02-05T01:10:21.544Z",
  "devdoc": {
    "methods": {
      "__callback(bytes32,string)": {
        "details": "The following `__callback` functions are just placeholders ideally     meant to be defined in child contract when proofs are used.     The function bodies simply silence compiler warnings."
      }
    }
  },
  "userdoc": {
    "methods": {}
  }
}