{
  "contractName": "Betting",
  "abi": [
    {
      "inputs": [],
      "payable": false,
      "stateMutability": "nonpayable",
      "type": "constructor"
    },
    {
      "anonymous": false,
      "inputs": [
        {
          "indexed": false,
          "internalType": "bytes32",
          "name": "queryId",
          "type": "bytes32"
        },
        {
          "indexed": false,
          "internalType": "string",
          "name": "reason",
          "type": "string"
        }
      ],
      "name": "BetFailed",
      "type": "event"
    },
    {
      "anonymous": false,
      "inputs": [
        {
          "indexed": false,
          "internalType": "bytes32",
          "name": "queryId",
          "type": "bytes32"
        }
      ],
      "name": "BetFinished",
      "type": "event"
    },
    {
      "anonymous": false,
      "inputs": [
        {
          "indexed": false,
          "internalType": "bytes32",
          "name": "queryId",
          "type": "bytes32"
        },
        {
          "indexed": false,
          "internalType": "address",
          "name": "player",
          "type": "address"
        },
        {
          "indexed": false,
          "internalType": "uint256",
          "name": "amount",
          "type": "uint256"
        }
      ],
      "name": "BetLost",
      "type": "event"
    },
    {
      "anonymous": false,
      "inputs": [
        {
          "indexed": false,
          "internalType": "bytes32",
          "name": "queryId",
          "type": "bytes32"
        },
        {
          "indexed": false,
          "internalType": "address",
          "name": "player",
          "type": "address"
        },
        {
          "indexed": false,
          "internalType": "uint256",
          "name": "amount",
          "type": "uint256"
        }
      ],
      "name": "BetPlaced",
      "type": "event"
    },
    {
      "anonymous": false,
      "inputs": [
        {
          "indexed": false,
          "internalType": "bytes32",
          "name": "queryId",
          "type": "bytes32"
        },
        {
          "indexed": false,
          "internalType": "address",
          "name": "player",
          "type": "address"
        },
        {
          "indexed": false,
          "internalType": "uint256",
          "name": "amount",
          "type": "uint256"
        }
      ],
      "name": "BetWon",
      "type": "event"
    },
    {
      "anonymous": false,
      "inputs": [
        {
          "indexed": false,
          "internalType": "string",
          "name": "description",
          "type": "string"
        }
      ],
      "name": "LogNewProvableQuery",
      "type": "event"
    },
    {
      "constant": true,
      "inputs": [
        {
          "internalType": "uint256",
          "name": "",
          "type": "uint256"
        }
      ],
      "name": "bets",
      "outputs": [
        {
          "internalType": "bytes32",
          "name": "id",
          "type": "bytes32"
        },
        {
          "internalType": "address payable",
          "name": "player",
          "type": "address"
        },
        {
          "internalType": "uint256",
          "name": "amount",
          "type": "uint256"
        },
        {
          "internalType": "bool",
          "name": "betWon",
          "type": "bool"
        },
        {
          "internalType": "bool",
          "name": "isPending",
          "type": "bool"
        }
      ],
      "payable": false,
      "stateMutability": "view",
      "type": "function"
    },
    {
      "constant": true,
      "inputs": [
        {
          "internalType": "address",
          "name": "",
          "type": "address"
        }
      ],
      "name": "playerBetCount",
      "outputs": [
        {
          "internalType": "uint256",
          "name": "",
          "type": "uint256"
        }
      ],
      "payable": false,
      "stateMutability": "view",
      "type": "function"
    },
    {
      "constant": true,
      "inputs": [
        {
          "internalType": "address",
          "name": "",
          "type": "address"
        }
      ],
      "name": "playerToBet",
      "outputs": [
        {
          "internalType": "bytes32",
          "name": "id",
          "type": "bytes32"
        },
        {
          "internalType": "address payable",
          "name": "player",
          "type": "address"
        },
        {
          "internalType": "uint256",
          "name": "amount",
          "type": "uint256"
        },
        {
          "internalType": "bool",
          "name": "betWon",
          "type": "bool"
        },
        {
          "internalType": "bool",
          "name": "isPending",
          "type": "bool"
        }
      ],
      "payable": false,
      "stateMutability": "view",
      "type": "function"
    },
    {
      "constant": false,
      "inputs": [
        {
          "internalType": "uint256",
          "name": "_amount",
          "type": "uint256"
        }
      ],
      "name": "bet",
      "outputs": [],
      "payable": true,
      "stateMutability": "payable",
      "type": "function"
    },
    {
      "constant": false,
      "inputs": [
        {
          "internalType": "bytes32",
          "name": "_myid",
          "type": "bytes32"
        },
        {
          "internalType": "string",
          "name": "_result",
          "type": "string"
        }
      ],
      "name": "__callback",
      "outputs": [],
      "payable": false,
      "stateMutability": "nonpayable",
      "type": "function"
    },
    {
      "constant": false,
      "inputs": [
        {
          "internalType": "bytes32",
          "name": "_queryId",
          "type": "bytes32"
        },
        {
          "internalType": "string",
          "name": "_result",
          "type": "string"
        },
        {
          "internalType": "bytes",
          "name": "_proof",
          "type": "bytes"
        }
      ],
      "name": "__callback",
      "outputs": [],
      "payable": false,
      "stateMutability": "nonpayable",
      "type": "function"
    },
    {
      "constant": false,
      "inputs": [],
      "name": "update",
      "outputs": [
        {
          "internalType": "bytes32",
          "name": "",
          "type": "bytes32"
        }
      ],
      "payable": true,
      "stateMutability": "payable",
      "type": "function"
    }
  ],
  "bytecode": "0x60806040523480156200001157600080fd5b5062000027603060f81b6200003e60201b60201c565b62000037620003a160201b60201c565b50620022cb565b600073ffffffffffffffffffffffffffffffffffffffff16600160009054906101000a900473ffffffffffffffffffffffffffffffffffffffff1673ffffffffffffffffffffffffffffffffffffffff161480620000ce57506000620000cc600160009054906101000a900473ffffffffffffffffffffffffffffffffffffffff166200041d60201b60201c565b145b15620000e857620000e660006200042860201b60201c565b505b600160009054906101000a900473ffffffffffffffffffffffffffffffffffffffff1673ffffffffffffffffffffffffffffffffffffffff166338cc48316040518163ffffffff1660e01b8152600401602060405180830381600087803b1580156200015357600080fd5b505af115801562000168573d6000803e3d6000fd5b505050506040513d60208110156200017f57600080fd5b810190808051906020019092919050505073ffffffffffffffffffffffffffffffffffffffff166000809054906101000a900473ffffffffffffffffffffffffffffffffffffffff1673ffffffffffffffffffffffffffffffffffffffff1614620002cc57600160009054906101000a900473ffffffffffffffffffffffffffffffffffffffff1673ffffffffffffffffffffffffffffffffffffffff166338cc48316040518163ffffffff1660e01b8152600401602060405180830381600087803b1580156200024f57600080fd5b505af115801562000264573d6000803e3d6000fd5b505050506040513d60208110156200027b57600080fd5b81019080805190602001909291905050506000806101000a81548173ffffffffffffffffffffffffffffffffffffffff021916908373ffffffffffffffffffffffffffffffffffffffff1602179055505b6000809054906101000a900473ffffffffffffffffffffffffffffffffffffffff1673ffffffffffffffffffffffffffffffffffffffff1663688dcfd7826040518263ffffffff1660e01b815260040180827effffffffffffffffffffffffffffffffffffffffffffffffffffffffffffff19167effffffffffffffffffffffffffffffffffffffffffffffffffffffffffffff19168152602001915050600060405180830381600087803b1580156200038557600080fd5b505af11580156200039a573d6000803e3d6000fd5b5050505050565b60008060009050600062030d4090506000620003c6836001846200044160201b60201c565b90507fc4dc360d0a9c0677a3379ae0a3d81e887f761e65fdf3d7e00859d1bcd3c4738960405180806020018281038252603681526020018062005f276036913960400191505060405180910390a180935050505090565b6000813b9050919050565b60006200043a62000a1460201b60201c565b9050919050565b6000808311801562000454575060208311155b6200045e57600080fd5b600a84029350606060016040519080825280601f01601f1916602001820160405280156200049b5781602001600182028038833980820191505090505b5090508360f81b81600081518110620004b057fe5b60200101907effffffffffffffffffffffffffffffffffffffffffffffffffffffffffffff1916908160001a905350606060206040519080825280601f01601f191660200182016040528015620005165781602001600182028038833980820191505090505b509050606060206040519080825280601f01601f191660200182016040528015620005505781602001600182028038833980820191505090505b50905060006200056562000fe360201b60201c565b905060208352424118600143034018602084015260208252806020830152606060206040519080825280601f01601f191660200182016040528015620005ba5781602001600182028038833980820191505090505b509050886020820152606060086040519080825280601f01601f191660200182016040528015620005fa5781602001600182028038833980820191505090505b5090506200061582601860088460006200131c60201b60201c565b5062000620620021da565b604051806080016040528087815260200188815260200186815260200184815250905060006200068d6040518060400160405280600681526020017f72616e646f6d0000000000000000000000000000000000000000000000000000815250838c6200137e60201b60201c565b9050606060086040519080825280601f01601f191660200182016040528015620006c65781602001600182028038833980820191505090505b50905060208401517f0100000000000000000000000000000000000000000000000000000000000000810460278301537e01000000000000000000000000000000000000000000000000000000000000810460268301537d010000000000000000000000000000000000000000000000000000000000810460258301537c0100000000000000000000000000000000000000000000000000000000810460248301537b01000000000000000000000000000000000000000000000000000000810460238301537a01000000000000000000000000000000000000000000000000000081046022830153790100000000000000000000000000000000000000000000000000810460218301537801000000000000000000000000000000000000000000000000810460208301535062000a018282856001600481106200080757fe5b60200201516002876000600481106200081c57fe5b60200201516040518082805190602001908083835b6020831062000856578051825260208201915060208101905060208303925062000831565b6001836020036101000a038019825116818451168082178552505050505050905001915050602060405180830381855afa15801562000899573d6000803e3d6000fd5b5050506040513d6020811015620008af57600080fd5b810190808051906020019092919050505087600260048110620008ce57fe5b60200201516040516020018085805190602001908083835b602083106200090b5780518252602082019150602081019050602083039250620008e6565b6001836020036101000a03801982511681845116808217855250505050505090500184805190602001908083835b602083106200095e578051825260208201915060208101905060208303925062000939565b6001836020036101000a03801982511681845116808217855250505050505090500183815260200182805190602001908083835b60208310620009b7578051825260208201915060208101905060208303925062000992565b6001836020036101000a038019825116818451168082178552505050505050905001945050505050604051602081830303815290604052805190602001206200171660201b60201c565b8199505050505050505050509392505050565b60008062000a3c731d3b2638a7cc9f2cb3d298a3da7a90b67e5506ed6200041d60201b60201c565b111562000ae857731d3b2638a7cc9f2cb3d298a3da7a90b67e5506ed600160006101000a81548173ffffffffffffffffffffffffffffffffffffffff021916908373ffffffffffffffffffffffffffffffffffffffff16021790555062000ade6040518060400160405280600b81526020017f6574685f6d61696e6e65740000000000000000000000000000000000000000008152506200173260201b60201c565b6001905062000fe0565b600062000b0f73c03a2615d5efaf5f49f60b7bb6583eaec212fdf16200041d60201b60201c565b111562000bbb5773c03a2615d5efaf5f49f60b7bb6583eaec212fdf1600160006101000a81548173ffffffffffffffffffffffffffffffffffffffff021916908373ffffffffffffffffffffffffffffffffffffffff16021790555062000bb16040518060400160405280600c81526020017f6574685f726f707374656e3300000000000000000000000000000000000000008152506200173260201b60201c565b6001905062000fe0565b600062000be273b7a07bcf2ba2f2703b24c0691b5278999c59ac7e6200041d60201b60201c565b111562000c8e5773b7a07bcf2ba2f2703b24c0691b5278999c59ac7e600160006101000a81548173ffffffffffffffffffffffffffffffffffffffff021916908373ffffffffffffffffffffffffffffffffffffffff16021790555062000c846040518060400160405280600981526020017f6574685f6b6f76616e00000000000000000000000000000000000000000000008152506200173260201b60201c565b6001905062000fe0565b600062000cb573146500cfd35b22e4a392fe0adc06de1a1368ed486200041d60201b60201c565b111562000d615773146500cfd35b22e4a392fe0adc06de1a1368ed48600160006101000a81548173ffffffffffffffffffffffffffffffffffffffff021916908373ffffffffffffffffffffffffffffffffffffffff16021790555062000d576040518060400160405280600b81526020017f6574685f72696e6b6562790000000000000000000000000000000000000000008152506200173260201b60201c565b6001905062000fe0565b600062000d8873a2998efd205fb9d4b4963afb70778d6354ad3a416200041d60201b60201c565b111562000e345773a2998efd205fb9d4b4963afb70778d6354ad3a41600160006101000a81548173ffffffffffffffffffffffffffffffffffffffff021916908373ffffffffffffffffffffffffffffffffffffffff16021790555062000e2a6040518060400160405280600a81526020017f6574685f676f65726c69000000000000000000000000000000000000000000008152506200173260201b60201c565b6001905062000fe0565b600062000e5b736f485c8bf6fc43ea212e93bbf8ce046c7f1cb4756200041d60201b60201c565b111562000ec157736f485c8bf6fc43ea212e93bbf8ce046c7f1cb475600160006101000a81548173ffffffffffffffffffffffffffffffffffffffff021916908373ffffffffffffffffffffffffffffffffffffffff1602179055506001905062000fe0565b600062000ee87320e12a1f859b3feae5fb2a0a32c18f5a65555bbf6200041d60201b60201c565b111562000f4e577320e12a1f859b3feae5fb2a0a32c18f5a65555bbf600160006101000a81548173ffffffffffffffffffffffffffffffffffffffff021916908373ffffffffffffffffffffffffffffffffffffffff1602179055506001905062000fe0565b600062000f757351efaf4c8b3c9afbd5ab9f4bbc82784ab6ef8faa6200041d60201b60201c565b111562000fdb577351efaf4c8b3c9afbd5ab9f4bbc82784ab6ef8faa600160006101000a81548173ffffffffffffffffffffffffffffffffffffffff021916908373ffffffffffffffffffffffffffffffffffffffff1602179055506001905062000fe0565b600090505b90565b60008073ffffffffffffffffffffffffffffffffffffffff16600160009054906101000a900473ffffffffffffffffffffffffffffffffffffffff1673ffffffffffffffffffffffffffffffffffffffff161480620010745750600062001072600160009054906101000a900473ffffffffffffffffffffffffffffffffffffffff166200041d60201b60201c565b145b156200108e576200108c60006200042860201b60201c565b505b600160009054906101000a900473ffffffffffffffffffffffffffffffffffffffff1673ffffffffffffffffffffffffffffffffffffffff166338cc48316040518163ffffffff1660e01b8152600401602060405180830381600087803b158015620010f957600080fd5b505af11580156200110e573d6000803e3d6000fd5b505050506040513d60208110156200112557600080fd5b810190808051906020019092919050505073ffffffffffffffffffffffffffffffffffffffff166000809054906101000a900473ffffffffffffffffffffffffffffffffffffffff1673ffffffffffffffffffffffffffffffffffffffff16146200127257600160009054906101000a900473ffffffffffffffffffffffffffffffffffffffff1673ffffffffffffffffffffffffffffffffffffffff166338cc48316040518163ffffffff1660e01b8152600401602060405180830381600087803b158015620011f557600080fd5b505af11580156200120a573d6000803e3d6000fd5b505050506040513d60208110156200122157600080fd5b81019080805190602001909291905050506000806101000a81548173ffffffffffffffffffffffffffffffffffffffff021916908373ffffffffffffffffffffffffffffffffffffffff1602179055505b6000809054906101000a900473ffffffffffffffffffffffffffffffffffffffff1673ffffffffffffffffffffffffffffffffffffffff1663abaa5f3e6040518163ffffffff1660e01b815260040160206040518083038186803b158015620012da57600080fd5b505afa158015620012ef573d6000803e3d6000fd5b505050506040513d60208110156200130657600080fd5b8101908080519060200190929190505050905090565b60606000828501905080845110156200133457600080fd5b600086602001905060008460200190505b8688602001018210156200136f578189015180828801525060208201915060208101905062001345565b85935050505095945050505050565b60008073ffffffffffffffffffffffffffffffffffffffff16600160009054906101000a900473ffffffffffffffffffffffffffffffffffffffff1673ffffffffffffffffffffffffffffffffffffffff1614806200140f575060006200140d600160009054906101000a900473ffffffffffffffffffffffffffffffffffffffff166200041d60201b60201c565b145b1562001429576200142760006200042860201b60201c565b505b600160009054906101000a900473ffffffffffffffffffffffffffffffffffffffff1673ffffffffffffffffffffffffffffffffffffffff166338cc48316040518163ffffffff1660e01b8152600401602060405180830381600087803b1580156200149457600080fd5b505af1158015620014a9573d6000803e3d6000fd5b505050506040513d6020811015620014c057600080fd5b810190808051906020019092919050505073ffffffffffffffffffffffffffffffffffffffff166000809054906101000a900473ffffffffffffffffffffffffffffffffffffffff1673ffffffffffffffffffffffffffffffffffffffff16146200160d57600160009054906101000a900473ffffffffffffffffffffffffffffffffffffffff1673ffffffffffffffffffffffffffffffffffffffff166338cc48316040518163ffffffff1660e01b8152600401602060405180830381600087803b1580156200159057600080fd5b505af1158015620015a5573d6000803e3d6000fd5b505050506040513d6020811015620015bc57600080fd5b81019080805190602001909291905050506000806101000a81548173ffffffffffffffffffffffffffffffffffffffff021916908373ffffffffffffffffffffffffffffffffffffffff1602179055505b606060046040519080825280602002602001820160405280156200164657816020015b6060815260200190600190039081620016305790505b509050836000600481106200165757fe5b6020020151816000815181106200166a57fe5b6020026020010181905250836001600481106200168357fe5b6020020151816001815181106200169657fe5b602002602001018190525083600260048110620016af57fe5b602002015181600281518110620016c257fe5b602002602001018190525083600360048110620016db57fe5b602002015181600381518110620016ee57fe5b60200260200101819052506200170c8582856200174e60201b60201c565b9150509392505050565b8060036000848152602001908152602001600020819055505050565b80600290805190602001906200174a92919062002202565b5050565b60008073ffffffffffffffffffffffffffffffffffffffff16600160009054906101000a900473ffffffffffffffffffffffffffffffffffffffff1673ffffffffffffffffffffffffffffffffffffffff161480620017df57506000620017dd600160009054906101000a900473ffffffffffffffffffffffffffffffffffffffff166200041d60201b60201c565b145b15620017f957620017f760006200042860201b60201c565b505b600160009054906101000a900473ffffffffffffffffffffffffffffffffffffffff1673ffffffffffffffffffffffffffffffffffffffff166338cc48316040518163ffffffff1660e01b8152600401602060405180830381600087803b1580156200186457600080fd5b505af115801562001879573d6000803e3d6000fd5b505050506040513d60208110156200189057600080fd5b810190808051906020019092919050505073ffffffffffffffffffffffffffffffffffffffff166000809054906101000a900473ffffffffffffffffffffffffffffffffffffffff1673ffffffffffffffffffffffffffffffffffffffff1614620019dd57600160009054906101000a900473ffffffffffffffffffffffffffffffffffffffff1673ffffffffffffffffffffffffffffffffffffffff166338cc48316040518163ffffffff1660e01b8152600401602060405180830381600087803b1580156200196057600080fd5b505af115801562001975573d6000803e3d6000fd5b505050506040513d60208110156200198c57600080fd5b81019080805190602001909291905050506000806101000a81548173ffffffffffffffffffffffffffffffffffffffff021916908373ffffffffffffffffffffffffffffffffffffffff1602179055505b60008060009054906101000a900473ffffffffffffffffffffffffffffffffffffffff1673ffffffffffffffffffffffffffffffffffffffff16632ef3accc86856040518363ffffffff1660e01b81526004018080602001838152602001828103825284818151815260200191508051906020019080838360005b8381101562001a7557808201518184015260208101905062001a58565b50505050905090810190601f16801562001aa35780820380516001836020036101000a031916815260200191505b509350505050602060405180830381600087803b15801562001ac457600080fd5b505af115801562001ad9573d6000803e3d6000fd5b505050506040513d602081101562001af057600080fd5b81019080805190602001909291905050509050823a02670de0b6b3a76400000181111562001b25576000801b91505062001cdb565b606062001b388562001ce260201b60201c565b90506000809054906101000a900473ffffffffffffffffffffffffffffffffffffffff1673ffffffffffffffffffffffffffffffffffffffff1663c55c1cb68360008985896040518663ffffffff1660e01b8152600401808581526020018060200180602001848152602001838103835286818151815260200191508051906020019080838360005b8381101562001bde57808201518184015260208101905062001bc1565b50505050905090810190601f16801562001c0c5780820380516001836020036101000a031916815260200191505b50838103825285818151815260200191508051906020019080838360005b8381101562001c4757808201518184015260208101905062001c2a565b50505050905090810190601f16801562001c755780820380516001836020036101000a031916815260200191505b5096505050505050506020604051808303818588803b15801562001c9857600080fd5b505af115801562001cad573d6000803e3d6000fd5b50505050506040513d602081101562001cc557600080fd5b8101908080519060200190929190505050925050505b9392505050565b606062001cf462001d9d60201b60201c565b62001cfe62002289565b62001d178161040062001da960201b620036a01760201c565b62001d2d8162001df660201b620036ea1760201c565b60008090505b835181101562001d795762001d6b84828151811062001d4e57fe5b60200260200101518362001e0c60201b620036f81790919060201c565b808060010191505062001d33565b5062001d908162001e4060201b6200371d1760201c565b8060000151915050919050565b60405180590338823950565b600081905060006020828162001dbb57fe5b061462001dd6576020818162001dcd57fe5b06602003810190505b808360200181815250506040518084526000815281810160405250505050565b62001e0981600462001e5660201b60201c565b50565b62001e21826002835162001e7e60201b60201c565b62001e3b81836200200660201b6200388c1790919060201c565b505050565b62001e5381600762001e5660201b60201c565b50565b62001e7a601f60058360ff16901b1783620020c660201b620039371790919060201c565b5050565b6017811162001eb35762001ead8160058460ff16901b60ff161784620020c660201b620039371790919060201c565b62002001565b60ff811162001f045762001ee0601860058460ff16901b1784620020c660201b620039371790919060201c565b62001efd816001856200210f60201b62003977179092919060201c565b5062002000565b61ffff811162001f565762001f32601960058460ff16901b1784620020c660201b620039371790919060201c565b62001f4f816002856200210f60201b62003977179092919060201c565b5062001fff565b63ffffffff811162001faa5762001f86601a60058460ff16901b1784620020c660201b620039371790919060201c565b62001fa3816004856200210f60201b62003977179092919060201c565b5062001ffe565b67ffffffffffffffff811162001ffd5762001fde601b60058460ff16901b1784620020c660201b620039371790919060201c565b62001ffb816008856200210f60201b62003977179092919060201c565b505b5b5b5b5b505050565b6200201062002289565b8260200151836000015151835101111562002051576200205083600262002043866020015186516200218960201b60201c565b02620021a760201b60201c565b5b60008060008451905085518051602081830101945086518101825260208701935050505b602081106200209a578151835260208301925060208201915060208103905062002075565b60006001826020036101000a039050801983511681855116818117865250508694505050505092915050565b81602001516001836000015151011115620020f557620020f4826002846020015102620021a760201b60201c565b5b815180516020818301018381536001820183525050505050565b6200211962002289565b8360200151846000015151830111156200215857620021578460026200214a8760200151866200218960201b60201c565b02620021a760201b60201c565b5b60006001836101000a0390508451805184818301018684198251161781528582018352505050849150509392505050565b6000818311156200219d57829050620021a1565b8190505b92915050565b606082600001519050620021c2838362001da960201b60201c565b620021d483826200200660201b60201c565b50505050565b60405180608001604052806004905b6060815260200190600190039081620021e95790505090565b828054600181600116156101000203166002900490600052602060002090601f016020900481019282601f106200224557805160ff191683800117855562002276565b8280016001018555821562002276579182015b828111156200227557825182559160200191906001019062002258565b5b509050620022859190620022a3565b5090565b604051806040016040528060608152602001600081525090565b620022c891905b80821115620022c4576000816000905550600101620022aa565b5090565b90565b613c4c80620022db6000396000f3fe6080604052600436106100705760003560e01c806338bbfa501161004e57806338bbfa501461029b5780637365870b14610404578063a2e6204514610432578063a95783b51461045057610070565b806310d8065c1461007557806322af00fa1461012a57806327dc297e146101c9575b600080fd5b34801561008157600080fd5b506100c46004803603602081101561009857600080fd5b81019080803573ffffffffffffffffffffffffffffffffffffffff1690602001909291905050506104b5565b604051808681526020018573ffffffffffffffffffffffffffffffffffffffff1673ffffffffffffffffffffffffffffffffffffffff16815260200184815260200183151515158152602001821515151581526020019550505050505060405180910390f35b34801561013657600080fd5b506101636004803603602081101561014d57600080fd5b8101908080359060200190929190505050610525565b604051808681526020018573ffffffffffffffffffffffffffffffffffffffff1673ffffffffffffffffffffffffffffffffffffffff16815260200184815260200183151515158152602001821515151581526020019550505050505060405180910390f35b3480156101d557600080fd5b50610299600480360360408110156101ec57600080fd5b81019080803590602001909291908035906020019064010000000081111561021357600080fd5b82018360208201111561022557600080fd5b8035906020019184600183028401116401000000008311171561024757600080fd5b91908080601f016020809104026020016040519081016040528093929190818152602001838380828437600081840152601f19601f8201169050808301925050505050505091929192905050506105a2565b005b3480156102a757600080fd5b50610402600480360360608110156102be57600080fd5b8101908080359060200190929190803590602001906401000000008111156102e557600080fd5b8201836020820111156102f757600080fd5b8035906020019184600183028401116401000000008311171561031957600080fd5b91908080601f016020809104026020016040519081016040528093929190818152602001838380828437600081840152601f19601f8201169050808301925050505050505091929192908035906020019064010000000081111561037c57600080fd5b82018360208201111561038e57600080fd5b803590602001918460018302840111640100000000831117156103b057600080fd5b91908080601f016020809104026020016040519081016040528093929190818152602001838380828437600081840152601f19601f8201169050808301925050505050505091929192905050506105e5565b005b6104306004803603602081101561041a57600080fd5b810190808035906020019092919050505061075e565b005b61043a610b96565b6040518082815260200191505060405180910390f35b34801561045c57600080fd5b5061049f6004803603602081101561047357600080fd5b81019080803573ffffffffffffffffffffffffffffffffffffffff169060200190929190505050610c09565b6040518082815260200191505060405180910390f35b60066020528060005260406000206000915090508060000154908060010160009054906101000a900473ffffffffffffffffffffffffffffffffffffffff16908060020154908060030160009054906101000a900460ff16908060030160019054906101000a900460ff16905085565b6005818154811061053257fe5b90600052602060002090600402016000915090508060000154908060010160009054906101000a900473ffffffffffffffffffffffffffffffffffffffff16908060020154908060030160009054906101000a900460ff16908060030160019054906101000a900460ff16905085565b6105e1828260006040519080825280601f01601f1916602001820160405280156105db5781602001600182028038833980820191505090505b506105e5565b5050565b6105ed610c21565b73ffffffffffffffffffffffffffffffffffffffff163373ffffffffffffffffffffffffffffffffffffffff161461062457600080fd5b6000610631848484610f3e565b60ff1614610691577f81816b50aae098d98a0f7930cfef379261913e37ed33759052b5eff95fbb8d5f83604051808281526020018060200182810382526021815260200180613b60602191396040019250505060405180910390a1610759565b60006001806101000a039050600081846040516020018082805190602001908083835b602083106106d757805182526020820191506020810190506020830392506106b4565b6001836020036101000a0380198251168184511680821785525050505050509050019150506040516020818303038152906040528051906020012060001c8161071c57fe5b0690507ff3421c93854709397d0d2db783688451d8b0cce5121d0580b704b45a32e9240d856040518082815260200191505060405180910390a150505b505050565b662386f26fc10000803410156107bf576040517f08c379a0000000000000000000000000000000000000000000000000000000008152600401808060200182810382526027815260200180613b396027913960400191505060405180910390fd5b674563918244f40000341115610820576040517f08c379a0000000000000000000000000000000000000000000000000000000008152600401808060200182810382526021815260200180613b816021913960400191505060405180910390fd5b3382808273ffffffffffffffffffffffffffffffffffffffff16311015610892576040517f08c379a0000000000000000000000000000000000000000000000000000000008152600401808060200182810382526035815260200180613b046035913960400191505060405180910390fd5b3084808273ffffffffffffffffffffffffffffffffffffffff16311015610904576040517f08c379a0000000000000000000000000000000000000000000000000000000008152600401808060200182810382526035815260200180613b046035913960400191505060405180910390fd5b6000600660003373ffffffffffffffffffffffffffffffffffffffff1673ffffffffffffffffffffffffffffffffffffffff1681526020019081526020016000209050338160010160006101000a81548173ffffffffffffffffffffffffffffffffffffffff021916908373ffffffffffffffffffffffffffffffffffffffff16021790555086816002018190555060018160030160016101000a81548160ff0219169083151502179055506001600760003373ffffffffffffffffffffffffffffffffffffffff1673ffffffffffffffffffffffffffffffffffffffff168152602001908152602001600020600082825401925050819055506000610a08610b96565b905080826000018190555060058290806001815401808255809150509060018203906000526020600020906004020160009091929091909150600082015481600001556001820160009054906101000a900473ffffffffffffffffffffffffffffffffffffffff168160010160006101000a81548173ffffffffffffffffffffffffffffffffffffffff021916908373ffffffffffffffffffffffffffffffffffffffff160217905550600282015481600201556003820160009054906101000a900460ff168160030160006101000a81548160ff0219169083151502179055506003820160019054906101000a900460ff168160030160016101000a81548160ff0219169083151502179055505050507fcd5f79909b53eb4c55b0a2d7004914519bad1e3ade1b3dae6005d528d83da31e81338a604051808481526020018373ffffffffffffffffffffffffffffffffffffffff1673ffffffffffffffffffffffffffffffffffffffff168152602001828152602001935050505060405180910390a15050505050505050565b60008060009050600062030d4090506000610bb38360018461106e565b90507fc4dc360d0a9c0677a3379ae0a3d81e887f761e65fdf3d7e00859d1bcd3c47389604051808060200182810382526036815260200180613be26036913960400191505060405180910390a180935050505090565b60076020528060005260406000206000915090505481565b60008073ffffffffffffffffffffffffffffffffffffffff16600160009054906101000a900473ffffffffffffffffffffffffffffffffffffffff1673ffffffffffffffffffffffffffffffffffffffff161480610ca957506000610ca7600160009054906101000a900473ffffffffffffffffffffffffffffffffffffffff16611609565b145b15610cba57610cb86000611614565b505b600160009054906101000a900473ffffffffffffffffffffffffffffffffffffffff1673ffffffffffffffffffffffffffffffffffffffff166338cc48316040518163ffffffff1660e01b8152600401602060405180830381600087803b158015610d2457600080fd5b505af1158015610d38573d6000803e3d6000fd5b505050506040513d6020811015610d4e57600080fd5b810190808051906020019092919050505073ffffffffffffffffffffffffffffffffffffffff166000809054906101000a900473ffffffffffffffffffffffffffffffffffffffff1673ffffffffffffffffffffffffffffffffffffffff1614610e9757600160009054906101000a900473ffffffffffffffffffffffffffffffffffffffff1673ffffffffffffffffffffffffffffffffffffffff166338cc48316040518163ffffffff1660e01b8152600401602060405180830381600087803b158015610e1c57600080fd5b505af1158015610e30573d6000803e3d6000fd5b505050506040513d6020811015610e4657600080fd5b81019080805190602001909291905050506000806101000a81548173ffffffffffffffffffffffffffffffffffffffff021916908373ffffffffffffffffffffffffffffffffffffffff1602179055505b6000809054906101000a900473ffffffffffffffffffffffffffffffffffffffff1673ffffffffffffffffffffffffffffffffffffffff1663c281d19e6040518163ffffffff1660e01b815260040160206040518083038186803b158015610efe57600080fd5b505afa158015610f12573d6000803e3d6000fd5b505050506040513d6020811015610f2857600080fd5b8101908080519060200190929190505050905090565b60007f4c0000000000000000000000000000000000000000000000000000000000000082600081518110610f6e57fe5b602001015160f81c60f81b7effffffffffffffffffffffffffffffffffffffffffffffffffffffffffffff191614158061100157507f500000000000000000000000000000000000000000000000000000000000000082600181518110610fd157fe5b602001015160f81c60f81b7effffffffffffffffffffffffffffffffffffffffffffffffffffffffffffff191614155b8061102d5750600160ff168260028151811061101957fe5b602001015160f81c60f81b60f81c60ff1614155b1561103b5760019050611067565b600061105083868661104b611625565b6116c7565b905080611061576002915050611067565b60009150505b9392505050565b60008083118015611080575060208311155b61108957600080fd5b600a84029350606060016040519080825280601f01601f1916602001820160405280156110c55781602001600182028038833980820191505090505b5090508360f81b816000815181106110d957fe5b60200101907effffffffffffffffffffffffffffffffffffffffffffffffffffffffffffff1916908160001a905350606060206040519080825280601f01601f19166020018201604052801561113e5781602001600182028038833980820191505090505b509050606060206040519080825280601f01601f1916602001820160405280156111775781602001600182028038833980820191505090505b5090506000611184611d72565b905060208352424118600143034018602084015260208252806020830152606060206040519080825280601f01601f1916602001820160405280156111d85781602001600182028038833980820191505090505b509050886020820152606060086040519080825280601f01601f1916602001820160405280156112175781602001600182028038833980820191505090505b50905061122a826018600884600061208f565b50611233613a1d565b604051806080016040528087815260200188815260200186815260200184815250905060006112986040518060400160405280600681526020017f72616e646f6d0000000000000000000000000000000000000000000000000000815250838c6120ee565b9050606060086040519080825280601f01601f1916602001820160405280156112d05781602001600182028038833980820191505090505b50905060208401517f0100000000000000000000000000000000000000000000000000000000000000810460278301537e01000000000000000000000000000000000000000000000000000000000000810460268301537d010000000000000000000000000000000000000000000000000000000000810460258301537c0100000000000000000000000000000000000000000000000000000000810460248301537b01000000000000000000000000000000000000000000000000000000810460238301537a0100000000000000000000000000000000000000000000000000008104602283015379010000000000000000000000000000000000000000000000000081046021830153780100000000000000000000000000000000000000000000000081046020830153506115f682828560016004811061140f57fe5b602002015160028760006004811061142357fe5b60200201516040518082805190602001908083835b6020831061145b5780518252602082019150602081019050602083039250611438565b6001836020036101000a038019825116818451168082178552505050505050905001915050602060405180830381855afa15801561149d573d6000803e3d6000fd5b5050506040513d60208110156114b257600080fd5b8101908080519060200190929190505050876002600481106114d057fe5b60200201516040516020018085805190602001908083835b6020831061150b57805182526020820191506020810190506020830392506114e8565b6001836020036101000a03801982511681845116808217855250505050505090500184805190602001908083835b6020831061155c5780518252602082019150602081019050602083039250611539565b6001836020036101000a03801982511681845116808217855250505050505090500183815260200182805190602001908083835b602083106115b35780518252602082019150602081019050602083039250611590565b6001836020036101000a0380198251168184511680821785525050505050509050019450505050506040516020818303038152906040528051906020012061245b565b8199505050505050505050509392505050565b6000813b9050919050565b600061161e612477565b9050919050565b606060028054600181600116156101000203166002900480601f0160208091040260200160405190810160405280929190818152602001828054600181600116156101000203166002900480156116bd5780601f10611692576101008083540402835291602001916116bd565b820191906000526020600020905b8154815290600101906020018083116116a057829003601f168201915b5050505050905090565b60008060206002876045815181106116db57fe5b602001015160f81c60f81b60f81c60ff1601604401019050606060206040519080825280601f01601f1916602001820160405280156117295781602001600182028038833980820191505090505b50905061173b8783602084600061208f565b50600284876040516020018083805190602001908083835b602083106117765780518252602082019150602081019050602083039250611753565b6001836020036101000a038019825116818451168082178552505050505050905001828152602001925050506040516020818303038152906040526040518082805190602001908083835b602083106117e457805182526020820191506020810190506020830392506117c1565b6001836020036101000a038019825116818451168082178552505050505050905001915050602060405180830381855afa158015611826573d6000803e3d6000fd5b5050506040513d602081101561183b57600080fd5b8101908080519060200190929190505050604051602001808281526020019150506040516020818303038152906040528051906020012081805190602001201461188a57600092505050611d6a565b606060028860016049860101815181106118a057fe5b602001015160f81c60f81b60f81c60ff16016040519080825280601f01601f1916602001820160405280156118e45781602001600182028038833980820191505090505b5090506118f98860498501835184600061208f565b506119c46002826040518082805190602001908083835b602083106119335780518252602082019150602081019050602083039250611910565b6001836020036101000a038019825116818451168082178552505050505050905001915050602060405180830381855afa158015611975573d6000803e3d6000fd5b5050506040513d602081101561198a57600080fd5b8101908080519060200190929190505050878a60086020880101815181106119ae57fe5b602001015160f81c60f81b60f81c60ff166129ce565b6119d45760009350505050611d6a565b606060296040519080825280601f01601f191660200182016040528015611a0a5781602001600182028038833980820191505090505b509050611a1f8960208601602984600061208f565b506060604080519080825280601f01601f191660200182016040528015611a555781602001600182028038833980820191505090505b5090506000604184516029602089010101019050611a7b8b60408303604085600061208f565b5060006002836040518082805190602001908083835b60208310611ab45780518252602082019150602081019050602083039250611a91565b6001836020036101000a038019825116818451168082178552505050505050905001915050602060405180830381855afa158015611af6573d6000803e3d6000fd5b5050506040513d6020811015611b0b57600080fd5b8101908080519060200190929190505050905083816040516020018083805190602001908083835b60208310611b565780518252602082019150602081019050602083039250611b33565b6001836020036101000a0380198251168184511680821785525050505050509050018281526020019250505060405160208183030381529060405280519060200120600360008d8152602001908152602001600020541415611bce57600360008c815260200190815260200160002060009055611bde565b6000975050505050505050611d6a565b606060496040519080825280601f01601f191660200182016040528015611c145781602001600182028038833980820191505090505b509050611c268d89604984600061208f565b50611ccf6002826040518082805190602001908083835b60208310611c605780518252602082019150602081019050602083039250611c3d565b6001836020036101000a038019825116818451168082178552505050505050905001915050602060405180830381855afa158015611ca2573d6000803e3d6000fd5b5050506040513d6020811015611cb757600080fd5b81019080805190602001909291905050508786612a7e565b611ce457600098505050505050505050611d6a565b6004600083815260200190815260200160002060009054906101000a900460ff16611d3e57611d138d84612c3c565b6004600084815260200190815260200160002060006101000a81548160ff0219169083151502179055505b6004600083815260200190815260200160002060009054906101000a900460ff16985050505050505050505b949350505050565b60008073ffffffffffffffffffffffffffffffffffffffff16600160009054906101000a900473ffffffffffffffffffffffffffffffffffffffff1673ffffffffffffffffffffffffffffffffffffffff161480611dfa57506000611df8600160009054906101000a900473ffffffffffffffffffffffffffffffffffffffff16611609565b145b15611e0b57611e096000611614565b505b600160009054906101000a900473ffffffffffffffffffffffffffffffffffffffff1673ffffffffffffffffffffffffffffffffffffffff166338cc48316040518163ffffffff1660e01b8152600401602060405180830381600087803b158015611e7557600080fd5b505af1158015611e89573d6000803e3d6000fd5b505050506040513d6020811015611e9f57600080fd5b810190808051906020019092919050505073ffffffffffffffffffffffffffffffffffffffff166000809054906101000a900473ffffffffffffffffffffffffffffffffffffffff1673ffffffffffffffffffffffffffffffffffffffff1614611fe857600160009054906101000a900473ffffffffffffffffffffffffffffffffffffffff1673ffffffffffffffffffffffffffffffffffffffff166338cc48316040518163ffffffff1660e01b8152600401602060405180830381600087803b158015611f6d57600080fd5b505af1158015611f81573d6000803e3d6000fd5b505050506040513d6020811015611f9757600080fd5b81019080805190602001909291905050506000806101000a81548173ffffffffffffffffffffffffffffffffffffffff021916908373ffffffffffffffffffffffffffffffffffffffff1602179055505b6000809054906101000a900473ffffffffffffffffffffffffffffffffffffffff1673ffffffffffffffffffffffffffffffffffffffff1663abaa5f3e6040518163ffffffff1660e01b815260040160206040518083038186803b15801561204f57600080fd5b505afa158015612063573d6000803e3d6000fd5b505050506040513d602081101561207957600080fd5b8101908080519060200190929190505050905090565b60606000828501905080845110156120a657600080fd5b600086602001905060008460200190505b8688602001018210156120df57818901518082880152506020820191506020810190506120b7565b85935050505095945050505050565b60008073ffffffffffffffffffffffffffffffffffffffff16600160009054906101000a900473ffffffffffffffffffffffffffffffffffffffff1673ffffffffffffffffffffffffffffffffffffffff16148061217657506000612174600160009054906101000a900473ffffffffffffffffffffffffffffffffffffffff16611609565b145b15612187576121856000611614565b505b600160009054906101000a900473ffffffffffffffffffffffffffffffffffffffff1673ffffffffffffffffffffffffffffffffffffffff166338cc48316040518163ffffffff1660e01b8152600401602060405180830381600087803b1580156121f157600080fd5b505af1158015612205573d6000803e3d6000fd5b505050506040513d602081101561221b57600080fd5b810190808051906020019092919050505073ffffffffffffffffffffffffffffffffffffffff166000809054906101000a900473ffffffffffffffffffffffffffffffffffffffff1673ffffffffffffffffffffffffffffffffffffffff161461236457600160009054906101000a900473ffffffffffffffffffffffffffffffffffffffff1673ffffffffffffffffffffffffffffffffffffffff166338cc48316040518163ffffffff1660e01b8152600401602060405180830381600087803b1580156122e957600080fd5b505af11580156122fd573d6000803e3d6000fd5b505050506040513d602081101561231357600080fd5b81019080805190602001909291905050506000806101000a81548173ffffffffffffffffffffffffffffffffffffffff021916908373ffffffffffffffffffffffffffffffffffffffff1602179055505b6060600460405190808252806020026020018201604052801561239b57816020015b60608152602001906001900390816123865790505b509050836000600481106123ab57fe5b6020020151816000815181106123bd57fe5b6020026020010181905250836001600481106123d557fe5b6020020151816001815181106123e757fe5b6020026020010181905250836002600481106123ff57fe5b60200201518160028151811061241157fe5b60200260200101819052508360036004811061242957fe5b60200201518160038151811061243b57fe5b6020026020010181905250612451858285613054565b9150509392505050565b8060036000848152602001908152602001600020819055505050565b600080612497731d3b2638a7cc9f2cb3d298a3da7a90b67e5506ed611609565b111561253957731d3b2638a7cc9f2cb3d298a3da7a90b67e5506ed600160006101000a81548173ffffffffffffffffffffffffffffffffffffffff021916908373ffffffffffffffffffffffffffffffffffffffff1602179055506125306040518060400160405280600b81526020017f6574685f6d61696e6e65740000000000000000000000000000000000000000008152506135b6565b600190506129cb565b600061255873c03a2615d5efaf5f49f60b7bb6583eaec212fdf1611609565b11156125fa5773c03a2615d5efaf5f49f60b7bb6583eaec212fdf1600160006101000a81548173ffffffffffffffffffffffffffffffffffffffff021916908373ffffffffffffffffffffffffffffffffffffffff1602179055506125f16040518060400160405280600c81526020017f6574685f726f707374656e3300000000000000000000000000000000000000008152506135b6565b600190506129cb565b600061261973b7a07bcf2ba2f2703b24c0691b5278999c59ac7e611609565b11156126bb5773b7a07bcf2ba2f2703b24c0691b5278999c59ac7e600160006101000a81548173ffffffffffffffffffffffffffffffffffffffff021916908373ffffffffffffffffffffffffffffffffffffffff1602179055506126b26040518060400160405280600981526020017f6574685f6b6f76616e00000000000000000000000000000000000000000000008152506135b6565b600190506129cb565b60006126da73146500cfd35b22e4a392fe0adc06de1a1368ed48611609565b111561277c5773146500cfd35b22e4a392fe0adc06de1a1368ed48600160006101000a81548173ffffffffffffffffffffffffffffffffffffffff021916908373ffffffffffffffffffffffffffffffffffffffff1602179055506127736040518060400160405280600b81526020017f6574685f72696e6b6562790000000000000000000000000000000000000000008152506135b6565b600190506129cb565b600061279b73a2998efd205fb9d4b4963afb70778d6354ad3a41611609565b111561283d5773a2998efd205fb9d4b4963afb70778d6354ad3a41600160006101000a81548173ffffffffffffffffffffffffffffffffffffffff021916908373ffffffffffffffffffffffffffffffffffffffff1602179055506128346040518060400160405280600a81526020017f6574685f676f65726c69000000000000000000000000000000000000000000008152506135b6565b600190506129cb565b600061285c736f485c8bf6fc43ea212e93bbf8ce046c7f1cb475611609565b11156128c057736f485c8bf6fc43ea212e93bbf8ce046c7f1cb475600160006101000a81548173ffffffffffffffffffffffffffffffffffffffff021916908373ffffffffffffffffffffffffffffffffffffffff160217905550600190506129cb565b60006128df7320e12a1f859b3feae5fb2a0a32c18f5a65555bbf611609565b1115612943577320e12a1f859b3feae5fb2a0a32c18f5a65555bbf600160006101000a81548173ffffffffffffffffffffffffffffffffffffffff021916908373ffffffffffffffffffffffffffffffffffffffff160217905550600190506129cb565b60006129627351efaf4c8b3c9afbd5ab9f4bbc82784ab6ef8faa611609565b11156129c6577351efaf4c8b3c9afbd5ab9f4bbc82784ab6ef8faa600160006101000a81548173ffffffffffffffffffffffffffffffffffffffff021916908373ffffffffffffffffffffffffffffffffffffffff160217905550600190506129cb565b600090505b90565b60008060019050828451146129e257600080fd5b60008090505b83811015612a72578481815181106129fc57fe5b602001015160f81c60f81b7effffffffffffffffffffffffffffffffffffffffffffffffffffffffffffff1916868260208110612a3557fe5b1a60f81b7effffffffffffffffffffffffffffffffffffffffffffffffffffffffffffff191614612a6557600091505b80806001019150506129e8565b50809150509392505050565b6000806000806000606060206040519080825280601f01601f191660200182016040528015612abc5781602001600182028038833980820191505090505b5090506000602089600381518110612ad057fe5b602001015160f81c60f81b60f81c60ff16036004019050612af68982602085600061208f565b9150606060206040519080825280601f01601f191660200182016040528015612b2e5781602001600182028038833980820191505090505b509050602282019150612b6a8a60208c6001860381518110612b4c57fe5b602001015160f81c60f81b60f81c60ff16038401602084600061208f565b90506020830151945060208101519350612b878b601b87876135d0565b80975081985050508573ffffffffffffffffffffffffffffffffffffffff16898051906020012060001c73ffffffffffffffffffffffffffffffffffffffff161415612bdd576001975050505050505050612c35565b612bea8b601c87876135d0565b80975081985050508573ffffffffffffffffffffffffffffffffffffffff16898051906020012060001c73ffffffffffffffffffffffffffffffffffffffff16149750505050505050505b9392505050565b60008060606002856001860181518110612c5257fe5b602001015160f81c60f81b60f81c60ff16016040519080825280601f01601f191660200182016040528015612c965781602001600182028038833980820191505090505b509050612ca88585835184600061208f565b506060604080519080825280601f01601f191660200182016040528015612cde5781602001600182028038833980820191505090505b509050612cf1866004604084600061208f565b50606060626040519080825280601f01601f191660200182016040528015612d285781602001600182028038833980820191505090505b509050600160f81b81600081518110612d3d57fe5b60200101907effffffffffffffffffffffffffffffffffffffffffffffffffffffffffffff1916908160001a905350612d7e8760418803604184600161208f565b5060606040518060400160405280602081526020017ffd94fa71bc0ba10d39d464d0d8f465efeef0a2764e3887fcc9df41ded20f505c8152509050612dc9816000602085604261208f565b50612e726002836040518082805190602001908083835b60208310612e035780518252602082019150602081019050602083039250612de0565b6001836020036101000a038019825116818451168082178552505050505050905001915050602060405180830381855afa158015612e45573d6000803e3d6000fd5b5050506040513d6020811015612e5a57600080fd5b81019080805190602001909291905050508585612a7e565b945084612e875760009550505050505061304e565b6060604051806060016040528060408152602001613ba2604091399050606060426040519080825280601f01601f191660200182016040528015612eda5781602001600182028038833980820191505090505b50905060fe60f81b81600081518110612eef57fe5b60200101907effffffffffffffffffffffffffffffffffffffffffffffffffffffffffffff1916908160001a905350612f2e8a6003604184600161208f565b50606060028b604581518110612f4057fe5b602001015160f81c60f81b60f81c60ff16016040519080825280601f01601f191660200182016040528015612f845781602001600182028038833980820191505090505b509050612f978b6044835184600061208f565b506130406002836040518082805190602001908083835b60208310612fd15780518252602082019150602081019050602083039250612fae565b6001836020036101000a038019825116818451168082178552505050505050905001915050602060405180830381855afa158015613013573d6000803e3d6000fd5b5050506040513d602081101561302857600080fd5b81019080805190602001909291905050508285612a7e565b975087985050505050505050505b92915050565b60008073ffffffffffffffffffffffffffffffffffffffff16600160009054906101000a900473ffffffffffffffffffffffffffffffffffffffff1673ffffffffffffffffffffffffffffffffffffffff1614806130dc575060006130da600160009054906101000a900473ffffffffffffffffffffffffffffffffffffffff16611609565b145b156130ed576130eb6000611614565b505b600160009054906101000a900473ffffffffffffffffffffffffffffffffffffffff1673ffffffffffffffffffffffffffffffffffffffff166338cc48316040518163ffffffff1660e01b8152600401602060405180830381600087803b15801561315757600080fd5b505af115801561316b573d6000803e3d6000fd5b505050506040513d602081101561318157600080fd5b810190808051906020019092919050505073ffffffffffffffffffffffffffffffffffffffff166000809054906101000a900473ffffffffffffffffffffffffffffffffffffffff1673ffffffffffffffffffffffffffffffffffffffff16146132ca57600160009054906101000a900473ffffffffffffffffffffffffffffffffffffffff1673ffffffffffffffffffffffffffffffffffffffff166338cc48316040518163ffffffff1660e01b8152600401602060405180830381600087803b15801561324f57600080fd5b505af1158015613263573d6000803e3d6000fd5b505050506040513d602081101561327957600080fd5b81019080805190602001909291905050506000806101000a81548173ffffffffffffffffffffffffffffffffffffffff021916908373ffffffffffffffffffffffffffffffffffffffff1602179055505b60008060009054906101000a900473ffffffffffffffffffffffffffffffffffffffff1673ffffffffffffffffffffffffffffffffffffffff16632ef3accc86856040518363ffffffff1660e01b81526004018080602001838152602001828103825284818151815260200191508051906020019080838360005b83811015613360578082015181840152602081019050613345565b50505050905090810190601f16801561338d5780820380516001836020036101000a031916815260200191505b509350505050602060405180830381600087803b1580156133ad57600080fd5b505af11580156133c1573d6000803e3d6000fd5b505050506040513d60208110156133d757600080fd5b81019080805190602001909291905050509050823a02670de0b6b3a76400000181111561340a576000801b9150506135af565b606061341585613614565b90506000809054906101000a900473ffffffffffffffffffffffffffffffffffffffff1673ffffffffffffffffffffffffffffffffffffffff1663c55c1cb68360008985896040518663ffffffff1660e01b8152600401808581526020018060200180602001848152602001838103835286818151815260200191508051906020019080838360005b838110156134b957808201518184015260208101905061349e565b50505050905090810190601f1680156134e65780820380516001836020036101000a031916815260200191505b50838103825285818151815260200191508051906020019080838360005b8381101561351f578082015181840152602081019050613504565b50505050905090810190601f16801561354c5780820380516001836020036101000a031916815260200191505b5096505050505050506020604051808303818588803b15801561356e57600080fd5b505af1158015613582573d6000803e3d6000fd5b50505050506040513d602081101561359957600080fd5b8101908080519060200190929190505050925050505b9392505050565b80600290805190602001906135cc929190613a44565b5050565b60008060008060405188815287602082015286604082015285606082015260208160808360006001610bb8f192508051915050818193509350505094509492505050565b606061361e613694565b613626613ac4565b613632816104006136a0565b61363b816136ea565b60008090505b835181101561367d5761367084828151811061365957fe5b6020026020010151836136f890919063ffffffff16565b8080600101915050613641565b506136878161371d565b8060000151915050919050565b60405180590338823950565b60008190506000602082816136b157fe5b06146136ca57602081816136c157fe5b06602003810190505b808360200181815250506040518084526000815281810160405250505050565b6136f581600461372b565b50565b613705826002835161374c565b613718818361388c90919063ffffffff16565b505050565b61372881600761372b565b50565b613748601f60058360ff16901b178361393790919063ffffffff16565b5050565b60178111613778576137738160058460ff16901b60ff16178461393790919063ffffffff16565b613887565b60ff81116137b95761379d601860058460ff16901b178461393790919063ffffffff16565b6137b3816001856139779092919063ffffffff16565b50613886565b61ffff81116137fb576137df601960058460ff16901b178461393790919063ffffffff16565b6137f5816002856139779092919063ffffffff16565b50613885565b63ffffffff811161383f57613823601a60058460ff16901b178461393790919063ffffffff16565b613839816004856139779092919063ffffffff16565b50613884565b67ffffffffffffffff81116138835761386b601b60058460ff16901b178461393790919063ffffffff16565b613881816008856139779092919063ffffffff16565b505b5b5b5b5b505050565b613894613ac4565b826020015183600001515183510111156138c4576138c38360026138bd866020015186516139de565b026139fa565b5b60008060008451905085518051602081830101945086518101825260208701935050505b6020811061390b57815183526020830192506020820191506020810390506138e8565b60006001826020036101000a039050801983511681855116818117865250508694505050505092915050565b8160200151600183600001515101111561395d5761395c8260028460200151026139fa565b5b815180516020818301018381536001820183525050505050565b61397f613ac4565b8360200151846000015151830111156139ad576139ac8460026139a68760200151866139de565b026139fa565b5b60006001836101000a0390508451805184818301018684198251161781528582018352505050849150509392505050565b6000818311156139f0578290506139f4565b8190505b92915050565b606082600001519050613a0d83836136a0565b613a17838261388c565b50505050565b60405180608001604052806004905b6060815260200190600190039081613a2c5790505090565b828054600181600116156101000203166002900490600052602060002090601f016020900481019282601f10613a8557805160ff1916838001178555613ab3565b82800160010185558215613ab3579182015b82811115613ab2578251825591602001919060010190613a97565b5b509050613ac09190613ade565b5090565b604051806040016040528060608152602001600081525090565b613b0091905b80821115613afc576000816000905550600101613ae4565b5090565b9056fe546865726520617265206e6f7420656e6f7567682066756e647320746f206372656174652074686973207472616e73616374696f6e596f75206d7573742073656e642074686520726571756972656420636f7374206f72206d6f7265546865206265742077617320756e61626c6520746f206265207665726966696564596f752063616e2774207761676572206d6f7265207468616e20352065746865727fb956469c5c9b89840d55b43537e66a98dd4811ea0a27224272c2e5622911e8537a2f8e86a46baec82864e98dd01e9ccc2f8bc5dfc9cbe5a91a290498dd96e450726f7661626c65207175657279207761732073656e742c207374616e64696e6720627920666f722074686520616e737765722e2e2ea265627a7a72315820f224e3df73475c6953d1ef8f86b4d2d5ff54dec96f640985db9f948260fe334e64736f6c634300050c003250726f7661626c65207175657279207761732073656e742c207374616e64696e6720627920666f722074686520616e737765722e2e2e",
  "source": "import \"./provableAPI.sol\";\nimport './usingModifiers.sol';\n\n\npragma solidity 0.5.12;\n\ncontract Betting is usingModifiers, usingProvable {\n\n    uint constant MAX_INT_FROM_BYTE = 256;\n    uint constant NUM_RANDOM_BYTES_REQUESTED = 1;\n\n    event LogNewProvableQuery(string description);\n    event BetPlaced(bytes32 queryId, address player, uint amount);\n    event BetFailed(bytes32 queryId, string reason);\n    event BetLost(bytes32 queryId, address player, uint amount);\n    event BetWon(bytes32 queryId, address player, uint amount);\n    event BetFinished(bytes32 queryId);\n\n    struct Bet {\n        bytes32 id;\n        address payable player;\n        uint amount;\n        bool betWon;\n        bool isPending;\n    }\n\n    Bet[] public bets;\n\n    mapping (address => Bet) public playerToBet;\n    mapping (address => uint) public playerBetCount;\n\n    constructor() public {\n        provable_setProof(proofType_Ledger);\n        update();\n    }\n\n    function bet(uint _amount) public payable\n        costs(0.01 ether)\n        setBettingLimit()\n        mustHaveRequiredFunds(msg.sender, _amount)\n        mustHaveRequiredFunds(address(this), _amount)\n    {\n        Bet storage thisBet = playerToBet[msg.sender];\n        thisBet.player = msg.sender;\n        thisBet.amount = _amount;\n        thisBet.isPending = true;\n        playerBetCount[msg.sender] += 1;\n        bytes32 queryId = update();\n        thisBet.id = queryId;\n        bets.push(thisBet);\n        emit BetPlaced(queryId, msg.sender, _amount);\n    }\n\n    function __callback(bytes32 _queryId, string memory _result, bytes memory _proof) public {\n        require(msg.sender == provable_cbAddress());\n\n        if (provable_randomDS_proofVerify__returnCode(_queryId, _result, _proof) != 0) {\n            emit BetFailed(_queryId, \"The bet was unable to be verified\");\n            return;\n        } else {\n            uint ceiling = (MAX_INT_FROM_BYTE ** NUM_RANDOM_BYTES_REQUESTED) - 1;\n            uint randomNumber = uint(keccak256(abi.encodePacked(_result))) % ceiling;\n\n            // for (uint index = 0; index <= bets.length; index++) {\n            //     if (bets[index].id == _queryId && bets[index].isPending == true) {\n            //         bets[index].isPending == false;\n\n            //         // Player lost\n            //         if (randomNumber <= 50) {\n            //             bets[index].betWon = false;\n            //             emit BetLost(_queryId, bets[index].player, bets[index].amount);\n\n            //         // Player Won\n            //         } else if (randomNumber >= 51) {\n            //             bets[index].betWon = true;\n            //             address(bets[index].player).transfer(bets[index].amount * 2);\n            //             emit BetWon(_queryId, bets[index].player, bets[index].amount);\n            //         }\n            //     }\n            // }\n            emit BetFinished(_queryId);\n        }\n\n    }\n\n    function update() payable public returns (bytes32) {\n        uint QUERY_EXECUTION_DELAY = 0;\n        uint GAS_FOR_CALLBACK = 200000;\n        bytes32 queryId = provable_newRandomDSQuery(QUERY_EXECUTION_DELAY, NUM_RANDOM_BYTES_REQUESTED, GAS_FOR_CALLBACK);\n        emit LogNewProvableQuery(\"Provable query was sent, standing by for the answer...\");\n        return queryId;\n    }\n}\n",
  "sourcePath": "/Users/Sant/Desktop/code/projects/blockchain/ivanontechacademy/coinflip/contracts/Betting.sol",
  "compiler": {
    "name": "solc",
    "version": "0.5.12+commit.7709ece9.Emscripten.clang"
  },
  "schemaVersion": "3.0.19",
  "updatedAt": "2020-01-31T03:35:13.813Z",
  "devdoc": {
    "methods": {
      "__callback(bytes32,string)": {
        "details": "The following `__callback` functions are just placeholders ideally     meant to be defined in child contract when proofs are used.     The function bodies simply silence compiler warnings."
      }
    }
  },
  "userdoc": {
    "methods": {}
  }
}