{
  "contractName": "Betting",
  "abi": [
    {
      "inputs": [],
      "payable": false,
      "stateMutability": "nonpayable",
      "type": "constructor"
    },
    {
      "anonymous": false,
      "inputs": [
        {
          "indexed": false,
          "internalType": "bytes32",
          "name": "queryId",
          "type": "bytes32"
        },
        {
          "indexed": false,
          "internalType": "address",
          "name": "player",
          "type": "address"
        },
        {
          "indexed": false,
          "internalType": "uint256",
          "name": "amount",
          "type": "uint256"
        },
        {
          "indexed": false,
          "internalType": "bool",
          "name": "betWon",
          "type": "bool"
        }
      ],
      "name": "BetComplete",
      "type": "event"
    },
    {
      "anonymous": false,
      "inputs": [
        {
          "indexed": false,
          "internalType": "bytes32",
          "name": "queryId",
          "type": "bytes32"
        },
        {
          "indexed": false,
          "internalType": "string",
          "name": "reason",
          "type": "string"
        }
      ],
      "name": "BetFailed",
      "type": "event"
    },
    {
      "anonymous": false,
      "inputs": [
        {
          "indexed": false,
          "internalType": "bytes32",
          "name": "queryId",
          "type": "bytes32"
        },
        {
          "indexed": false,
          "internalType": "address",
          "name": "player",
          "type": "address"
        },
        {
          "indexed": false,
          "internalType": "uint256",
          "name": "amount",
          "type": "uint256"
        }
      ],
      "name": "BetPlaced",
      "type": "event"
    },
    {
      "anonymous": false,
      "inputs": [
        {
          "indexed": false,
          "internalType": "string",
          "name": "description",
          "type": "string"
        }
      ],
      "name": "LogNewProvableQuery",
      "type": "event"
    },
    {
      "constant": true,
      "inputs": [
        {
          "internalType": "uint256",
          "name": "",
          "type": "uint256"
        }
      ],
      "name": "betToPlayer",
      "outputs": [
        {
          "internalType": "address",
          "name": "",
          "type": "address"
        }
      ],
      "payable": false,
      "stateMutability": "view",
      "type": "function"
    },
    {
      "constant": true,
      "inputs": [
        {
          "internalType": "uint256",
          "name": "",
          "type": "uint256"
        }
      ],
      "name": "bets",
      "outputs": [
        {
          "internalType": "bytes32",
          "name": "queryId",
          "type": "bytes32"
        },
        {
          "internalType": "address payable",
          "name": "player",
          "type": "address"
        },
        {
          "internalType": "uint256",
          "name": "amount",
          "type": "uint256"
        },
        {
          "internalType": "bool",
          "name": "betWon",
          "type": "bool"
        },
        {
          "internalType": "bool",
          "name": "isPending",
          "type": "bool"
        }
      ],
      "payable": false,
      "stateMutability": "view",
      "type": "function"
    },
    {
      "constant": true,
      "inputs": [
        {
          "internalType": "address",
          "name": "",
          "type": "address"
        }
      ],
      "name": "playerBetCount",
      "outputs": [
        {
          "internalType": "uint256",
          "name": "",
          "type": "uint256"
        }
      ],
      "payable": false,
      "stateMutability": "view",
      "type": "function"
    },
    {
      "constant": true,
      "inputs": [],
      "name": "getBetCount",
      "outputs": [
        {
          "internalType": "uint256",
          "name": "",
          "type": "uint256"
        }
      ],
      "payable": false,
      "stateMutability": "view",
      "type": "function"
    },
    {
      "constant": false,
      "inputs": [
        {
          "internalType": "uint256",
          "name": "_amount",
          "type": "uint256"
        }
      ],
      "name": "bet",
      "outputs": [],
      "payable": true,
      "stateMutability": "payable",
      "type": "function"
    },
    {
      "constant": false,
      "inputs": [],
      "name": "update",
      "outputs": [
        {
          "internalType": "bytes32",
          "name": "",
          "type": "bytes32"
        }
      ],
      "payable": true,
      "stateMutability": "payable",
      "type": "function"
    },
    {
      "constant": false,
      "inputs": [
        {
          "internalType": "bytes32",
          "name": "_myid",
          "type": "bytes32"
        },
        {
          "internalType": "string",
          "name": "_result",
          "type": "string"
        }
      ],
      "name": "__callback",
      "outputs": [],
      "payable": false,
      "stateMutability": "nonpayable",
      "type": "function"
    },
    {
      "constant": false,
      "inputs": [
        {
          "internalType": "bytes32",
          "name": "_queryId",
          "type": "bytes32"
        },
        {
          "internalType": "string",
          "name": "_result",
          "type": "string"
        },
        {
          "internalType": "bytes",
          "name": "_proof",
          "type": "bytes"
        }
      ],
      "name": "__callback",
      "outputs": [],
      "payable": false,
      "stateMutability": "nonpayable",
      "type": "function"
    }
  ],
  "bytecode": "0x60806040523480156200001157600080fd5b5062000027603060f81b6200003e60201b60201c565b62000037620003a160201b60201c565b50620022cb565b600073ffffffffffffffffffffffffffffffffffffffff16600160009054906101000a900473ffffffffffffffffffffffffffffffffffffffff1673ffffffffffffffffffffffffffffffffffffffff161480620000ce57506000620000cc600160009054906101000a900473ffffffffffffffffffffffffffffffffffffffff166200041d60201b60201c565b145b15620000e857620000e660006200042860201b60201c565b505b600160009054906101000a900473ffffffffffffffffffffffffffffffffffffffff1673ffffffffffffffffffffffffffffffffffffffff166338cc48316040518163ffffffff1660e01b8152600401602060405180830381600087803b1580156200015357600080fd5b505af115801562000168573d6000803e3d6000fd5b505050506040513d60208110156200017f57600080fd5b810190808051906020019092919050505073ffffffffffffffffffffffffffffffffffffffff166000809054906101000a900473ffffffffffffffffffffffffffffffffffffffff1673ffffffffffffffffffffffffffffffffffffffff1614620002cc57600160009054906101000a900473ffffffffffffffffffffffffffffffffffffffff1673ffffffffffffffffffffffffffffffffffffffff166338cc48316040518163ffffffff1660e01b8152600401602060405180830381600087803b1580156200024f57600080fd5b505af115801562000264573d6000803e3d6000fd5b505050506040513d60208110156200027b57600080fd5b81019080805190602001909291905050506000806101000a81548173ffffffffffffffffffffffffffffffffffffffff021916908373ffffffffffffffffffffffffffffffffffffffff1602179055505b6000809054906101000a900473ffffffffffffffffffffffffffffffffffffffff1673ffffffffffffffffffffffffffffffffffffffff1663688dcfd7826040518263ffffffff1660e01b815260040180827effffffffffffffffffffffffffffffffffffffffffffffffffffffffffffff19167effffffffffffffffffffffffffffffffffffffffffffffffffffffffffffff19168152602001915050600060405180830381600087803b1580156200038557600080fd5b505af11580156200039a573d6000803e3d6000fd5b5050505050565b60008060009050600062030d4090506000620003c6836001846200044160201b60201c565b90507fc4dc360d0a9c0677a3379ae0a3d81e887f761e65fdf3d7e00859d1bcd3c47389604051808060200182810382526036815260200180620061df6036913960400191505060405180910390a180935050505090565b6000813b9050919050565b60006200043a62000a1460201b60201c565b9050919050565b6000808311801562000454575060208311155b6200045e57600080fd5b600a84029350606060016040519080825280601f01601f1916602001820160405280156200049b5781602001600182028038833980820191505090505b5090508360f81b81600081518110620004b057fe5b60200101907effffffffffffffffffffffffffffffffffffffffffffffffffffffffffffff1916908160001a905350606060206040519080825280601f01601f191660200182016040528015620005165781602001600182028038833980820191505090505b509050606060206040519080825280601f01601f191660200182016040528015620005505781602001600182028038833980820191505090505b50905060006200056562000fe360201b60201c565b905060208352424118600143034018602084015260208252806020830152606060206040519080825280601f01601f191660200182016040528015620005ba5781602001600182028038833980820191505090505b509050886020820152606060086040519080825280601f01601f191660200182016040528015620005fa5781602001600182028038833980820191505090505b5090506200061582601860088460006200131c60201b60201c565b5062000620620021da565b604051806080016040528087815260200188815260200186815260200184815250905060006200068d6040518060400160405280600681526020017f72616e646f6d0000000000000000000000000000000000000000000000000000815250838c6200137e60201b60201c565b9050606060086040519080825280601f01601f191660200182016040528015620006c65781602001600182028038833980820191505090505b50905060208401517f0100000000000000000000000000000000000000000000000000000000000000810460278301537e01000000000000000000000000000000000000000000000000000000000000810460268301537d010000000000000000000000000000000000000000000000000000000000810460258301537c0100000000000000000000000000000000000000000000000000000000810460248301537b01000000000000000000000000000000000000000000000000000000810460238301537a01000000000000000000000000000000000000000000000000000081046022830153790100000000000000000000000000000000000000000000000000810460218301537801000000000000000000000000000000000000000000000000810460208301535062000a018282856001600481106200080757fe5b60200201516002876000600481106200081c57fe5b60200201516040518082805190602001908083835b6020831062000856578051825260208201915060208101905060208303925062000831565b6001836020036101000a038019825116818451168082178552505050505050905001915050602060405180830381855afa15801562000899573d6000803e3d6000fd5b5050506040513d6020811015620008af57600080fd5b810190808051906020019092919050505087600260048110620008ce57fe5b60200201516040516020018085805190602001908083835b602083106200090b5780518252602082019150602081019050602083039250620008e6565b6001836020036101000a03801982511681845116808217855250505050505090500184805190602001908083835b602083106200095e578051825260208201915060208101905060208303925062000939565b6001836020036101000a03801982511681845116808217855250505050505090500183815260200182805190602001908083835b60208310620009b7578051825260208201915060208101905060208303925062000992565b6001836020036101000a038019825116818451168082178552505050505050905001945050505050604051602081830303815290604052805190602001206200171660201b60201c565b8199505050505050505050509392505050565b60008062000a3c731d3b2638a7cc9f2cb3d298a3da7a90b67e5506ed6200041d60201b60201c565b111562000ae857731d3b2638a7cc9f2cb3d298a3da7a90b67e5506ed600160006101000a81548173ffffffffffffffffffffffffffffffffffffffff021916908373ffffffffffffffffffffffffffffffffffffffff16021790555062000ade6040518060400160405280600b81526020017f6574685f6d61696e6e65740000000000000000000000000000000000000000008152506200173260201b60201c565b6001905062000fe0565b600062000b0f73c03a2615d5efaf5f49f60b7bb6583eaec212fdf16200041d60201b60201c565b111562000bbb5773c03a2615d5efaf5f49f60b7bb6583eaec212fdf1600160006101000a81548173ffffffffffffffffffffffffffffffffffffffff021916908373ffffffffffffffffffffffffffffffffffffffff16021790555062000bb16040518060400160405280600c81526020017f6574685f726f707374656e3300000000000000000000000000000000000000008152506200173260201b60201c565b6001905062000fe0565b600062000be273b7a07bcf2ba2f2703b24c0691b5278999c59ac7e6200041d60201b60201c565b111562000c8e5773b7a07bcf2ba2f2703b24c0691b5278999c59ac7e600160006101000a81548173ffffffffffffffffffffffffffffffffffffffff021916908373ffffffffffffffffffffffffffffffffffffffff16021790555062000c846040518060400160405280600981526020017f6574685f6b6f76616e00000000000000000000000000000000000000000000008152506200173260201b60201c565b6001905062000fe0565b600062000cb573146500cfd35b22e4a392fe0adc06de1a1368ed486200041d60201b60201c565b111562000d615773146500cfd35b22e4a392fe0adc06de1a1368ed48600160006101000a81548173ffffffffffffffffffffffffffffffffffffffff021916908373ffffffffffffffffffffffffffffffffffffffff16021790555062000d576040518060400160405280600b81526020017f6574685f72696e6b6562790000000000000000000000000000000000000000008152506200173260201b60201c565b6001905062000fe0565b600062000d8873a2998efd205fb9d4b4963afb70778d6354ad3a416200041d60201b60201c565b111562000e345773a2998efd205fb9d4b4963afb70778d6354ad3a41600160006101000a81548173ffffffffffffffffffffffffffffffffffffffff021916908373ffffffffffffffffffffffffffffffffffffffff16021790555062000e2a6040518060400160405280600a81526020017f6574685f676f65726c69000000000000000000000000000000000000000000008152506200173260201b60201c565b6001905062000fe0565b600062000e5b736f485c8bf6fc43ea212e93bbf8ce046c7f1cb4756200041d60201b60201c565b111562000ec157736f485c8bf6fc43ea212e93bbf8ce046c7f1cb475600160006101000a81548173ffffffffffffffffffffffffffffffffffffffff021916908373ffffffffffffffffffffffffffffffffffffffff1602179055506001905062000fe0565b600062000ee87320e12a1f859b3feae5fb2a0a32c18f5a65555bbf6200041d60201b60201c565b111562000f4e577320e12a1f859b3feae5fb2a0a32c18f5a65555bbf600160006101000a81548173ffffffffffffffffffffffffffffffffffffffff021916908373ffffffffffffffffffffffffffffffffffffffff1602179055506001905062000fe0565b600062000f757351efaf4c8b3c9afbd5ab9f4bbc82784ab6ef8faa6200041d60201b60201c565b111562000fdb577351efaf4c8b3c9afbd5ab9f4bbc82784ab6ef8faa600160006101000a81548173ffffffffffffffffffffffffffffffffffffffff021916908373ffffffffffffffffffffffffffffffffffffffff1602179055506001905062000fe0565b600090505b90565b60008073ffffffffffffffffffffffffffffffffffffffff16600160009054906101000a900473ffffffffffffffffffffffffffffffffffffffff1673ffffffffffffffffffffffffffffffffffffffff161480620010745750600062001072600160009054906101000a900473ffffffffffffffffffffffffffffffffffffffff166200041d60201b60201c565b145b156200108e576200108c60006200042860201b60201c565b505b600160009054906101000a900473ffffffffffffffffffffffffffffffffffffffff1673ffffffffffffffffffffffffffffffffffffffff166338cc48316040518163ffffffff1660e01b8152600401602060405180830381600087803b158015620010f957600080fd5b505af11580156200110e573d6000803e3d6000fd5b505050506040513d60208110156200112557600080fd5b810190808051906020019092919050505073ffffffffffffffffffffffffffffffffffffffff166000809054906101000a900473ffffffffffffffffffffffffffffffffffffffff1673ffffffffffffffffffffffffffffffffffffffff16146200127257600160009054906101000a900473ffffffffffffffffffffffffffffffffffffffff1673ffffffffffffffffffffffffffffffffffffffff166338cc48316040518163ffffffff1660e01b8152600401602060405180830381600087803b158015620011f557600080fd5b505af11580156200120a573d6000803e3d6000fd5b505050506040513d60208110156200122157600080fd5b81019080805190602001909291905050506000806101000a81548173ffffffffffffffffffffffffffffffffffffffff021916908373ffffffffffffffffffffffffffffffffffffffff1602179055505b6000809054906101000a900473ffffffffffffffffffffffffffffffffffffffff1673ffffffffffffffffffffffffffffffffffffffff1663abaa5f3e6040518163ffffffff1660e01b815260040160206040518083038186803b158015620012da57600080fd5b505afa158015620012ef573d6000803e3d6000fd5b505050506040513d60208110156200130657600080fd5b8101908080519060200190929190505050905090565b60606000828501905080845110156200133457600080fd5b600086602001905060008460200190505b8688602001018210156200136f578189015180828801525060208201915060208101905062001345565b85935050505095945050505050565b60008073ffffffffffffffffffffffffffffffffffffffff16600160009054906101000a900473ffffffffffffffffffffffffffffffffffffffff1673ffffffffffffffffffffffffffffffffffffffff1614806200140f575060006200140d600160009054906101000a900473ffffffffffffffffffffffffffffffffffffffff166200041d60201b60201c565b145b1562001429576200142760006200042860201b60201c565b505b600160009054906101000a900473ffffffffffffffffffffffffffffffffffffffff1673ffffffffffffffffffffffffffffffffffffffff166338cc48316040518163ffffffff1660e01b8152600401602060405180830381600087803b1580156200149457600080fd5b505af1158015620014a9573d6000803e3d6000fd5b505050506040513d6020811015620014c057600080fd5b810190808051906020019092919050505073ffffffffffffffffffffffffffffffffffffffff166000809054906101000a900473ffffffffffffffffffffffffffffffffffffffff1673ffffffffffffffffffffffffffffffffffffffff16146200160d57600160009054906101000a900473ffffffffffffffffffffffffffffffffffffffff1673ffffffffffffffffffffffffffffffffffffffff166338cc48316040518163ffffffff1660e01b8152600401602060405180830381600087803b1580156200159057600080fd5b505af1158015620015a5573d6000803e3d6000fd5b505050506040513d6020811015620015bc57600080fd5b81019080805190602001909291905050506000806101000a81548173ffffffffffffffffffffffffffffffffffffffff021916908373ffffffffffffffffffffffffffffffffffffffff1602179055505b606060046040519080825280602002602001820160405280156200164657816020015b6060815260200190600190039081620016305790505b509050836000600481106200165757fe5b6020020151816000815181106200166a57fe5b6020026020010181905250836001600481106200168357fe5b6020020151816001815181106200169657fe5b602002602001018190525083600260048110620016af57fe5b602002015181600281518110620016c257fe5b602002602001018190525083600360048110620016db57fe5b602002015181600381518110620016ee57fe5b60200260200101819052506200170c8582856200174e60201b60201c565b9150509392505050565b8060036000848152602001908152602001600020819055505050565b80600290805190602001906200174a92919062002202565b5050565b60008073ffffffffffffffffffffffffffffffffffffffff16600160009054906101000a900473ffffffffffffffffffffffffffffffffffffffff1673ffffffffffffffffffffffffffffffffffffffff161480620017df57506000620017dd600160009054906101000a900473ffffffffffffffffffffffffffffffffffffffff166200041d60201b60201c565b145b15620017f957620017f760006200042860201b60201c565b505b600160009054906101000a900473ffffffffffffffffffffffffffffffffffffffff1673ffffffffffffffffffffffffffffffffffffffff166338cc48316040518163ffffffff1660e01b8152600401602060405180830381600087803b1580156200186457600080fd5b505af115801562001879573d6000803e3d6000fd5b505050506040513d60208110156200189057600080fd5b810190808051906020019092919050505073ffffffffffffffffffffffffffffffffffffffff166000809054906101000a900473ffffffffffffffffffffffffffffffffffffffff1673ffffffffffffffffffffffffffffffffffffffff1614620019dd57600160009054906101000a900473ffffffffffffffffffffffffffffffffffffffff1673ffffffffffffffffffffffffffffffffffffffff166338cc48316040518163ffffffff1660e01b8152600401602060405180830381600087803b1580156200196057600080fd5b505af115801562001975573d6000803e3d6000fd5b505050506040513d60208110156200198c57600080fd5b81019080805190602001909291905050506000806101000a81548173ffffffffffffffffffffffffffffffffffffffff021916908373ffffffffffffffffffffffffffffffffffffffff1602179055505b60008060009054906101000a900473ffffffffffffffffffffffffffffffffffffffff1673ffffffffffffffffffffffffffffffffffffffff16632ef3accc86856040518363ffffffff1660e01b81526004018080602001838152602001828103825284818151815260200191508051906020019080838360005b8381101562001a7557808201518184015260208101905062001a58565b50505050905090810190601f16801562001aa35780820380516001836020036101000a031916815260200191505b509350505050602060405180830381600087803b15801562001ac457600080fd5b505af115801562001ad9573d6000803e3d6000fd5b505050506040513d602081101562001af057600080fd5b81019080805190602001909291905050509050823a02670de0b6b3a76400000181111562001b25576000801b91505062001cdb565b606062001b388562001ce260201b60201c565b90506000809054906101000a900473ffffffffffffffffffffffffffffffffffffffff1673ffffffffffffffffffffffffffffffffffffffff1663c55c1cb68360008985896040518663ffffffff1660e01b8152600401808581526020018060200180602001848152602001838103835286818151815260200191508051906020019080838360005b8381101562001bde57808201518184015260208101905062001bc1565b50505050905090810190601f16801562001c0c5780820380516001836020036101000a031916815260200191505b50838103825285818151815260200191508051906020019080838360005b8381101562001c4757808201518184015260208101905062001c2a565b50505050905090810190601f16801562001c755780820380516001836020036101000a031916815260200191505b5096505050505050506020604051808303818588803b15801562001c9857600080fd5b505af115801562001cad573d6000803e3d6000fd5b50505050506040513d602081101562001cc557600080fd5b8101908080519060200190929190505050925050505b9392505050565b606062001cf462001d9d60201b60201c565b62001cfe62002289565b62001d178161040062001da960201b620039371760201c565b62001d2d8162001df660201b620039811760201c565b60008090505b835181101562001d795762001d6b84828151811062001d4e57fe5b60200260200101518362001e0c60201b6200398f1790919060201c565b808060010191505062001d33565b5062001d908162001e4060201b620039b41760201c565b8060000151915050919050565b60405180590338823950565b600081905060006020828162001dbb57fe5b061462001dd6576020818162001dcd57fe5b06602003810190505b808360200181815250506040518084526000815281810160405250505050565b62001e0981600462001e5660201b60201c565b50565b62001e21826002835162001e7e60201b60201c565b62001e3b81836200200660201b62003b231790919060201c565b505050565b62001e5381600762001e5660201b60201c565b50565b62001e7a601f60058360ff16901b1783620020c660201b62003bce1790919060201c565b5050565b6017811162001eb35762001ead8160058460ff16901b60ff161784620020c660201b62003bce1790919060201c565b62002001565b60ff811162001f045762001ee0601860058460ff16901b1784620020c660201b62003bce1790919060201c565b62001efd816001856200210f60201b62003c0e179092919060201c565b5062002000565b61ffff811162001f565762001f32601960058460ff16901b1784620020c660201b62003bce1790919060201c565b62001f4f816002856200210f60201b62003c0e179092919060201c565b5062001fff565b63ffffffff811162001faa5762001f86601a60058460ff16901b1784620020c660201b62003bce1790919060201c565b62001fa3816004856200210f60201b62003c0e179092919060201c565b5062001ffe565b67ffffffffffffffff811162001ffd5762001fde601b60058460ff16901b1784620020c660201b62003bce1790919060201c565b62001ffb816008856200210f60201b62003c0e179092919060201c565b505b5b5b5b5b505050565b6200201062002289565b8260200151836000015151835101111562002051576200205083600262002043866020015186516200218960201b60201c565b02620021a760201b60201c565b5b60008060008451905085518051602081830101945086518101825260208701935050505b602081106200209a578151835260208301925060208201915060208103905062002075565b60006001826020036101000a039050801983511681855116818117865250508694505050505092915050565b81602001516001836000015151011115620020f557620020f4826002846020015102620021a760201b60201c565b5b815180516020818301018381536001820183525050505050565b6200211962002289565b8360200151846000015151830111156200215857620021578460026200214a8760200151866200218960201b60201c565b02620021a760201b60201c565b5b60006001836101000a0390508451805184818301018684198251161781528582018352505050849150509392505050565b6000818311156200219d57829050620021a1565b8190505b92915050565b606082600001519050620021c2838362001da960201b60201c565b620021d483826200200660201b60201c565b50505050565b60405180608001604052806004905b6060815260200190600190039081620021e95790505090565b828054600181600116156101000203166002900490600052602060002090601f016020900481019282601f106200224557805160ff191683800117855562002276565b8280016001018555821562002276579182015b828111156200227557825182559160200191906001019062002258565b5b509050620022859190620022a3565b5090565b604051806040016040528060608152602001600081525090565b620022c891905b80821115620022c4576000816000905550600101620022aa565b5090565b90565b613f0480620022db6000396000f3fe60806040526004361061007b5760003560e01c80637365870b1161004e5780637365870b146103d5578063a2e6204514610403578063a95783b514610421578063b93dab0b146104865761007b565b806322af00fa1461008057806327dc297e1461011f57806338bbfa50146101f15780634eb393c61461035a575b600080fd5b34801561008c57600080fd5b506100b9600480360360208110156100a357600080fd5b81019080803590602001909291905050506104b1565b604051808681526020018573ffffffffffffffffffffffffffffffffffffffff1673ffffffffffffffffffffffffffffffffffffffff16815260200184815260200183151515158152602001821515151581526020019550505050505060405180910390f35b34801561012b57600080fd5b506101ef6004803603604081101561014257600080fd5b81019080803590602001909291908035906020019064010000000081111561016957600080fd5b82018360208201111561017b57600080fd5b8035906020019184600183028401116401000000008311171561019d57600080fd5b91908080601f016020809104026020016040519081016040528093929190818152602001838380828437600081840152601f19601f82011690508083019250505050505050919291929050505061052e565b005b3480156101fd57600080fd5b506103586004803603606081101561021457600080fd5b81019080803590602001909291908035906020019064010000000081111561023b57600080fd5b82018360208201111561024d57600080fd5b8035906020019184600183028401116401000000008311171561026f57600080fd5b91908080601f016020809104026020016040519081016040528093929190818152602001838380828437600081840152601f19601f820116905080830192505050505050509192919290803590602001906401000000008111156102d257600080fd5b8201836020820111156102e457600080fd5b8035906020019184600183028401116401000000008311171561030657600080fd5b91908080601f016020809104026020016040519081016040528093929190818152602001838380828437600081840152601f19601f820116905080830192505050505050509192919290505050610571565b005b34801561036657600080fd5b506103936004803603602081101561037d57600080fd5b8101908080359060200190929190505050610984565b604051808273ffffffffffffffffffffffffffffffffffffffff1673ffffffffffffffffffffffffffffffffffffffff16815260200191505060405180910390f35b610401600480360360208110156103eb57600080fd5b81019080803590602001909291905050506109b7565b005b61040b610d9a565b6040518082815260200191505060405180910390f35b34801561042d57600080fd5b506104706004803603602081101561044457600080fd5b81019080803573ffffffffffffffffffffffffffffffffffffffff169060200190929190505050610e0d565b6040518082815260200191505060405180910390f35b34801561049257600080fd5b5061049b610e25565b6040518082815260200191505060405180910390f35b600581815481106104be57fe5b90600052602060002090600402016000915090508060000154908060010160009054906101000a900473ffffffffffffffffffffffffffffffffffffffff16908060020154908060030160009054906101000a900460ff16908060030160019054906101000a900460ff16905085565b61056d828260006040519080825280601f01601f1916602001820160405280156105675781602001600182028038833980820191505090505b50610571565b5050565b610579610e32565b73ffffffffffffffffffffffffffffffffffffffff163373ffffffffffffffffffffffffffffffffffffffff16146105b057600080fd5b60006105bd84848461114f565b60ff161461061d577f81816b50aae098d98a0f7930cfef379261913e37ed33759052b5eff95fbb8d5f83604051808281526020018060200182810382526021815260200180613df7602191396040019250505060405180910390a161097f565b60006001806101000a039050600081846040516020018082805190602001908083835b602083106106635780518252602082019150602081019050602083039250610640565b6001836020036101000a0380198251168184511680821785525050505050509050019150506040516020818303038152906040528051906020012060001c816106a857fe5b06905060008090505b60058054905081101561097b576000600582815481106106cd57fe5b906000526020600020906004020190508681600001541480156107055750600115158160030160019054906101000a900460ff161515145b1561096d5760008160030160016101000a81548160ff021916908315150217905550608083116108095760008160030160006101000a81548160ff0219169083151502179055507f0948ef2cfa8c16c7422087516e87bcd3f20c04fe0409205ee89a8b70a1059e91878260010160009054906101000a900473ffffffffffffffffffffffffffffffffffffffff1683600201548460030160009054906101000a900460ff16604051808581526020018473ffffffffffffffffffffffffffffffffffffffff1673ffffffffffffffffffffffffffffffffffffffff1681526020018381526020018215151515815260200194505050505060405180910390a161096c565b6081831061096b57600061082b6002836002015461127f90919063ffffffff16565b905060018260030160006101000a81548160ff0219169083151502179055508160010160009054906101000a900473ffffffffffffffffffffffffffffffffffffffff1673ffffffffffffffffffffffffffffffffffffffff166108fc829081150290604051600060405180830381858888f193505050501580156108b4573d6000803e3d6000fd5b507f0948ef2cfa8c16c7422087516e87bcd3f20c04fe0409205ee89a8b70a1059e91888360010160009054906101000a900473ffffffffffffffffffffffffffffffffffffffff16838560030160009054906101000a900460ff16604051808581526020018473ffffffffffffffffffffffffffffffffffffffff1673ffffffffffffffffffffffffffffffffffffffff1681526020018381526020018215151515815260200194505050505060405180910390a1505b5b5b5080806001019150506106b1565b5050505b505050565b60066020528060005260406000206000915054906101000a900473ffffffffffffffffffffffffffffffffffffffff1681565b662386f26fc1000080341015610a18576040517f08c379a0000000000000000000000000000000000000000000000000000000008152600401808060200182810382526027815260200180613dd06027913960400191505060405180910390fd5b674563918244f40000341115610a79576040517f08c379a0000000000000000000000000000000000000000000000000000000008152600401808060200182810382526021815260200180613e396021913960400191505060405180910390fd5b3382808273ffffffffffffffffffffffffffffffffffffffff16311015610aeb576040517f08c379a0000000000000000000000000000000000000000000000000000000008152600401808060200182810382526035815260200180613d9b6035913960400191505060405180910390fd5b3084808273ffffffffffffffffffffffffffffffffffffffff16311015610b5d576040517f08c379a0000000000000000000000000000000000000000000000000000000008152600401808060200182810382526035815260200180613d9b6035913960400191505060405180910390fd5b6000610b67610d9a565b90506000600160056040518060a001604052808581526020013373ffffffffffffffffffffffffffffffffffffffff1681526020018b815260200160001515815260200160011515815250908060018154018082558091505090600182039060005260206000209060040201600090919290919091506000820151816000015560208201518160010160006101000a81548173ffffffffffffffffffffffffffffffffffffffff021916908373ffffffffffffffffffffffffffffffffffffffff1602179055506040820151816002015560608201518160030160006101000a81548160ff02191690831515021790555060808201518160030160016101000a81548160ff0219169083151502179055505050039050336006600083815260200190815260200160002060006101000a81548173ffffffffffffffffffffffffffffffffffffffff021916908373ffffffffffffffffffffffffffffffffffffffff1602179055506001600760003373ffffffffffffffffffffffffffffffffffffffff1673ffffffffffffffffffffffffffffffffffffffff168152602001908152602001600020600082825401925050819055507fcd5f79909b53eb4c55b0a2d7004914519bad1e3ade1b3dae6005d528d83da31e82338a604051808481526020018373ffffffffffffffffffffffffffffffffffffffff1673ffffffffffffffffffffffffffffffffffffffff168152602001828152602001935050505060405180910390a15050505050505050565b60008060009050600062030d4090506000610db783600184611305565b90507fc4dc360d0a9c0677a3379ae0a3d81e887f761e65fdf3d7e00859d1bcd3c47389604051808060200182810382526036815260200180613e9a6036913960400191505060405180910390a180935050505090565b60076020528060005260406000206000915090505481565b6000600580549050905090565b60008073ffffffffffffffffffffffffffffffffffffffff16600160009054906101000a900473ffffffffffffffffffffffffffffffffffffffff1673ffffffffffffffffffffffffffffffffffffffff161480610eba57506000610eb8600160009054906101000a900473ffffffffffffffffffffffffffffffffffffffff166118a0565b145b15610ecb57610ec960006118ab565b505b600160009054906101000a900473ffffffffffffffffffffffffffffffffffffffff1673ffffffffffffffffffffffffffffffffffffffff166338cc48316040518163ffffffff1660e01b8152600401602060405180830381600087803b158015610f3557600080fd5b505af1158015610f49573d6000803e3d6000fd5b505050506040513d6020811015610f5f57600080fd5b810190808051906020019092919050505073ffffffffffffffffffffffffffffffffffffffff166000809054906101000a900473ffffffffffffffffffffffffffffffffffffffff1673ffffffffffffffffffffffffffffffffffffffff16146110a857600160009054906101000a900473ffffffffffffffffffffffffffffffffffffffff1673ffffffffffffffffffffffffffffffffffffffff166338cc48316040518163ffffffff1660e01b8152600401602060405180830381600087803b15801561102d57600080fd5b505af1158015611041573d6000803e3d6000fd5b505050506040513d602081101561105757600080fd5b81019080805190602001909291905050506000806101000a81548173ffffffffffffffffffffffffffffffffffffffff021916908373ffffffffffffffffffffffffffffffffffffffff1602179055505b6000809054906101000a900473ffffffffffffffffffffffffffffffffffffffff1673ffffffffffffffffffffffffffffffffffffffff1663c281d19e6040518163ffffffff1660e01b815260040160206040518083038186803b15801561110f57600080fd5b505afa158015611123573d6000803e3d6000fd5b505050506040513d602081101561113957600080fd5b8101908080519060200190929190505050905090565b60007f4c000000000000000000000000000000000000000000000000000000000000008260008151811061117f57fe5b602001015160f81c60f81b7effffffffffffffffffffffffffffffffffffffffffffffffffffffffffffff191614158061121257507f5000000000000000000000000000000000000000000000000000000000000000826001815181106111e257fe5b602001015160f81c60f81b7effffffffffffffffffffffffffffffffffffffffffffffffffffffffffffff191614155b8061123e5750600160ff168260028151811061122a57fe5b602001015160f81c60f81b60f81c60ff1614155b1561124c5760019050611278565b600061126183868661125c6118bc565b61195e565b905080611272576002915050611278565b60009150505b9392505050565b60008083141561129257600090506112ff565b60008284029050828482816112a357fe5b04146112fa576040517f08c379a0000000000000000000000000000000000000000000000000000000008152600401808060200182810382526021815260200180613e186021913960400191505060405180910390fd5b809150505b92915050565b60008083118015611317575060208311155b61132057600080fd5b600a84029350606060016040519080825280601f01601f19166020018201604052801561135c5781602001600182028038833980820191505090505b5090508360f81b8160008151811061137057fe5b60200101907effffffffffffffffffffffffffffffffffffffffffffffffffffffffffffff1916908160001a905350606060206040519080825280601f01601f1916602001820160405280156113d55781602001600182028038833980820191505090505b509050606060206040519080825280601f01601f19166020018201604052801561140e5781602001600182028038833980820191505090505b509050600061141b612009565b905060208352424118600143034018602084015260208252806020830152606060206040519080825280601f01601f19166020018201604052801561146f5781602001600182028038833980820191505090505b509050886020820152606060086040519080825280601f01601f1916602001820160405280156114ae5781602001600182028038833980820191505090505b5090506114c18260186008846000612326565b506114ca613cb4565b6040518060800160405280878152602001888152602001868152602001848152509050600061152f6040518060400160405280600681526020017f72616e646f6d0000000000000000000000000000000000000000000000000000815250838c612385565b9050606060086040519080825280601f01601f1916602001820160405280156115675781602001600182028038833980820191505090505b50905060208401517f0100000000000000000000000000000000000000000000000000000000000000810460278301537e01000000000000000000000000000000000000000000000000000000000000810460268301537d010000000000000000000000000000000000000000000000000000000000810460258301537c0100000000000000000000000000000000000000000000000000000000810460248301537b01000000000000000000000000000000000000000000000000000000810460238301537a01000000000000000000000000000000000000000000000000000081046022830153790100000000000000000000000000000000000000000000000000810460218301537801000000000000000000000000000000000000000000000000810460208301535061188d8282856001600481106116a657fe5b60200201516002876000600481106116ba57fe5b60200201516040518082805190602001908083835b602083106116f257805182526020820191506020810190506020830392506116cf565b6001836020036101000a038019825116818451168082178552505050505050905001915050602060405180830381855afa158015611734573d6000803e3d6000fd5b5050506040513d602081101561174957600080fd5b81019080805190602001909291905050508760026004811061176757fe5b60200201516040516020018085805190602001908083835b602083106117a2578051825260208201915060208101905060208303925061177f565b6001836020036101000a03801982511681845116808217855250505050505090500184805190602001908083835b602083106117f357805182526020820191506020810190506020830392506117d0565b6001836020036101000a03801982511681845116808217855250505050505090500183815260200182805190602001908083835b6020831061184a5780518252602082019150602081019050602083039250611827565b6001836020036101000a038019825116818451168082178552505050505050905001945050505050604051602081830303815290604052805190602001206126f2565b8199505050505050505050509392505050565b6000813b9050919050565b60006118b561270e565b9050919050565b606060028054600181600116156101000203166002900480601f0160208091040260200160405190810160405280929190818152602001828054600181600116156101000203166002900480156119545780601f1061192957610100808354040283529160200191611954565b820191906000526020600020905b81548152906001019060200180831161193757829003601f168201915b5050505050905090565b600080602060028760458151811061197257fe5b602001015160f81c60f81b60f81c60ff1601604401019050606060206040519080825280601f01601f1916602001820160405280156119c05781602001600182028038833980820191505090505b5090506119d287836020846000612326565b50600284876040516020018083805190602001908083835b60208310611a0d57805182526020820191506020810190506020830392506119ea565b6001836020036101000a038019825116818451168082178552505050505050905001828152602001925050506040516020818303038152906040526040518082805190602001908083835b60208310611a7b5780518252602082019150602081019050602083039250611a58565b6001836020036101000a038019825116818451168082178552505050505050905001915050602060405180830381855afa158015611abd573d6000803e3d6000fd5b5050506040513d6020811015611ad257600080fd5b81019080805190602001909291905050506040516020018082815260200191505060405160208183030381529060405280519060200120818051906020012014611b2157600092505050612001565b60606002886001604986010181518110611b3757fe5b602001015160f81c60f81b60f81c60ff16016040519080825280601f01601f191660200182016040528015611b7b5781602001600182028038833980820191505090505b509050611b9088604985018351846000612326565b50611c5b6002826040518082805190602001908083835b60208310611bca5780518252602082019150602081019050602083039250611ba7565b6001836020036101000a038019825116818451168082178552505050505050905001915050602060405180830381855afa158015611c0c573d6000803e3d6000fd5b5050506040513d6020811015611c2157600080fd5b8101908080519060200190929190505050878a6008602088010181518110611c4557fe5b602001015160f81c60f81b60f81c60ff16612c65565b611c6b5760009350505050612001565b606060296040519080825280601f01601f191660200182016040528015611ca15781602001600182028038833980820191505090505b509050611cb689602086016029846000612326565b506060604080519080825280601f01601f191660200182016040528015611cec5781602001600182028038833980820191505090505b5090506000604184516029602089010101019050611d128b604083036040856000612326565b5060006002836040518082805190602001908083835b60208310611d4b5780518252602082019150602081019050602083039250611d28565b6001836020036101000a038019825116818451168082178552505050505050905001915050602060405180830381855afa158015611d8d573d6000803e3d6000fd5b5050506040513d6020811015611da257600080fd5b8101908080519060200190929190505050905083816040516020018083805190602001908083835b60208310611ded5780518252602082019150602081019050602083039250611dca565b6001836020036101000a0380198251168184511680821785525050505050509050018281526020019250505060405160208183030381529060405280519060200120600360008d8152602001908152602001600020541415611e6557600360008c815260200190815260200160002060009055611e75565b6000975050505050505050612001565b606060496040519080825280601f01601f191660200182016040528015611eab5781602001600182028038833980820191505090505b509050611ebd8d896049846000612326565b50611f666002826040518082805190602001908083835b60208310611ef75780518252602082019150602081019050602083039250611ed4565b6001836020036101000a038019825116818451168082178552505050505050905001915050602060405180830381855afa158015611f39573d6000803e3d6000fd5b5050506040513d6020811015611f4e57600080fd5b81019080805190602001909291905050508786612d15565b611f7b57600098505050505050505050612001565b6004600083815260200190815260200160002060009054906101000a900460ff16611fd557611faa8d84612ed3565b6004600084815260200190815260200160002060006101000a81548160ff0219169083151502179055505b6004600083815260200190815260200160002060009054906101000a900460ff16985050505050505050505b949350505050565b60008073ffffffffffffffffffffffffffffffffffffffff16600160009054906101000a900473ffffffffffffffffffffffffffffffffffffffff1673ffffffffffffffffffffffffffffffffffffffff1614806120915750600061208f600160009054906101000a900473ffffffffffffffffffffffffffffffffffffffff166118a0565b145b156120a2576120a060006118ab565b505b600160009054906101000a900473ffffffffffffffffffffffffffffffffffffffff1673ffffffffffffffffffffffffffffffffffffffff166338cc48316040518163ffffffff1660e01b8152600401602060405180830381600087803b15801561210c57600080fd5b505af1158015612120573d6000803e3d6000fd5b505050506040513d602081101561213657600080fd5b810190808051906020019092919050505073ffffffffffffffffffffffffffffffffffffffff166000809054906101000a900473ffffffffffffffffffffffffffffffffffffffff1673ffffffffffffffffffffffffffffffffffffffff161461227f57600160009054906101000a900473ffffffffffffffffffffffffffffffffffffffff1673ffffffffffffffffffffffffffffffffffffffff166338cc48316040518163ffffffff1660e01b8152600401602060405180830381600087803b15801561220457600080fd5b505af1158015612218573d6000803e3d6000fd5b505050506040513d602081101561222e57600080fd5b81019080805190602001909291905050506000806101000a81548173ffffffffffffffffffffffffffffffffffffffff021916908373ffffffffffffffffffffffffffffffffffffffff1602179055505b6000809054906101000a900473ffffffffffffffffffffffffffffffffffffffff1673ffffffffffffffffffffffffffffffffffffffff1663abaa5f3e6040518163ffffffff1660e01b815260040160206040518083038186803b1580156122e657600080fd5b505afa1580156122fa573d6000803e3d6000fd5b505050506040513d602081101561231057600080fd5b8101908080519060200190929190505050905090565b606060008285019050808451101561233d57600080fd5b600086602001905060008460200190505b868860200101821015612376578189015180828801525060208201915060208101905061234e565b85935050505095945050505050565b60008073ffffffffffffffffffffffffffffffffffffffff16600160009054906101000a900473ffffffffffffffffffffffffffffffffffffffff1673ffffffffffffffffffffffffffffffffffffffff16148061240d5750600061240b600160009054906101000a900473ffffffffffffffffffffffffffffffffffffffff166118a0565b145b1561241e5761241c60006118ab565b505b600160009054906101000a900473ffffffffffffffffffffffffffffffffffffffff1673ffffffffffffffffffffffffffffffffffffffff166338cc48316040518163ffffffff1660e01b8152600401602060405180830381600087803b15801561248857600080fd5b505af115801561249c573d6000803e3d6000fd5b505050506040513d60208110156124b257600080fd5b810190808051906020019092919050505073ffffffffffffffffffffffffffffffffffffffff166000809054906101000a900473ffffffffffffffffffffffffffffffffffffffff1673ffffffffffffffffffffffffffffffffffffffff16146125fb57600160009054906101000a900473ffffffffffffffffffffffffffffffffffffffff1673ffffffffffffffffffffffffffffffffffffffff166338cc48316040518163ffffffff1660e01b8152600401602060405180830381600087803b15801561258057600080fd5b505af1158015612594573d6000803e3d6000fd5b505050506040513d60208110156125aa57600080fd5b81019080805190602001909291905050506000806101000a81548173ffffffffffffffffffffffffffffffffffffffff021916908373ffffffffffffffffffffffffffffffffffffffff1602179055505b6060600460405190808252806020026020018201604052801561263257816020015b606081526020019060019003908161261d5790505b5090508360006004811061264257fe5b60200201518160008151811061265457fe5b60200260200101819052508360016004811061266c57fe5b60200201518160018151811061267e57fe5b60200260200101819052508360026004811061269657fe5b6020020151816002815181106126a857fe5b6020026020010181905250836003600481106126c057fe5b6020020151816003815181106126d257fe5b60200260200101819052506126e88582856132eb565b9150509392505050565b8060036000848152602001908152602001600020819055505050565b60008061272e731d3b2638a7cc9f2cb3d298a3da7a90b67e5506ed6118a0565b11156127d057731d3b2638a7cc9f2cb3d298a3da7a90b67e5506ed600160006101000a81548173ffffffffffffffffffffffffffffffffffffffff021916908373ffffffffffffffffffffffffffffffffffffffff1602179055506127c76040518060400160405280600b81526020017f6574685f6d61696e6e657400000000000000000000000000000000000000000081525061384d565b60019050612c62565b60006127ef73c03a2615d5efaf5f49f60b7bb6583eaec212fdf16118a0565b11156128915773c03a2615d5efaf5f49f60b7bb6583eaec212fdf1600160006101000a81548173ffffffffffffffffffffffffffffffffffffffff021916908373ffffffffffffffffffffffffffffffffffffffff1602179055506128886040518060400160405280600c81526020017f6574685f726f707374656e33000000000000000000000000000000000000000081525061384d565b60019050612c62565b60006128b073b7a07bcf2ba2f2703b24c0691b5278999c59ac7e6118a0565b11156129525773b7a07bcf2ba2f2703b24c0691b5278999c59ac7e600160006101000a81548173ffffffffffffffffffffffffffffffffffffffff021916908373ffffffffffffffffffffffffffffffffffffffff1602179055506129496040518060400160405280600981526020017f6574685f6b6f76616e000000000000000000000000000000000000000000000081525061384d565b60019050612c62565b600061297173146500cfd35b22e4a392fe0adc06de1a1368ed486118a0565b1115612a135773146500cfd35b22e4a392fe0adc06de1a1368ed48600160006101000a81548173ffffffffffffffffffffffffffffffffffffffff021916908373ffffffffffffffffffffffffffffffffffffffff160217905550612a0a6040518060400160405280600b81526020017f6574685f72696e6b65627900000000000000000000000000000000000000000081525061384d565b60019050612c62565b6000612a3273a2998efd205fb9d4b4963afb70778d6354ad3a416118a0565b1115612ad45773a2998efd205fb9d4b4963afb70778d6354ad3a41600160006101000a81548173ffffffffffffffffffffffffffffffffffffffff021916908373ffffffffffffffffffffffffffffffffffffffff160217905550612acb6040518060400160405280600a81526020017f6574685f676f65726c690000000000000000000000000000000000000000000081525061384d565b60019050612c62565b6000612af3736f485c8bf6fc43ea212e93bbf8ce046c7f1cb4756118a0565b1115612b5757736f485c8bf6fc43ea212e93bbf8ce046c7f1cb475600160006101000a81548173ffffffffffffffffffffffffffffffffffffffff021916908373ffffffffffffffffffffffffffffffffffffffff16021790555060019050612c62565b6000612b767320e12a1f859b3feae5fb2a0a32c18f5a65555bbf6118a0565b1115612bda577320e12a1f859b3feae5fb2a0a32c18f5a65555bbf600160006101000a81548173ffffffffffffffffffffffffffffffffffffffff021916908373ffffffffffffffffffffffffffffffffffffffff16021790555060019050612c62565b6000612bf97351efaf4c8b3c9afbd5ab9f4bbc82784ab6ef8faa6118a0565b1115612c5d577351efaf4c8b3c9afbd5ab9f4bbc82784ab6ef8faa600160006101000a81548173ffffffffffffffffffffffffffffffffffffffff021916908373ffffffffffffffffffffffffffffffffffffffff16021790555060019050612c62565b600090505b90565b6000806001905082845114612c7957600080fd5b60008090505b83811015612d0957848181518110612c9357fe5b602001015160f81c60f81b7effffffffffffffffffffffffffffffffffffffffffffffffffffffffffffff1916868260208110612ccc57fe5b1a60f81b7effffffffffffffffffffffffffffffffffffffffffffffffffffffffffffff191614612cfc57600091505b8080600101915050612c7f565b50809150509392505050565b6000806000806000606060206040519080825280601f01601f191660200182016040528015612d535781602001600182028038833980820191505090505b5090506000602089600381518110612d6757fe5b602001015160f81c60f81b60f81c60ff16036004019050612d8d89826020856000612326565b9150606060206040519080825280601f01601f191660200182016040528015612dc55781602001600182028038833980820191505090505b509050602282019150612e018a60208c6001860381518110612de357fe5b602001015160f81c60f81b60f81c60ff160384016020846000612326565b90506020830151945060208101519350612e1e8b601b8787613867565b80975081985050508573ffffffffffffffffffffffffffffffffffffffff16898051906020012060001c73ffffffffffffffffffffffffffffffffffffffff161415612e74576001975050505050505050612ecc565b612e818b601c8787613867565b80975081985050508573ffffffffffffffffffffffffffffffffffffffff16898051906020012060001c73ffffffffffffffffffffffffffffffffffffffff16149750505050505050505b9392505050565b60008060606002856001860181518110612ee957fe5b602001015160f81c60f81b60f81c60ff16016040519080825280601f01601f191660200182016040528015612f2d5781602001600182028038833980820191505090505b509050612f3f85858351846000612326565b506060604080519080825280601f01601f191660200182016040528015612f755781602001600182028038833980820191505090505b509050612f888660046040846000612326565b50606060626040519080825280601f01601f191660200182016040528015612fbf5781602001600182028038833980820191505090505b509050600160f81b81600081518110612fd457fe5b60200101907effffffffffffffffffffffffffffffffffffffffffffffffffffffffffffff1916908160001a90535061301587604188036041846001612326565b5060606040518060400160405280602081526020017ffd94fa71bc0ba10d39d464d0d8f465efeef0a2764e3887fcc9df41ded20f505c81525090506130608160006020856042612326565b506131096002836040518082805190602001908083835b6020831061309a5780518252602082019150602081019050602083039250613077565b6001836020036101000a038019825116818451168082178552505050505050905001915050602060405180830381855afa1580156130dc573d6000803e3d6000fd5b5050506040513d60208110156130f157600080fd5b81019080805190602001909291905050508585612d15565b94508461311e576000955050505050506132e5565b6060604051806060016040528060408152602001613e5a604091399050606060426040519080825280601f01601f1916602001820160405280156131715781602001600182028038833980820191505090505b50905060fe60f81b8160008151811061318657fe5b60200101907effffffffffffffffffffffffffffffffffffffffffffffffffffffffffffff1916908160001a9053506131c58a60036041846001612326565b50606060028b6045815181106131d757fe5b602001015160f81c60f81b60f81c60ff16016040519080825280601f01601f19166020018201604052801561321b5781602001600182028038833980820191505090505b50905061322e8b60448351846000612326565b506132d76002836040518082805190602001908083835b602083106132685780518252602082019150602081019050602083039250613245565b6001836020036101000a038019825116818451168082178552505050505050905001915050602060405180830381855afa1580156132aa573d6000803e3d6000fd5b5050506040513d60208110156132bf57600080fd5b81019080805190602001909291905050508285612d15565b975087985050505050505050505b92915050565b60008073ffffffffffffffffffffffffffffffffffffffff16600160009054906101000a900473ffffffffffffffffffffffffffffffffffffffff1673ffffffffffffffffffffffffffffffffffffffff16148061337357506000613371600160009054906101000a900473ffffffffffffffffffffffffffffffffffffffff166118a0565b145b156133845761338260006118ab565b505b600160009054906101000a900473ffffffffffffffffffffffffffffffffffffffff1673ffffffffffffffffffffffffffffffffffffffff166338cc48316040518163ffffffff1660e01b8152600401602060405180830381600087803b1580156133ee57600080fd5b505af1158015613402573d6000803e3d6000fd5b505050506040513d602081101561341857600080fd5b810190808051906020019092919050505073ffffffffffffffffffffffffffffffffffffffff166000809054906101000a900473ffffffffffffffffffffffffffffffffffffffff1673ffffffffffffffffffffffffffffffffffffffff161461356157600160009054906101000a900473ffffffffffffffffffffffffffffffffffffffff1673ffffffffffffffffffffffffffffffffffffffff166338cc48316040518163ffffffff1660e01b8152600401602060405180830381600087803b1580156134e657600080fd5b505af11580156134fa573d6000803e3d6000fd5b505050506040513d602081101561351057600080fd5b81019080805190602001909291905050506000806101000a81548173ffffffffffffffffffffffffffffffffffffffff021916908373ffffffffffffffffffffffffffffffffffffffff1602179055505b60008060009054906101000a900473ffffffffffffffffffffffffffffffffffffffff1673ffffffffffffffffffffffffffffffffffffffff16632ef3accc86856040518363ffffffff1660e01b81526004018080602001838152602001828103825284818151815260200191508051906020019080838360005b838110156135f75780820151818401526020810190506135dc565b50505050905090810190601f1680156136245780820380516001836020036101000a031916815260200191505b509350505050602060405180830381600087803b15801561364457600080fd5b505af1158015613658573d6000803e3d6000fd5b505050506040513d602081101561366e57600080fd5b81019080805190602001909291905050509050823a02670de0b6b3a7640000018111156136a1576000801b915050613846565b60606136ac856138ab565b90506000809054906101000a900473ffffffffffffffffffffffffffffffffffffffff1673ffffffffffffffffffffffffffffffffffffffff1663c55c1cb68360008985896040518663ffffffff1660e01b8152600401808581526020018060200180602001848152602001838103835286818151815260200191508051906020019080838360005b83811015613750578082015181840152602081019050613735565b50505050905090810190601f16801561377d5780820380516001836020036101000a031916815260200191505b50838103825285818151815260200191508051906020019080838360005b838110156137b657808201518184015260208101905061379b565b50505050905090810190601f1680156137e35780820380516001836020036101000a031916815260200191505b5096505050505050506020604051808303818588803b15801561380557600080fd5b505af1158015613819573d6000803e3d6000fd5b50505050506040513d602081101561383057600080fd5b8101908080519060200190929190505050925050505b9392505050565b8060029080519060200190613863929190613cdb565b5050565b60008060008060405188815287602082015286604082015285606082015260208160808360006001610bb8f192508051915050818193509350505094509492505050565b60606138b561392b565b6138bd613d5b565b6138c981610400613937565b6138d281613981565b60008090505b8351811015613914576139078482815181106138f057fe5b60200260200101518361398f90919063ffffffff16565b80806001019150506138d8565b5061391e816139b4565b8060000151915050919050565b60405180590338823950565b600081905060006020828161394857fe5b0614613961576020818161395857fe5b06602003810190505b808360200181815250506040518084526000815281810160405250505050565b61398c8160046139c2565b50565b61399c82600283516139e3565b6139af8183613b2390919063ffffffff16565b505050565b6139bf8160076139c2565b50565b6139df601f60058360ff16901b1783613bce90919063ffffffff16565b5050565b60178111613a0f57613a0a8160058460ff16901b60ff161784613bce90919063ffffffff16565b613b1e565b60ff8111613a5057613a34601860058460ff16901b1784613bce90919063ffffffff16565b613a4a81600185613c0e9092919063ffffffff16565b50613b1d565b61ffff8111613a9257613a76601960058460ff16901b1784613bce90919063ffffffff16565b613a8c81600285613c0e9092919063ffffffff16565b50613b1c565b63ffffffff8111613ad657613aba601a60058460ff16901b1784613bce90919063ffffffff16565b613ad081600485613c0e9092919063ffffffff16565b50613b1b565b67ffffffffffffffff8111613b1a57613b02601b60058460ff16901b1784613bce90919063ffffffff16565b613b1881600885613c0e9092919063ffffffff16565b505b5b5b5b5b505050565b613b2b613d5b565b82602001518360000151518351011115613b5b57613b5a836002613b5486602001518651613c75565b02613c91565b5b60008060008451905085518051602081830101945086518101825260208701935050505b60208110613ba25781518352602083019250602082019150602081039050613b7f565b60006001826020036101000a039050801983511681855116818117865250508694505050505092915050565b81602001516001836000015151011115613bf457613bf3826002846020015102613c91565b5b815180516020818301018381536001820183525050505050565b613c16613d5b565b836020015184600001515183011115613c4457613c43846002613c3d876020015186613c75565b02613c91565b5b60006001836101000a0390508451805184818301018684198251161781528582018352505050849150509392505050565b600081831115613c8757829050613c8b565b8190505b92915050565b606082600001519050613ca48383613937565b613cae8382613b23565b50505050565b60405180608001604052806004905b6060815260200190600190039081613cc35790505090565b828054600181600116156101000203166002900490600052602060002090601f016020900481019282601f10613d1c57805160ff1916838001178555613d4a565b82800160010185558215613d4a579182015b82811115613d49578251825591602001919060010190613d2e565b5b509050613d579190613d75565b5090565b604051806040016040528060608152602001600081525090565b613d9791905b80821115613d93576000816000905550600101613d7b565b5090565b9056fe546865726520617265206e6f7420656e6f7567682066756e647320746f206372656174652074686973207472616e73616374696f6e596f75206d7573742073656e642074686520726571756972656420636f7374206f72206d6f7265546865206265742077617320756e61626c6520746f206265207665726966696564536166654d6174683a206d756c7469706c69636174696f6e206f766572666c6f77596f752063616e2774207761676572206d6f7265207468616e20352065746865727fb956469c5c9b89840d55b43537e66a98dd4811ea0a27224272c2e5622911e8537a2f8e86a46baec82864e98dd01e9ccc2f8bc5dfc9cbe5a91a290498dd96e450726f7661626c65207175657279207761732073656e742c207374616e64696e6720627920666f722074686520616e737765722e2e2ea265627a7a7231582034c22076ad3875a46e14bfc30dd36e85f9de14222bff7d0cac45251f28238b3264736f6c634300050c003250726f7661626c65207175657279207761732073656e742c207374616e64696e6720627920666f722074686520616e737765722e2e2e",
  "source": "import \"./provableAPI.sol\";\nimport './usingModifiers.sol';\nimport './SafeMath.sol';\n\n\npragma solidity 0.5.12;\n\ncontract Betting is usingModifiers, usingProvable  {\n    using SafeMath for uint256;\n\n    constructor() public {\n        provable_setProof(proofType_Ledger);\n        update();\n    }\n\n    uint constant MAX_INT_FROM_BYTE = 256;\n    uint constant NUM_RANDOM_BYTES_REQUESTED = 1;\n\n    event LogNewProvableQuery(string description);\n    event BetPlaced(bytes32 queryId, address player, uint amount);\n    event BetFailed(bytes32 queryId, string reason);\n    event BetComplete(bytes32 queryId, address player, uint amount, bool betWon);\n\n    struct Bet {\n        bytes32 queryId;\n        address payable player;\n        uint amount;\n        bool betWon;\n        bool isPending;\n    }\n\n    Bet[] public bets;\n\n    mapping (uint => address) public betToPlayer;\n    mapping (address => uint) public playerBetCount;\n\n    function getBetCount() public view returns (uint) {\n      return bets.length;\n    }\n\n    function bet(uint _amount) public payable\n        costs(0.01 ether)\n        setBettingLimit()\n        mustHaveRequiredFunds(msg.sender, _amount)\n        mustHaveRequiredFunds(address(this), _amount)\n    {\n        bytes32 _queryId = update();\n        uint id = bets.push(Bet(_queryId, msg.sender, _amount, false, true)) - 1;\n        betToPlayer[id] = msg.sender;\n        playerBetCount[msg.sender] += 1;\n        emit BetPlaced(_queryId, msg.sender, _amount);\n    }\n\n    function update() payable public returns (bytes32) {\n        uint QUERY_EXECUTION_DELAY = 0;\n        uint GAS_FOR_CALLBACK = 200000;\n        bytes32 queryId = provable_newRandomDSQuery(QUERY_EXECUTION_DELAY, NUM_RANDOM_BYTES_REQUESTED, GAS_FOR_CALLBACK);\n        emit LogNewProvableQuery(\"Provable query was sent, standing by for the answer...\");\n        return queryId;\n    }\n\n    function __callback(bytes32 _queryId, string memory _result, bytes memory _proof) public {\n        require(msg.sender == provable_cbAddress());\n\n        if (provable_randomDS_proofVerify__returnCode(_queryId, _result, _proof) != 0) {\n            emit BetFailed(_queryId, \"The bet was unable to be verified\");\n            return;\n        } else {\n            uint ceiling = (MAX_INT_FROM_BYTE ** NUM_RANDOM_BYTES_REQUESTED) - 1;\n            uint randomNumber = uint(keccak256(abi.encodePacked(_result))) % ceiling;\n\n            for (uint i = 0; i < bets.length; i++) {\n                Bet storage b = bets[i];\n\n                if (b.queryId == _queryId && b.isPending == true) {\n                    b.isPending = false;\n\n                    // Player lost\n                    if (randomNumber <= 128) {\n                        b.betWon = false;\n                        emit BetComplete(_queryId, b.player, b.amount, b.betWon);\n\n                    // Player Won\n                    } else if (randomNumber >= 129) {\n                        uint earnings = b.amount.mul(2);\n\n                        b.betWon = true;\n                        address(b.player).transfer(earnings);\n                        emit BetComplete(_queryId, b.player, earnings, b.betWon);\n                    }\n                }\n            }\n        }\n    }\n}\n",
  "sourcePath": "/Users/Sant/Desktop/code/projects/blockchain/ivanontechacademy/coinflip/contracts/Betting.sol",
  "compiler": {
    "name": "solc",
    "version": "0.5.12+commit.7709ece9.Emscripten.clang"
  },
  "schemaVersion": "3.0.19",
  "updatedAt": "2020-01-31T23:49:32.101Z",
  "devdoc": {
    "methods": {
      "__callback(bytes32,string)": {
        "details": "The following `__callback` functions are just placeholders ideally     meant to be defined in child contract when proofs are used.     The function bodies simply silence compiler warnings."
      }
    }
  },
  "userdoc": {
    "methods": {}
  }
}