{
  "contractName": "CoinFlip",
  "abi": [
    {
      "anonymous": false,
      "inputs": [
        {
          "indexed": false,
          "internalType": "address",
          "name": "sender",
          "type": "address"
        },
        {
          "indexed": false,
          "internalType": "uint256",
          "name": "amount",
          "type": "uint256"
        },
        {
          "indexed": false,
          "internalType": "bool",
          "name": "betWon",
          "type": "bool"
        }
      ],
      "name": "BetPlaced",
      "type": "event"
    },
    {
      "anonymous": false,
      "inputs": [
        {
          "indexed": false,
          "internalType": "address",
          "name": "sender",
          "type": "address"
        },
        {
          "indexed": false,
          "internalType": "uint256",
          "name": "amount",
          "type": "uint256"
        }
      ],
      "name": "ContractFunded",
      "type": "event"
    },
    {
      "constant": true,
      "inputs": [
        {
          "internalType": "address",
          "name": "",
          "type": "address"
        }
      ],
      "name": "balances",
      "outputs": [
        {
          "internalType": "uint256",
          "name": "",
          "type": "uint256"
        }
      ],
      "payable": false,
      "stateMutability": "view",
      "type": "function"
    },
    {
      "constant": true,
      "inputs": [
        {
          "internalType": "uint256",
          "name": "",
          "type": "uint256"
        }
      ],
      "name": "betToOwner",
      "outputs": [
        {
          "internalType": "address",
          "name": "",
          "type": "address"
        }
      ],
      "payable": false,
      "stateMutability": "view",
      "type": "function"
    },
    {
      "constant": true,
      "inputs": [
        {
          "internalType": "uint256",
          "name": "",
          "type": "uint256"
        }
      ],
      "name": "bets",
      "outputs": [
        {
          "internalType": "uint256",
          "name": "amount",
          "type": "uint256"
        },
        {
          "internalType": "bool",
          "name": "wasWon",
          "type": "bool"
        }
      ],
      "payable": false,
      "stateMutability": "view",
      "type": "function"
    },
    {
      "constant": true,
      "inputs": [],
      "name": "contractAddress",
      "outputs": [
        {
          "internalType": "address",
          "name": "",
          "type": "address"
        }
      ],
      "payable": false,
      "stateMutability": "view",
      "type": "function"
    },
    {
      "constant": true,
      "inputs": [
        {
          "internalType": "uint256",
          "name": "",
          "type": "uint256"
        }
      ],
      "name": "fundToOwner",
      "outputs": [
        {
          "internalType": "address",
          "name": "",
          "type": "address"
        }
      ],
      "payable": false,
      "stateMutability": "view",
      "type": "function"
    },
    {
      "constant": true,
      "inputs": [
        {
          "internalType": "uint256",
          "name": "",
          "type": "uint256"
        }
      ],
      "name": "funds",
      "outputs": [
        {
          "internalType": "uint256",
          "name": "amount",
          "type": "uint256"
        }
      ],
      "payable": false,
      "stateMutability": "view",
      "type": "function"
    },
    {
      "constant": true,
      "inputs": [],
      "name": "owner",
      "outputs": [
        {
          "internalType": "address",
          "name": "",
          "type": "address"
        }
      ],
      "payable": false,
      "stateMutability": "view",
      "type": "function"
    },
    {
      "constant": true,
      "inputs": [],
      "name": "random",
      "outputs": [
        {
          "internalType": "uint256",
          "name": "",
          "type": "uint256"
        }
      ],
      "payable": false,
      "stateMutability": "view",
      "type": "function"
    },
    {
      "constant": false,
      "inputs": [
        {
          "internalType": "address payable",
          "name": "newOwner",
          "type": "address"
        }
      ],
      "name": "transferOwnership",
      "outputs": [],
      "payable": false,
      "stateMutability": "nonpayable",
      "type": "function"
    },
    {
      "constant": false,
      "inputs": [],
      "name": "fundContract",
      "outputs": [],
      "payable": true,
      "stateMutability": "payable",
      "type": "function"
    },
    {
      "constant": false,
      "inputs": [],
      "name": "bet",
      "outputs": [],
      "payable": true,
      "stateMutability": "payable",
      "type": "function"
    },
    {
      "constant": false,
      "inputs": [],
      "name": "withdraw",
      "outputs": [],
      "payable": false,
      "stateMutability": "nonpayable",
      "type": "function"
    },
    {
      "constant": true,
      "inputs": [],
      "name": "getContract",
      "outputs": [
        {
          "internalType": "address",
          "name": "",
          "type": "address"
        },
        {
          "internalType": "uint256",
          "name": "",
          "type": "uint256"
        }
      ],
      "payable": false,
      "stateMutability": "view",
      "type": "function"
    },
    {
      "constant": true,
      "inputs": [],
      "name": "getContractOwner",
      "outputs": [
        {
          "internalType": "address",
          "name": "",
          "type": "address"
        }
      ],
      "payable": false,
      "stateMutability": "view",
      "type": "function"
    },
    {
      "constant": true,
      "inputs": [],
      "name": "getBalance",
      "outputs": [
        {
          "internalType": "uint256",
          "name": "",
          "type": "uint256"
        }
      ],
      "payable": false,
      "stateMutability": "view",
      "type": "function"
    }
  ],
  "bytecode": "0x608060405230600160006101000a81548173ffffffffffffffffffffffffffffffffffffffff021916908373ffffffffffffffffffffffffffffffffffffffff160217905550336000806101000a81548173ffffffffffffffffffffffffffffffffffffffff021916908373ffffffffffffffffffffffffffffffffffffffff16021790555061139b806100946000396000f3fe6080604052600436106100e85760003560e01c80635ec01e4d1161008a578063bd097e2111610059578063bd097e21146103f9578063dd3377c814610403578063f2fde38b1461047e578063f6b4dfb4146104cf576100e8565b80635ec01e4d146102ca5780637b8e8895146102f55780638da5cb5b14610344578063958f85bd1461039b576100e8565b806327e235e3116100c657806327e235e31461017c57806331636cd3146101e15780633ccfd60b1461025c578063442890d514610273576100e8565b806311610c25146100ed57806312065fe0146100f757806322af00fa14610122575b600080fd5b6100f5610526565b005b34801561010357600080fd5b5061010c6109c3565b6040518082815260200191505060405180910390f35b34801561012e57600080fd5b5061015b6004803603602081101561014557600080fd5b8101908080359060200190929190505050610a0a565b60405180838152602001821515151581526020019250505060405180910390f35b34801561018857600080fd5b506101cb6004803603602081101561019f57600080fd5b81019080803573ffffffffffffffffffffffffffffffffffffffff169060200190929190505050610a48565b6040518082815260200191505060405180910390f35b3480156101ed57600080fd5b5061021a6004803603602081101561020457600080fd5b8101908080359060200190929190505050610a60565b604051808273ffffffffffffffffffffffffffffffffffffffff1673ffffffffffffffffffffffffffffffffffffffff16815260200191505060405180910390f35b34801561026857600080fd5b50610271610a93565b005b34801561027f57600080fd5b50610288610d26565b604051808273ffffffffffffffffffffffffffffffffffffffff1673ffffffffffffffffffffffffffffffffffffffff16815260200191505060405180910390f35b3480156102d657600080fd5b506102df610d4f565b6040518082815260200191505060405180910390f35b34801561030157600080fd5b5061032e6004803603602081101561031857600080fd5b8101908080359060200190929190505050610d61565b6040518082815260200191505060405180910390f35b34801561035057600080fd5b50610359610d88565b604051808273ffffffffffffffffffffffffffffffffffffffff1673ffffffffffffffffffffffffffffffffffffffff16815260200191505060405180910390f35b3480156103a757600080fd5b506103b0610dad565b604051808373ffffffffffffffffffffffffffffffffffffffff1673ffffffffffffffffffffffffffffffffffffffff1681526020018281526020019250505060405180910390f35b610401610e3d565b005b34801561040f57600080fd5b5061043c6004803603602081101561042657600080fd5b8101908080359060200190929190505050611046565b604051808273ffffffffffffffffffffffffffffffffffffffff1673ffffffffffffffffffffffffffffffffffffffff16815260200191505060405180910390f35b34801561048a57600080fd5b506104cd600480360360208110156104a157600080fd5b81019080803573ffffffffffffffffffffffffffffffffffffffff169060200190929190505050611079565b005b3480156104db57600080fd5b506104e461119b565b604051808273ffffffffffffffffffffffffffffffffffffffff1673ffffffffffffffffffffffffffffffffffffffff16815260200191505060405180910390f35b662386f26fc1000080341015610587576040517f08c379a00000000000000000000000000000000000000000000000000000000081526004018080602001828103825260278152602001806112fe6027913960400191505060405180910390fd5b674563918244f400003411156105e8576040517f08c379a00000000000000000000000000000000000000000000000000000000081526004018080602001828103825260218152602001806113466021913960400191505060405180910390fd5b343373ffffffffffffffffffffffffffffffffffffffff1631101561060c57600080fd5b600080610617610d4f565b9050600181141561079e576001915061068b61063d6002346111c190919063ffffffff16565b600260003373ffffffffffffffffffffffffffffffffffffffff1673ffffffffffffffffffffffffffffffffffffffff1681526020019081526020016000205461124790919063ffffffff16565b600260003373ffffffffffffffffffffffffffffffffffffffff1673ffffffffffffffffffffffffffffffffffffffff1681526020019081526020016000208190555060056040518060400160405280348152602001841515815250908060018154018082558091505090600182039060005260206000209060020201600090919290919091506000820151816000015560208201518160010160006101000a81548160ff0219169083151502179055505050503360036000600160058054905003815260200190815260200160002060006101000a81548173ffffffffffffffffffffffffffffffffffffffff021916908373ffffffffffffffffffffffffffffffffffffffff160217905550610947565b600091506108163460026000600160009054906101000a900473ffffffffffffffffffffffffffffffffffffffff1673ffffffffffffffffffffffffffffffffffffffff1673ffffffffffffffffffffffffffffffffffffffff1681526020019081526020016000205461124790919063ffffffff16565b60026000600160009054906101000a900473ffffffffffffffffffffffffffffffffffffffff1673ffffffffffffffffffffffffffffffffffffffff1673ffffffffffffffffffffffffffffffffffffffff1681526020019081526020016000208190555060056040518060400160405280348152602001841515815250908060018154018082558091505090600182039060005260206000209060020201600090919290919091506000820151816000015560208201518160010160006101000a81548160ff0219169083151502179055505050503360036000600160058054905003815260200190815260200160002060006101000a81548173ffffffffffffffffffffffffffffffffffffffff021916908373ffffffffffffffffffffffffffffffffffffffff1602179055505b7ff8e99859e696debf4ef1752d671f759f7f63a1116efe995d789edfb3849c3549333484604051808473ffffffffffffffffffffffffffffffffffffffff1673ffffffffffffffffffffffffffffffffffffffff16815260200183815260200182151515158152602001935050505060405180910390a1505050565b6000600260003373ffffffffffffffffffffffffffffffffffffffff1673ffffffffffffffffffffffffffffffffffffffff16815260200190815260200160002054905090565b60058181548110610a1757fe5b90600052602060002090600202016000915090508060000154908060010160009054906101000a900460ff16905082565b60026020528060005260406000206000915090505481565b60046020528060005260406000206000915054906101000a900473ffffffffffffffffffffffffffffffffffffffff1681565b6000809054906101000a900473ffffffffffffffffffffffffffffffffffffffff1673ffffffffffffffffffffffffffffffffffffffff163373ffffffffffffffffffffffffffffffffffffffff1614610b38576040517f08c379a000000000000000000000000000000000000000000000000000000000815260040180806020018281038252602e8152602001806112d0602e913960400191505060405180910390fd5b600060026000600160009054906101000a900473ffffffffffffffffffffffffffffffffffffffff1673ffffffffffffffffffffffffffffffffffffffff1673ffffffffffffffffffffffffffffffffffffffff1681526020019081526020016000205411610c0f576040517f08c379a000000000000000000000000000000000000000000000000000000000815260040180806020018281038252601e8152602001807f546865726520617265206e6f2066756e647320746f207769746864726177000081525060200191505060405180910390fd5b600060026000600160009054906101000a900473ffffffffffffffffffffffffffffffffffffffff1673ffffffffffffffffffffffffffffffffffffffff1673ffffffffffffffffffffffffffffffffffffffff168152602001908152602001600020549050600060026000600160009054906101000a900473ffffffffffffffffffffffffffffffffffffffff1673ffffffffffffffffffffffffffffffffffffffff1673ffffffffffffffffffffffffffffffffffffffff168152602001908152602001600020819055503373ffffffffffffffffffffffffffffffffffffffff166108fc829081150290604051600060405180830381858888f19350505050158015610d22573d6000803e3d6000fd5b5050565b60008060009054906101000a900473ffffffffffffffffffffffffffffffffffffffff16905090565b600060024281610d5b57fe5b06905090565b60068181548110610d6e57fe5b906000526020600020016000915090508060000154905081565b6000809054906101000a900473ffffffffffffffffffffffffffffffffffffffff1681565b600080600160009054906101000a900473ffffffffffffffffffffffffffffffffffffffff1660026000600160009054906101000a900473ffffffffffffffffffffffffffffffffffffffff1673ffffffffffffffffffffffffffffffffffffffff1673ffffffffffffffffffffffffffffffffffffffff16815260200190815260200160002054915091509091565b343373ffffffffffffffffffffffffffffffffffffffff16311015610e6157600080fd5b610ed53460026000600160009054906101000a900473ffffffffffffffffffffffffffffffffffffffff1673ffffffffffffffffffffffffffffffffffffffff1673ffffffffffffffffffffffffffffffffffffffff1681526020019081526020016000205461124790919063ffffffff16565b60026000600160009054906101000a900473ffffffffffffffffffffffffffffffffffffffff1673ffffffffffffffffffffffffffffffffffffffff1673ffffffffffffffffffffffffffffffffffffffff168152602001908152602001600020819055506006604051806020016040528034815250908060018154018082558091505090600182039060005260206000200160009091929091909150600082015181600001555050503360046000600160068054905003815260200190815260200160002060006101000a81548173ffffffffffffffffffffffffffffffffffffffff021916908373ffffffffffffffffffffffffffffffffffffffff1602179055507f0939f6f4877faf071412e527bc4c6d0bd65ad077e52b57334f7765265647a7f13334604051808373ffffffffffffffffffffffffffffffffffffffff1673ffffffffffffffffffffffffffffffffffffffff1681526020018281526020019250505060405180910390a1565b60036020528060005260406000206000915054906101000a900473ffffffffffffffffffffffffffffffffffffffff1681565b6000809054906101000a900473ffffffffffffffffffffffffffffffffffffffff1673ffffffffffffffffffffffffffffffffffffffff163373ffffffffffffffffffffffffffffffffffffffff161461111e576040517f08c379a000000000000000000000000000000000000000000000000000000000815260040180806020018281038252602e8152602001806112d0602e913960400191505060405180910390fd5b600073ffffffffffffffffffffffffffffffffffffffff168173ffffffffffffffffffffffffffffffffffffffff16141561115857600080fd5b806000806101000a81548173ffffffffffffffffffffffffffffffffffffffff021916908373ffffffffffffffffffffffffffffffffffffffff16021790555050565b600160009054906101000a900473ffffffffffffffffffffffffffffffffffffffff1681565b6000808314156111d45760009050611241565b60008284029050828482816111e557fe5b041461123c576040517f08c379a00000000000000000000000000000000000000000000000000000000081526004018080602001828103825260218152602001806113256021913960400191505060405180910390fd5b809150505b92915050565b6000808284019050838110156112c5576040517f08c379a000000000000000000000000000000000000000000000000000000000815260040180806020018281038252601b8152602001807f536166654d6174683a206164646974696f6e206f766572666c6f77000000000081525060200191505060405180910390fd5b809150509291505056fe596f7520617265206e6f7420656e7469746c656420746f206578656375746520746869732066756e6374696f6e2e596f75206d7573742073656e642074686520726571756972656420636f7374206f72206d6f7265536166654d6174683a206d756c7469706c69636174696f6e206f766572666c6f77596f752063616e2774207761676572206d6f7265207468616e2035206574686572a265627a7a7231582029f23a9310d9d305fcd536d9078457bee1624285b367ea8f54fda67e5d60f93564736f6c63430005100032",
  "source": "import './Ownable.sol';\nimport './usingModifiers.sol';\nimport './usingPseudoRandomNumber.sol';\nimport './SafeMath.sol';\n\npragma solidity >=0.4.21 <0.7.0;\n\ncontract CoinFlip is Ownable, usingModifiers, usingPseudoRandomNumber {\n    using SafeMath for uint256;\n\n    address public contractAddress = address(this);\n\n    event BetPlaced(address sender, uint amount, bool betWon);\n    event ContractFunded(address sender, uint amount);\n\n    mapping(address => uint) public balances;\n    mapping(uint => address) public betToOwner;\n    mapping(uint => address) public fundToOwner;\n\n    struct Fund {\n        uint amount;\n    }\n\n    struct Bet {\n        uint amount;\n        bool wasWon;\n    }\n\n    Bet[] public bets;\n    Fund[] public funds;\n\n    function fundContract() public payable {\n        require(msg.sender.balance >= msg.value);\n\n        balances[contractAddress] = balances[contractAddress].add(msg.value);\n        funds.push(Fund(msg.value));\n        fundToOwner[funds.length - 1] = msg.sender;\n        emit ContractFunded(msg.sender, msg.value);\n    }\n\n    function bet() public payable costs(0.01 ether) setBettingLimit() {\n        require(msg.sender.balance >= msg.value);\n        bool _betWon;\n        uint rand = random();\n\n        // you win\n        if (rand == 1) {\n            _betWon = true;\n            balances[msg.sender] = balances[msg.sender].add(msg.value.mul(2));\n            bets.push(Bet(msg.value, _betWon));\n            betToOwner[bets.length - 1] = msg.sender;\n\n        //you lose\n        } else {\n            _betWon = false;\n            balances[contractAddress] = balances[contractAddress].add(msg.value);\n            bets.push(Bet(msg.value, _betWon));\n            betToOwner[bets.length - 1] = msg.sender;\n        }\n\n        emit BetPlaced(msg.sender, msg.value, _betWon);\n    }\n\n    function withdraw() public onlyOwner {\n        require(balances[contractAddress] > 0, \"There are no funds to withdraw\");\n        uint withdrawal = balances[contractAddress];\n        balances[contractAddress] = 0;\n        msg.sender.transfer(withdrawal);\n   }\n\n    function getContract() public view returns (address, uint) {\n        return (contractAddress, balances[contractAddress]);\n    }\n\n    function getContractOwner() public view returns(address) {\n        return owner;\n    }\n\n    function getBalance() public view returns (uint) {\n        return balances[msg.sender];\n    }\n}\n",
  "sourcePath": "/Users/Sant/Desktop/code/projects/blockchain/ivanontechacademy/coinflip/contracts/CoinFlip.sol",
  "compiler": {
    "name": "solc",
    "version": "0.5.16+commit.9c3226ce.Emscripten.clang"
  },
  "schemaVersion": "3.1.0",
  "updatedAt": "2020-06-29T14:23:59.675Z",
  "networkType": "ethereum",
  "devdoc": {
    "methods": {}
  },
  "userdoc": {
    "methods": {}
  }
}