{
  "contractName": "CoinFlip",
  "abi": [
    {
      "anonymous": false,
      "inputs": [
        {
          "indexed": false,
          "internalType": "bytes32",
          "name": "queryId",
          "type": "bytes32"
        },
        {
          "indexed": false,
          "internalType": "string",
          "name": "reason",
          "type": "string"
        }
      ],
      "name": "BetFailed",
      "type": "event"
    },
    {
      "anonymous": false,
      "inputs": [
        {
          "indexed": false,
          "internalType": "bytes32",
          "name": "queryId",
          "type": "bytes32"
        }
      ],
      "name": "BetFinished",
      "type": "event"
    },
    {
      "anonymous": false,
      "inputs": [
        {
          "indexed": false,
          "internalType": "bytes32",
          "name": "queryId",
          "type": "bytes32"
        },
        {
          "indexed": false,
          "internalType": "address",
          "name": "player",
          "type": "address"
        },
        {
          "indexed": false,
          "internalType": "uint256",
          "name": "amount",
          "type": "uint256"
        }
      ],
      "name": "BetLost",
      "type": "event"
    },
    {
      "anonymous": false,
      "inputs": [
        {
          "indexed": false,
          "internalType": "bytes32",
          "name": "queryId",
          "type": "bytes32"
        },
        {
          "indexed": false,
          "internalType": "address",
          "name": "player",
          "type": "address"
        },
        {
          "indexed": false,
          "internalType": "uint256",
          "name": "amount",
          "type": "uint256"
        }
      ],
      "name": "BetPlaced",
      "type": "event"
    },
    {
      "anonymous": false,
      "inputs": [
        {
          "indexed": false,
          "internalType": "bytes32",
          "name": "queryId",
          "type": "bytes32"
        },
        {
          "indexed": false,
          "internalType": "address",
          "name": "player",
          "type": "address"
        },
        {
          "indexed": false,
          "internalType": "uint256",
          "name": "amount",
          "type": "uint256"
        }
      ],
      "name": "BetWon",
      "type": "event"
    },
    {
      "anonymous": false,
      "inputs": [
        {
          "indexed": false,
          "internalType": "address",
          "name": "funder",
          "type": "address"
        },
        {
          "indexed": false,
          "internalType": "uint256",
          "name": "amount",
          "type": "uint256"
        }
      ],
      "name": "ContractFunded",
      "type": "event"
    },
    {
      "anonymous": false,
      "inputs": [
        {
          "indexed": false,
          "internalType": "string",
          "name": "description",
          "type": "string"
        }
      ],
      "name": "LogNewProvableQuery",
      "type": "event"
    },
    {
      "constant": false,
      "inputs": [
        {
          "internalType": "bytes32",
          "name": "_myid",
          "type": "bytes32"
        },
        {
          "internalType": "string",
          "name": "_result",
          "type": "string"
        }
      ],
      "name": "__callback",
      "outputs": [],
      "payable": false,
      "stateMutability": "nonpayable",
      "type": "function"
    },
    {
      "constant": false,
      "inputs": [
        {
          "internalType": "bytes32",
          "name": "_queryId",
          "type": "bytes32"
        },
        {
          "internalType": "string",
          "name": "_result",
          "type": "string"
        },
        {
          "internalType": "bytes",
          "name": "_proof",
          "type": "bytes"
        }
      ],
      "name": "__callback",
      "outputs": [],
      "payable": false,
      "stateMutability": "nonpayable",
      "type": "function"
    },
    {
      "constant": false,
      "inputs": [
        {
          "internalType": "uint256",
          "name": "_amount",
          "type": "uint256"
        }
      ],
      "name": "bet",
      "outputs": [],
      "payable": true,
      "stateMutability": "payable",
      "type": "function"
    },
    {
      "constant": true,
      "inputs": [
        {
          "internalType": "uint256",
          "name": "",
          "type": "uint256"
        }
      ],
      "name": "bets",
      "outputs": [
        {
          "internalType": "bytes32",
          "name": "id",
          "type": "bytes32"
        },
        {
          "internalType": "address payable",
          "name": "player",
          "type": "address"
        },
        {
          "internalType": "uint256",
          "name": "amount",
          "type": "uint256"
        },
        {
          "internalType": "bool",
          "name": "betWon",
          "type": "bool"
        },
        {
          "internalType": "bool",
          "name": "isPending",
          "type": "bool"
        }
      ],
      "payable": false,
      "stateMutability": "view",
      "type": "function"
    },
    {
      "constant": true,
      "inputs": [],
      "name": "owner",
      "outputs": [
        {
          "internalType": "address payable",
          "name": "",
          "type": "address"
        }
      ],
      "payable": false,
      "stateMutability": "view",
      "type": "function"
    },
    {
      "constant": true,
      "inputs": [
        {
          "internalType": "address",
          "name": "",
          "type": "address"
        }
      ],
      "name": "playerBetCount",
      "outputs": [
        {
          "internalType": "uint256",
          "name": "",
          "type": "uint256"
        }
      ],
      "payable": false,
      "stateMutability": "view",
      "type": "function"
    },
    {
      "constant": true,
      "inputs": [
        {
          "internalType": "address",
          "name": "",
          "type": "address"
        }
      ],
      "name": "playerToBet",
      "outputs": [
        {
          "internalType": "bytes32",
          "name": "id",
          "type": "bytes32"
        },
        {
          "internalType": "address payable",
          "name": "player",
          "type": "address"
        },
        {
          "internalType": "uint256",
          "name": "amount",
          "type": "uint256"
        },
        {
          "internalType": "bool",
          "name": "betWon",
          "type": "bool"
        },
        {
          "internalType": "bool",
          "name": "isPending",
          "type": "bool"
        }
      ],
      "payable": false,
      "stateMutability": "view",
      "type": "function"
    },
    {
      "constant": true,
      "inputs": [],
      "name": "random",
      "outputs": [
        {
          "internalType": "uint256",
          "name": "",
          "type": "uint256"
        }
      ],
      "payable": false,
      "stateMutability": "view",
      "type": "function"
    },
    {
      "constant": false,
      "inputs": [
        {
          "internalType": "address payable",
          "name": "newOwner",
          "type": "address"
        }
      ],
      "name": "transferOwnership",
      "outputs": [],
      "payable": false,
      "stateMutability": "nonpayable",
      "type": "function"
    },
    {
      "constant": false,
      "inputs": [],
      "name": "update",
      "outputs": [
        {
          "internalType": "bytes32",
          "name": "",
          "type": "bytes32"
        }
      ],
      "payable": true,
      "stateMutability": "payable",
      "type": "function"
    },
    {
      "constant": false,
      "inputs": [],
      "name": "fundContract",
      "outputs": [],
      "payable": true,
      "stateMutability": "payable",
      "type": "function"
    },
    {
      "constant": false,
      "inputs": [
        {
          "internalType": "uint256",
          "name": "_amount",
          "type": "uint256"
        }
      ],
      "name": "withdraw",
      "outputs": [],
      "payable": false,
      "stateMutability": "nonpayable",
      "type": "function"
    },
    {
      "constant": false,
      "inputs": [],
      "name": "withdrawAll",
      "outputs": [],
      "payable": false,
      "stateMutability": "nonpayable",
      "type": "function"
    },
    {
      "constant": true,
      "inputs": [],
      "name": "getContract",
      "outputs": [
        {
          "internalType": "address",
          "name": "",
          "type": "address"
        },
        {
          "internalType": "uint256",
          "name": "",
          "type": "uint256"
        }
      ],
      "payable": false,
      "stateMutability": "view",
      "type": "function"
    },
    {
      "constant": true,
      "inputs": [],
      "name": "getOwner",
      "outputs": [
        {
          "internalType": "address",
          "name": "",
          "type": "address"
        },
        {
          "internalType": "uint256",
          "name": "",
          "type": "uint256"
        }
      ],
      "payable": false,
      "stateMutability": "view",
      "type": "function"
    }
  ],
  "bytecode": "0x6080604052336000806101000a81548173ffffffffffffffffffffffffffffffffffffffff021916908373ffffffffffffffffffffffffffffffffffffffff16021790555062000059603060f81b6200007060201b60201c565b62000069620003d660201b60201c565b5062002309565b600073ffffffffffffffffffffffffffffffffffffffff16600260009054906101000a900473ffffffffffffffffffffffffffffffffffffffff1673ffffffffffffffffffffffffffffffffffffffff1614806200010057506000620000fe600260009054906101000a900473ffffffffffffffffffffffffffffffffffffffff166200045260201b60201c565b145b156200011a576200011860006200045d60201b60201c565b505b600260009054906101000a900473ffffffffffffffffffffffffffffffffffffffff1673ffffffffffffffffffffffffffffffffffffffff166338cc48316040518163ffffffff1660e01b8152600401602060405180830381600087803b1580156200018557600080fd5b505af11580156200019a573d6000803e3d6000fd5b505050506040513d6020811015620001b157600080fd5b810190808051906020019092919050505073ffffffffffffffffffffffffffffffffffffffff16600160009054906101000a900473ffffffffffffffffffffffffffffffffffffffff1673ffffffffffffffffffffffffffffffffffffffff16146200030057600260009054906101000a900473ffffffffffffffffffffffffffffffffffffffff1673ffffffffffffffffffffffffffffffffffffffff166338cc48316040518163ffffffff1660e01b8152600401602060405180830381600087803b1580156200028257600080fd5b505af115801562000297573d6000803e3d6000fd5b505050506040513d6020811015620002ae57600080fd5b8101908080519060200190929190505050600160006101000a81548173ffffffffffffffffffffffffffffffffffffffff021916908373ffffffffffffffffffffffffffffffffffffffff1602179055505b600160009054906101000a900473ffffffffffffffffffffffffffffffffffffffff1673ffffffffffffffffffffffffffffffffffffffff1663688dcfd7826040518263ffffffff1660e01b815260040180827effffffffffffffffffffffffffffffffffffffffffffffffffffffffffffff19167effffffffffffffffffffffffffffffffffffffffffffffffffffffffffffff19168152602001915050600060405180830381600087803b158015620003ba57600080fd5b505af1158015620003cf573d6000803e3d6000fd5b5050505050565b60008060009050600062030d4090506000620003fb836001846200047660201b60201c565b90507fc4dc360d0a9c0677a3379ae0a3d81e887f761e65fdf3d7e00859d1bcd3c47389604051808060200182810382526036815260200180620068856036913960400191505060405180910390a180935050505090565b6000813b9050919050565b60006200046f62000a4960201b60201c565b9050919050565b6000808311801562000489575060208311155b6200049357600080fd5b600a84029350606060016040519080825280601f01601f191660200182016040528015620004d05781602001600182028038833980820191505090505b5090508360f81b81600081518110620004e557fe5b60200101907effffffffffffffffffffffffffffffffffffffffffffffffffffffffffffff1916908160001a905350606060206040519080825280601f01601f1916602001820160405280156200054b5781602001600182028038833980820191505090505b509050606060206040519080825280601f01601f191660200182016040528015620005855781602001600182028038833980820191505090505b50905060006200059a6200101860201b60201c565b905060208352424118600143034018602084015260208252806020830152606060206040519080825280601f01601f191660200182016040528015620005ef5781602001600182028038833980820191505090505b509050886020820152606060086040519080825280601f01601f1916602001820160405280156200062f5781602001600182028038833980820191505090505b5090506200064a82601860088460006200135460201b60201c565b506200065562002218565b60405180608001604052808781526020018881526020018681526020018481525090506000620006c26040518060400160405280600681526020017f72616e646f6d0000000000000000000000000000000000000000000000000000815250838c620013b660201b60201c565b9050606060086040519080825280601f01601f191660200182016040528015620006fb5781602001600182028038833980820191505090505b50905060208401517f0100000000000000000000000000000000000000000000000000000000000000810460278301537e01000000000000000000000000000000000000000000000000000000000000810460268301537d010000000000000000000000000000000000000000000000000000000000810460258301537c0100000000000000000000000000000000000000000000000000000000810460248301537b01000000000000000000000000000000000000000000000000000000810460238301537a01000000000000000000000000000000000000000000000000000081046022830153790100000000000000000000000000000000000000000000000000810460218301537801000000000000000000000000000000000000000000000000810460208301535062000a368282856001600481106200083c57fe5b60200201516002876000600481106200085157fe5b60200201516040518082805190602001908083835b602083106200088b578051825260208201915060208101905060208303925062000866565b6001836020036101000a038019825116818451168082178552505050505050905001915050602060405180830381855afa158015620008ce573d6000803e3d6000fd5b5050506040513d6020811015620008e457600080fd5b8101908080519060200190929190505050876002600481106200090357fe5b60200201516040516020018085805190602001908083835b602083106200094057805182526020820191506020810190506020830392506200091b565b6001836020036101000a03801982511681845116808217855250505050505090500184805190602001908083835b602083106200099357805182526020820191506020810190506020830392506200096e565b6001836020036101000a03801982511681845116808217855250505050505090500183815260200182805190602001908083835b60208310620009ec5780518252602082019150602081019050602083039250620009c7565b6001836020036101000a038019825116818451168082178552505050505050905001945050505050604051602081830303815290604052805190602001206200175060201b60201c565b8199505050505050505050509392505050565b60008062000a71731d3b2638a7cc9f2cb3d298a3da7a90b67e5506ed6200045260201b60201c565b111562000b1d57731d3b2638a7cc9f2cb3d298a3da7a90b67e5506ed600260006101000a81548173ffffffffffffffffffffffffffffffffffffffff021916908373ffffffffffffffffffffffffffffffffffffffff16021790555062000b136040518060400160405280600b81526020017f6574685f6d61696e6e65740000000000000000000000000000000000000000008152506200176c60201b60201c565b6001905062001015565b600062000b4473c03a2615d5efaf5f49f60b7bb6583eaec212fdf16200045260201b60201c565b111562000bf05773c03a2615d5efaf5f49f60b7bb6583eaec212fdf1600260006101000a81548173ffffffffffffffffffffffffffffffffffffffff021916908373ffffffffffffffffffffffffffffffffffffffff16021790555062000be66040518060400160405280600c81526020017f6574685f726f707374656e3300000000000000000000000000000000000000008152506200176c60201b60201c565b6001905062001015565b600062000c1773b7a07bcf2ba2f2703b24c0691b5278999c59ac7e6200045260201b60201c565b111562000cc35773b7a07bcf2ba2f2703b24c0691b5278999c59ac7e600260006101000a81548173ffffffffffffffffffffffffffffffffffffffff021916908373ffffffffffffffffffffffffffffffffffffffff16021790555062000cb96040518060400160405280600981526020017f6574685f6b6f76616e00000000000000000000000000000000000000000000008152506200176c60201b60201c565b6001905062001015565b600062000cea73146500cfd35b22e4a392fe0adc06de1a1368ed486200045260201b60201c565b111562000d965773146500cfd35b22e4a392fe0adc06de1a1368ed48600260006101000a81548173ffffffffffffffffffffffffffffffffffffffff021916908373ffffffffffffffffffffffffffffffffffffffff16021790555062000d8c6040518060400160405280600b81526020017f6574685f72696e6b6562790000000000000000000000000000000000000000008152506200176c60201b60201c565b6001905062001015565b600062000dbd73a2998efd205fb9d4b4963afb70778d6354ad3a416200045260201b60201c565b111562000e695773a2998efd205fb9d4b4963afb70778d6354ad3a41600260006101000a81548173ffffffffffffffffffffffffffffffffffffffff021916908373ffffffffffffffffffffffffffffffffffffffff16021790555062000e5f6040518060400160405280600a81526020017f6574685f676f65726c69000000000000000000000000000000000000000000008152506200176c60201b60201c565b6001905062001015565b600062000e90736f485c8bf6fc43ea212e93bbf8ce046c7f1cb4756200045260201b60201c565b111562000ef657736f485c8bf6fc43ea212e93bbf8ce046c7f1cb475600260006101000a81548173ffffffffffffffffffffffffffffffffffffffff021916908373ffffffffffffffffffffffffffffffffffffffff1602179055506001905062001015565b600062000f1d7320e12a1f859b3feae5fb2a0a32c18f5a65555bbf6200045260201b60201c565b111562000f83577320e12a1f859b3feae5fb2a0a32c18f5a65555bbf600260006101000a81548173ffffffffffffffffffffffffffffffffffffffff021916908373ffffffffffffffffffffffffffffffffffffffff1602179055506001905062001015565b600062000faa7351efaf4c8b3c9afbd5ab9f4bbc82784ab6ef8faa6200045260201b60201c565b111562001010577351efaf4c8b3c9afbd5ab9f4bbc82784ab6ef8faa600260006101000a81548173ffffffffffffffffffffffffffffffffffffffff021916908373ffffffffffffffffffffffffffffffffffffffff1602179055506001905062001015565b600090505b90565b60008073ffffffffffffffffffffffffffffffffffffffff16600260009054906101000a900473ffffffffffffffffffffffffffffffffffffffff1673ffffffffffffffffffffffffffffffffffffffff161480620010a957506000620010a7600260009054906101000a900473ffffffffffffffffffffffffffffffffffffffff166200045260201b60201c565b145b15620010c357620010c160006200045d60201b60201c565b505b600260009054906101000a900473ffffffffffffffffffffffffffffffffffffffff1673ffffffffffffffffffffffffffffffffffffffff166338cc48316040518163ffffffff1660e01b8152600401602060405180830381600087803b1580156200112e57600080fd5b505af115801562001143573d6000803e3d6000fd5b505050506040513d60208110156200115a57600080fd5b810190808051906020019092919050505073ffffffffffffffffffffffffffffffffffffffff16600160009054906101000a900473ffffffffffffffffffffffffffffffffffffffff1673ffffffffffffffffffffffffffffffffffffffff1614620012a957600260009054906101000a900473ffffffffffffffffffffffffffffffffffffffff1673ffffffffffffffffffffffffffffffffffffffff166338cc48316040518163ffffffff1660e01b8152600401602060405180830381600087803b1580156200122b57600080fd5b505af115801562001240573d6000803e3d6000fd5b505050506040513d60208110156200125757600080fd5b8101908080519060200190929190505050600160006101000a81548173ffffffffffffffffffffffffffffffffffffffff021916908373ffffffffffffffffffffffffffffffffffffffff1602179055505b600160009054906101000a900473ffffffffffffffffffffffffffffffffffffffff1673ffffffffffffffffffffffffffffffffffffffff1663abaa5f3e6040518163ffffffff1660e01b815260040160206040518083038186803b1580156200131257600080fd5b505afa15801562001327573d6000803e3d6000fd5b505050506040513d60208110156200133e57600080fd5b8101908080519060200190929190505050905090565b60606000828501905080845110156200136c57600080fd5b600086602001905060008460200190505b868860200101821015620013a757818901518082880152506020820191506020810190506200137d565b85935050505095945050505050565b60008073ffffffffffffffffffffffffffffffffffffffff16600260009054906101000a900473ffffffffffffffffffffffffffffffffffffffff1673ffffffffffffffffffffffffffffffffffffffff161480620014475750600062001445600260009054906101000a900473ffffffffffffffffffffffffffffffffffffffff166200045260201b60201c565b145b1562001461576200145f60006200045d60201b60201c565b505b600260009054906101000a900473ffffffffffffffffffffffffffffffffffffffff1673ffffffffffffffffffffffffffffffffffffffff166338cc48316040518163ffffffff1660e01b8152600401602060405180830381600087803b158015620014cc57600080fd5b505af1158015620014e1573d6000803e3d6000fd5b505050506040513d6020811015620014f857600080fd5b810190808051906020019092919050505073ffffffffffffffffffffffffffffffffffffffff16600160009054906101000a900473ffffffffffffffffffffffffffffffffffffffff1673ffffffffffffffffffffffffffffffffffffffff16146200164757600260009054906101000a900473ffffffffffffffffffffffffffffffffffffffff1673ffffffffffffffffffffffffffffffffffffffff166338cc48316040518163ffffffff1660e01b8152600401602060405180830381600087803b158015620015c957600080fd5b505af1158015620015de573d6000803e3d6000fd5b505050506040513d6020811015620015f557600080fd5b8101908080519060200190929190505050600160006101000a81548173ffffffffffffffffffffffffffffffffffffffff021916908373ffffffffffffffffffffffffffffffffffffffff1602179055505b606060046040519080825280602002602001820160405280156200168057816020015b60608152602001906001900390816200166a5790505b509050836000600481106200169157fe5b602002015181600081518110620016a457fe5b602002602001018190525083600160048110620016bd57fe5b602002015181600181518110620016d057fe5b602002602001018190525083600260048110620016e957fe5b602002015181600281518110620016fc57fe5b6020026020010181905250836003600481106200171557fe5b6020020151816003815181106200172857fe5b6020026020010181905250620017468582856200178860201b60201c565b9150509392505050565b8060046000848152602001908152602001600020819055505050565b80600390805190602001906200178492919062002240565b5050565b60008073ffffffffffffffffffffffffffffffffffffffff16600260009054906101000a900473ffffffffffffffffffffffffffffffffffffffff1673ffffffffffffffffffffffffffffffffffffffff161480620018195750600062001817600260009054906101000a900473ffffffffffffffffffffffffffffffffffffffff166200045260201b60201c565b145b1562001833576200183160006200045d60201b60201c565b505b600260009054906101000a900473ffffffffffffffffffffffffffffffffffffffff1673ffffffffffffffffffffffffffffffffffffffff166338cc48316040518163ffffffff1660e01b8152600401602060405180830381600087803b1580156200189e57600080fd5b505af1158015620018b3573d6000803e3d6000fd5b505050506040513d6020811015620018ca57600080fd5b810190808051906020019092919050505073ffffffffffffffffffffffffffffffffffffffff16600160009054906101000a900473ffffffffffffffffffffffffffffffffffffffff1673ffffffffffffffffffffffffffffffffffffffff161462001a1957600260009054906101000a900473ffffffffffffffffffffffffffffffffffffffff1673ffffffffffffffffffffffffffffffffffffffff166338cc48316040518163ffffffff1660e01b8152600401602060405180830381600087803b1580156200199b57600080fd5b505af1158015620019b0573d6000803e3d6000fd5b505050506040513d6020811015620019c757600080fd5b8101908080519060200190929190505050600160006101000a81548173ffffffffffffffffffffffffffffffffffffffff021916908373ffffffffffffffffffffffffffffffffffffffff1602179055505b6000600160009054906101000a900473ffffffffffffffffffffffffffffffffffffffff1673ffffffffffffffffffffffffffffffffffffffff16632ef3accc86856040518363ffffffff1660e01b81526004018080602001838152602001828103825284818151815260200191508051906020019080838360005b8381101562001ab257808201518184015260208101905062001a95565b50505050905090810190601f16801562001ae05780820380516001836020036101000a031916815260200191505b509350505050602060405180830381600087803b15801562001b0157600080fd5b505af115801562001b16573d6000803e3d6000fd5b505050506040513d602081101562001b2d57600080fd5b81019080805190602001909291905050509050823a02670de0b6b3a76400000181111562001b62576000801b91505062001d19565b606062001b758562001d2060201b60201c565b9050600160009054906101000a900473ffffffffffffffffffffffffffffffffffffffff1673ffffffffffffffffffffffffffffffffffffffff1663c55c1cb68360008985896040518663ffffffff1660e01b8152600401808581526020018060200180602001848152602001838103835286818151815260200191508051906020019080838360005b8381101562001c1c57808201518184015260208101905062001bff565b50505050905090810190601f16801562001c4a5780820380516001836020036101000a031916815260200191505b50838103825285818151815260200191508051906020019080838360005b8381101562001c8557808201518184015260208101905062001c68565b50505050905090810190601f16801562001cb35780820380516001836020036101000a031916815260200191505b5096505050505050506020604051808303818588803b15801562001cd657600080fd5b505af115801562001ceb573d6000803e3d6000fd5b50505050506040513d602081101562001d0357600080fd5b8101908080519060200190929190505050925050505b9392505050565b606062001d3262001ddb60201b60201c565b62001d3c620022c7565b62001d558161040062001de760201b62003f921760201c565b62001d6b8162001e3460201b62003fdc1760201c565b60008090505b835181101562001db75762001da984828151811062001d8c57fe5b60200260200101518362001e4a60201b62003fea1790919060201c565b808060010191505062001d71565b5062001dce8162001e7e60201b6200400f1760201c565b8060000151915050919050565b60405180590338823950565b600081905060006020828162001df957fe5b061462001e14576020818162001e0b57fe5b06602003810190505b808360200181815250506040518084526000815281810160405250505050565b62001e4781600462001e9460201b60201c565b50565b62001e5f826002835162001ebc60201b60201c565b62001e7981836200204460201b6200417e1790919060201c565b505050565b62001e9181600762001e9460201b60201c565b50565b62001eb8601f60058360ff16901b17836200210460201b620042291790919060201c565b5050565b6017811162001ef15762001eeb8160058460ff16901b60ff1617846200210460201b620042291790919060201c565b6200203f565b60ff811162001f425762001f1e601860058460ff16901b17846200210460201b620042291790919060201c565b62001f3b816001856200214d60201b62004269179092919060201c565b506200203e565b61ffff811162001f945762001f70601960058460ff16901b17846200210460201b620042291790919060201c565b62001f8d816002856200214d60201b62004269179092919060201c565b506200203d565b63ffffffff811162001fe85762001fc4601a60058460ff16901b17846200210460201b620042291790919060201c565b62001fe1816004856200214d60201b62004269179092919060201c565b506200203c565b67ffffffffffffffff81116200203b576200201c601b60058460ff16901b17846200210460201b620042291790919060201c565b62002039816008856200214d60201b62004269179092919060201c565b505b5b5b5b5b505050565b6200204e620022c7565b826020015183600001515183510111156200208f576200208e8360026200208186602001518651620021c760201b60201c565b02620021e560201b60201c565b5b60008060008451905085518051602081830101945086518101825260208701935050505b60208110620020d85781518352602083019250602082019150602081039050620020b3565b60006001826020036101000a039050801983511681855116818117865250508694505050505092915050565b81602001516001836000015151011115620021335762002132826002846020015102620021e560201b60201c565b5b815180516020818301018381536001820183525050505050565b62002157620022c7565b83602001518460000151518301111562002196576200219584600262002188876020015186620021c760201b60201c565b02620021e560201b60201c565b5b60006001836101000a0390508451805184818301018684198251161781528582018352505050849150509392505050565b600081831115620021db57829050620021df565b8190505b92915050565b60608260000151905062002200838362001de760201b60201c565b6200221283826200204460201b60201c565b50505050565b60405180608001604052806004905b6060815260200190600190039081620022275790505090565b828054600181600116156101000203166002900490600052602060002090601f016020900481019282601f106200228357805160ff1916838001178555620022b4565b82800160010185558215620022b4579182015b82811115620022b357825182559160200191906001019062002296565b5b509050620022c39190620022e1565b5090565b604051806040016040528060608152602001600081525090565b6200230691905b8082111562002302576000816000905550600101620022e8565b5090565b90565b61456c80620023196000396000f3fe6080604052600436106100e85760003560e01c8063853828b61161008a578063a2e6204511610059578063a2e620451461063a578063a95783b514610658578063bd097e21146106bd578063f2fde38b146106c7576100e8565b8063853828b614610510578063893d20e8146105275780638da5cb5b14610585578063958f85bd146105dc576100e8565b80632e1a7d4d116100c65780632e1a7d4d1461031357806338bbfa501461034e5780635ec01e4d146104b75780637365870b146104e2576100e8565b806310d8065c146100ed57806322af00fa146101a257806327dc297e14610241575b600080fd5b3480156100f957600080fd5b5061013c6004803603602081101561011057600080fd5b81019080803573ffffffffffffffffffffffffffffffffffffffff169060200190929190505050610718565b604051808681526020018573ffffffffffffffffffffffffffffffffffffffff1673ffffffffffffffffffffffffffffffffffffffff16815260200184815260200183151515158152602001821515151581526020019550505050505060405180910390f35b3480156101ae57600080fd5b506101db600480360360208110156101c557600080fd5b8101908080359060200190929190505050610788565b604051808681526020018573ffffffffffffffffffffffffffffffffffffffff1673ffffffffffffffffffffffffffffffffffffffff16815260200184815260200183151515158152602001821515151581526020019550505050505060405180910390f35b34801561024d57600080fd5b506103116004803603604081101561026457600080fd5b81019080803590602001909291908035906020019064010000000081111561028b57600080fd5b82018360208201111561029d57600080fd5b803590602001918460018302840111640100000000831117156102bf57600080fd5b91908080601f016020809104026020016040519081016040528093929190818152602001838380828437600081840152601f19601f820116905080830192505050505050509192919290505050610805565b005b34801561031f57600080fd5b5061034c6004803603602081101561033657600080fd5b8101908080359060200190929190505050610848565b005b34801561035a57600080fd5b506104b56004803603606081101561037157600080fd5b81019080803590602001909291908035906020019064010000000081111561039857600080fd5b8201836020820111156103aa57600080fd5b803590602001918460018302840111640100000000831117156103cc57600080fd5b91908080601f016020809104026020016040519081016040528093929190818152602001838380828437600081840152601f19601f8201169050808301925050505050505091929192908035906020019064010000000081111561042f57600080fd5b82018360208201111561044157600080fd5b8035906020019184600183028401116401000000008311171561046357600080fd5b91908080601f016020809104026020016040519081016040528093929190818152602001838380828437600081840152601f19601f820116905080830192505050505050509192919290505050610a61565b005b3480156104c357600080fd5b506104cc610bda565b6040518082815260200191505060405180910390f35b61050e600480360360208110156104f857600080fd5b8101908080359060200190929190505050610bec565b005b34801561051c57600080fd5b50610525611024565b005b34801561053357600080fd5b5061053c6111c7565b604051808373ffffffffffffffffffffffffffffffffffffffff1673ffffffffffffffffffffffffffffffffffffffff1681526020018281526020019250505060405180910390f35b34801561059157600080fd5b5061059a611230565b604051808273ffffffffffffffffffffffffffffffffffffffff1673ffffffffffffffffffffffffffffffffffffffff16815260200191505060405180910390f35b3480156105e857600080fd5b506105f1611255565b604051808373ffffffffffffffffffffffffffffffffffffffff1673ffffffffffffffffffffffffffffffffffffffff1681526020018281526020019250505060405180910390f35b610642611279565b6040518082815260200191505060405180910390f35b34801561066457600080fd5b506106a76004803603602081101561067b57600080fd5b81019080803573ffffffffffffffffffffffffffffffffffffffff1690602001909291905050506112ec565b6040518082815260200191505060405180910390f35b6106c5611304565b005b3480156106d357600080fd5b50610716600480360360208110156106ea57600080fd5b81019080803573ffffffffffffffffffffffffffffffffffffffff1690602001909291905050506113e5565b005b60076020528060005260406000206000915090508060000154908060010160009054906101000a900473ffffffffffffffffffffffffffffffffffffffff16908060020154908060030160009054906101000a900460ff16908060030160019054906101000a900460ff16905085565b6006818154811061079557fe5b90600052602060002090600402016000915090508060000154908060010160009054906101000a900473ffffffffffffffffffffffffffffffffffffffff16908060020154908060030160009054906101000a900460ff16908060030160019054906101000a900460ff16905085565b610844828260006040519080825280601f01601f19166020018201604052801561083e5781602001600182028038833980820191505090505b50610a61565b5050565b6000809054906101000a900473ffffffffffffffffffffffffffffffffffffffff1673ffffffffffffffffffffffffffffffffffffffff163373ffffffffffffffffffffffffffffffffffffffff16146108ed576040517f08c379a000000000000000000000000000000000000000000000000000000000815260040180806020018281038252602e8152602001806143f6602e913960400191505060405180910390fd5b3081808273ffffffffffffffffffffffffffffffffffffffff1631101561095f576040517f08c379a00000000000000000000000000000000000000000000000000000000081526004018080602001828103825260358152602001806144246035913960400191505060405180910390fd5b6000809054906101000a900473ffffffffffffffffffffffffffffffffffffffff1673ffffffffffffffffffffffffffffffffffffffff163373ffffffffffffffffffffffffffffffffffffffff16146109b557fe5b60003073ffffffffffffffffffffffffffffffffffffffff163190506000809054906101000a900473ffffffffffffffffffffffffffffffffffffffff1673ffffffffffffffffffffffffffffffffffffffff166108fc859081150290604051600060405180830381858888f19350505050158015610a38573d6000803e3d6000fd5b508381033073ffffffffffffffffffffffffffffffffffffffff163114610a5b57fe5b50505050565b610a69611507565b73ffffffffffffffffffffffffffffffffffffffff163373ffffffffffffffffffffffffffffffffffffffff1614610aa057600080fd5b6000610aad848484611827565b60ff1614610b0d577f81816b50aae098d98a0f7930cfef379261913e37ed33759052b5eff95fbb8d5f83604051808281526020018060200182810382526021815260200180614480602191396040019250505060405180910390a1610bd5565b60006001806101000a039050600081846040516020018082805190602001908083835b60208310610b535780518252602082019150602081019050602083039250610b30565b6001836020036101000a0380198251168184511680821785525050505050509050019150506040516020818303038152906040528051906020012060001c81610b9857fe5b0690507ff3421c93854709397d0d2db783688451d8b0cce5121d0580b704b45a32e9240d856040518082815260200191505060405180910390a150505b505050565b600060024281610be657fe5b06905090565b662386f26fc1000080341015610c4d576040517f08c379a00000000000000000000000000000000000000000000000000000000081526004018080602001828103825260278152602001806144596027913960400191505060405180910390fd5b674563918244f40000341115610cae576040517f08c379a00000000000000000000000000000000000000000000000000000000081526004018080602001828103825260218152602001806144a16021913960400191505060405180910390fd5b3382808273ffffffffffffffffffffffffffffffffffffffff16311015610d20576040517f08c379a00000000000000000000000000000000000000000000000000000000081526004018080602001828103825260358152602001806144246035913960400191505060405180910390fd5b3084808273ffffffffffffffffffffffffffffffffffffffff16311015610d92576040517f08c379a00000000000000000000000000000000000000000000000000000000081526004018080602001828103825260358152602001806144246035913960400191505060405180910390fd5b6000600760003373ffffffffffffffffffffffffffffffffffffffff1673ffffffffffffffffffffffffffffffffffffffff1681526020019081526020016000209050338160010160006101000a81548173ffffffffffffffffffffffffffffffffffffffff021916908373ffffffffffffffffffffffffffffffffffffffff16021790555086816002018190555060018160030160016101000a81548160ff0219169083151502179055506001600860003373ffffffffffffffffffffffffffffffffffffffff1673ffffffffffffffffffffffffffffffffffffffff168152602001908152602001600020600082825401925050819055506000610e96611279565b905080826000018190555060068290806001815401808255809150509060018203906000526020600020906004020160009091929091909150600082015481600001556001820160009054906101000a900473ffffffffffffffffffffffffffffffffffffffff168160010160006101000a81548173ffffffffffffffffffffffffffffffffffffffff021916908373ffffffffffffffffffffffffffffffffffffffff160217905550600282015481600201556003820160009054906101000a900460ff168160030160006101000a81548160ff0219169083151502179055506003820160019054906101000a900460ff168160030160016101000a81548160ff0219169083151502179055505050507fcd5f79909b53eb4c55b0a2d7004914519bad1e3ade1b3dae6005d528d83da31e81338a604051808481526020018373ffffffffffffffffffffffffffffffffffffffff1673ffffffffffffffffffffffffffffffffffffffff168152602001828152602001935050505060405180910390a15050505050505050565b6000809054906101000a900473ffffffffffffffffffffffffffffffffffffffff1673ffffffffffffffffffffffffffffffffffffffff163373ffffffffffffffffffffffffffffffffffffffff16146110c9576040517f08c379a000000000000000000000000000000000000000000000000000000000815260040180806020018281038252602e8152602001806143f6602e913960400191505060405180910390fd5b6000809054906101000a900473ffffffffffffffffffffffffffffffffffffffff1673ffffffffffffffffffffffffffffffffffffffff163373ffffffffffffffffffffffffffffffffffffffff161461111f57fe5b60003073ffffffffffffffffffffffffffffffffffffffff163190506000809054906101000a900473ffffffffffffffffffffffffffffffffffffffff1673ffffffffffffffffffffffffffffffffffffffff166108fc829081150290604051600060405180830381858888f193505050501580156111a2573d6000803e3d6000fd5b5060003073ffffffffffffffffffffffffffffffffffffffff1631146111c457fe5b50565b6000806000809054906101000a900473ffffffffffffffffffffffffffffffffffffffff166000809054906101000a900473ffffffffffffffffffffffffffffffffffffffff1673ffffffffffffffffffffffffffffffffffffffff1631819150915091509091565b6000809054906101000a900473ffffffffffffffffffffffffffffffffffffffff1681565b600080303073ffffffffffffffffffffffffffffffffffffffff1631915091509091565b60008060009050600062030d409050600061129683600184611957565b90507fc4dc360d0a9c0677a3379ae0a3d81e887f761e65fdf3d7e00859d1bcd3c473896040518080602001828103825260368152602001806145026036913960400191505060405180910390a180935050505090565b60086020528060005260406000206000915090505481565b3334808273ffffffffffffffffffffffffffffffffffffffff16311015611376576040517f08c379a00000000000000000000000000000000000000000000000000000000081526004018080602001828103825260358152602001806144246035913960400191505060405180910390fd5b7f0939f6f4877faf071412e527bc4c6d0bd65ad077e52b57334f7765265647a7f13334604051808373ffffffffffffffffffffffffffffffffffffffff1673ffffffffffffffffffffffffffffffffffffffff1681526020018281526020019250505060405180910390a15050565b6000809054906101000a900473ffffffffffffffffffffffffffffffffffffffff1673ffffffffffffffffffffffffffffffffffffffff163373ffffffffffffffffffffffffffffffffffffffff161461148a576040517f08c379a000000000000000000000000000000000000000000000000000000000815260040180806020018281038252602e8152602001806143f6602e913960400191505060405180910390fd5b600073ffffffffffffffffffffffffffffffffffffffff168173ffffffffffffffffffffffffffffffffffffffff1614156114c457600080fd5b806000806101000a81548173ffffffffffffffffffffffffffffffffffffffff021916908373ffffffffffffffffffffffffffffffffffffffff16021790555050565b60008073ffffffffffffffffffffffffffffffffffffffff16600260009054906101000a900473ffffffffffffffffffffffffffffffffffffffff1673ffffffffffffffffffffffffffffffffffffffff16148061158f5750600061158d600260009054906101000a900473ffffffffffffffffffffffffffffffffffffffff16611ef2565b145b156115a05761159e6000611efd565b505b600260009054906101000a900473ffffffffffffffffffffffffffffffffffffffff1673ffffffffffffffffffffffffffffffffffffffff166338cc48316040518163ffffffff1660e01b8152600401602060405180830381600087803b15801561160a57600080fd5b505af115801561161e573d6000803e3d6000fd5b505050506040513d602081101561163457600080fd5b810190808051906020019092919050505073ffffffffffffffffffffffffffffffffffffffff16600160009054906101000a900473ffffffffffffffffffffffffffffffffffffffff1673ffffffffffffffffffffffffffffffffffffffff161461177f57600260009054906101000a900473ffffffffffffffffffffffffffffffffffffffff1673ffffffffffffffffffffffffffffffffffffffff166338cc48316040518163ffffffff1660e01b8152600401602060405180830381600087803b15801561170357600080fd5b505af1158015611717573d6000803e3d6000fd5b505050506040513d602081101561172d57600080fd5b8101908080519060200190929190505050600160006101000a81548173ffffffffffffffffffffffffffffffffffffffff021916908373ffffffffffffffffffffffffffffffffffffffff1602179055505b600160009054906101000a900473ffffffffffffffffffffffffffffffffffffffff1673ffffffffffffffffffffffffffffffffffffffff1663c281d19e6040518163ffffffff1660e01b815260040160206040518083038186803b1580156117e757600080fd5b505afa1580156117fb573d6000803e3d6000fd5b505050506040513d602081101561181157600080fd5b8101908080519060200190929190505050905090565b60007f4c000000000000000000000000000000000000000000000000000000000000008260008151811061185757fe5b602001015160f81c60f81b7effffffffffffffffffffffffffffffffffffffffffffffffffffffffffffff19161415806118ea57507f5000000000000000000000000000000000000000000000000000000000000000826001815181106118ba57fe5b602001015160f81c60f81b7effffffffffffffffffffffffffffffffffffffffffffffffffffffffffffff191614155b806119165750600160ff168260028151811061190257fe5b602001015160f81c60f81b60f81c60ff1614155b156119245760019050611950565b6000611939838686611934611f0e565b611fb0565b90508061194a576002915050611950565b60009150505b9392505050565b60008083118015611969575060208311155b61197257600080fd5b600a84029350606060016040519080825280601f01601f1916602001820160405280156119ae5781602001600182028038833980820191505090505b5090508360f81b816000815181106119c257fe5b60200101907effffffffffffffffffffffffffffffffffffffffffffffffffffffffffffff1916908160001a905350606060206040519080825280601f01601f191660200182016040528015611a275781602001600182028038833980820191505090505b509050606060206040519080825280601f01601f191660200182016040528015611a605781602001600182028038833980820191505090505b5090506000611a6d61265b565b905060208352424118600143034018602084015260208252806020830152606060206040519080825280601f01601f191660200182016040528015611ac15781602001600182028038833980820191505090505b509050886020820152606060086040519080825280601f01601f191660200182016040528015611b005781602001600182028038833980820191505090505b509050611b13826018600884600061297b565b50611b1c61430f565b60405180608001604052808781526020018881526020018681526020018481525090506000611b816040518060400160405280600681526020017f72616e646f6d0000000000000000000000000000000000000000000000000000815250838c6129da565b9050606060086040519080825280601f01601f191660200182016040528015611bb95781602001600182028038833980820191505090505b50905060208401517f0100000000000000000000000000000000000000000000000000000000000000810460278301537e01000000000000000000000000000000000000000000000000000000000000810460268301537d010000000000000000000000000000000000000000000000000000000000810460258301537c0100000000000000000000000000000000000000000000000000000000810460248301537b01000000000000000000000000000000000000000000000000000000810460238301537a010000000000000000000000000000000000000000000000000000810460228301537901000000000000000000000000000000000000000000000000008104602183015378010000000000000000000000000000000000000000000000008104602083015350611edf828285600160048110611cf857fe5b6020020151600287600060048110611d0c57fe5b60200201516040518082805190602001908083835b60208310611d445780518252602082019150602081019050602083039250611d21565b6001836020036101000a038019825116818451168082178552505050505050905001915050602060405180830381855afa158015611d86573d6000803e3d6000fd5b5050506040513d6020811015611d9b57600080fd5b810190808051906020019092919050505087600260048110611db957fe5b60200201516040516020018085805190602001908083835b60208310611df45780518252602082019150602081019050602083039250611dd1565b6001836020036101000a03801982511681845116808217855250505050505090500184805190602001908083835b60208310611e455780518252602082019150602081019050602083039250611e22565b6001836020036101000a03801982511681845116808217855250505050505090500183815260200182805190602001908083835b60208310611e9c5780518252602082019150602081019050602083039250611e79565b6001836020036101000a03801982511681845116808217855250505050505090500194505050505060405160208183030381529060405280519060200120612d49565b8199505050505050505050509392505050565b6000813b9050919050565b6000611f07612d65565b9050919050565b606060038054600181600116156101000203166002900480601f016020809104026020016040519081016040528092919081815260200182805460018160011615610100020316600290048015611fa65780601f10611f7b57610100808354040283529160200191611fa6565b820191906000526020600020905b815481529060010190602001808311611f8957829003601f168201915b5050505050905090565b6000806020600287604581518110611fc457fe5b602001015160f81c60f81b60f81c60ff1601604401019050606060206040519080825280601f01601f1916602001820160405280156120125781602001600182028038833980820191505090505b5090506120248783602084600061297b565b50600284876040516020018083805190602001908083835b6020831061205f578051825260208201915060208101905060208303925061203c565b6001836020036101000a038019825116818451168082178552505050505050905001828152602001925050506040516020818303038152906040526040518082805190602001908083835b602083106120cd57805182526020820191506020810190506020830392506120aa565b6001836020036101000a038019825116818451168082178552505050505050905001915050602060405180830381855afa15801561210f573d6000803e3d6000fd5b5050506040513d602081101561212457600080fd5b8101908080519060200190929190505050604051602001808281526020019150506040516020818303038152906040528051906020012081805190602001201461217357600092505050612653565b6060600288600160498601018151811061218957fe5b602001015160f81c60f81b60f81c60ff16016040519080825280601f01601f1916602001820160405280156121cd5781602001600182028038833980820191505090505b5090506121e28860498501835184600061297b565b506122ad6002826040518082805190602001908083835b6020831061221c57805182526020820191506020810190506020830392506121f9565b6001836020036101000a038019825116818451168082178552505050505050905001915050602060405180830381855afa15801561225e573d6000803e3d6000fd5b5050506040513d602081101561227357600080fd5b8101908080519060200190929190505050878a600860208801018151811061229757fe5b602001015160f81c60f81b60f81c60ff166132bc565b6122bd5760009350505050612653565b606060296040519080825280601f01601f1916602001820160405280156122f35781602001600182028038833980820191505090505b5090506123088960208601602984600061297b565b506060604080519080825280601f01601f19166020018201604052801561233e5781602001600182028038833980820191505090505b50905060006041845160296020890101010190506123648b60408303604085600061297b565b5060006002836040518082805190602001908083835b6020831061239d578051825260208201915060208101905060208303925061237a565b6001836020036101000a038019825116818451168082178552505050505050905001915050602060405180830381855afa1580156123df573d6000803e3d6000fd5b5050506040513d60208110156123f457600080fd5b8101908080519060200190929190505050905083816040516020018083805190602001908083835b6020831061243f578051825260208201915060208101905060208303925061241c565b6001836020036101000a0380198251168184511680821785525050505050509050018281526020019250505060405160208183030381529060405280519060200120600460008d81526020019081526020016000205414156124b757600460008c8152602001908152602001600020600090556124c7565b6000975050505050505050612653565b606060496040519080825280601f01601f1916602001820160405280156124fd5781602001600182028038833980820191505090505b50905061250f8d89604984600061297b565b506125b86002826040518082805190602001908083835b602083106125495780518252602082019150602081019050602083039250612526565b6001836020036101000a038019825116818451168082178552505050505050905001915050602060405180830381855afa15801561258b573d6000803e3d6000fd5b5050506040513d60208110156125a057600080fd5b8101908080519060200190929190505050878661336c565b6125cd57600098505050505050505050612653565b6005600083815260200190815260200160002060009054906101000a900460ff16612627576125fc8d8461352a565b6005600084815260200190815260200160002060006101000a81548160ff0219169083151502179055505b6005600083815260200190815260200160002060009054906101000a900460ff16985050505050505050505b949350505050565b60008073ffffffffffffffffffffffffffffffffffffffff16600260009054906101000a900473ffffffffffffffffffffffffffffffffffffffff1673ffffffffffffffffffffffffffffffffffffffff1614806126e3575060006126e1600260009054906101000a900473ffffffffffffffffffffffffffffffffffffffff16611ef2565b145b156126f4576126f26000611efd565b505b600260009054906101000a900473ffffffffffffffffffffffffffffffffffffffff1673ffffffffffffffffffffffffffffffffffffffff166338cc48316040518163ffffffff1660e01b8152600401602060405180830381600087803b15801561275e57600080fd5b505af1158015612772573d6000803e3d6000fd5b505050506040513d602081101561278857600080fd5b810190808051906020019092919050505073ffffffffffffffffffffffffffffffffffffffff16600160009054906101000a900473ffffffffffffffffffffffffffffffffffffffff1673ffffffffffffffffffffffffffffffffffffffff16146128d357600260009054906101000a900473ffffffffffffffffffffffffffffffffffffffff1673ffffffffffffffffffffffffffffffffffffffff166338cc48316040518163ffffffff1660e01b8152600401602060405180830381600087803b15801561285757600080fd5b505af115801561286b573d6000803e3d6000fd5b505050506040513d602081101561288157600080fd5b8101908080519060200190929190505050600160006101000a81548173ffffffffffffffffffffffffffffffffffffffff021916908373ffffffffffffffffffffffffffffffffffffffff1602179055505b600160009054906101000a900473ffffffffffffffffffffffffffffffffffffffff1673ffffffffffffffffffffffffffffffffffffffff1663abaa5f3e6040518163ffffffff1660e01b815260040160206040518083038186803b15801561293b57600080fd5b505afa15801561294f573d6000803e3d6000fd5b505050506040513d602081101561296557600080fd5b8101908080519060200190929190505050905090565b606060008285019050808451101561299257600080fd5b600086602001905060008460200190505b8688602001018210156129cb57818901518082880152506020820191506020810190506129a3565b85935050505095945050505050565b60008073ffffffffffffffffffffffffffffffffffffffff16600260009054906101000a900473ffffffffffffffffffffffffffffffffffffffff1673ffffffffffffffffffffffffffffffffffffffff161480612a6257506000612a60600260009054906101000a900473ffffffffffffffffffffffffffffffffffffffff16611ef2565b145b15612a7357612a716000611efd565b505b600260009054906101000a900473ffffffffffffffffffffffffffffffffffffffff1673ffffffffffffffffffffffffffffffffffffffff166338cc48316040518163ffffffff1660e01b8152600401602060405180830381600087803b158015612add57600080fd5b505af1158015612af1573d6000803e3d6000fd5b505050506040513d6020811015612b0757600080fd5b810190808051906020019092919050505073ffffffffffffffffffffffffffffffffffffffff16600160009054906101000a900473ffffffffffffffffffffffffffffffffffffffff1673ffffffffffffffffffffffffffffffffffffffff1614612c5257600260009054906101000a900473ffffffffffffffffffffffffffffffffffffffff1673ffffffffffffffffffffffffffffffffffffffff166338cc48316040518163ffffffff1660e01b8152600401602060405180830381600087803b158015612bd657600080fd5b505af1158015612bea573d6000803e3d6000fd5b505050506040513d6020811015612c0057600080fd5b8101908080519060200190929190505050600160006101000a81548173ffffffffffffffffffffffffffffffffffffffff021916908373ffffffffffffffffffffffffffffffffffffffff1602179055505b60606004604051908082528060200260200182016040528015612c8957816020015b6060815260200190600190039081612c745790505b50905083600060048110612c9957fe5b602002015181600081518110612cab57fe5b602002602001018190525083600160048110612cc357fe5b602002015181600181518110612cd557fe5b602002602001018190525083600260048110612ced57fe5b602002015181600281518110612cff57fe5b602002602001018190525083600360048110612d1757fe5b602002015181600381518110612d2957fe5b6020026020010181905250612d3f858285613942565b9150509392505050565b8060046000848152602001908152602001600020819055505050565b600080612d85731d3b2638a7cc9f2cb3d298a3da7a90b67e5506ed611ef2565b1115612e2757731d3b2638a7cc9f2cb3d298a3da7a90b67e5506ed600260006101000a81548173ffffffffffffffffffffffffffffffffffffffff021916908373ffffffffffffffffffffffffffffffffffffffff160217905550612e1e6040518060400160405280600b81526020017f6574685f6d61696e6e6574000000000000000000000000000000000000000000815250613ea8565b600190506132b9565b6000612e4673c03a2615d5efaf5f49f60b7bb6583eaec212fdf1611ef2565b1115612ee85773c03a2615d5efaf5f49f60b7bb6583eaec212fdf1600260006101000a81548173ffffffffffffffffffffffffffffffffffffffff021916908373ffffffffffffffffffffffffffffffffffffffff160217905550612edf6040518060400160405280600c81526020017f6574685f726f707374656e330000000000000000000000000000000000000000815250613ea8565b600190506132b9565b6000612f0773b7a07bcf2ba2f2703b24c0691b5278999c59ac7e611ef2565b1115612fa95773b7a07bcf2ba2f2703b24c0691b5278999c59ac7e600260006101000a81548173ffffffffffffffffffffffffffffffffffffffff021916908373ffffffffffffffffffffffffffffffffffffffff160217905550612fa06040518060400160405280600981526020017f6574685f6b6f76616e0000000000000000000000000000000000000000000000815250613ea8565b600190506132b9565b6000612fc873146500cfd35b22e4a392fe0adc06de1a1368ed48611ef2565b111561306a5773146500cfd35b22e4a392fe0adc06de1a1368ed48600260006101000a81548173ffffffffffffffffffffffffffffffffffffffff021916908373ffffffffffffffffffffffffffffffffffffffff1602179055506130616040518060400160405280600b81526020017f6574685f72696e6b656279000000000000000000000000000000000000000000815250613ea8565b600190506132b9565b600061308973a2998efd205fb9d4b4963afb70778d6354ad3a41611ef2565b111561312b5773a2998efd205fb9d4b4963afb70778d6354ad3a41600260006101000a81548173ffffffffffffffffffffffffffffffffffffffff021916908373ffffffffffffffffffffffffffffffffffffffff1602179055506131226040518060400160405280600a81526020017f6574685f676f65726c6900000000000000000000000000000000000000000000815250613ea8565b600190506132b9565b600061314a736f485c8bf6fc43ea212e93bbf8ce046c7f1cb475611ef2565b11156131ae57736f485c8bf6fc43ea212e93bbf8ce046c7f1cb475600260006101000a81548173ffffffffffffffffffffffffffffffffffffffff021916908373ffffffffffffffffffffffffffffffffffffffff160217905550600190506132b9565b60006131cd7320e12a1f859b3feae5fb2a0a32c18f5a65555bbf611ef2565b1115613231577320e12a1f859b3feae5fb2a0a32c18f5a65555bbf600260006101000a81548173ffffffffffffffffffffffffffffffffffffffff021916908373ffffffffffffffffffffffffffffffffffffffff160217905550600190506132b9565b60006132507351efaf4c8b3c9afbd5ab9f4bbc82784ab6ef8faa611ef2565b11156132b4577351efaf4c8b3c9afbd5ab9f4bbc82784ab6ef8faa600260006101000a81548173ffffffffffffffffffffffffffffffffffffffff021916908373ffffffffffffffffffffffffffffffffffffffff160217905550600190506132b9565b600090505b90565b60008060019050828451146132d057600080fd5b60008090505b83811015613360578481815181106132ea57fe5b602001015160f81c60f81b7effffffffffffffffffffffffffffffffffffffffffffffffffffffffffffff191686826020811061332357fe5b1a60f81b7effffffffffffffffffffffffffffffffffffffffffffffffffffffffffffff19161461335357600091505b80806001019150506132d6565b50809150509392505050565b6000806000806000606060206040519080825280601f01601f1916602001820160405280156133aa5781602001600182028038833980820191505090505b50905060006020896003815181106133be57fe5b602001015160f81c60f81b60f81c60ff160360040190506133e48982602085600061297b565b9150606060206040519080825280601f01601f19166020018201604052801561341c5781602001600182028038833980820191505090505b5090506022820191506134588a60208c600186038151811061343a57fe5b602001015160f81c60f81b60f81c60ff16038401602084600061297b565b905060208301519450602081015193506134758b601b8787613ec2565b80975081985050508573ffffffffffffffffffffffffffffffffffffffff16898051906020012060001c73ffffffffffffffffffffffffffffffffffffffff1614156134cb576001975050505050505050613523565b6134d88b601c8787613ec2565b80975081985050508573ffffffffffffffffffffffffffffffffffffffff16898051906020012060001c73ffffffffffffffffffffffffffffffffffffffff16149750505050505050505b9392505050565b6000806060600285600186018151811061354057fe5b602001015160f81c60f81b60f81c60ff16016040519080825280601f01601f1916602001820160405280156135845781602001600182028038833980820191505090505b5090506135968585835184600061297b565b506060604080519080825280601f01601f1916602001820160405280156135cc5781602001600182028038833980820191505090505b5090506135df866004604084600061297b565b50606060626040519080825280601f01601f1916602001820160405280156136165781602001600182028038833980820191505090505b509050600160f81b8160008151811061362b57fe5b60200101907effffffffffffffffffffffffffffffffffffffffffffffffffffffffffffff1916908160001a90535061366c8760418803604184600161297b565b5060606040518060400160405280602081526020017ffd94fa71bc0ba10d39d464d0d8f465efeef0a2764e3887fcc9df41ded20f505c81525090506136b7816000602085604261297b565b506137606002836040518082805190602001908083835b602083106136f157805182526020820191506020810190506020830392506136ce565b6001836020036101000a038019825116818451168082178552505050505050905001915050602060405180830381855afa158015613733573d6000803e3d6000fd5b5050506040513d602081101561374857600080fd5b8101908080519060200190929190505050858561336c565b9450846137755760009550505050505061393c565b60606040518060600160405280604081526020016144c2604091399050606060426040519080825280601f01601f1916602001820160405280156137c85781602001600182028038833980820191505090505b50905060fe60f81b816000815181106137dd57fe5b60200101907effffffffffffffffffffffffffffffffffffffffffffffffffffffffffffff1916908160001a90535061381c8a6003604184600161297b565b50606060028b60458151811061382e57fe5b602001015160f81c60f81b60f81c60ff16016040519080825280601f01601f1916602001820160405280156138725781602001600182028038833980820191505090505b5090506138858b6044835184600061297b565b5061392e6002836040518082805190602001908083835b602083106138bf578051825260208201915060208101905060208303925061389c565b6001836020036101000a038019825116818451168082178552505050505050905001915050602060405180830381855afa158015613901573d6000803e3d6000fd5b5050506040513d602081101561391657600080fd5b8101908080519060200190929190505050828561336c565b975087985050505050505050505b92915050565b60008073ffffffffffffffffffffffffffffffffffffffff16600260009054906101000a900473ffffffffffffffffffffffffffffffffffffffff1673ffffffffffffffffffffffffffffffffffffffff1614806139ca575060006139c8600260009054906101000a900473ffffffffffffffffffffffffffffffffffffffff16611ef2565b145b156139db576139d96000611efd565b505b600260009054906101000a900473ffffffffffffffffffffffffffffffffffffffff1673ffffffffffffffffffffffffffffffffffffffff166338cc48316040518163ffffffff1660e01b8152600401602060405180830381600087803b158015613a4557600080fd5b505af1158015613a59573d6000803e3d6000fd5b505050506040513d6020811015613a6f57600080fd5b810190808051906020019092919050505073ffffffffffffffffffffffffffffffffffffffff16600160009054906101000a900473ffffffffffffffffffffffffffffffffffffffff1673ffffffffffffffffffffffffffffffffffffffff1614613bba57600260009054906101000a900473ffffffffffffffffffffffffffffffffffffffff1673ffffffffffffffffffffffffffffffffffffffff166338cc48316040518163ffffffff1660e01b8152600401602060405180830381600087803b158015613b3e57600080fd5b505af1158015613b52573d6000803e3d6000fd5b505050506040513d6020811015613b6857600080fd5b8101908080519060200190929190505050600160006101000a81548173ffffffffffffffffffffffffffffffffffffffff021916908373ffffffffffffffffffffffffffffffffffffffff1602179055505b6000600160009054906101000a900473ffffffffffffffffffffffffffffffffffffffff1673ffffffffffffffffffffffffffffffffffffffff16632ef3accc86856040518363ffffffff1660e01b81526004018080602001838152602001828103825284818151815260200191508051906020019080838360005b83811015613c51578082015181840152602081019050613c36565b50505050905090810190601f168015613c7e5780820380516001836020036101000a031916815260200191505b509350505050602060405180830381600087803b158015613c9e57600080fd5b505af1158015613cb2573d6000803e3d6000fd5b505050506040513d6020811015613cc857600080fd5b81019080805190602001909291905050509050823a02670de0b6b3a764000001811115613cfb576000801b915050613ea1565b6060613d0685613f06565b9050600160009054906101000a900473ffffffffffffffffffffffffffffffffffffffff1673ffffffffffffffffffffffffffffffffffffffff1663c55c1cb68360008985896040518663ffffffff1660e01b8152600401808581526020018060200180602001848152602001838103835286818151815260200191508051906020019080838360005b83811015613dab578082015181840152602081019050613d90565b50505050905090810190601f168015613dd85780820380516001836020036101000a031916815260200191505b50838103825285818151815260200191508051906020019080838360005b83811015613e11578082015181840152602081019050613df6565b50505050905090810190601f168015613e3e5780820380516001836020036101000a031916815260200191505b5096505050505050506020604051808303818588803b158015613e6057600080fd5b505af1158015613e74573d6000803e3d6000fd5b50505050506040513d6020811015613e8b57600080fd5b8101908080519060200190929190505050925050505b9392505050565b8060039080519060200190613ebe929190614336565b5050565b60008060008060405188815287602082015286604082015285606082015260208160808360006001610bb8f192508051915050818193509350505094509492505050565b6060613f10613f86565b613f186143b6565b613f2481610400613f92565b613f2d81613fdc565b60008090505b8351811015613f6f57613f62848281518110613f4b57fe5b602002602001015183613fea90919063ffffffff16565b8080600101915050613f33565b50613f798161400f565b8060000151915050919050565b60405180590338823950565b6000819050600060208281613fa357fe5b0614613fbc5760208181613fb357fe5b06602003810190505b808360200181815250506040518084526000815281810160405250505050565b613fe781600461401d565b50565b613ff7826002835161403e565b61400a818361417e90919063ffffffff16565b505050565b61401a81600761401d565b50565b61403a601f60058360ff16901b178361422990919063ffffffff16565b5050565b6017811161406a576140658160058460ff16901b60ff16178461422990919063ffffffff16565b614179565b60ff81116140ab5761408f601860058460ff16901b178461422990919063ffffffff16565b6140a5816001856142699092919063ffffffff16565b50614178565b61ffff81116140ed576140d1601960058460ff16901b178461422990919063ffffffff16565b6140e7816002856142699092919063ffffffff16565b50614177565b63ffffffff811161413157614115601a60058460ff16901b178461422990919063ffffffff16565b61412b816004856142699092919063ffffffff16565b50614176565b67ffffffffffffffff81116141755761415d601b60058460ff16901b178461422990919063ffffffff16565b614173816008856142699092919063ffffffff16565b505b5b5b5b5b505050565b6141866143b6565b826020015183600001515183510111156141b6576141b58360026141af866020015186516142d0565b026142ec565b5b60008060008451905085518051602081830101945086518101825260208701935050505b602081106141fd57815183526020830192506020820191506020810390506141da565b60006001826020036101000a039050801983511681855116818117865250508694505050505092915050565b8160200151600183600001515101111561424f5761424e8260028460200151026142ec565b5b815180516020818301018381536001820183525050505050565b6142716143b6565b83602001518460000151518301111561429f5761429e8460026142988760200151866142d0565b026142ec565b5b60006001836101000a0390508451805184818301018684198251161781528582018352505050849150509392505050565b6000818311156142e2578290506142e6565b8190505b92915050565b6060826000015190506142ff8383613f92565b614309838261417e565b50505050565b60405180608001604052806004905b606081526020019060019003908161431e5790505090565b828054600181600116156101000203166002900490600052602060002090601f016020900481019282601f1061437757805160ff19168380011785556143a5565b828001600101855582156143a5579182015b828111156143a4578251825591602001919060010190614389565b5b5090506143b291906143d0565b5090565b604051806040016040528060608152602001600081525090565b6143f291905b808211156143ee5760008160009055506001016143d6565b5090565b9056fe596f7520617265206e6f7420656e7469746c656420746f206578656375746520746869732066756e6374696f6e2e546865726520617265206e6f7420656e6f7567682066756e647320746f206372656174652074686973207472616e73616374696f6e596f75206d7573742073656e642074686520726571756972656420636f7374206f72206d6f7265546865206265742077617320756e61626c6520746f206265207665726966696564596f752063616e2774207761676572206d6f7265207468616e20352065746865727fb956469c5c9b89840d55b43537e66a98dd4811ea0a27224272c2e5622911e8537a2f8e86a46baec82864e98dd01e9ccc2f8bc5dfc9cbe5a91a290498dd96e450726f7661626c65207175657279207761732073656e742c207374616e64696e6720627920666f722074686520616e737765722e2e2ea265627a7a72315820b53ee64718a8a6d4347c4bfc9dcb4e5d548e19c03c073cc96dce0796e85be85064736f6c634300050c003250726f7661626c65207175657279207761732073656e742c207374616e64696e6720627920666f722074686520616e737765722e2e2e",
  "source": "import './Ownable.sol';\nimport './Betting.sol';\nimport './usingPseudoRandomNumber.sol';\n\n\npragma solidity 0.5.12;\n\ncontract CoinFlip is Ownable, Betting, usingPseudoRandomNumber {\n\n    event ContractFunded(address funder, uint amount);\n\n    /* function bet(uint _amount) public payable\n        costs(0.01 ether)\n        setBettingLimit()\n        amountSentMustMatch(_amount)\n        mustHaveRequiredFunds(msg.sender, _amount)\n        mustHaveRequiredFunds(address(this), _amount)\n    {\n        bool _betWon;\n        uint rand = random();\n\n        if (rand == 1) {\n            msg.sender.transfer(_amount * 2);\n            _betWon = true;\n        } else {\n            _betWon = false;\n        }\n\n        emit BetPlaced(msg.sender, _amount, _betWon);\n    } */\n\n    function fundContract() public payable mustHaveRequiredFunds(msg.sender, msg.value) {\n        emit ContractFunded(msg.sender, msg.value);\n    }\n\n    function withdraw(uint _amount) public onlyOwner mustHaveRequiredFunds(address(this), _amount) {\n        assert(msg.sender == owner);\n        uint contractBalanceBefore = address(this).balance;\n        owner.transfer(_amount);\n        assert(address(this).balance == contractBalanceBefore - _amount);\n    }\n\n    function withdrawAll() public onlyOwner {\n        assert(msg.sender == owner);\n        uint withdrawalAmount = address(this).balance;\n        owner.transfer(withdrawalAmount);\n        assert(address(this).balance == 0);\n    }\n\n    function getContract() public view returns (address, uint) {\n        return (address(this), address(this).balance);\n    }\n\n    function getOwner() public view returns (address, uint) {\n        return (address(owner), address(owner).balance);\n    }\n}\n",
  "sourcePath": "/Users/Sant/Desktop/code/projects/blockchain/ivanontechacademy/coinflip/contracts/CoinFlip.sol",
  "compiler": {
    "name": "solc",
    "version": "0.5.12+commit.7709ece9.Emscripten.clang"
  },
  "schemaVersion": "3.0.19",
  "updatedAt": "2020-01-31T03:40:14.572Z",
  "networkType": "ethereum",
  "devdoc": {
    "methods": {
      "__callback(bytes32,string)": {
        "details": "The following `__callback` functions are just placeholders ideally     meant to be defined in child contract when proofs are used.     The function bodies simply silence compiler warnings."
      }
    }
  },
  "userdoc": {
    "methods": {}
  }
}