{
  "contractName": "CoinFlip",
  "abi": [
    {
      "anonymous": false,
      "inputs": [
        {
          "indexed": false,
          "internalType": "address",
          "name": "gambler",
          "type": "address"
        },
        {
          "indexed": false,
          "internalType": "uint256",
          "name": "amount",
          "type": "uint256"
        },
        {
          "indexed": false,
          "internalType": "bool",
          "name": "betWon",
          "type": "bool"
        }
      ],
      "name": "BetPlaced",
      "type": "event"
    },
    {
      "anonymous": false,
      "inputs": [
        {
          "indexed": false,
          "internalType": "address",
          "name": "funder",
          "type": "address"
        },
        {
          "indexed": false,
          "internalType": "uint256",
          "name": "amount",
          "type": "uint256"
        }
      ],
      "name": "ContractFunded",
      "type": "event"
    },
    {
      "constant": true,
      "inputs": [],
      "name": "contractBalance",
      "outputs": [
        {
          "internalType": "uint256",
          "name": "",
          "type": "uint256"
        }
      ],
      "payable": false,
      "stateMutability": "view",
      "type": "function"
    },
    {
      "constant": true,
      "inputs": [],
      "name": "contractOwner",
      "outputs": [
        {
          "internalType": "address",
          "name": "",
          "type": "address"
        }
      ],
      "payable": false,
      "stateMutability": "view",
      "type": "function"
    },
    {
      "constant": true,
      "inputs": [],
      "name": "owner",
      "outputs": [
        {
          "internalType": "address payable",
          "name": "",
          "type": "address"
        }
      ],
      "payable": false,
      "stateMutability": "view",
      "type": "function"
    },
    {
      "constant": true,
      "inputs": [],
      "name": "random",
      "outputs": [
        {
          "internalType": "uint256",
          "name": "",
          "type": "uint256"
        }
      ],
      "payable": false,
      "stateMutability": "view",
      "type": "function"
    },
    {
      "constant": false,
      "inputs": [
        {
          "internalType": "address",
          "name": "newOwner",
          "type": "address"
        }
      ],
      "name": "transferOwnership",
      "outputs": [],
      "payable": false,
      "stateMutability": "nonpayable",
      "type": "function"
    },
    {
      "constant": false,
      "inputs": [
        {
          "internalType": "address payable",
          "name": "_gambler",
          "type": "address"
        },
        {
          "internalType": "uint256",
          "name": "_amount",
          "type": "uint256"
        }
      ],
      "name": "bet",
      "outputs": [
        {
          "internalType": "bool",
          "name": "",
          "type": "bool"
        }
      ],
      "payable": true,
      "stateMutability": "payable",
      "type": "function"
    },
    {
      "constant": false,
      "inputs": [
        {
          "internalType": "uint256",
          "name": "_amount",
          "type": "uint256"
        }
      ],
      "name": "fundContract",
      "outputs": [
        {
          "internalType": "uint256",
          "name": "",
          "type": "uint256"
        }
      ],
      "payable": true,
      "stateMutability": "payable",
      "type": "function"
    },
    {
      "constant": false,
      "inputs": [],
      "name": "withdrawAll",
      "outputs": [
        {
          "internalType": "uint256",
          "name": "",
          "type": "uint256"
        }
      ],
      "payable": false,
      "stateMutability": "nonpayable",
      "type": "function"
    },
    {
      "constant": true,
      "inputs": [],
      "name": "getContractBalance",
      "outputs": [
        {
          "internalType": "uint256",
          "name": "",
          "type": "uint256"
        }
      ],
      "payable": false,
      "stateMutability": "view",
      "type": "function"
    },
    {
      "constant": true,
      "inputs": [],
      "name": "getOwnerBalance",
      "outputs": [
        {
          "internalType": "uint256",
          "name": "",
          "type": "uint256"
        }
      ],
      "payable": false,
      "stateMutability": "view",
      "type": "function"
    }
  ],
  "bytecode": "0x608060405233600160006101000a81548173ffffffffffffffffffffffffffffffffffffffff021916908373ffffffffffffffffffffffffffffffffffffffff160217905550336000806101000a81548173ffffffffffffffffffffffffffffffffffffffff021916908373ffffffffffffffffffffffffffffffffffffffff160217905550610b47806100946000396000f3fe6080604052600436106100915760003560e01c80638b7afe2e116100595780638b7afe2e146101845780638da5cb5b146101af578063ce606ee014610206578063f2fde38b1461025d578063f846cabc146102ae57610091565b80633519a2f814610096578063590791f2146100d85780635ec01e4d146101035780636f9fb98a1461012e578063853828b614610159575b600080fd5b6100c2600480360360208110156100ac57600080fd5b8101908080359060200190929190505050610314565b6040518082815260200191505060405180910390f35b3480156100e457600080fd5b506100ed610496565b6040518082815260200191505060405180910390f35b34801561010f57600080fd5b506101186104d7565b6040518082815260200191505060405180910390f35b34801561013a57600080fd5b506101436104e9565b6040518082815260200191505060405180910390f35b34801561016557600080fd5b5061016e6104f3565b6040518082815260200191505060405180910390f35b34801561019057600080fd5b50610199610619565b6040518082815260200191505060405180910390f35b3480156101bb57600080fd5b506101c461061f565b604051808273ffffffffffffffffffffffffffffffffffffffff1673ffffffffffffffffffffffffffffffffffffffff16815260200191505060405180910390f35b34801561021257600080fd5b5061021b610645565b604051808273ffffffffffffffffffffffffffffffffffffffff1673ffffffffffffffffffffffffffffffffffffffff16815260200191505060405180910390f35b34801561026957600080fd5b506102ac6004803603602081101561028057600080fd5b81019080803573ffffffffffffffffffffffffffffffffffffffff16906020019092919050505061066a565b005b6102fa600480360360408110156102c457600080fd5b81019080803573ffffffffffffffffffffffffffffffffffffffff1690602001909291908035906020019092919050505061078c565b604051808215151515815260200191505060405180910390f35b6000662386f26fc100008034101561032b57600080fd5b823373ffffffffffffffffffffffffffffffffffffffff163110156103b8576040517f08c379a000000000000000000000000000000000000000000000000000000000815260040180806020018281038252601b8152602001807f596f75206861766520696e73756666696369656e742066756e6473000000000081525060200191505060405180910390fd5b823414610410576040517f08c379a0000000000000000000000000000000000000000000000000000000008152600401808060200182810382526022815260200180610af16022913960400191505060405180910390fd5b826002600082825401925050819055507f0939f6f4877faf071412e527bc4c6d0bd65ad077e52b57334f7765265647a7f13384604051808373ffffffffffffffffffffffffffffffffffffffff1673ffffffffffffffffffffffffffffffffffffffff1681526020018281526020019250505060405180910390a1600254915050919050565b6000600160009054906101000a900473ffffffffffffffffffffffffffffffffffffffff1673ffffffffffffffffffffffffffffffffffffffff1631905090565b6000600242816104e357fe5b06905090565b6000600254905090565b60008060009054906101000a900473ffffffffffffffffffffffffffffffffffffffff1673ffffffffffffffffffffffffffffffffffffffff163373ffffffffffffffffffffffffffffffffffffffff161461059a576040517f08c379a000000000000000000000000000000000000000000000000000000000815260040180806020018281038252602e815260200180610a7b602e913960400191505060405180910390fd5b600060025490506000600281905550600160009054906101000a900473ffffffffffffffffffffffffffffffffffffffff1673ffffffffffffffffffffffffffffffffffffffff166108fc829081150290604051600060405180830381858888f19350505050158015610611573d6000803e3d6000fd5b508091505090565b60025481565b600160009054906101000a900473ffffffffffffffffffffffffffffffffffffffff1681565b6000809054906101000a900473ffffffffffffffffffffffffffffffffffffffff1681565b6000809054906101000a900473ffffffffffffffffffffffffffffffffffffffff1673ffffffffffffffffffffffffffffffffffffffff163373ffffffffffffffffffffffffffffffffffffffff161461070f576040517f08c379a000000000000000000000000000000000000000000000000000000000815260040180806020018281038252602e815260200180610a7b602e913960400191505060405180910390fd5b600073ffffffffffffffffffffffffffffffffffffffff168173ffffffffffffffffffffffffffffffffffffffff16141561074957600080fd5b806000806101000a81548173ffffffffffffffffffffffffffffffffffffffff021916908373ffffffffffffffffffffffffffffffffffffffff16021790555050565b6000662386f26fc10000803410156107a357600080fd5b3483146107fb576040517f08c379a0000000000000000000000000000000000000000000000000000000008152600401808060200182810382526022815260200180610af16022913960400191505060405180910390fd5b3373ffffffffffffffffffffffffffffffffffffffff168473ffffffffffffffffffffffffffffffffffffffff161461087f576040517f08c379a0000000000000000000000000000000000000000000000000000000008152600401808060200182810382526024815260200180610aa96024913960400191505060405180910390fd5b348473ffffffffffffffffffffffffffffffffffffffff1631101561090c576040517f08c379a000000000000000000000000000000000000000000000000000000000815260040180806020018281038252601b8152602001807f596f75206861766520696e73756666696369656e742066756e6473000000000081525060200191505060405180910390fd5b8260025414610966576040517f08c379a0000000000000000000000000000000000000000000000000000000008152600401808060200182810382526024815260200180610acd6024913960400191505060405180910390fd5b826002600082825401925050819055506000806109816104d7565b905060018114156109f257600285026002600082825403925050819055508573ffffffffffffffffffffffffffffffffffffffff166108fc600287029081150290604051600060405180830381858888f193505050501580156109e8573d6000803e3d6000fd5b50600191506109f7565b600091505b7ff8e99859e696debf4ef1752d671f759f7f63a1116efe995d789edfb3849c3549868684604051808473ffffffffffffffffffffffffffffffffffffffff1673ffffffffffffffffffffffffffffffffffffffff16815260200183815260200182151515158152602001935050505060405180910390a18193505050509291505056fe596f7520617265206e6f7420656e7469746c656420746f206578656375746520746869732066756e6374696f6e2e596f752063616e27742075736520736f6d656f6e6520656c7365277320616464726573735468697320636f6e74726163742068617320696e73756666696369656e742066756e6473596f75206d7573742073656e642074686520616d6f756e7420737065636966696564a265627a7a72315820222cafea4732f0f5dbcce91afac1fd75fd20495c777a05c8faee9b16244ebcc864736f6c634300050c0032",
  "source": "import './PseudoRandomness.sol';\nimport './Ownable.sol';\n\n\npragma solidity 0.5.12;\n\ncontract CoinFlip is PseudoRandomness, Ownable {\n    // TODO:\n    // 1: User can send money and bet on 50/50 flip\n    // 2: FrontEnd connection\n    // 3: User should be able to place a bet with an amount given\n    // 4: User should get back double the bet if they win\n    address payable public owner = msg.sender;\n    uint public contractBalance;\n\n    event BetPlaced(address gambler, uint amount, bool betWon);\n    event ContractFunded(address funder, uint amount);\n\n    modifier costs(uint cost) {\n        require(msg.value >= cost);\n        _;\n    }\n\n    function bet(address payable _gambler, uint _amount) public payable costs(0.01 ether) returns (bool) {\n        require(_amount == msg.value, \"You must send the amount specified\");\n        require(_gambler == msg.sender, \"You can't use someone else's address\");\n        require(_gambler.balance >= msg.value, \"You have insufficient funds\");\n        require(contractBalance == _amount, \"This contract has insufficient funds\");\n\n        contractBalance += _amount;\n        bool _betWon;\n        uint rand = random();\n\n        if (rand == 1) {\n            contractBalance -= _amount * 2;\n            _gambler.transfer(_amount * 2);\n            _betWon = true;\n        } else {\n            _betWon = false;\n        }\n\n        emit BetPlaced(_gambler, _amount, _betWon);\n        return _betWon;\n    }\n\n    function fundContract(uint _amount) public payable costs(0.01 ether) returns (uint) {\n        require(msg.sender.balance >= _amount, \"You have insufficient funds\");\n        require(msg.value == _amount, \"You must send the amount specified\");\n        contractBalance += _amount;\n\n        emit ContractFunded(msg.sender, _amount);\n        return contractBalance;\n    }\n\n    function withdrawAll() public onlyOwner returns (uint) {\n       uint withdrawalAmount = contractBalance;\n       contractBalance = 0;\n       owner.transfer(withdrawalAmount);\n\n       return withdrawalAmount;\n   }\n\n    function getContractBalance() public view returns (uint) {\n        return contractBalance;\n    }\n\n    function getOwnerBalance() public view returns (uint) {\n        return address(owner).balance;\n    }\n}\n",
  "sourcePath": "/Users/Sant/Desktop/code/projects/blockchain/ivanontechacademy/project-phase-1/contracts/CoinFlip.sol",
  "compiler": {
    "name": "solc",
    "version": "0.5.12+commit.7709ece9.Emscripten.clang"
  },
  "schemaVersion": "3.0.19",
  "updatedAt": "2020-01-25T21:53:59.937Z",
  "devdoc": {
    "methods": {}
  },
  "userdoc": {
    "methods": {}
  }
}