{
  "contractName": "CoinFlip",
  "abi": [
    {
      "anonymous": false,
      "inputs": [
        {
          "indexed": false,
          "internalType": "bytes32",
          "name": "queryId",
          "type": "bytes32"
        },
        {
          "indexed": true,
          "internalType": "address",
          "name": "player",
          "type": "address"
        },
        {
          "indexed": false,
          "internalType": "uint256",
          "name": "amount",
          "type": "uint256"
        },
        {
          "indexed": false,
          "internalType": "bool",
          "name": "betWon",
          "type": "bool"
        }
      ],
      "name": "BetComplete",
      "type": "event"
    },
    {
      "anonymous": false,
      "inputs": [
        {
          "indexed": false,
          "internalType": "bytes32",
          "name": "queryId",
          "type": "bytes32"
        },
        {
          "indexed": false,
          "internalType": "string",
          "name": "reason",
          "type": "string"
        }
      ],
      "name": "BetFailed",
      "type": "event"
    },
    {
      "anonymous": false,
      "inputs": [
        {
          "indexed": false,
          "internalType": "bytes32",
          "name": "queryId",
          "type": "bytes32"
        },
        {
          "indexed": true,
          "internalType": "address",
          "name": "player",
          "type": "address"
        },
        {
          "indexed": false,
          "internalType": "uint256",
          "name": "amount",
          "type": "uint256"
        }
      ],
      "name": "BetPlaced",
      "type": "event"
    },
    {
      "anonymous": false,
      "inputs": [
        {
          "indexed": false,
          "internalType": "uint256",
          "name": "amount",
          "type": "uint256"
        }
      ],
      "name": "ContractFunded",
      "type": "event"
    },
    {
      "anonymous": false,
      "inputs": [
        {
          "indexed": false,
          "internalType": "string",
          "name": "description",
          "type": "string"
        }
      ],
      "name": "LogNewProvableQuery",
      "type": "event"
    },
    {
      "constant": false,
      "inputs": [
        {
          "internalType": "bytes32",
          "name": "_myid",
          "type": "bytes32"
        },
        {
          "internalType": "string",
          "name": "_result",
          "type": "string"
        }
      ],
      "name": "__callback",
      "outputs": [],
      "payable": false,
      "stateMutability": "nonpayable",
      "type": "function"
    },
    {
      "constant": false,
      "inputs": [
        {
          "internalType": "bytes32",
          "name": "_queryId",
          "type": "bytes32"
        },
        {
          "internalType": "string",
          "name": "_result",
          "type": "string"
        },
        {
          "internalType": "bytes",
          "name": "_proof",
          "type": "bytes"
        }
      ],
      "name": "__callback",
      "outputs": [],
      "payable": false,
      "stateMutability": "nonpayable",
      "type": "function"
    },
    {
      "constant": true,
      "inputs": [
        {
          "internalType": "address",
          "name": "",
          "type": "address"
        }
      ],
      "name": "balances",
      "outputs": [
        {
          "internalType": "uint256",
          "name": "",
          "type": "uint256"
        }
      ],
      "payable": false,
      "stateMutability": "view",
      "type": "function"
    },
    {
      "constant": false,
      "inputs": [
        {
          "internalType": "uint256",
          "name": "_amount",
          "type": "uint256"
        }
      ],
      "name": "bet",
      "outputs": [],
      "payable": true,
      "stateMutability": "payable",
      "type": "function"
    },
    {
      "constant": true,
      "inputs": [
        {
          "internalType": "uint256",
          "name": "",
          "type": "uint256"
        }
      ],
      "name": "betToPlayer",
      "outputs": [
        {
          "internalType": "address",
          "name": "",
          "type": "address"
        }
      ],
      "payable": false,
      "stateMutability": "view",
      "type": "function"
    },
    {
      "constant": true,
      "inputs": [
        {
          "internalType": "uint256",
          "name": "",
          "type": "uint256"
        }
      ],
      "name": "bets",
      "outputs": [
        {
          "internalType": "bytes32",
          "name": "queryId",
          "type": "bytes32"
        },
        {
          "internalType": "address",
          "name": "player",
          "type": "address"
        },
        {
          "internalType": "uint256",
          "name": "betAmount",
          "type": "uint256"
        },
        {
          "internalType": "uint256",
          "name": "calculatedBetAmount",
          "type": "uint256"
        },
        {
          "internalType": "bool",
          "name": "betWon",
          "type": "bool"
        },
        {
          "internalType": "bool",
          "name": "isPending",
          "type": "bool"
        }
      ],
      "payable": false,
      "stateMutability": "view",
      "type": "function"
    },
    {
      "constant": true,
      "inputs": [],
      "name": "contractAddress",
      "outputs": [
        {
          "internalType": "address",
          "name": "",
          "type": "address"
        }
      ],
      "payable": false,
      "stateMutability": "view",
      "type": "function"
    },
    {
      "constant": true,
      "inputs": [],
      "name": "getBetCount",
      "outputs": [
        {
          "internalType": "uint256",
          "name": "",
          "type": "uint256"
        }
      ],
      "payable": false,
      "stateMutability": "view",
      "type": "function"
    },
    {
      "constant": true,
      "inputs": [],
      "name": "owner",
      "outputs": [
        {
          "internalType": "address",
          "name": "",
          "type": "address"
        }
      ],
      "payable": false,
      "stateMutability": "view",
      "type": "function"
    },
    {
      "constant": true,
      "inputs": [
        {
          "internalType": "address",
          "name": "",
          "type": "address"
        }
      ],
      "name": "playerBetCount",
      "outputs": [
        {
          "internalType": "uint256",
          "name": "",
          "type": "uint256"
        }
      ],
      "payable": false,
      "stateMutability": "view",
      "type": "function"
    },
    {
      "constant": false,
      "inputs": [
        {
          "internalType": "address payable",
          "name": "newOwner",
          "type": "address"
        }
      ],
      "name": "transferOwnership",
      "outputs": [],
      "payable": false,
      "stateMutability": "nonpayable",
      "type": "function"
    },
    {
      "constant": false,
      "inputs": [],
      "name": "update",
      "outputs": [
        {
          "internalType": "bytes32",
          "name": "",
          "type": "bytes32"
        }
      ],
      "payable": true,
      "stateMutability": "payable",
      "type": "function"
    },
    {
      "constant": false,
      "inputs": [],
      "name": "fundContract",
      "outputs": [],
      "payable": true,
      "stateMutability": "payable",
      "type": "function"
    },
    {
      "constant": false,
      "inputs": [],
      "name": "withdrawBalance",
      "outputs": [],
      "payable": false,
      "stateMutability": "nonpayable",
      "type": "function"
    },
    {
      "constant": false,
      "inputs": [],
      "name": "withdrawContract",
      "outputs": [],
      "payable": false,
      "stateMutability": "nonpayable",
      "type": "function"
    },
    {
      "constant": true,
      "inputs": [],
      "name": "getContract",
      "outputs": [
        {
          "internalType": "address",
          "name": "",
          "type": "address"
        },
        {
          "internalType": "uint256",
          "name": "",
          "type": "uint256"
        }
      ],
      "payable": false,
      "stateMutability": "view",
      "type": "function"
    },
    {
      "constant": true,
      "inputs": [],
      "name": "getBalance",
      "outputs": [
        {
          "internalType": "uint256",
          "name": "",
          "type": "uint256"
        }
      ],
      "payable": false,
      "stateMutability": "view",
      "type": "function"
    }
  ],
  "bytecode": "0x608060405230600660006101000a81548173ffffffffffffffffffffffffffffffffffffffff021916908373ffffffffffffffffffffffffffffffffffffffff1602179055506200008b6040518060400160405280600681526020017f52616e646f6d0000000000000000000000000000000000000000000000000000815250620000fa60201b60201c565b600755336000806101000a81548173ffffffffffffffffffffffffffffffffffffffff021916908373ffffffffffffffffffffffffffffffffffffffff160217905550620000e3603060f81b620004ad60201b60201c565b620000f36200081360201b60201c565b5062002746565b60008073ffffffffffffffffffffffffffffffffffffffff16600260009054906101000a900473ffffffffffffffffffffffffffffffffffffffff1673ffffffffffffffffffffffffffffffffffffffff1614806200018b5750600062000189600260009054906101000a900473ffffffffffffffffffffffffffffffffffffffff166200088f60201b60201c565b145b15620001a557620001a360006200089a60201b60201c565b505b600260009054906101000a900473ffffffffffffffffffffffffffffffffffffffff1673ffffffffffffffffffffffffffffffffffffffff166338cc48316040518163ffffffff1660e01b8152600401602060405180830381600087803b1580156200021057600080fd5b505af115801562000225573d6000803e3d6000fd5b505050506040513d60208110156200023c57600080fd5b810190808051906020019092919050505073ffffffffffffffffffffffffffffffffffffffff16600160009054906101000a900473ffffffffffffffffffffffffffffffffffffffff1673ffffffffffffffffffffffffffffffffffffffff16146200038b57600260009054906101000a900473ffffffffffffffffffffffffffffffffffffffff1673ffffffffffffffffffffffffffffffffffffffff166338cc48316040518163ffffffff1660e01b8152600401602060405180830381600087803b1580156200030d57600080fd5b505af115801562000322573d6000803e3d6000fd5b505050506040513d60208110156200033957600080fd5b8101908080519060200190929190505050600160006101000a81548173ffffffffffffffffffffffffffffffffffffffff021916908373ffffffffffffffffffffffffffffffffffffffff1602179055505b600160009054906101000a900473ffffffffffffffffffffffffffffffffffffffff1673ffffffffffffffffffffffffffffffffffffffff1663524f3889836040518263ffffffff1660e01b81526004018080602001828103825283818151815260200191508051906020019080838360005b838110156200041b578082015181840152602081019050620003fe565b50505050905090810190601f168015620004495780820380516001836020036101000a031916815260200191505b5092505050602060405180830381600087803b1580156200046957600080fd5b505af11580156200047e573d6000803e3d6000fd5b505050506040513d60208110156200049557600080fd5b81019080805190602001909291905050509050919050565b600073ffffffffffffffffffffffffffffffffffffffff16600260009054906101000a900473ffffffffffffffffffffffffffffffffffffffff1673ffffffffffffffffffffffffffffffffffffffff1614806200053d575060006200053b600260009054906101000a900473ffffffffffffffffffffffffffffffffffffffff166200088f60201b60201c565b145b1562000557576200055560006200089a60201b60201c565b505b600260009054906101000a900473ffffffffffffffffffffffffffffffffffffffff1673ffffffffffffffffffffffffffffffffffffffff166338cc48316040518163ffffffff1660e01b8152600401602060405180830381600087803b158015620005c257600080fd5b505af1158015620005d7573d6000803e3d6000fd5b505050506040513d6020811015620005ee57600080fd5b810190808051906020019092919050505073ffffffffffffffffffffffffffffffffffffffff16600160009054906101000a900473ffffffffffffffffffffffffffffffffffffffff1673ffffffffffffffffffffffffffffffffffffffff16146200073d57600260009054906101000a900473ffffffffffffffffffffffffffffffffffffffff1673ffffffffffffffffffffffffffffffffffffffff166338cc48316040518163ffffffff1660e01b8152600401602060405180830381600087803b158015620006bf57600080fd5b505af1158015620006d4573d6000803e3d6000fd5b505050506040513d6020811015620006eb57600080fd5b8101908080519060200190929190505050600160006101000a81548173ffffffffffffffffffffffffffffffffffffffff021916908373ffffffffffffffffffffffffffffffffffffffff1602179055505b600160009054906101000a900473ffffffffffffffffffffffffffffffffffffffff1673ffffffffffffffffffffffffffffffffffffffff1663688dcfd7826040518263ffffffff1660e01b815260040180827effffffffffffffffffffffffffffffffffffffffffffffffffffffffffffff19167effffffffffffffffffffffffffffffffffffffffffffffffffffffffffffff19168152602001915050600060405180830381600087803b158015620007f757600080fd5b505af11580156200080c573d6000803e3d6000fd5b5050505050565b60008060009050600062030d40905060006200083883600184620008b360201b60201c565b90507fc4dc360d0a9c0677a3379ae0a3d81e887f761e65fdf3d7e00859d1bcd3c47389604051808060200182810382526036815260200180620076356036913960400191505060405180910390a180935050505090565b6000813b9050919050565b6000620008ac62000e8660201b60201c565b9050919050565b60008083118015620008c6575060208311155b620008d057600080fd5b600a84029350606060016040519080825280601f01601f1916602001820160405280156200090d5781602001600182028038833980820191505090505b5090508360f81b816000815181106200092257fe5b60200101907effffffffffffffffffffffffffffffffffffffffffffffffffffffffffffff1916908160001a905350606060206040519080825280601f01601f191660200182016040528015620009885781602001600182028038833980820191505090505b509050606060206040519080825280601f01601f191660200182016040528015620009c25781602001600182028038833980820191505090505b5090506000620009d76200145560201b60201c565b905060208352424118600143034018602084015260208252806020830152606060206040519080825280601f01601f19166020018201604052801562000a2c5781602001600182028038833980820191505090505b509050886020820152606060086040519080825280601f01601f19166020018201604052801562000a6c5781602001600182028038833980820191505090505b50905062000a8782601860088460006200179160201b60201c565b5062000a9262002655565b6040518060800160405280878152602001888152602001868152602001848152509050600062000aff6040518060400160405280600681526020017f72616e646f6d0000000000000000000000000000000000000000000000000000815250838c620017f360201b60201c565b9050606060086040519080825280601f01601f19166020018201604052801562000b385781602001600182028038833980820191505090505b50905060208401517f0100000000000000000000000000000000000000000000000000000000000000810460278301537e01000000000000000000000000000000000000000000000000000000000000810460268301537d010000000000000000000000000000000000000000000000000000000000810460258301537c0100000000000000000000000000000000000000000000000000000000810460248301537b01000000000000000000000000000000000000000000000000000000810460238301537a01000000000000000000000000000000000000000000000000000081046022830153790100000000000000000000000000000000000000000000000000810460218301537801000000000000000000000000000000000000000000000000810460208301535062000e7382828560016004811062000c7957fe5b602002015160028760006004811062000c8e57fe5b60200201516040518082805190602001908083835b6020831062000cc8578051825260208201915060208101905060208303925062000ca3565b6001836020036101000a038019825116818451168082178552505050505050905001915050602060405180830381855afa15801562000d0b573d6000803e3d6000fd5b5050506040513d602081101562000d2157600080fd5b81019080805190602001909291905050508760026004811062000d4057fe5b60200201516040516020018085805190602001908083835b6020831062000d7d578051825260208201915060208101905060208303925062000d58565b6001836020036101000a03801982511681845116808217855250505050505090500184805190602001908083835b6020831062000dd0578051825260208201915060208101905060208303925062000dab565b6001836020036101000a03801982511681845116808217855250505050505090500183815260200182805190602001908083835b6020831062000e29578051825260208201915060208101905060208303925062000e04565b6001836020036101000a0380198251168184511680821785525050505050509050019450505050506040516020818303038152906040528051906020012062001b8d60201b60201c565b8199505050505050505050509392505050565b60008062000eae731d3b2638a7cc9f2cb3d298a3da7a90b67e5506ed6200088f60201b60201c565b111562000f5a57731d3b2638a7cc9f2cb3d298a3da7a90b67e5506ed600260006101000a81548173ffffffffffffffffffffffffffffffffffffffff021916908373ffffffffffffffffffffffffffffffffffffffff16021790555062000f506040518060400160405280600b81526020017f6574685f6d61696e6e657400000000000000000000000000000000000000000081525062001ba960201b60201c565b6001905062001452565b600062000f8173c03a2615d5efaf5f49f60b7bb6583eaec212fdf16200088f60201b60201c565b11156200102d5773c03a2615d5efaf5f49f60b7bb6583eaec212fdf1600260006101000a81548173ffffffffffffffffffffffffffffffffffffffff021916908373ffffffffffffffffffffffffffffffffffffffff160217905550620010236040518060400160405280600c81526020017f6574685f726f707374656e33000000000000000000000000000000000000000081525062001ba960201b60201c565b6001905062001452565b60006200105473b7a07bcf2ba2f2703b24c0691b5278999c59ac7e6200088f60201b60201c565b1115620011005773b7a07bcf2ba2f2703b24c0691b5278999c59ac7e600260006101000a81548173ffffffffffffffffffffffffffffffffffffffff021916908373ffffffffffffffffffffffffffffffffffffffff160217905550620010f66040518060400160405280600981526020017f6574685f6b6f76616e000000000000000000000000000000000000000000000081525062001ba960201b60201c565b6001905062001452565b60006200112773146500cfd35b22e4a392fe0adc06de1a1368ed486200088f60201b60201c565b1115620011d35773146500cfd35b22e4a392fe0adc06de1a1368ed48600260006101000a81548173ffffffffffffffffffffffffffffffffffffffff021916908373ffffffffffffffffffffffffffffffffffffffff160217905550620011c96040518060400160405280600b81526020017f6574685f72696e6b65627900000000000000000000000000000000000000000081525062001ba960201b60201c565b6001905062001452565b6000620011fa73a2998efd205fb9d4b4963afb70778d6354ad3a416200088f60201b60201c565b1115620012a65773a2998efd205fb9d4b4963afb70778d6354ad3a41600260006101000a81548173ffffffffffffffffffffffffffffffffffffffff021916908373ffffffffffffffffffffffffffffffffffffffff1602179055506200129c6040518060400160405280600a81526020017f6574685f676f65726c690000000000000000000000000000000000000000000081525062001ba960201b60201c565b6001905062001452565b6000620012cd736f485c8bf6fc43ea212e93bbf8ce046c7f1cb4756200088f60201b60201c565b11156200133357736f485c8bf6fc43ea212e93bbf8ce046c7f1cb475600260006101000a81548173ffffffffffffffffffffffffffffffffffffffff021916908373ffffffffffffffffffffffffffffffffffffffff1602179055506001905062001452565b60006200135a7320e12a1f859b3feae5fb2a0a32c18f5a65555bbf6200088f60201b60201c565b1115620013c0577320e12a1f859b3feae5fb2a0a32c18f5a65555bbf600260006101000a81548173ffffffffffffffffffffffffffffffffffffffff021916908373ffffffffffffffffffffffffffffffffffffffff1602179055506001905062001452565b6000620013e77351efaf4c8b3c9afbd5ab9f4bbc82784ab6ef8faa6200088f60201b60201c565b11156200144d577351efaf4c8b3c9afbd5ab9f4bbc82784ab6ef8faa600260006101000a81548173ffffffffffffffffffffffffffffffffffffffff021916908373ffffffffffffffffffffffffffffffffffffffff1602179055506001905062001452565b600090505b90565b60008073ffffffffffffffffffffffffffffffffffffffff16600260009054906101000a900473ffffffffffffffffffffffffffffffffffffffff1673ffffffffffffffffffffffffffffffffffffffff161480620014e657506000620014e4600260009054906101000a900473ffffffffffffffffffffffffffffffffffffffff166200088f60201b60201c565b145b156200150057620014fe60006200089a60201b60201c565b505b600260009054906101000a900473ffffffffffffffffffffffffffffffffffffffff1673ffffffffffffffffffffffffffffffffffffffff166338cc48316040518163ffffffff1660e01b8152600401602060405180830381600087803b1580156200156b57600080fd5b505af115801562001580573d6000803e3d6000fd5b505050506040513d60208110156200159757600080fd5b810190808051906020019092919050505073ffffffffffffffffffffffffffffffffffffffff16600160009054906101000a900473ffffffffffffffffffffffffffffffffffffffff1673ffffffffffffffffffffffffffffffffffffffff1614620016e657600260009054906101000a900473ffffffffffffffffffffffffffffffffffffffff1673ffffffffffffffffffffffffffffffffffffffff166338cc48316040518163ffffffff1660e01b8152600401602060405180830381600087803b1580156200166857600080fd5b505af11580156200167d573d6000803e3d6000fd5b505050506040513d60208110156200169457600080fd5b8101908080519060200190929190505050600160006101000a81548173ffffffffffffffffffffffffffffffffffffffff021916908373ffffffffffffffffffffffffffffffffffffffff1602179055505b600160009054906101000a900473ffffffffffffffffffffffffffffffffffffffff1673ffffffffffffffffffffffffffffffffffffffff1663abaa5f3e6040518163ffffffff1660e01b815260040160206040518083038186803b1580156200174f57600080fd5b505afa15801562001764573d6000803e3d6000fd5b505050506040513d60208110156200177b57600080fd5b8101908080519060200190929190505050905090565b6060600082850190508084511015620017a957600080fd5b600086602001905060008460200190505b868860200101821015620017e45781890151808288015250602082019150602081019050620017ba565b85935050505095945050505050565b60008073ffffffffffffffffffffffffffffffffffffffff16600260009054906101000a900473ffffffffffffffffffffffffffffffffffffffff1673ffffffffffffffffffffffffffffffffffffffff161480620018845750600062001882600260009054906101000a900473ffffffffffffffffffffffffffffffffffffffff166200088f60201b60201c565b145b156200189e576200189c60006200089a60201b60201c565b505b600260009054906101000a900473ffffffffffffffffffffffffffffffffffffffff1673ffffffffffffffffffffffffffffffffffffffff166338cc48316040518163ffffffff1660e01b8152600401602060405180830381600087803b1580156200190957600080fd5b505af11580156200191e573d6000803e3d6000fd5b505050506040513d60208110156200193557600080fd5b810190808051906020019092919050505073ffffffffffffffffffffffffffffffffffffffff16600160009054906101000a900473ffffffffffffffffffffffffffffffffffffffff1673ffffffffffffffffffffffffffffffffffffffff161462001a8457600260009054906101000a900473ffffffffffffffffffffffffffffffffffffffff1673ffffffffffffffffffffffffffffffffffffffff166338cc48316040518163ffffffff1660e01b8152600401602060405180830381600087803b15801562001a0657600080fd5b505af115801562001a1b573d6000803e3d6000fd5b505050506040513d602081101562001a3257600080fd5b8101908080519060200190929190505050600160006101000a81548173ffffffffffffffffffffffffffffffffffffffff021916908373ffffffffffffffffffffffffffffffffffffffff1602179055505b6060600460405190808252806020026020018201604052801562001abd57816020015b606081526020019060019003908162001aa75790505b5090508360006004811062001ace57fe5b60200201518160008151811062001ae157fe5b60200260200101819052508360016004811062001afa57fe5b60200201518160018151811062001b0d57fe5b60200260200101819052508360026004811062001b2657fe5b60200201518160028151811062001b3957fe5b60200260200101819052508360036004811062001b5257fe5b60200201518160038151811062001b6557fe5b602002602001018190525062001b8385828562001bc560201b60201c565b9150509392505050565b8060046000848152602001908152602001600020819055505050565b806003908051906020019062001bc19291906200267d565b5050565b60008073ffffffffffffffffffffffffffffffffffffffff16600260009054906101000a900473ffffffffffffffffffffffffffffffffffffffff1673ffffffffffffffffffffffffffffffffffffffff16148062001c565750600062001c54600260009054906101000a900473ffffffffffffffffffffffffffffffffffffffff166200088f60201b60201c565b145b1562001c705762001c6e60006200089a60201b60201c565b505b600260009054906101000a900473ffffffffffffffffffffffffffffffffffffffff1673ffffffffffffffffffffffffffffffffffffffff166338cc48316040518163ffffffff1660e01b8152600401602060405180830381600087803b15801562001cdb57600080fd5b505af115801562001cf0573d6000803e3d6000fd5b505050506040513d602081101562001d0757600080fd5b810190808051906020019092919050505073ffffffffffffffffffffffffffffffffffffffff16600160009054906101000a900473ffffffffffffffffffffffffffffffffffffffff1673ffffffffffffffffffffffffffffffffffffffff161462001e5657600260009054906101000a900473ffffffffffffffffffffffffffffffffffffffff1673ffffffffffffffffffffffffffffffffffffffff166338cc48316040518163ffffffff1660e01b8152600401602060405180830381600087803b15801562001dd857600080fd5b505af115801562001ded573d6000803e3d6000fd5b505050506040513d602081101562001e0457600080fd5b8101908080519060200190929190505050600160006101000a81548173ffffffffffffffffffffffffffffffffffffffff021916908373ffffffffffffffffffffffffffffffffffffffff1602179055505b6000600160009054906101000a900473ffffffffffffffffffffffffffffffffffffffff1673ffffffffffffffffffffffffffffffffffffffff16632ef3accc86856040518363ffffffff1660e01b81526004018080602001838152602001828103825284818151815260200191508051906020019080838360005b8381101562001eef57808201518184015260208101905062001ed2565b50505050905090810190601f16801562001f1d5780820380516001836020036101000a031916815260200191505b509350505050602060405180830381600087803b15801562001f3e57600080fd5b505af115801562001f53573d6000803e3d6000fd5b505050506040513d602081101562001f6a57600080fd5b81019080805190602001909291905050509050823a02670de0b6b3a76400000181111562001f9f576000801b91505062002156565b606062001fb2856200215d60201b60201c565b9050600160009054906101000a900473ffffffffffffffffffffffffffffffffffffffff1673ffffffffffffffffffffffffffffffffffffffff1663c55c1cb68360008985896040518663ffffffff1660e01b8152600401808581526020018060200180602001848152602001838103835286818151815260200191508051906020019080838360005b83811015620020595780820151818401526020810190506200203c565b50505050905090810190601f168015620020875780820380516001836020036101000a031916815260200191505b50838103825285818151815260200191508051906020019080838360005b83811015620020c2578082015181840152602081019050620020a5565b50505050905090810190601f168015620020f05780820380516001836020036101000a031916815260200191505b5096505050505050506020604051808303818588803b1580156200211357600080fd5b505af115801562002128573d6000803e3d6000fd5b50505050506040513d60208110156200214057600080fd5b8101908080519060200190929190505050925050505b9392505050565b60606200216f6200221860201b60201c565b6200217962002704565b62002192816104006200222460201b620049191760201c565b620021a8816200227160201b620049631760201c565b60008090505b8351811015620021f457620021e6848281518110620021c957fe5b6020026020010151836200228760201b620049711790919060201c565b8080600101915050620021ae565b506200220b81620022bb60201b620049961760201c565b8060000151915050919050565b60405180590338823950565b60008190506000602082816200223657fe5b06146200225157602081816200224857fe5b06602003810190505b808360200181815250506040518084526000815281810160405250505050565b62002284816004620022d160201b60201c565b50565b6200229c8260028351620022f960201b60201c565b620022b681836200248160201b62004b051790919060201c565b505050565b620022ce816007620022d160201b60201c565b50565b620022f5601f60058360ff16901b17836200254160201b62004bb01790919060201c565b5050565b601781116200232e57620023288160058460ff16901b60ff1617846200254160201b62004bb01790919060201c565b6200247c565b60ff81116200237f576200235b601860058460ff16901b17846200254160201b62004bb01790919060201c565b62002378816001856200258a60201b62004bf0179092919060201c565b506200247b565b61ffff8111620023d157620023ad601960058460ff16901b17846200254160201b62004bb01790919060201c565b620023ca816002856200258a60201b62004bf0179092919060201c565b506200247a565b63ffffffff8111620024255762002401601a60058460ff16901b17846200254160201b62004bb01790919060201c565b6200241e816004856200258a60201b62004bf0179092919060201c565b5062002479565b67ffffffffffffffff8111620024785762002459601b60058460ff16901b17846200254160201b62004bb01790919060201c565b62002476816008856200258a60201b62004bf0179092919060201c565b505b5b5b5b5b505050565b6200248b62002704565b82602001518360000151518351011115620024cc57620024cb836002620024be866020015186516200260460201b60201c565b026200262260201b60201c565b5b60008060008451905085518051602081830101945086518101825260208701935050505b60208110620025155781518352602083019250602082019150602081039050620024f0565b60006001826020036101000a039050801983511681855116818117865250508694505050505092915050565b8160200151600183600001515101111562002570576200256f8260028460200151026200262260201b60201c565b5b815180516020818301018381536001820183525050505050565b6200259462002704565b836020015184600001515183011115620025d357620025d2846002620025c58760200151866200260460201b60201c565b026200262260201b60201c565b5b60006001836101000a0390508451805184818301018684198251161781528582018352505050849150509392505050565b60008183111562002618578290506200261c565b8190505b92915050565b6060826000015190506200263d83836200222460201b60201c565b6200264f83826200248160201b60201c565b50505050565b60405180608001604052806004905b6060815260200190600190039081620026645790505090565b828054600181600116156101000203166002900490600052602060002090601f016020900481019282601f10620026c057805160ff1916838001178555620026f1565b82800160010185558215620026f1579182015b82811115620026f0578251825591602001919060010190620026d3565b5b5090506200270091906200271e565b5090565b604051806040016040528060608152602001600081525090565b6200274391905b808211156200273f57600081600090555060010162002725565b5090565b90565b614edf80620027566000396000f3fe6080604052600436106100fe5760003560e01c80638da5cb5b11610095578063a95783b511610064578063a95783b51461061e578063b93dab0b14610683578063bd097e21146106ae578063f2fde38b146106b8578063f6b4dfb414610709576100fe565b80638da5cb5b14610534578063958f85bd1461058b5780639da9df3e146105e9578063a2e6204514610600576100fe565b806338bbfa50116100d157806338bbfa501461030b5780634eb393c6146104745780635fd8c710146104ef5780637365870b14610506576100fe565b806312065fe01461010357806322af00fa1461012e57806327dc297e146101d457806327e235e3146102a6575b600080fd5b34801561010f57600080fd5b50610118610760565b6040518082815260200191505060405180910390f35b34801561013a57600080fd5b506101676004803603602081101561015157600080fd5b81019080803590602001909291905050506107a7565b604051808781526020018673ffffffffffffffffffffffffffffffffffffffff1673ffffffffffffffffffffffffffffffffffffffff1681526020018581526020018481526020018315151515815260200182151515158152602001965050505050505060405180910390f35b3480156101e057600080fd5b506102a4600480360360408110156101f757600080fd5b81019080803590602001909291908035906020019064010000000081111561021e57600080fd5b82018360208201111561023057600080fd5b8035906020019184600183028401116401000000008311171561025257600080fd5b91908080601f016020809104026020016040519081016040528093929190818152602001838380828437600081840152601f19601f82011690508083019250505050505050919291929050505061082a565b005b3480156102b257600080fd5b506102f5600480360360208110156102c957600080fd5b81019080803573ffffffffffffffffffffffffffffffffffffffff16906020019092919050505061086d565b6040518082815260200191505060405180910390f35b34801561031757600080fd5b506104726004803603606081101561032e57600080fd5b81019080803590602001909291908035906020019064010000000081111561035557600080fd5b82018360208201111561036757600080fd5b8035906020019184600183028401116401000000008311171561038957600080fd5b91908080601f016020809104026020016040519081016040528093929190818152602001838380828437600081840152601f19601f820116905080830192505050505050509192919290803590602001906401000000008111156103ec57600080fd5b8201836020820111156103fe57600080fd5b8035906020019184600183028401116401000000008311171561042057600080fd5b91908080601f016020809104026020016040519081016040528093929190818152602001838380828437600081840152601f19601f820116905080830192505050505050509192919290505050610885565b005b34801561048057600080fd5b506104ad6004803603602081101561049757600080fd5b8101908080359060200190929190505050610da9565b604051808273ffffffffffffffffffffffffffffffffffffffff1673ffffffffffffffffffffffffffffffffffffffff16815260200191505060405180910390f35b3480156104fb57600080fd5b50610504610ddc565b005b6105326004803603602081101561051c57600080fd5b8101908080359060200190929190505050610f64565b005b34801561054057600080fd5b50610549611545565b604051808273ffffffffffffffffffffffffffffffffffffffff1673ffffffffffffffffffffffffffffffffffffffff16815260200191505060405180910390f35b34801561059757600080fd5b506105a061156a565b604051808373ffffffffffffffffffffffffffffffffffffffff1673ffffffffffffffffffffffffffffffffffffffff1681526020018281526020019250505060405180910390f35b3480156105f557600080fd5b506105fe6115d2565b005b6106086118bb565b6040518082815260200191505060405180910390f35b34801561062a57600080fd5b5061066d6004803603602081101561064157600080fd5b81019080803573ffffffffffffffffffffffffffffffffffffffff16906020019092919050505061192e565b6040518082815260200191505060405180910390f35b34801561068f57600080fd5b50610698611946565b6040518082815260200191505060405180910390f35b6106b6611953565b005b3480156106c457600080fd5b50610707600480360360208110156106db57600080fd5b81019080803573ffffffffffffffffffffffffffffffffffffffff169060200190929190505050611b2e565b005b34801561071557600080fd5b5061071e611c50565b604051808273ffffffffffffffffffffffffffffffffffffffff1673ffffffffffffffffffffffffffffffffffffffff16815260200191505060405180910390f35b6000600960003373ffffffffffffffffffffffffffffffffffffffff1673ffffffffffffffffffffffffffffffffffffffff16815260200190815260200160002054905090565b600881815481106107b457fe5b90600052602060002090600502016000915090508060000154908060010160009054906101000a900473ffffffffffffffffffffffffffffffffffffffff16908060020154908060030154908060040160009054906101000a900460ff16908060040160019054906101000a900460ff16905086565b610869828260006040519080825280601f01601f1916602001820160405280156108635781602001600182028038833980820191505090505b50610885565b5050565b60096020528060005260406000206000915090505481565b61088d611c76565b73ffffffffffffffffffffffffffffffffffffffff163373ffffffffffffffffffffffffffffffffffffffff16146108c457600080fd5b60006108d1848484611f96565b60ff1614610931577f81816b50aae098d98a0f7930cfef379261913e37ed33759052b5eff95fbb8d5f83604051808281526020018060200182810382526021815260200180614dd2602191396040019250505060405180910390a1610da4565b60006001806101000a039050600081846040516020018082805190602001908083835b602083106109775780518252602082019150602081019050602083039250610954565b6001836020036101000a0380198251168184511680821785525050505050509050019150506040516020818303038152906040528051906020012060001c816109bc57fe5b06905060008090505b600880549050811015610da0576000600882815481106109e157fe5b90600052602060002090600502019050868160000154148015610a195750600115158160040160019054906101000a900460ff161515145b15610d925760008160040160016101000a81548160ff02191690831515021790555060808311610b005760008160040160006101000a81548160ff0219169083151502179055508060010160009054906101000a900473ffffffffffffffffffffffffffffffffffffffff1673ffffffffffffffffffffffffffffffffffffffff167f0948ef2cfa8c16c7422087516e87bcd3f20c04fe0409205ee89a8b70a1059e918883600201548460040160009054906101000a900460ff166040518084815260200183815260200182151515158152602001935050505060405180910390a2610d91565b60818310610d905760018160040160006101000a81548160ff0219169083151502179055506000610b3f600283600301546120c690919063ffffffff16565b9050610bb58160096000600660009054906101000a900473ffffffffffffffffffffffffffffffffffffffff1673ffffffffffffffffffffffffffffffffffffffff1673ffffffffffffffffffffffffffffffffffffffff1681526020019081526020016000205461214c90919063ffffffff16565b60096000600660009054906101000a900473ffffffffffffffffffffffffffffffffffffffff1673ffffffffffffffffffffffffffffffffffffffff1673ffffffffffffffffffffffffffffffffffffffff16815260200190815260200160002081905550610c9081600960008560010160009054906101000a900473ffffffffffffffffffffffffffffffffffffffff1673ffffffffffffffffffffffffffffffffffffffff1673ffffffffffffffffffffffffffffffffffffffff1681526020019081526020016000205461219690919063ffffffff16565b600960008460010160009054906101000a900473ffffffffffffffffffffffffffffffffffffffff1673ffffffffffffffffffffffffffffffffffffffff1673ffffffffffffffffffffffffffffffffffffffff168152602001908152602001600020819055508160010160009054906101000a900473ffffffffffffffffffffffffffffffffffffffff1673ffffffffffffffffffffffffffffffffffffffff167f0948ef2cfa8c16c7422087516e87bcd3f20c04fe0409205ee89a8b70a1059e9189838560040160009054906101000a900460ff166040518084815260200183815260200182151515158152602001935050505060405180910390a2505b5b5b5080806001019150506109c5565b5050505b505050565b600a6020528060005260406000206000915054906101000a900473ffffffffffffffffffffffffffffffffffffffff1681565b6000600960003373ffffffffffffffffffffffffffffffffffffffff1673ffffffffffffffffffffffffffffffffffffffff1681526020019081526020016000205411610e91576040517f08c379a000000000000000000000000000000000000000000000000000000000815260040180806020018281038252601e8152602001807f546865726520617265206e6f2066756e647320746f207769746864726177000081525060200191505060405180910390fd5b6000600960003373ffffffffffffffffffffffffffffffffffffffff1673ffffffffffffffffffffffffffffffffffffffff1681526020019081526020016000205490506000600960003373ffffffffffffffffffffffffffffffffffffffff1673ffffffffffffffffffffffffffffffffffffffff168152602001908152602001600020819055503373ffffffffffffffffffffffffffffffffffffffff166108fc829081150290604051600060405180830381858888f19350505050158015610f60573d6000803e3d6000fd5b5050565b662386f26fc1000080341015610fc5576040517f08c379a0000000000000000000000000000000000000000000000000000000008152600401808060200182810382526027815260200180614dab6027913960400191505060405180910390fd5b674563918244f40000341115611026576040517f08c379a0000000000000000000000000000000000000000000000000000000008152600401808060200182810382526021815260200180614e146021913960400191505060405180910390fd5b813373ffffffffffffffffffffffffffffffffffffffff1631101561104a57600080fd5b61105f6007548361219690919063ffffffff16565b60096000600660009054906101000a900473ffffffffffffffffffffffffffffffffffffffff1673ffffffffffffffffffffffffffffffffffffffff1673ffffffffffffffffffffffffffffffffffffffff1681526020019081526020016000205410156110cc57600080fd5b60096000600660009054906101000a900473ffffffffffffffffffffffffffffffffffffffff1673ffffffffffffffffffffffffffffffffffffffff1673ffffffffffffffffffffffffffffffffffffffff168152602001908152602001600020546007541061113b57600080fd5b60006111526007548461214c90919063ffffffff16565b90506111c88160096000600660009054906101000a900473ffffffffffffffffffffffffffffffffffffffff1673ffffffffffffffffffffffffffffffffffffffff1673ffffffffffffffffffffffffffffffffffffffff1681526020019081526020016000205461219690919063ffffffff16565b60096000600660009054906101000a900473ffffffffffffffffffffffffffffffffffffffff1673ffffffffffffffffffffffffffffffffffffffff1673ffffffffffffffffffffffffffffffffffffffff1681526020019081526020016000208190555060006112376118bb565b90506000600160086040518060c001604052808581526020013373ffffffffffffffffffffffffffffffffffffffff16815260200188815260200186815260200160001515815260200160011515815250908060018154018082558091505090600182039060005260206000209060050201600090919290919091506000820151816000015560208201518160010160006101000a81548173ffffffffffffffffffffffffffffffffffffffff021916908373ffffffffffffffffffffffffffffffffffffffff160217905550604082015181600201556060820151816003015560808201518160040160006101000a81548160ff02191690831515021790555060a08201518160040160016101000a81548160ff021916908315150217905550505003905033600a600083815260200190815260200160002060006101000a81548173ffffffffffffffffffffffffffffffffffffffff021916908373ffffffffffffffffffffffffffffffffffffffff1602179055506114026001600b60003373ffffffffffffffffffffffffffffffffffffffff1673ffffffffffffffffffffffffffffffffffffffff1681526020019081526020016000205461219690919063ffffffff16565b600b60003373ffffffffffffffffffffffffffffffffffffffff1673ffffffffffffffffffffffffffffffffffffffff168152602001908152602001600020819055503373ffffffffffffffffffffffffffffffffffffffff167fcd5f79909b53eb4c55b0a2d7004914519bad1e3ade1b3dae6005d528d83da31e8385604051808381526020018281526020019250505060405180910390a2600660009054906101000a900473ffffffffffffffffffffffffffffffffffffffff1673ffffffffffffffffffffffffffffffffffffffff163160096000600660009054906101000a900473ffffffffffffffffffffffffffffffffffffffff1673ffffffffffffffffffffffffffffffffffffffff1673ffffffffffffffffffffffffffffffffffffffff168152602001908152602001600020541461153e57fe5b5050505050565b6000809054906101000a900473ffffffffffffffffffffffffffffffffffffffff1681565b600080600660009054906101000a900473ffffffffffffffffffffffffffffffffffffffff16600660009054906101000a900473ffffffffffffffffffffffffffffffffffffffff1673ffffffffffffffffffffffffffffffffffffffff1631915091509091565b6000809054906101000a900473ffffffffffffffffffffffffffffffffffffffff1673ffffffffffffffffffffffffffffffffffffffff163373ffffffffffffffffffffffffffffffffffffffff1614611677576040517f08c379a000000000000000000000000000000000000000000000000000000000815260040180806020018281038252602e815260200180614d7d602e913960400191505060405180910390fd5b6000809054906101000a900473ffffffffffffffffffffffffffffffffffffffff1673ffffffffffffffffffffffffffffffffffffffff163373ffffffffffffffffffffffffffffffffffffffff16146116cd57fe5b600060096000600660009054906101000a900473ffffffffffffffffffffffffffffffffffffffff1673ffffffffffffffffffffffffffffffffffffffff1673ffffffffffffffffffffffffffffffffffffffff16815260200190815260200160002054116117a4576040517f08c379a000000000000000000000000000000000000000000000000000000000815260040180806020018281038252601e8152602001807f546865726520617265206e6f2066756e647320746f207769746864726177000081525060200191505060405180910390fd5b600060096000600660009054906101000a900473ffffffffffffffffffffffffffffffffffffffff1673ffffffffffffffffffffffffffffffffffffffff1673ffffffffffffffffffffffffffffffffffffffff168152602001908152602001600020549050600060096000600660009054906101000a900473ffffffffffffffffffffffffffffffffffffffff1673ffffffffffffffffffffffffffffffffffffffff1673ffffffffffffffffffffffffffffffffffffffff168152602001908152602001600020819055503373ffffffffffffffffffffffffffffffffffffffff166108fc829081150290604051600060405180830381858888f193505050501580156118b7573d6000803e3d6000fd5b5050565b60008060009050600062030d40905060006118d88360018461221e565b90507fc4dc360d0a9c0677a3379ae0a3d81e887f761e65fdf3d7e00859d1bcd3c47389604051808060200182810382526036815260200180614e756036913960400191505060405180910390a180935050505090565b600b6020528060005260406000206000915090505481565b6000600880549050905090565b6000809054906101000a900473ffffffffffffffffffffffffffffffffffffffff1673ffffffffffffffffffffffffffffffffffffffff163373ffffffffffffffffffffffffffffffffffffffff16146119f8576040517f08c379a000000000000000000000000000000000000000000000000000000000815260040180806020018281038252602e815260200180614d7d602e913960400191505060405180910390fd5b343373ffffffffffffffffffffffffffffffffffffffff16311015611a1c57600080fd5b611a903460096000600660009054906101000a900473ffffffffffffffffffffffffffffffffffffffff1673ffffffffffffffffffffffffffffffffffffffff1673ffffffffffffffffffffffffffffffffffffffff1681526020019081526020016000205461219690919063ffffffff16565b60096000600660009054906101000a900473ffffffffffffffffffffffffffffffffffffffff1673ffffffffffffffffffffffffffffffffffffffff1673ffffffffffffffffffffffffffffffffffffffff168152602001908152602001600020819055507f932461ba6e96b11d9e6e7794a08b1d4a8e6dfd4f1f2d93be10af806b75431e74346040518082815260200191505060405180910390a1565b6000809054906101000a900473ffffffffffffffffffffffffffffffffffffffff1673ffffffffffffffffffffffffffffffffffffffff163373ffffffffffffffffffffffffffffffffffffffff1614611bd3576040517f08c379a000000000000000000000000000000000000000000000000000000000815260040180806020018281038252602e815260200180614d7d602e913960400191505060405180910390fd5b600073ffffffffffffffffffffffffffffffffffffffff168173ffffffffffffffffffffffffffffffffffffffff161415611c0d57600080fd5b806000806101000a81548173ffffffffffffffffffffffffffffffffffffffff021916908373ffffffffffffffffffffffffffffffffffffffff16021790555050565b600660009054906101000a900473ffffffffffffffffffffffffffffffffffffffff1681565b60008073ffffffffffffffffffffffffffffffffffffffff16600260009054906101000a900473ffffffffffffffffffffffffffffffffffffffff1673ffffffffffffffffffffffffffffffffffffffff161480611cfe57506000611cfc600260009054906101000a900473ffffffffffffffffffffffffffffffffffffffff166127b9565b145b15611d0f57611d0d60006127c4565b505b600260009054906101000a900473ffffffffffffffffffffffffffffffffffffffff1673ffffffffffffffffffffffffffffffffffffffff166338cc48316040518163ffffffff1660e01b8152600401602060405180830381600087803b158015611d7957600080fd5b505af1158015611d8d573d6000803e3d6000fd5b505050506040513d6020811015611da357600080fd5b810190808051906020019092919050505073ffffffffffffffffffffffffffffffffffffffff16600160009054906101000a900473ffffffffffffffffffffffffffffffffffffffff1673ffffffffffffffffffffffffffffffffffffffff1614611eee57600260009054906101000a900473ffffffffffffffffffffffffffffffffffffffff1673ffffffffffffffffffffffffffffffffffffffff166338cc48316040518163ffffffff1660e01b8152600401602060405180830381600087803b158015611e7257600080fd5b505af1158015611e86573d6000803e3d6000fd5b505050506040513d6020811015611e9c57600080fd5b8101908080519060200190929190505050600160006101000a81548173ffffffffffffffffffffffffffffffffffffffff021916908373ffffffffffffffffffffffffffffffffffffffff1602179055505b600160009054906101000a900473ffffffffffffffffffffffffffffffffffffffff1673ffffffffffffffffffffffffffffffffffffffff1663c281d19e6040518163ffffffff1660e01b815260040160206040518083038186803b158015611f5657600080fd5b505afa158015611f6a573d6000803e3d6000fd5b505050506040513d6020811015611f8057600080fd5b8101908080519060200190929190505050905090565b60007f4c0000000000000000000000000000000000000000000000000000000000000082600081518110611fc657fe5b602001015160f81c60f81b7effffffffffffffffffffffffffffffffffffffffffffffffffffffffffffff191614158061205957507f50000000000000000000000000000000000000000000000000000000000000008260018151811061202957fe5b602001015160f81c60f81b7effffffffffffffffffffffffffffffffffffffffffffffffffffffffffffff191614155b806120855750600160ff168260028151811061207157fe5b602001015160f81c60f81b60f81c60ff1614155b1561209357600190506120bf565b60006120a88386866120a36127d5565b612877565b9050806120b95760029150506120bf565b60009150505b9392505050565b6000808314156120d95760009050612146565b60008284029050828482816120ea57fe5b0414612141576040517f08c379a0000000000000000000000000000000000000000000000000000000008152600401808060200182810382526021815260200180614df36021913960400191505060405180910390fd5b809150505b92915050565b600061218e83836040518060400160405280601e81526020017f536166654d6174683a207375627472616374696f6e206f766572666c6f770000815250612f22565b905092915050565b600080828401905083811015612214576040517f08c379a000000000000000000000000000000000000000000000000000000000815260040180806020018281038252601b8152602001807f536166654d6174683a206164646974696f6e206f766572666c6f77000000000081525060200191505060405180910390fd5b8091505092915050565b60008083118015612230575060208311155b61223957600080fd5b600a84029350606060016040519080825280601f01601f1916602001820160405280156122755781602001600182028038833980820191505090505b5090508360f81b8160008151811061228957fe5b60200101907effffffffffffffffffffffffffffffffffffffffffffffffffffffffffffff1916908160001a905350606060206040519080825280601f01601f1916602001820160405280156122ee5781602001600182028038833980820191505090505b509050606060206040519080825280601f01601f1916602001820160405280156123275781602001600182028038833980820191505090505b5090506000612334612fe2565b905060208352424118600143034018602084015260208252806020830152606060206040519080825280601f01601f1916602001820160405280156123885781602001600182028038833980820191505090505b509050886020820152606060086040519080825280601f01601f1916602001820160405280156123c75781602001600182028038833980820191505090505b5090506123da8260186008846000613302565b506123e3614c96565b604051806080016040528087815260200188815260200186815260200184815250905060006124486040518060400160405280600681526020017f72616e646f6d0000000000000000000000000000000000000000000000000000815250838c613361565b9050606060086040519080825280601f01601f1916602001820160405280156124805781602001600182028038833980820191505090505b50905060208401517f0100000000000000000000000000000000000000000000000000000000000000810460278301537e01000000000000000000000000000000000000000000000000000000000000810460268301537d010000000000000000000000000000000000000000000000000000000000810460258301537c0100000000000000000000000000000000000000000000000000000000810460248301537b01000000000000000000000000000000000000000000000000000000810460238301537a0100000000000000000000000000000000000000000000000000008104602283015379010000000000000000000000000000000000000000000000000081046021830153780100000000000000000000000000000000000000000000000081046020830153506127a68282856001600481106125bf57fe5b60200201516002876000600481106125d357fe5b60200201516040518082805190602001908083835b6020831061260b57805182526020820191506020810190506020830392506125e8565b6001836020036101000a038019825116818451168082178552505050505050905001915050602060405180830381855afa15801561264d573d6000803e3d6000fd5b5050506040513d602081101561266257600080fd5b81019080805190602001909291905050508760026004811061268057fe5b60200201516040516020018085805190602001908083835b602083106126bb5780518252602082019150602081019050602083039250612698565b6001836020036101000a03801982511681845116808217855250505050505090500184805190602001908083835b6020831061270c57805182526020820191506020810190506020830392506126e9565b6001836020036101000a03801982511681845116808217855250505050505090500183815260200182805190602001908083835b602083106127635780518252602082019150602081019050602083039250612740565b6001836020036101000a038019825116818451168082178552505050505050905001945050505050604051602081830303815290604052805190602001206136d0565b8199505050505050505050509392505050565b6000813b9050919050565b60006127ce6136ec565b9050919050565b606060038054600181600116156101000203166002900480601f01602080910402602001604051908101604052809291908181526020018280546001816001161561010002031660029004801561286d5780601f106128425761010080835404028352916020019161286d565b820191906000526020600020905b81548152906001019060200180831161285057829003601f168201915b5050505050905090565b600080602060028760458151811061288b57fe5b602001015160f81c60f81b60f81c60ff1601604401019050606060206040519080825280601f01601f1916602001820160405280156128d95781602001600182028038833980820191505090505b5090506128eb87836020846000613302565b50600284876040516020018083805190602001908083835b602083106129265780518252602082019150602081019050602083039250612903565b6001836020036101000a038019825116818451168082178552505050505050905001828152602001925050506040516020818303038152906040526040518082805190602001908083835b602083106129945780518252602082019150602081019050602083039250612971565b6001836020036101000a038019825116818451168082178552505050505050905001915050602060405180830381855afa1580156129d6573d6000803e3d6000fd5b5050506040513d60208110156129eb57600080fd5b81019080805190602001909291905050506040516020018082815260200191505060405160208183030381529060405280519060200120818051906020012014612a3a57600092505050612f1a565b60606002886001604986010181518110612a5057fe5b602001015160f81c60f81b60f81c60ff16016040519080825280601f01601f191660200182016040528015612a945781602001600182028038833980820191505090505b509050612aa988604985018351846000613302565b50612b746002826040518082805190602001908083835b60208310612ae35780518252602082019150602081019050602083039250612ac0565b6001836020036101000a038019825116818451168082178552505050505050905001915050602060405180830381855afa158015612b25573d6000803e3d6000fd5b5050506040513d6020811015612b3a57600080fd5b8101908080519060200190929190505050878a6008602088010181518110612b5e57fe5b602001015160f81c60f81b60f81c60ff16613c43565b612b845760009350505050612f1a565b606060296040519080825280601f01601f191660200182016040528015612bba5781602001600182028038833980820191505090505b509050612bcf89602086016029846000613302565b506060604080519080825280601f01601f191660200182016040528015612c055781602001600182028038833980820191505090505b5090506000604184516029602089010101019050612c2b8b604083036040856000613302565b5060006002836040518082805190602001908083835b60208310612c645780518252602082019150602081019050602083039250612c41565b6001836020036101000a038019825116818451168082178552505050505050905001915050602060405180830381855afa158015612ca6573d6000803e3d6000fd5b5050506040513d6020811015612cbb57600080fd5b8101908080519060200190929190505050905083816040516020018083805190602001908083835b60208310612d065780518252602082019150602081019050602083039250612ce3565b6001836020036101000a0380198251168184511680821785525050505050509050018281526020019250505060405160208183030381529060405280519060200120600460008d8152602001908152602001600020541415612d7e57600460008c815260200190815260200160002060009055612d8e565b6000975050505050505050612f1a565b606060496040519080825280601f01601f191660200182016040528015612dc45781602001600182028038833980820191505090505b509050612dd68d896049846000613302565b50612e7f6002826040518082805190602001908083835b60208310612e105780518252602082019150602081019050602083039250612ded565b6001836020036101000a038019825116818451168082178552505050505050905001915050602060405180830381855afa158015612e52573d6000803e3d6000fd5b5050506040513d6020811015612e6757600080fd5b81019080805190602001909291905050508786613cf3565b612e9457600098505050505050505050612f1a565b6005600083815260200190815260200160002060009054906101000a900460ff16612eee57612ec38d84613eb1565b6005600084815260200190815260200160002060006101000a81548160ff0219169083151502179055505b6005600083815260200190815260200160002060009054906101000a900460ff16985050505050505050505b949350505050565b6000838311158290612fcf576040517f08c379a00000000000000000000000000000000000000000000000000000000081526004018080602001828103825283818151815260200191508051906020019080838360005b83811015612f94578082015181840152602081019050612f79565b50505050905090810190601f168015612fc15780820380516001836020036101000a031916815260200191505b509250505060405180910390fd5b5060008385039050809150509392505050565b60008073ffffffffffffffffffffffffffffffffffffffff16600260009054906101000a900473ffffffffffffffffffffffffffffffffffffffff1673ffffffffffffffffffffffffffffffffffffffff16148061306a57506000613068600260009054906101000a900473ffffffffffffffffffffffffffffffffffffffff166127b9565b145b1561307b5761307960006127c4565b505b600260009054906101000a900473ffffffffffffffffffffffffffffffffffffffff1673ffffffffffffffffffffffffffffffffffffffff166338cc48316040518163ffffffff1660e01b8152600401602060405180830381600087803b1580156130e557600080fd5b505af11580156130f9573d6000803e3d6000fd5b505050506040513d602081101561310f57600080fd5b810190808051906020019092919050505073ffffffffffffffffffffffffffffffffffffffff16600160009054906101000a900473ffffffffffffffffffffffffffffffffffffffff1673ffffffffffffffffffffffffffffffffffffffff161461325a57600260009054906101000a900473ffffffffffffffffffffffffffffffffffffffff1673ffffffffffffffffffffffffffffffffffffffff166338cc48316040518163ffffffff1660e01b8152600401602060405180830381600087803b1580156131de57600080fd5b505af11580156131f2573d6000803e3d6000fd5b505050506040513d602081101561320857600080fd5b8101908080519060200190929190505050600160006101000a81548173ffffffffffffffffffffffffffffffffffffffff021916908373ffffffffffffffffffffffffffffffffffffffff1602179055505b600160009054906101000a900473ffffffffffffffffffffffffffffffffffffffff1673ffffffffffffffffffffffffffffffffffffffff1663abaa5f3e6040518163ffffffff1660e01b815260040160206040518083038186803b1580156132c257600080fd5b505afa1580156132d6573d6000803e3d6000fd5b505050506040513d60208110156132ec57600080fd5b8101908080519060200190929190505050905090565b606060008285019050808451101561331957600080fd5b600086602001905060008460200190505b868860200101821015613352578189015180828801525060208201915060208101905061332a565b85935050505095945050505050565b60008073ffffffffffffffffffffffffffffffffffffffff16600260009054906101000a900473ffffffffffffffffffffffffffffffffffffffff1673ffffffffffffffffffffffffffffffffffffffff1614806133e9575060006133e7600260009054906101000a900473ffffffffffffffffffffffffffffffffffffffff166127b9565b145b156133fa576133f860006127c4565b505b600260009054906101000a900473ffffffffffffffffffffffffffffffffffffffff1673ffffffffffffffffffffffffffffffffffffffff166338cc48316040518163ffffffff1660e01b8152600401602060405180830381600087803b15801561346457600080fd5b505af1158015613478573d6000803e3d6000fd5b505050506040513d602081101561348e57600080fd5b810190808051906020019092919050505073ffffffffffffffffffffffffffffffffffffffff16600160009054906101000a900473ffffffffffffffffffffffffffffffffffffffff1673ffffffffffffffffffffffffffffffffffffffff16146135d957600260009054906101000a900473ffffffffffffffffffffffffffffffffffffffff1673ffffffffffffffffffffffffffffffffffffffff166338cc48316040518163ffffffff1660e01b8152600401602060405180830381600087803b15801561355d57600080fd5b505af1158015613571573d6000803e3d6000fd5b505050506040513d602081101561358757600080fd5b8101908080519060200190929190505050600160006101000a81548173ffffffffffffffffffffffffffffffffffffffff021916908373ffffffffffffffffffffffffffffffffffffffff1602179055505b6060600460405190808252806020026020018201604052801561361057816020015b60608152602001906001900390816135fb5790505b5090508360006004811061362057fe5b60200201518160008151811061363257fe5b60200260200101819052508360016004811061364a57fe5b60200201518160018151811061365c57fe5b60200260200101819052508360026004811061367457fe5b60200201518160028151811061368657fe5b60200260200101819052508360036004811061369e57fe5b6020020151816003815181106136b057fe5b60200260200101819052506136c68582856142c9565b9150509392505050565b8060046000848152602001908152602001600020819055505050565b60008061370c731d3b2638a7cc9f2cb3d298a3da7a90b67e5506ed6127b9565b11156137ae57731d3b2638a7cc9f2cb3d298a3da7a90b67e5506ed600260006101000a81548173ffffffffffffffffffffffffffffffffffffffff021916908373ffffffffffffffffffffffffffffffffffffffff1602179055506137a56040518060400160405280600b81526020017f6574685f6d61696e6e657400000000000000000000000000000000000000000081525061482f565b60019050613c40565b60006137cd73c03a2615d5efaf5f49f60b7bb6583eaec212fdf16127b9565b111561386f5773c03a2615d5efaf5f49f60b7bb6583eaec212fdf1600260006101000a81548173ffffffffffffffffffffffffffffffffffffffff021916908373ffffffffffffffffffffffffffffffffffffffff1602179055506138666040518060400160405280600c81526020017f6574685f726f707374656e33000000000000000000000000000000000000000081525061482f565b60019050613c40565b600061388e73b7a07bcf2ba2f2703b24c0691b5278999c59ac7e6127b9565b11156139305773b7a07bcf2ba2f2703b24c0691b5278999c59ac7e600260006101000a81548173ffffffffffffffffffffffffffffffffffffffff021916908373ffffffffffffffffffffffffffffffffffffffff1602179055506139276040518060400160405280600981526020017f6574685f6b6f76616e000000000000000000000000000000000000000000000081525061482f565b60019050613c40565b600061394f73146500cfd35b22e4a392fe0adc06de1a1368ed486127b9565b11156139f15773146500cfd35b22e4a392fe0adc06de1a1368ed48600260006101000a81548173ffffffffffffffffffffffffffffffffffffffff021916908373ffffffffffffffffffffffffffffffffffffffff1602179055506139e86040518060400160405280600b81526020017f6574685f72696e6b65627900000000000000000000000000000000000000000081525061482f565b60019050613c40565b6000613a1073a2998efd205fb9d4b4963afb70778d6354ad3a416127b9565b1115613ab25773a2998efd205fb9d4b4963afb70778d6354ad3a41600260006101000a81548173ffffffffffffffffffffffffffffffffffffffff021916908373ffffffffffffffffffffffffffffffffffffffff160217905550613aa96040518060400160405280600a81526020017f6574685f676f65726c690000000000000000000000000000000000000000000081525061482f565b60019050613c40565b6000613ad1736f485c8bf6fc43ea212e93bbf8ce046c7f1cb4756127b9565b1115613b3557736f485c8bf6fc43ea212e93bbf8ce046c7f1cb475600260006101000a81548173ffffffffffffffffffffffffffffffffffffffff021916908373ffffffffffffffffffffffffffffffffffffffff16021790555060019050613c40565b6000613b547320e12a1f859b3feae5fb2a0a32c18f5a65555bbf6127b9565b1115613bb8577320e12a1f859b3feae5fb2a0a32c18f5a65555bbf600260006101000a81548173ffffffffffffffffffffffffffffffffffffffff021916908373ffffffffffffffffffffffffffffffffffffffff16021790555060019050613c40565b6000613bd77351efaf4c8b3c9afbd5ab9f4bbc82784ab6ef8faa6127b9565b1115613c3b577351efaf4c8b3c9afbd5ab9f4bbc82784ab6ef8faa600260006101000a81548173ffffffffffffffffffffffffffffffffffffffff021916908373ffffffffffffffffffffffffffffffffffffffff16021790555060019050613c40565b600090505b90565b6000806001905082845114613c5757600080fd5b60008090505b83811015613ce757848181518110613c7157fe5b602001015160f81c60f81b7effffffffffffffffffffffffffffffffffffffffffffffffffffffffffffff1916868260208110613caa57fe5b1a60f81b7effffffffffffffffffffffffffffffffffffffffffffffffffffffffffffff191614613cda57600091505b8080600101915050613c5d565b50809150509392505050565b6000806000806000606060206040519080825280601f01601f191660200182016040528015613d315781602001600182028038833980820191505090505b5090506000602089600381518110613d4557fe5b602001015160f81c60f81b60f81c60ff16036004019050613d6b89826020856000613302565b9150606060206040519080825280601f01601f191660200182016040528015613da35781602001600182028038833980820191505090505b509050602282019150613ddf8a60208c6001860381518110613dc157fe5b602001015160f81c60f81b60f81c60ff160384016020846000613302565b90506020830151945060208101519350613dfc8b601b8787614849565b80975081985050508573ffffffffffffffffffffffffffffffffffffffff16898051906020012060001c73ffffffffffffffffffffffffffffffffffffffff161415613e52576001975050505050505050613eaa565b613e5f8b601c8787614849565b80975081985050508573ffffffffffffffffffffffffffffffffffffffff16898051906020012060001c73ffffffffffffffffffffffffffffffffffffffff16149750505050505050505b9392505050565b60008060606002856001860181518110613ec757fe5b602001015160f81c60f81b60f81c60ff16016040519080825280601f01601f191660200182016040528015613f0b5781602001600182028038833980820191505090505b509050613f1d85858351846000613302565b506060604080519080825280601f01601f191660200182016040528015613f535781602001600182028038833980820191505090505b509050613f668660046040846000613302565b50606060626040519080825280601f01601f191660200182016040528015613f9d5781602001600182028038833980820191505090505b509050600160f81b81600081518110613fb257fe5b60200101907effffffffffffffffffffffffffffffffffffffffffffffffffffffffffffff1916908160001a905350613ff387604188036041846001613302565b5060606040518060400160405280602081526020017ffd94fa71bc0ba10d39d464d0d8f465efeef0a2764e3887fcc9df41ded20f505c815250905061403e8160006020856042613302565b506140e76002836040518082805190602001908083835b602083106140785780518252602082019150602081019050602083039250614055565b6001836020036101000a038019825116818451168082178552505050505050905001915050602060405180830381855afa1580156140ba573d6000803e3d6000fd5b5050506040513d60208110156140cf57600080fd5b81019080805190602001909291905050508585613cf3565b9450846140fc576000955050505050506142c3565b6060604051806060016040528060408152602001614e35604091399050606060426040519080825280601f01601f19166020018201604052801561414f5781602001600182028038833980820191505090505b50905060fe60f81b8160008151811061416457fe5b60200101907effffffffffffffffffffffffffffffffffffffffffffffffffffffffffffff1916908160001a9053506141a38a60036041846001613302565b50606060028b6045815181106141b557fe5b602001015160f81c60f81b60f81c60ff16016040519080825280601f01601f1916602001820160405280156141f95781602001600182028038833980820191505090505b50905061420c8b60448351846000613302565b506142b56002836040518082805190602001908083835b602083106142465780518252602082019150602081019050602083039250614223565b6001836020036101000a038019825116818451168082178552505050505050905001915050602060405180830381855afa158015614288573d6000803e3d6000fd5b5050506040513d602081101561429d57600080fd5b81019080805190602001909291905050508285613cf3565b975087985050505050505050505b92915050565b60008073ffffffffffffffffffffffffffffffffffffffff16600260009054906101000a900473ffffffffffffffffffffffffffffffffffffffff1673ffffffffffffffffffffffffffffffffffffffff1614806143515750600061434f600260009054906101000a900473ffffffffffffffffffffffffffffffffffffffff166127b9565b145b156143625761436060006127c4565b505b600260009054906101000a900473ffffffffffffffffffffffffffffffffffffffff1673ffffffffffffffffffffffffffffffffffffffff166338cc48316040518163ffffffff1660e01b8152600401602060405180830381600087803b1580156143cc57600080fd5b505af11580156143e0573d6000803e3d6000fd5b505050506040513d60208110156143f657600080fd5b810190808051906020019092919050505073ffffffffffffffffffffffffffffffffffffffff16600160009054906101000a900473ffffffffffffffffffffffffffffffffffffffff1673ffffffffffffffffffffffffffffffffffffffff161461454157600260009054906101000a900473ffffffffffffffffffffffffffffffffffffffff1673ffffffffffffffffffffffffffffffffffffffff166338cc48316040518163ffffffff1660e01b8152600401602060405180830381600087803b1580156144c557600080fd5b505af11580156144d9573d6000803e3d6000fd5b505050506040513d60208110156144ef57600080fd5b8101908080519060200190929190505050600160006101000a81548173ffffffffffffffffffffffffffffffffffffffff021916908373ffffffffffffffffffffffffffffffffffffffff1602179055505b6000600160009054906101000a900473ffffffffffffffffffffffffffffffffffffffff1673ffffffffffffffffffffffffffffffffffffffff16632ef3accc86856040518363ffffffff1660e01b81526004018080602001838152602001828103825284818151815260200191508051906020019080838360005b838110156145d85780820151818401526020810190506145bd565b50505050905090810190601f1680156146055780820380516001836020036101000a031916815260200191505b509350505050602060405180830381600087803b15801561462557600080fd5b505af1158015614639573d6000803e3d6000fd5b505050506040513d602081101561464f57600080fd5b81019080805190602001909291905050509050823a02670de0b6b3a764000001811115614682576000801b915050614828565b606061468d8561488d565b9050600160009054906101000a900473ffffffffffffffffffffffffffffffffffffffff1673ffffffffffffffffffffffffffffffffffffffff1663c55c1cb68360008985896040518663ffffffff1660e01b8152600401808581526020018060200180602001848152602001838103835286818151815260200191508051906020019080838360005b83811015614732578082015181840152602081019050614717565b50505050905090810190601f16801561475f5780820380516001836020036101000a031916815260200191505b50838103825285818151815260200191508051906020019080838360005b8381101561479857808201518184015260208101905061477d565b50505050905090810190601f1680156147c55780820380516001836020036101000a031916815260200191505b5096505050505050506020604051808303818588803b1580156147e757600080fd5b505af11580156147fb573d6000803e3d6000fd5b50505050506040513d602081101561481257600080fd5b8101908080519060200190929190505050925050505b9392505050565b8060039080519060200190614845929190614cbd565b5050565b60008060008060405188815287602082015286604082015285606082015260208160808360006001610bb8f192508051915050818193509350505094509492505050565b606061489761490d565b61489f614d3d565b6148ab81610400614919565b6148b481614963565b60008090505b83518110156148f6576148e98482815181106148d257fe5b60200260200101518361497190919063ffffffff16565b80806001019150506148ba565b5061490081614996565b8060000151915050919050565b60405180590338823950565b600081905060006020828161492a57fe5b0614614943576020818161493a57fe5b06602003810190505b808360200181815250506040518084526000815281810160405250505050565b61496e8160046149a4565b50565b61497e82600283516149c5565b6149918183614b0590919063ffffffff16565b505050565b6149a18160076149a4565b50565b6149c1601f60058360ff16901b1783614bb090919063ffffffff16565b5050565b601781116149f1576149ec8160058460ff16901b60ff161784614bb090919063ffffffff16565b614b00565b60ff8111614a3257614a16601860058460ff16901b1784614bb090919063ffffffff16565b614a2c81600185614bf09092919063ffffffff16565b50614aff565b61ffff8111614a7457614a58601960058460ff16901b1784614bb090919063ffffffff16565b614a6e81600285614bf09092919063ffffffff16565b50614afe565b63ffffffff8111614ab857614a9c601a60058460ff16901b1784614bb090919063ffffffff16565b614ab281600485614bf09092919063ffffffff16565b50614afd565b67ffffffffffffffff8111614afc57614ae4601b60058460ff16901b1784614bb090919063ffffffff16565b614afa81600885614bf09092919063ffffffff16565b505b5b5b5b5b505050565b614b0d614d3d565b82602001518360000151518351011115614b3d57614b3c836002614b3686602001518651614c57565b02614c73565b5b60008060008451905085518051602081830101945086518101825260208701935050505b60208110614b845781518352602083019250602082019150602081039050614b61565b60006001826020036101000a039050801983511681855116818117865250508694505050505092915050565b81602001516001836000015151011115614bd657614bd5826002846020015102614c73565b5b815180516020818301018381536001820183525050505050565b614bf8614d3d565b836020015184600001515183011115614c2657614c25846002614c1f876020015186614c57565b02614c73565b5b60006001836101000a0390508451805184818301018684198251161781528582018352505050849150509392505050565b600081831115614c6957829050614c6d565b8190505b92915050565b606082600001519050614c868383614919565b614c908382614b05565b50505050565b60405180608001604052806004905b6060815260200190600190039081614ca55790505090565b828054600181600116156101000203166002900490600052602060002090601f016020900481019282601f10614cfe57805160ff1916838001178555614d2c565b82800160010185558215614d2c579182015b82811115614d2b578251825591602001919060010190614d10565b5b509050614d399190614d57565b5090565b604051806040016040528060608152602001600081525090565b614d7991905b80821115614d75576000816000905550600101614d5d565b5090565b9056fe596f7520617265206e6f7420656e7469746c656420746f206578656375746520746869732066756e6374696f6e2e596f75206d7573742073656e642074686520726571756972656420636f7374206f72206d6f7265546865206265742077617320756e61626c6520746f206265207665726966696564536166654d6174683a206d756c7469706c69636174696f6e206f766572666c6f77596f752063616e2774207761676572206d6f7265207468616e20352065746865727fb956469c5c9b89840d55b43537e66a98dd4811ea0a27224272c2e5622911e8537a2f8e86a46baec82864e98dd01e9ccc2f8bc5dfc9cbe5a91a290498dd96e450726f7661626c65207175657279207761732073656e742c207374616e64696e6720627920666f722074686520616e737765722e2e2ea265627a7a7231582048de687cdbecffa525a6ba64df78818d38bb8a0edf12361c0a8f9c5981b90fc664736f6c634300050c003250726f7661626c65207175657279207761732073656e742c207374616e64696e6720627920666f722074686520616e737765722e2e2e",
  "source": "import './Ownable.sol';\nimport './Betting.sol';\n\n\npragma solidity 0.5.12;\n\ncontract CoinFlip is Ownable, Betting {\n\n    event ContractFunded(uint amount);\n\n    function fundContract() public payable onlyOwner {\n        require(msg.sender.balance >= msg.value);\n        balances[contractAddress] = balances[contractAddress].add(msg.value);\n        emit ContractFunded(msg.value);\n    }\n\n    function withdrawBalance() public {\n        require(balances[msg.sender] > 0, \"There are no funds to withdraw\");\n        uint withdrawal = balances[msg.sender];\n        balances[msg.sender] = 0;\n        msg.sender.transfer(withdrawal);\n    }\n\n    function withdrawContract() public onlyOwner {\n        assert(msg.sender == owner);\n        require(balances[contractAddress] > 0, \"There are no funds to withdraw\");\n        uint withdrawalAmount = balances[contractAddress];\n        balances[contractAddress] = 0;\n        msg.sender.transfer(withdrawalAmount);\n    }\n\n    function getContract() public view returns (address, uint) {\n        return (contractAddress, contractAddress.balance);\n    }\n\n    function getBalance() public view returns (uint) {\n        return balances[msg.sender];\n    }\n}\n",
  "sourcePath": "/Users/Sant/Desktop/code/projects/blockchain/ivanontechacademy/coinflip/contracts/CoinFlip.sol",
  "compiler": {
    "name": "solc",
    "version": "0.5.12+commit.7709ece9.Emscripten.clang"
  },
  "schemaVersion": "3.0.19",
  "updatedAt": "2020-02-05T03:22:31.596Z",
  "networkType": "ethereum",
  "devdoc": {
    "methods": {
      "__callback(bytes32,string)": {
        "details": "The following `__callback` functions are just placeholders ideally     meant to be defined in child contract when proofs are used.     The function bodies simply silence compiler warnings."
      }
    }
  },
  "userdoc": {
    "methods": {}
  }
}