{
  "contractName": "CoinFlip",
  "abi": [
    {
      "anonymous": false,
      "inputs": [
        {
          "indexed": false,
          "internalType": "address",
          "name": "gambler",
          "type": "address"
        },
        {
          "indexed": false,
          "internalType": "uint256",
          "name": "amount",
          "type": "uint256"
        },
        {
          "indexed": false,
          "internalType": "bool",
          "name": "betWon",
          "type": "bool"
        }
      ],
      "name": "BetPlaced",
      "type": "event"
    },
    {
      "anonymous": false,
      "inputs": [
        {
          "indexed": false,
          "internalType": "address",
          "name": "funder",
          "type": "address"
        },
        {
          "indexed": false,
          "internalType": "uint256",
          "name": "amount",
          "type": "uint256"
        }
      ],
      "name": "ContractFunded",
      "type": "event"
    },
    {
      "constant": true,
      "inputs": [],
      "name": "owner",
      "outputs": [
        {
          "internalType": "address payable",
          "name": "",
          "type": "address"
        }
      ],
      "payable": false,
      "stateMutability": "view",
      "type": "function"
    },
    {
      "constant": true,
      "inputs": [],
      "name": "random",
      "outputs": [
        {
          "internalType": "uint256",
          "name": "",
          "type": "uint256"
        }
      ],
      "payable": false,
      "stateMutability": "view",
      "type": "function"
    },
    {
      "constant": false,
      "inputs": [
        {
          "internalType": "address payable",
          "name": "newOwner",
          "type": "address"
        }
      ],
      "name": "transferOwnership",
      "outputs": [],
      "payable": false,
      "stateMutability": "nonpayable",
      "type": "function"
    },
    {
      "constant": false,
      "inputs": [
        {
          "internalType": "uint256",
          "name": "_amount",
          "type": "uint256"
        }
      ],
      "name": "bet",
      "outputs": [],
      "payable": true,
      "stateMutability": "payable",
      "type": "function"
    },
    {
      "constant": false,
      "inputs": [],
      "name": "fundContract",
      "outputs": [],
      "payable": true,
      "stateMutability": "payable",
      "type": "function"
    },
    {
      "constant": false,
      "inputs": [
        {
          "internalType": "uint256",
          "name": "_amount",
          "type": "uint256"
        }
      ],
      "name": "withdraw",
      "outputs": [],
      "payable": false,
      "stateMutability": "nonpayable",
      "type": "function"
    },
    {
      "constant": false,
      "inputs": [],
      "name": "withdrawAll",
      "outputs": [],
      "payable": false,
      "stateMutability": "nonpayable",
      "type": "function"
    },
    {
      "constant": true,
      "inputs": [],
      "name": "getContract",
      "outputs": [
        {
          "internalType": "address",
          "name": "",
          "type": "address"
        },
        {
          "internalType": "uint256",
          "name": "",
          "type": "uint256"
        }
      ],
      "payable": false,
      "stateMutability": "view",
      "type": "function"
    },
    {
      "constant": true,
      "inputs": [],
      "name": "getOwner",
      "outputs": [
        {
          "internalType": "address",
          "name": "",
          "type": "address"
        },
        {
          "internalType": "uint256",
          "name": "",
          "type": "uint256"
        }
      ],
      "payable": false,
      "stateMutability": "view",
      "type": "function"
    }
  ],
  "bytecode": "0x6080604052336000806101000a81548173ffffffffffffffffffffffffffffffffffffffff021916908373ffffffffffffffffffffffffffffffffffffffff160217905550610d18806100536000396000f3fe6080604052600436106100865760003560e01c8063893d20e811610059578063893d20e8146101365780638da5cb5b14610194578063958f85bd146101eb578063bd097e2114610249578063f2fde38b1461025357610086565b80632e1a7d4d1461008b5780635ec01e4d146100c65780637365870b146100f1578063853828b61461011f575b600080fd5b34801561009757600080fd5b506100c4600480360360208110156100ae57600080fd5b81019080803590602001909291905050506102a4565b005b3480156100d257600080fd5b506100db6104bd565b6040518082815260200191505060405180910390f35b61011d6004803603602081101561010757600080fd5b81019080803590602001909291905050506104cf565b005b34801561012b57600080fd5b506101346107be565b005b34801561014257600080fd5b5061014b610961565b604051808373ffffffffffffffffffffffffffffffffffffffff1673ffffffffffffffffffffffffffffffffffffffff1681526020018281526020019250505060405180910390f35b3480156101a057600080fd5b506101a96109ca565b604051808273ffffffffffffffffffffffffffffffffffffffff1673ffffffffffffffffffffffffffffffffffffffff16815260200191505060405180910390f35b3480156101f757600080fd5b506102006109ef565b604051808373ffffffffffffffffffffffffffffffffffffffff1673ffffffffffffffffffffffffffffffffffffffff1681526020018281526020019250505060405180910390f35b610251610a13565b005b34801561025f57600080fd5b506102a26004803603602081101561027657600080fd5b81019080803573ffffffffffffffffffffffffffffffffffffffff169060200190929190505050610af4565b005b6000809054906101000a900473ffffffffffffffffffffffffffffffffffffffff1673ffffffffffffffffffffffffffffffffffffffff163373ffffffffffffffffffffffffffffffffffffffff1614610349576040517f08c379a000000000000000000000000000000000000000000000000000000000815260040180806020018281038252602e815260200180610c17602e913960400191505060405180910390fd5b3081808273ffffffffffffffffffffffffffffffffffffffff163110156103bb576040517f08c379a0000000000000000000000000000000000000000000000000000000008152600401808060200182810382526035815260200180610c456035913960400191505060405180910390fd5b6000809054906101000a900473ffffffffffffffffffffffffffffffffffffffff1673ffffffffffffffffffffffffffffffffffffffff163373ffffffffffffffffffffffffffffffffffffffff161461041157fe5b60003073ffffffffffffffffffffffffffffffffffffffff163190506000809054906101000a900473ffffffffffffffffffffffffffffffffffffffff1673ffffffffffffffffffffffffffffffffffffffff166108fc859081150290604051600060405180830381858888f19350505050158015610494573d6000803e3d6000fd5b508381033073ffffffffffffffffffffffffffffffffffffffff1631146104b757fe5b50505050565b6000600242816104c957fe5b06905090565b662386f26fc1000080341015610530576040517f08c379a0000000000000000000000000000000000000000000000000000000008152600401808060200182810382526027815260200180610c7a6027913960400191505060405180910390fd5b674563918244f40000341115610591576040517f08c379a0000000000000000000000000000000000000000000000000000000008152600401808060200182810382526021815260200180610ca16021913960400191505060405180910390fd5b818034146105ea576040517f08c379a0000000000000000000000000000000000000000000000000000000008152600401808060200182810382526022815260200180610cc26022913960400191505060405180910390fd5b3383808273ffffffffffffffffffffffffffffffffffffffff1631101561065c576040517f08c379a0000000000000000000000000000000000000000000000000000000008152600401808060200182810382526035815260200180610c456035913960400191505060405180910390fd5b3085808273ffffffffffffffffffffffffffffffffffffffff163110156106ce576040517f08c379a0000000000000000000000000000000000000000000000000000000008152600401808060200182810382526035815260200180610c456035913960400191505060405180910390fd5b6000806106d96104bd565b90506001811415610737573373ffffffffffffffffffffffffffffffffffffffff166108fc60028b029081150290604051600060405180830381858888f1935050505015801561072d573d6000803e3d6000fd5b506001915061073c565b600091505b7ff8e99859e696debf4ef1752d671f759f7f63a1116efe995d789edfb3849c3549338a84604051808473ffffffffffffffffffffffffffffffffffffffff1673ffffffffffffffffffffffffffffffffffffffff16815260200183815260200182151515158152602001935050505060405180910390a1505050505050505050565b6000809054906101000a900473ffffffffffffffffffffffffffffffffffffffff1673ffffffffffffffffffffffffffffffffffffffff163373ffffffffffffffffffffffffffffffffffffffff1614610863576040517f08c379a000000000000000000000000000000000000000000000000000000000815260040180806020018281038252602e815260200180610c17602e913960400191505060405180910390fd5b6000809054906101000a900473ffffffffffffffffffffffffffffffffffffffff1673ffffffffffffffffffffffffffffffffffffffff163373ffffffffffffffffffffffffffffffffffffffff16146108b957fe5b60003073ffffffffffffffffffffffffffffffffffffffff163190506000809054906101000a900473ffffffffffffffffffffffffffffffffffffffff1673ffffffffffffffffffffffffffffffffffffffff166108fc829081150290604051600060405180830381858888f1935050505015801561093c573d6000803e3d6000fd5b5060003073ffffffffffffffffffffffffffffffffffffffff16311461095e57fe5b50565b6000806000809054906101000a900473ffffffffffffffffffffffffffffffffffffffff166000809054906101000a900473ffffffffffffffffffffffffffffffffffffffff1673ffffffffffffffffffffffffffffffffffffffff1631819150915091509091565b6000809054906101000a900473ffffffffffffffffffffffffffffffffffffffff1681565b600080303073ffffffffffffffffffffffffffffffffffffffff1631915091509091565b3334808273ffffffffffffffffffffffffffffffffffffffff16311015610a85576040517f08c379a0000000000000000000000000000000000000000000000000000000008152600401808060200182810382526035815260200180610c456035913960400191505060405180910390fd5b7f0939f6f4877faf071412e527bc4c6d0bd65ad077e52b57334f7765265647a7f13334604051808373ffffffffffffffffffffffffffffffffffffffff1673ffffffffffffffffffffffffffffffffffffffff1681526020018281526020019250505060405180910390a15050565b6000809054906101000a900473ffffffffffffffffffffffffffffffffffffffff1673ffffffffffffffffffffffffffffffffffffffff163373ffffffffffffffffffffffffffffffffffffffff1614610b99576040517f08c379a000000000000000000000000000000000000000000000000000000000815260040180806020018281038252602e815260200180610c17602e913960400191505060405180910390fd5b600073ffffffffffffffffffffffffffffffffffffffff168173ffffffffffffffffffffffffffffffffffffffff161415610bd357600080fd5b806000806101000a81548173ffffffffffffffffffffffffffffffffffffffff021916908373ffffffffffffffffffffffffffffffffffffffff1602179055505056fe596f7520617265206e6f7420656e7469746c656420746f206578656375746520746869732066756e6374696f6e2e546865726520617265206e6f7420656e6f7567682066756e647320746f206372656174652074686973207472616e73616374696f6e596f75206d7573742073656e642074686520726571756972656420636f7374206f72206d6f7265596f752063616e2774207761676572206d6f7265207468616e2035206574686572596f75206d7573742073656e642074686520616d6f756e7420737065636966696564a265627a7a7231582017e2c1f903c1bcdecffdff2c7cac590adcf98b2d674e81ff43c10d94dd8b7f2d64736f6c634300050c0032",
  "source": "import './Ownable.sol';\nimport './usingModifiers.sol';\nimport './usingPseudoRandomNumber.sol';\n\n\npragma solidity 0.5.12;\n\ncontract CoinFlip is Ownable, usingModifiers, usingPseudoRandomNumber {\n\n    event BetPlaced(address gambler, uint amount, bool betWon);\n    event ContractFunded(address funder, uint amount);\n\n    function bet(uint _amount) public payable\n        costs(0.01 ether)\n        setBettingLimit()\n        amountSentMustMatch(_amount)\n        mustHaveRequiredFunds(msg.sender, _amount)\n        mustHaveRequiredFunds(address(this), _amount)\n    {\n        bool _betWon;\n        uint rand = random();\n\n        if (rand == 1) {\n            msg.sender.transfer(_amount * 2);\n            _betWon = true;\n        } else {\n            _betWon = false;\n        }\n\n        emit BetPlaced(msg.sender, _amount, _betWon);\n    }\n\n    function fundContract() public payable mustHaveRequiredFunds(msg.sender, msg.value) {\n        emit ContractFunded(msg.sender, msg.value);\n    }\n\n    function withdraw(uint _amount) public onlyOwner mustHaveRequiredFunds(address(this), _amount) {\n        assert(msg.sender == owner);\n        uint contractBalanceBefore = address(this).balance;\n        owner.transfer(_amount);\n        assert(address(this).balance == contractBalanceBefore - _amount);\n   }\n\n    function withdrawAll() public onlyOwner {\n        assert(msg.sender == owner);\n        uint withdrawalAmount = address(this).balance;\n        owner.transfer(withdrawalAmount);\n        assert(address(this).balance == 0);\n   }\n\n    function getContract() public view returns (address, uint) {\n        return (address(this), address(this).balance);\n    }\n\n    function getOwner() public view returns (address, uint) {\n        return (address(owner), address(owner).balance);\n    }\n}\n",
  "sourcePath": "/Users/Sant/Desktop/code/projects/blockchain/ivanontechacademy/coinflip/contracts/CoinFlip.sol",
  "compiler": {
    "name": "solc",
    "version": "0.5.12+commit.7709ece9.Emscripten.clang"
  },
  "schemaVersion": "3.0.19",
  "updatedAt": "2020-01-30T06:01:07.898Z",
  "networkType": "ethereum",
  "devdoc": {
    "methods": {}
  },
  "userdoc": {
    "methods": {}
  }
}