{
  "contractName": "CoinFlip",
  "abi": [
    {
      "anonymous": false,
      "inputs": [
        {
          "indexed": false,
          "internalType": "bytes32",
          "name": "queryId",
          "type": "bytes32"
        },
        {
          "indexed": true,
          "internalType": "address",
          "name": "player",
          "type": "address"
        },
        {
          "indexed": false,
          "internalType": "uint256",
          "name": "amount",
          "type": "uint256"
        },
        {
          "indexed": false,
          "internalType": "bool",
          "name": "betWon",
          "type": "bool"
        }
      ],
      "name": "BetComplete",
      "type": "event"
    },
    {
      "anonymous": false,
      "inputs": [
        {
          "indexed": false,
          "internalType": "bytes32",
          "name": "queryId",
          "type": "bytes32"
        },
        {
          "indexed": false,
          "internalType": "string",
          "name": "reason",
          "type": "string"
        }
      ],
      "name": "BetFailed",
      "type": "event"
    },
    {
      "anonymous": false,
      "inputs": [
        {
          "indexed": false,
          "internalType": "bytes32",
          "name": "queryId",
          "type": "bytes32"
        },
        {
          "indexed": true,
          "internalType": "address",
          "name": "player",
          "type": "address"
        },
        {
          "indexed": false,
          "internalType": "uint256",
          "name": "amount",
          "type": "uint256"
        }
      ],
      "name": "BetPlaced",
      "type": "event"
    },
    {
      "anonymous": false,
      "inputs": [
        {
          "indexed": false,
          "internalType": "uint256",
          "name": "amount",
          "type": "uint256"
        }
      ],
      "name": "ContractFunded",
      "type": "event"
    },
    {
      "anonymous": false,
      "inputs": [
        {
          "indexed": false,
          "internalType": "string",
          "name": "description",
          "type": "string"
        }
      ],
      "name": "LogNewProvableQuery",
      "type": "event"
    },
    {
      "constant": false,
      "inputs": [
        {
          "internalType": "bytes32",
          "name": "_myid",
          "type": "bytes32"
        },
        {
          "internalType": "string",
          "name": "_result",
          "type": "string"
        }
      ],
      "name": "__callback",
      "outputs": [],
      "payable": false,
      "stateMutability": "nonpayable",
      "type": "function"
    },
    {
      "constant": false,
      "inputs": [
        {
          "internalType": "bytes32",
          "name": "_queryId",
          "type": "bytes32"
        },
        {
          "internalType": "string",
          "name": "_result",
          "type": "string"
        },
        {
          "internalType": "bytes",
          "name": "_proof",
          "type": "bytes"
        }
      ],
      "name": "__callback",
      "outputs": [],
      "payable": false,
      "stateMutability": "nonpayable",
      "type": "function"
    },
    {
      "constant": true,
      "inputs": [
        {
          "internalType": "address",
          "name": "",
          "type": "address"
        }
      ],
      "name": "balances",
      "outputs": [
        {
          "internalType": "uint256",
          "name": "",
          "type": "uint256"
        }
      ],
      "payable": false,
      "stateMutability": "view",
      "type": "function"
    },
    {
      "constant": false,
      "inputs": [],
      "name": "bet",
      "outputs": [],
      "payable": true,
      "stateMutability": "payable",
      "type": "function"
    },
    {
      "constant": true,
      "inputs": [
        {
          "internalType": "uint256",
          "name": "",
          "type": "uint256"
        }
      ],
      "name": "betToPlayer",
      "outputs": [
        {
          "internalType": "address",
          "name": "",
          "type": "address"
        }
      ],
      "payable": false,
      "stateMutability": "view",
      "type": "function"
    },
    {
      "constant": true,
      "inputs": [
        {
          "internalType": "uint256",
          "name": "",
          "type": "uint256"
        }
      ],
      "name": "bets",
      "outputs": [
        {
          "internalType": "bytes32",
          "name": "queryId",
          "type": "bytes32"
        },
        {
          "internalType": "address",
          "name": "player",
          "type": "address"
        },
        {
          "internalType": "uint256",
          "name": "betAmount",
          "type": "uint256"
        },
        {
          "internalType": "uint256",
          "name": "calculatedBetAmount",
          "type": "uint256"
        },
        {
          "internalType": "bool",
          "name": "betWon",
          "type": "bool"
        },
        {
          "internalType": "bool",
          "name": "isPending",
          "type": "bool"
        }
      ],
      "payable": false,
      "stateMutability": "view",
      "type": "function"
    },
    {
      "constant": true,
      "inputs": [],
      "name": "contractAddress",
      "outputs": [
        {
          "internalType": "address",
          "name": "",
          "type": "address"
        }
      ],
      "payable": false,
      "stateMutability": "view",
      "type": "function"
    },
    {
      "constant": true,
      "inputs": [],
      "name": "getBetCount",
      "outputs": [
        {
          "internalType": "uint256",
          "name": "",
          "type": "uint256"
        }
      ],
      "payable": false,
      "stateMutability": "view",
      "type": "function"
    },
    {
      "constant": true,
      "inputs": [],
      "name": "owner",
      "outputs": [
        {
          "internalType": "address",
          "name": "",
          "type": "address"
        }
      ],
      "payable": false,
      "stateMutability": "view",
      "type": "function"
    },
    {
      "constant": true,
      "inputs": [
        {
          "internalType": "address",
          "name": "",
          "type": "address"
        }
      ],
      "name": "playerBetCount",
      "outputs": [
        {
          "internalType": "uint256",
          "name": "",
          "type": "uint256"
        }
      ],
      "payable": false,
      "stateMutability": "view",
      "type": "function"
    },
    {
      "constant": false,
      "inputs": [
        {
          "internalType": "address payable",
          "name": "newOwner",
          "type": "address"
        }
      ],
      "name": "transferOwnership",
      "outputs": [],
      "payable": false,
      "stateMutability": "nonpayable",
      "type": "function"
    },
    {
      "constant": false,
      "inputs": [],
      "name": "update",
      "outputs": [
        {
          "internalType": "bytes32",
          "name": "",
          "type": "bytes32"
        }
      ],
      "payable": true,
      "stateMutability": "payable",
      "type": "function"
    },
    {
      "constant": false,
      "inputs": [],
      "name": "fundContract",
      "outputs": [],
      "payable": true,
      "stateMutability": "payable",
      "type": "function"
    },
    {
      "constant": false,
      "inputs": [],
      "name": "withdrawBalance",
      "outputs": [],
      "payable": false,
      "stateMutability": "nonpayable",
      "type": "function"
    },
    {
      "constant": false,
      "inputs": [],
      "name": "withdrawContract",
      "outputs": [],
      "payable": false,
      "stateMutability": "nonpayable",
      "type": "function"
    },
    {
      "constant": true,
      "inputs": [],
      "name": "getContract",
      "outputs": [
        {
          "internalType": "address",
          "name": "",
          "type": "address"
        },
        {
          "internalType": "uint256",
          "name": "",
          "type": "uint256"
        }
      ],
      "payable": false,
      "stateMutability": "view",
      "type": "function"
    },
    {
      "constant": true,
      "inputs": [],
      "name": "getBalance",
      "outputs": [
        {
          "internalType": "uint256",
          "name": "",
          "type": "uint256"
        }
      ],
      "payable": false,
      "stateMutability": "view",
      "type": "function"
    }
  ],
  "bytecode": "0x608060405230600660006101000a81548173ffffffffffffffffffffffffffffffffffffffff021916908373ffffffffffffffffffffffffffffffffffffffff160217905550336000806101000a81548173ffffffffffffffffffffffffffffffffffffffff021916908373ffffffffffffffffffffffffffffffffffffffff1602179055506200009a603060f81b620000b160201b60201c565b620000aa6200041760201b60201c565b506200234a565b600073ffffffffffffffffffffffffffffffffffffffff16600260009054906101000a900473ffffffffffffffffffffffffffffffffffffffff1673ffffffffffffffffffffffffffffffffffffffff16148062000141575060006200013f600260009054906101000a900473ffffffffffffffffffffffffffffffffffffffff166200049360201b60201c565b145b156200015b576200015960006200049e60201b60201c565b505b600260009054906101000a900473ffffffffffffffffffffffffffffffffffffffff1673ffffffffffffffffffffffffffffffffffffffff166338cc48316040518163ffffffff1660e01b8152600401602060405180830381600087803b158015620001c657600080fd5b505af1158015620001db573d6000803e3d6000fd5b505050506040513d6020811015620001f257600080fd5b810190808051906020019092919050505073ffffffffffffffffffffffffffffffffffffffff16600160009054906101000a900473ffffffffffffffffffffffffffffffffffffffff1673ffffffffffffffffffffffffffffffffffffffff16146200034157600260009054906101000a900473ffffffffffffffffffffffffffffffffffffffff1673ffffffffffffffffffffffffffffffffffffffff166338cc48316040518163ffffffff1660e01b8152600401602060405180830381600087803b158015620002c357600080fd5b505af1158015620002d8573d6000803e3d6000fd5b505050506040513d6020811015620002ef57600080fd5b8101908080519060200190929190505050600160006101000a81548173ffffffffffffffffffffffffffffffffffffffff021916908373ffffffffffffffffffffffffffffffffffffffff1602179055505b600160009054906101000a900473ffffffffffffffffffffffffffffffffffffffff1673ffffffffffffffffffffffffffffffffffffffff1663688dcfd7826040518263ffffffff1660e01b815260040180827effffffffffffffffffffffffffffffffffffffffffffffffffffffffffffff19167effffffffffffffffffffffffffffffffffffffffffffffffffffffffffffff19168152602001915050600060405180830381600087803b158015620003fb57600080fd5b505af115801562000410573d6000803e3d6000fd5b5050505050565b60008060009050600062030d40905060006200043c83600184620004b760201b60201c565b90507fc4dc360d0a9c0677a3379ae0a3d81e887f761e65fdf3d7e00859d1bcd3c47389604051808060200182810382526036815260200180620075206036913960400191505060405180910390a180935050505090565b6000813b9050919050565b6000620004b062000a8a60201b60201c565b9050919050565b60008083118015620004ca575060208311155b620004d457600080fd5b600a84029350606060016040519080825280601f01601f191660200182016040528015620005115781602001600182028038833980820191505090505b5090508360f81b816000815181106200052657fe5b60200101907effffffffffffffffffffffffffffffffffffffffffffffffffffffffffffff1916908160001a905350606060206040519080825280601f01601f1916602001820160405280156200058c5781602001600182028038833980820191505090505b509050606060206040519080825280601f01601f191660200182016040528015620005c65781602001600182028038833980820191505090505b5090506000620005db6200105960201b60201c565b905060208352424118600143034018602084015260208252806020830152606060206040519080825280601f01601f191660200182016040528015620006305781602001600182028038833980820191505090505b509050886020820152606060086040519080825280601f01601f191660200182016040528015620006705781602001600182028038833980820191505090505b5090506200068b82601860088460006200139560201b60201c565b506200069662002259565b60405180608001604052808781526020018881526020018681526020018481525090506000620007036040518060400160405280600681526020017f72616e646f6d0000000000000000000000000000000000000000000000000000815250838c620013f760201b60201c565b9050606060086040519080825280601f01601f1916602001820160405280156200073c5781602001600182028038833980820191505090505b50905060208401517f0100000000000000000000000000000000000000000000000000000000000000810460278301537e01000000000000000000000000000000000000000000000000000000000000810460268301537d010000000000000000000000000000000000000000000000000000000000810460258301537c0100000000000000000000000000000000000000000000000000000000810460248301537b01000000000000000000000000000000000000000000000000000000810460238301537a01000000000000000000000000000000000000000000000000000081046022830153790100000000000000000000000000000000000000000000000000810460218301537801000000000000000000000000000000000000000000000000810460208301535062000a778282856001600481106200087d57fe5b60200201516002876000600481106200089257fe5b60200201516040518082805190602001908083835b60208310620008cc5780518252602082019150602081019050602083039250620008a7565b6001836020036101000a038019825116818451168082178552505050505050905001915050602060405180830381855afa1580156200090f573d6000803e3d6000fd5b5050506040513d60208110156200092557600080fd5b8101908080519060200190929190505050876002600481106200094457fe5b60200201516040516020018085805190602001908083835b602083106200098157805182526020820191506020810190506020830392506200095c565b6001836020036101000a03801982511681845116808217855250505050505090500184805190602001908083835b60208310620009d45780518252602082019150602081019050602083039250620009af565b6001836020036101000a03801982511681845116808217855250505050505090500183815260200182805190602001908083835b6020831062000a2d578051825260208201915060208101905060208303925062000a08565b6001836020036101000a038019825116818451168082178552505050505050905001945050505050604051602081830303815290604052805190602001206200179160201b60201c565b8199505050505050505050509392505050565b60008062000ab2731d3b2638a7cc9f2cb3d298a3da7a90b67e5506ed6200049360201b60201c565b111562000b5e57731d3b2638a7cc9f2cb3d298a3da7a90b67e5506ed600260006101000a81548173ffffffffffffffffffffffffffffffffffffffff021916908373ffffffffffffffffffffffffffffffffffffffff16021790555062000b546040518060400160405280600b81526020017f6574685f6d61696e6e6574000000000000000000000000000000000000000000815250620017ad60201b60201c565b6001905062001056565b600062000b8573c03a2615d5efaf5f49f60b7bb6583eaec212fdf16200049360201b60201c565b111562000c315773c03a2615d5efaf5f49f60b7bb6583eaec212fdf1600260006101000a81548173ffffffffffffffffffffffffffffffffffffffff021916908373ffffffffffffffffffffffffffffffffffffffff16021790555062000c276040518060400160405280600c81526020017f6574685f726f707374656e330000000000000000000000000000000000000000815250620017ad60201b60201c565b6001905062001056565b600062000c5873b7a07bcf2ba2f2703b24c0691b5278999c59ac7e6200049360201b60201c565b111562000d045773b7a07bcf2ba2f2703b24c0691b5278999c59ac7e600260006101000a81548173ffffffffffffffffffffffffffffffffffffffff021916908373ffffffffffffffffffffffffffffffffffffffff16021790555062000cfa6040518060400160405280600981526020017f6574685f6b6f76616e0000000000000000000000000000000000000000000000815250620017ad60201b60201c565b6001905062001056565b600062000d2b73146500cfd35b22e4a392fe0adc06de1a1368ed486200049360201b60201c565b111562000dd75773146500cfd35b22e4a392fe0adc06de1a1368ed48600260006101000a81548173ffffffffffffffffffffffffffffffffffffffff021916908373ffffffffffffffffffffffffffffffffffffffff16021790555062000dcd6040518060400160405280600b81526020017f6574685f72696e6b656279000000000000000000000000000000000000000000815250620017ad60201b60201c565b6001905062001056565b600062000dfe73a2998efd205fb9d4b4963afb70778d6354ad3a416200049360201b60201c565b111562000eaa5773a2998efd205fb9d4b4963afb70778d6354ad3a41600260006101000a81548173ffffffffffffffffffffffffffffffffffffffff021916908373ffffffffffffffffffffffffffffffffffffffff16021790555062000ea06040518060400160405280600a81526020017f6574685f676f65726c6900000000000000000000000000000000000000000000815250620017ad60201b60201c565b6001905062001056565b600062000ed1736f485c8bf6fc43ea212e93bbf8ce046c7f1cb4756200049360201b60201c565b111562000f3757736f485c8bf6fc43ea212e93bbf8ce046c7f1cb475600260006101000a81548173ffffffffffffffffffffffffffffffffffffffff021916908373ffffffffffffffffffffffffffffffffffffffff1602179055506001905062001056565b600062000f5e7320e12a1f859b3feae5fb2a0a32c18f5a65555bbf6200049360201b60201c565b111562000fc4577320e12a1f859b3feae5fb2a0a32c18f5a65555bbf600260006101000a81548173ffffffffffffffffffffffffffffffffffffffff021916908373ffffffffffffffffffffffffffffffffffffffff1602179055506001905062001056565b600062000feb7351efaf4c8b3c9afbd5ab9f4bbc82784ab6ef8faa6200049360201b60201c565b111562001051577351efaf4c8b3c9afbd5ab9f4bbc82784ab6ef8faa600260006101000a81548173ffffffffffffffffffffffffffffffffffffffff021916908373ffffffffffffffffffffffffffffffffffffffff1602179055506001905062001056565b600090505b90565b60008073ffffffffffffffffffffffffffffffffffffffff16600260009054906101000a900473ffffffffffffffffffffffffffffffffffffffff1673ffffffffffffffffffffffffffffffffffffffff161480620010ea57506000620010e8600260009054906101000a900473ffffffffffffffffffffffffffffffffffffffff166200049360201b60201c565b145b1562001104576200110260006200049e60201b60201c565b505b600260009054906101000a900473ffffffffffffffffffffffffffffffffffffffff1673ffffffffffffffffffffffffffffffffffffffff166338cc48316040518163ffffffff1660e01b8152600401602060405180830381600087803b1580156200116f57600080fd5b505af115801562001184573d6000803e3d6000fd5b505050506040513d60208110156200119b57600080fd5b810190808051906020019092919050505073ffffffffffffffffffffffffffffffffffffffff16600160009054906101000a900473ffffffffffffffffffffffffffffffffffffffff1673ffffffffffffffffffffffffffffffffffffffff1614620012ea57600260009054906101000a900473ffffffffffffffffffffffffffffffffffffffff1673ffffffffffffffffffffffffffffffffffffffff166338cc48316040518163ffffffff1660e01b8152600401602060405180830381600087803b1580156200126c57600080fd5b505af115801562001281573d6000803e3d6000fd5b505050506040513d60208110156200129857600080fd5b8101908080519060200190929190505050600160006101000a81548173ffffffffffffffffffffffffffffffffffffffff021916908373ffffffffffffffffffffffffffffffffffffffff1602179055505b600160009054906101000a900473ffffffffffffffffffffffffffffffffffffffff1673ffffffffffffffffffffffffffffffffffffffff1663abaa5f3e6040518163ffffffff1660e01b815260040160206040518083038186803b1580156200135357600080fd5b505afa15801562001368573d6000803e3d6000fd5b505050506040513d60208110156200137f57600080fd5b8101908080519060200190929190505050905090565b6060600082850190508084511015620013ad57600080fd5b600086602001905060008460200190505b868860200101821015620013e85781890151808288015250602082019150602081019050620013be565b85935050505095945050505050565b60008073ffffffffffffffffffffffffffffffffffffffff16600260009054906101000a900473ffffffffffffffffffffffffffffffffffffffff1673ffffffffffffffffffffffffffffffffffffffff161480620014885750600062001486600260009054906101000a900473ffffffffffffffffffffffffffffffffffffffff166200049360201b60201c565b145b15620014a257620014a060006200049e60201b60201c565b505b600260009054906101000a900473ffffffffffffffffffffffffffffffffffffffff1673ffffffffffffffffffffffffffffffffffffffff166338cc48316040518163ffffffff1660e01b8152600401602060405180830381600087803b1580156200150d57600080fd5b505af115801562001522573d6000803e3d6000fd5b505050506040513d60208110156200153957600080fd5b810190808051906020019092919050505073ffffffffffffffffffffffffffffffffffffffff16600160009054906101000a900473ffffffffffffffffffffffffffffffffffffffff1673ffffffffffffffffffffffffffffffffffffffff16146200168857600260009054906101000a900473ffffffffffffffffffffffffffffffffffffffff1673ffffffffffffffffffffffffffffffffffffffff166338cc48316040518163ffffffff1660e01b8152600401602060405180830381600087803b1580156200160a57600080fd5b505af11580156200161f573d6000803e3d6000fd5b505050506040513d60208110156200163657600080fd5b8101908080519060200190929190505050600160006101000a81548173ffffffffffffffffffffffffffffffffffffffff021916908373ffffffffffffffffffffffffffffffffffffffff1602179055505b60606004604051908082528060200260200182016040528015620016c157816020015b6060815260200190600190039081620016ab5790505b50905083600060048110620016d257fe5b602002015181600081518110620016e557fe5b602002602001018190525083600160048110620016fe57fe5b6020020151816001815181106200171157fe5b6020026020010181905250836002600481106200172a57fe5b6020020151816002815181106200173d57fe5b6020026020010181905250836003600481106200175657fe5b6020020151816003815181106200176957fe5b602002602001018190525062001787858285620017c960201b60201c565b9150509392505050565b8060046000848152602001908152602001600020819055505050565b8060039080519060200190620017c592919062002281565b5050565b60008073ffffffffffffffffffffffffffffffffffffffff16600260009054906101000a900473ffffffffffffffffffffffffffffffffffffffff1673ffffffffffffffffffffffffffffffffffffffff1614806200185a5750600062001858600260009054906101000a900473ffffffffffffffffffffffffffffffffffffffff166200049360201b60201c565b145b1562001874576200187260006200049e60201b60201c565b505b600260009054906101000a900473ffffffffffffffffffffffffffffffffffffffff1673ffffffffffffffffffffffffffffffffffffffff166338cc48316040518163ffffffff1660e01b8152600401602060405180830381600087803b158015620018df57600080fd5b505af1158015620018f4573d6000803e3d6000fd5b505050506040513d60208110156200190b57600080fd5b810190808051906020019092919050505073ffffffffffffffffffffffffffffffffffffffff16600160009054906101000a900473ffffffffffffffffffffffffffffffffffffffff1673ffffffffffffffffffffffffffffffffffffffff161462001a5a57600260009054906101000a900473ffffffffffffffffffffffffffffffffffffffff1673ffffffffffffffffffffffffffffffffffffffff166338cc48316040518163ffffffff1660e01b8152600401602060405180830381600087803b158015620019dc57600080fd5b505af1158015620019f1573d6000803e3d6000fd5b505050506040513d602081101562001a0857600080fd5b8101908080519060200190929190505050600160006101000a81548173ffffffffffffffffffffffffffffffffffffffff021916908373ffffffffffffffffffffffffffffffffffffffff1602179055505b6000600160009054906101000a900473ffffffffffffffffffffffffffffffffffffffff1673ffffffffffffffffffffffffffffffffffffffff16632ef3accc86856040518363ffffffff1660e01b81526004018080602001838152602001828103825284818151815260200191508051906020019080838360005b8381101562001af357808201518184015260208101905062001ad6565b50505050905090810190601f16801562001b215780820380516001836020036101000a031916815260200191505b509350505050602060405180830381600087803b15801562001b4257600080fd5b505af115801562001b57573d6000803e3d6000fd5b505050506040513d602081101562001b6e57600080fd5b81019080805190602001909291905050509050823a02670de0b6b3a76400000181111562001ba3576000801b91505062001d5a565b606062001bb68562001d6160201b60201c565b9050600160009054906101000a900473ffffffffffffffffffffffffffffffffffffffff1673ffffffffffffffffffffffffffffffffffffffff1663c55c1cb68360008985896040518663ffffffff1660e01b8152600401808581526020018060200180602001848152602001838103835286818151815260200191508051906020019080838360005b8381101562001c5d57808201518184015260208101905062001c40565b50505050905090810190601f16801562001c8b5780820380516001836020036101000a031916815260200191505b50838103825285818151815260200191508051906020019080838360005b8381101562001cc657808201518184015260208101905062001ca9565b50505050905090810190601f16801562001cf45780820380516001836020036101000a031916815260200191505b5096505050505050506020604051808303818588803b15801562001d1757600080fd5b505af115801562001d2c573d6000803e3d6000fd5b50505050506040513d602081101562001d4457600080fd5b8101908080519060200190929190505050925050505b9392505050565b606062001d7362001e1c60201b60201c565b62001d7d62002308565b62001d968161040062001e2860201b62004bcb1760201c565b62001dac8162001e7560201b62004c151760201c565b60008090505b835181101562001df85762001dea84828151811062001dcd57fe5b60200260200101518362001e8b60201b62004c231790919060201c565b808060010191505062001db2565b5062001e0f8162001ebf60201b62004c481760201c565b8060000151915050919050565b60405180590338823950565b600081905060006020828162001e3a57fe5b061462001e55576020818162001e4c57fe5b06602003810190505b808360200181815250506040518084526000815281810160405250505050565b62001e8881600462001ed560201b60201c565b50565b62001ea0826002835162001efd60201b60201c565b62001eba81836200208560201b62004db71790919060201c565b505050565b62001ed281600762001ed560201b60201c565b50565b62001ef9601f60058360ff16901b17836200214560201b62004e621790919060201c565b5050565b6017811162001f325762001f2c8160058460ff16901b60ff1617846200214560201b62004e621790919060201c565b62002080565b60ff811162001f835762001f5f601860058460ff16901b17846200214560201b62004e621790919060201c565b62001f7c816001856200218e60201b62004ea2179092919060201c565b506200207f565b61ffff811162001fd55762001fb1601960058460ff16901b17846200214560201b62004e621790919060201c565b62001fce816002856200218e60201b62004ea2179092919060201c565b506200207e565b63ffffffff8111620020295762002005601a60058460ff16901b17846200214560201b62004e621790919060201c565b62002022816004856200218e60201b62004ea2179092919060201c565b506200207d565b67ffffffffffffffff81116200207c576200205d601b60058460ff16901b17846200214560201b62004e621790919060201c565b6200207a816008856200218e60201b62004ea2179092919060201c565b505b5b5b5b5b505050565b6200208f62002308565b82602001518360000151518351011115620020d057620020cf836002620020c2866020015186516200220860201b60201c565b026200222660201b60201c565b5b60008060008451905085518051602081830101945086518101825260208701935050505b60208110620021195781518352602083019250602082019150602081039050620020f4565b60006001826020036101000a039050801983511681855116818117865250508694505050505092915050565b816020015160018360000151510111156200217457620021738260028460200151026200222660201b60201c565b5b815180516020818301018381536001820183525050505050565b6200219862002308565b836020015184600001515183011115620021d757620021d6846002620021c98760200151866200220860201b60201c565b026200222660201b60201c565b5b60006001836101000a0390508451805184818301018684198251161781528582018352505050849150509392505050565b6000818311156200221c5782905062002220565b8190505b92915050565b60608260000151905062002241838362001e2860201b60201c565b6200225383826200208560201b60201c565b50505050565b60405180608001604052806004905b6060815260200190600190039081620022685790505090565b828054600181600116156101000203166002900490600052602060002090601f016020900481019282601f10620022c457805160ff1916838001178555620022f5565b82800160010185558215620022f5579182015b82811115620022f4578251825591602001919060010190620022d7565b5b50905062002304919062002322565b5090565b604051806040016040528060608152602001600081525090565b6200234791905b808211156200234357600081600090555060010162002329565b5090565b90565b6151c6806200235a6000396000f3fe6080604052600436106100fe5760003560e01c80638da5cb5b11610095578063a95783b511610064578063a95783b5146105fa578063b93dab0b1461065f578063bd097e211461068a578063f2fde38b14610694578063f6b4dfb4146106e5576100fe565b80638da5cb5b14610510578063958f85bd146105675780639da9df3e146105c5578063a2e62045146105dc576100fe565b806327e235e3116100d157806327e235e3146102b057806338bbfa50146103155780634eb393c61461047e5780635fd8c710146104f9576100fe565b806311610c251461010357806312065fe01461010d57806322af00fa1461013857806327dc297e146101de575b600080fd5b61010b61073c565b005b34801561011957600080fd5b50610122610dbf565b6040518082815260200191505060405180910390f35b34801561014457600080fd5b506101716004803603602081101561015b57600080fd5b8101908080359060200190929190505050610e06565b604051808781526020018673ffffffffffffffffffffffffffffffffffffffff1673ffffffffffffffffffffffffffffffffffffffff1681526020018581526020018481526020018315151515815260200182151515158152602001965050505050505060405180910390f35b3480156101ea57600080fd5b506102ae6004803603604081101561020157600080fd5b81019080803590602001909291908035906020019064010000000081111561022857600080fd5b82018360208201111561023a57600080fd5b8035906020019184600183028401116401000000008311171561025c57600080fd5b91908080601f016020809104026020016040519081016040528093929190818152602001838380828437600081840152601f19601f820116905080830192505050505050509192919290505050610e89565b005b3480156102bc57600080fd5b506102ff600480360360208110156102d357600080fd5b81019080803573ffffffffffffffffffffffffffffffffffffffff169060200190929190505050610ecc565b6040518082815260200191505060405180910390f35b34801561032157600080fd5b5061047c6004803603606081101561033857600080fd5b81019080803590602001909291908035906020019064010000000081111561035f57600080fd5b82018360208201111561037157600080fd5b8035906020019184600183028401116401000000008311171561039357600080fd5b91908080601f016020809104026020016040519081016040528093929190818152602001838380828437600081840152601f19601f820116905080830192505050505050509192919290803590602001906401000000008111156103f657600080fd5b82018360208201111561040857600080fd5b8035906020019184600183028401116401000000008311171561042a57600080fd5b91908080601f016020809104026020016040519081016040528093929190818152602001838380828437600081840152601f19601f820116905080830192505050505050509192919290505050610ee4565b005b34801561048a57600080fd5b506104b7600480360360208110156104a157600080fd5b810190808035906020019092919050505061132f565b604051808273ffffffffffffffffffffffffffffffffffffffff1673ffffffffffffffffffffffffffffffffffffffff16815260200191505060405180910390f35b34801561050557600080fd5b5061050e611362565b005b34801561051c57600080fd5b506105256114ea565b604051808273ffffffffffffffffffffffffffffffffffffffff1673ffffffffffffffffffffffffffffffffffffffff16815260200191505060405180910390f35b34801561057357600080fd5b5061057c61150f565b604051808373ffffffffffffffffffffffffffffffffffffffff1673ffffffffffffffffffffffffffffffffffffffff1681526020018281526020019250505060405180910390f35b3480156105d157600080fd5b506105da611577565b005b6105e4611789565b6040518082815260200191505060405180910390f35b34801561060657600080fd5b506106496004803603602081101561061d57600080fd5b81019080803573ffffffffffffffffffffffffffffffffffffffff1690602001909291905050506117fc565b6040518082815260200191505060405180910390f35b34801561066b57600080fd5b50610674611814565b6040518082815260200191505060405180910390f35b610692611821565b005b3480156106a057600080fd5b506106e3600480360360208110156106b757600080fd5b81019080803573ffffffffffffffffffffffffffffffffffffffff169060200190929190505050611a4c565b005b3480156106f157600080fd5b506106fa611b6e565b604051808273ffffffffffffffffffffffffffffffffffffffff1673ffffffffffffffffffffffffffffffffffffffff16815260200191505060405180910390f35b662386f26fc100008034101561079d576040517f08c379a00000000000000000000000000000000000000000000000000000000081526004018080602001828103825260278152602001806150926027913960400191505060405180910390fd5b674563918244f400003411156107fe576040517f08c379a00000000000000000000000000000000000000000000000000000000081526004018080602001828103825260218152602001806150fb6021913960400191505060405180910390fd5b3334808273ffffffffffffffffffffffffffffffffffffffff16311015610870576040517f08c379a000000000000000000000000000000000000000000000000000000000815260040180806020018281038252603581526020018061505d6035913960400191505060405180910390fd5b600660009054906101000a900473ffffffffffffffffffffffffffffffffffffffff1634808273ffffffffffffffffffffffffffffffffffffffff16311015610904576040517f08c379a000000000000000000000000000000000000000000000000000000000815260040180806020018281038252603581526020018061505d6035913960400191505060405180910390fd5b60006109446040518060400160405280600681526020017f52616e646f6d0000000000000000000000000000000000000000000000000000815250611b94565b905060086000600660009054906101000a900473ffffffffffffffffffffffffffffffffffffffff1673ffffffffffffffffffffffffffffffffffffffff1673ffffffffffffffffffffffffffffffffffffffff1681526020019081526020016000205481106109b357600080fd5b60006109c88234611f2890919063ffffffff16565b9050610a3e8160086000600660009054906101000a900473ffffffffffffffffffffffffffffffffffffffff1673ffffffffffffffffffffffffffffffffffffffff1673ffffffffffffffffffffffffffffffffffffffff16815260200190815260200160002054611f7290919063ffffffff16565b60086000600660009054906101000a900473ffffffffffffffffffffffffffffffffffffffff1673ffffffffffffffffffffffffffffffffffffffff1673ffffffffffffffffffffffffffffffffffffffff168152602001908152602001600020819055506000610aad611789565b90506000600160076040518060c001604052808581526020013373ffffffffffffffffffffffffffffffffffffffff16815260200134815260200186815260200160001515815260200160011515815250908060018154018082558091505090600182039060005260206000209060050201600090919290919091506000820151816000015560208201518160010160006101000a81548173ffffffffffffffffffffffffffffffffffffffff021916908373ffffffffffffffffffffffffffffffffffffffff160217905550604082015181600201556060820151816003015560808201518160040160006101000a81548160ff02191690831515021790555060a08201518160040160016101000a81548160ff0219169083151502179055505050039050336009600083815260200190815260200160002060006101000a81548173ffffffffffffffffffffffffffffffffffffffff021916908373ffffffffffffffffffffffffffffffffffffffff160217905550610c786001600a60003373ffffffffffffffffffffffffffffffffffffffff1673ffffffffffffffffffffffffffffffffffffffff16815260200190815260200160002054611f7290919063ffffffff16565b600a60003373ffffffffffffffffffffffffffffffffffffffff1673ffffffffffffffffffffffffffffffffffffffff168152602001908152602001600020819055503373ffffffffffffffffffffffffffffffffffffffff167fcd5f79909b53eb4c55b0a2d7004914519bad1e3ade1b3dae6005d528d83da31e8385604051808381526020018281526020019250505060405180910390a2600660009054906101000a900473ffffffffffffffffffffffffffffffffffffffff1673ffffffffffffffffffffffffffffffffffffffff163160086000600660009054906101000a900473ffffffffffffffffffffffffffffffffffffffff1673ffffffffffffffffffffffffffffffffffffffff1673ffffffffffffffffffffffffffffffffffffffff1681526020019081526020016000205414610db457fe5b505050505050505050565b6000600860003373ffffffffffffffffffffffffffffffffffffffff1673ffffffffffffffffffffffffffffffffffffffff16815260200190815260200160002054905090565b60078181548110610e1357fe5b90600052602060002090600502016000915090508060000154908060010160009054906101000a900473ffffffffffffffffffffffffffffffffffffffff16908060020154908060030154908060040160009054906101000a900460ff16908060040160019054906101000a900460ff16905086565b610ec8828260006040519080825280601f01601f191660200182016040528015610ec25781602001600182028038833980820191505090505b50610ee4565b5050565b60086020528060005260406000206000915090505481565b610eec611ffa565b73ffffffffffffffffffffffffffffffffffffffff163373ffffffffffffffffffffffffffffffffffffffff1614610f2357600080fd5b6000610f3084848461231a565b60ff1614610f90577f81816b50aae098d98a0f7930cfef379261913e37ed33759052b5eff95fbb8d5f836040518082815260200180602001828103825260218152602001806150b9602191396040019250505060405180910390a161132a565b60006001806101000a039050600081846040516020018082805190602001908083835b60208310610fd65780518252602082019150602081019050602083039250610fb3565b6001836020036101000a0380198251168184511680821785525050505050509050019150506040516020818303038152906040528051906020012060001c8161101b57fe5b06905060008090505b6007805490508110156113265760006007828154811061104057fe5b906000526020600020906005020190508681600001541480156110785750600115158160040160019054906101000a900460ff161515145b156113185760008160040160016101000a81548160ff0219169083151502179055506080831161115f5760008160040160006101000a81548160ff0219169083151502179055508060010160009054906101000a900473ffffffffffffffffffffffffffffffffffffffff1673ffffffffffffffffffffffffffffffffffffffff167f0948ef2cfa8c16c7422087516e87bcd3f20c04fe0409205ee89a8b70a1059e918883600201548460040160009054906101000a900460ff166040518084815260200183815260200182151515158152602001935050505060405180910390a2611317565b608183106113165760018160040160006101000a81548160ff021916908315150217905550600061119e6002836003015461244a90919063ffffffff16565b905061121681600860008560010160009054906101000a900473ffffffffffffffffffffffffffffffffffffffff1673ffffffffffffffffffffffffffffffffffffffff1673ffffffffffffffffffffffffffffffffffffffff16815260200190815260200160002054611f7290919063ffffffff16565b600860008460010160009054906101000a900473ffffffffffffffffffffffffffffffffffffffff1673ffffffffffffffffffffffffffffffffffffffff1673ffffffffffffffffffffffffffffffffffffffff168152602001908152602001600020819055508160010160009054906101000a900473ffffffffffffffffffffffffffffffffffffffff1673ffffffffffffffffffffffffffffffffffffffff167f0948ef2cfa8c16c7422087516e87bcd3f20c04fe0409205ee89a8b70a1059e9189838560040160009054906101000a900460ff166040518084815260200183815260200182151515158152602001935050505060405180910390a2505b5b5b508080600101915050611024565b5050505b505050565b60096020528060005260406000206000915054906101000a900473ffffffffffffffffffffffffffffffffffffffff1681565b6000600860003373ffffffffffffffffffffffffffffffffffffffff1673ffffffffffffffffffffffffffffffffffffffff1681526020019081526020016000205411611417576040517f08c379a000000000000000000000000000000000000000000000000000000000815260040180806020018281038252601e8152602001807f546865726520617265206e6f2066756e647320746f207769746864726177000081525060200191505060405180910390fd5b6000600860003373ffffffffffffffffffffffffffffffffffffffff1673ffffffffffffffffffffffffffffffffffffffff1681526020019081526020016000205490506000600860003373ffffffffffffffffffffffffffffffffffffffff1673ffffffffffffffffffffffffffffffffffffffff168152602001908152602001600020819055503373ffffffffffffffffffffffffffffffffffffffff166108fc829081150290604051600060405180830381858888f193505050501580156114e6573d6000803e3d6000fd5b5050565b6000809054906101000a900473ffffffffffffffffffffffffffffffffffffffff1681565b600080600660009054906101000a900473ffffffffffffffffffffffffffffffffffffffff16600660009054906101000a900473ffffffffffffffffffffffffffffffffffffffff1673ffffffffffffffffffffffffffffffffffffffff1631915091509091565b6000809054906101000a900473ffffffffffffffffffffffffffffffffffffffff1673ffffffffffffffffffffffffffffffffffffffff163373ffffffffffffffffffffffffffffffffffffffff161461161c576040517f08c379a000000000000000000000000000000000000000000000000000000000815260040180806020018281038252602e81526020018061502f602e913960400191505060405180910390fd5b6000809054906101000a900473ffffffffffffffffffffffffffffffffffffffff1673ffffffffffffffffffffffffffffffffffffffff163373ffffffffffffffffffffffffffffffffffffffff161461167257fe5b600060086000600660009054906101000a900473ffffffffffffffffffffffffffffffffffffffff1673ffffffffffffffffffffffffffffffffffffffff1673ffffffffffffffffffffffffffffffffffffffff168152602001908152602001600020549050600060086000600660009054906101000a900473ffffffffffffffffffffffffffffffffffffffff1673ffffffffffffffffffffffffffffffffffffffff1673ffffffffffffffffffffffffffffffffffffffff168152602001908152602001600020819055503373ffffffffffffffffffffffffffffffffffffffff166108fc829081150290604051600060405180830381858888f19350505050158015611785573d6000803e3d6000fd5b5050565b60008060009050600062030d40905060006117a6836001846124d0565b90507fc4dc360d0a9c0677a3379ae0a3d81e887f761e65fdf3d7e00859d1bcd3c4738960405180806020018281038252603681526020018061515c6036913960400191505060405180910390a180935050505090565b600a6020528060005260406000206000915090505481565b6000600780549050905090565b6000809054906101000a900473ffffffffffffffffffffffffffffffffffffffff1673ffffffffffffffffffffffffffffffffffffffff163373ffffffffffffffffffffffffffffffffffffffff16146118c6576040517f08c379a000000000000000000000000000000000000000000000000000000000815260040180806020018281038252602e81526020018061502f602e913960400191505060405180910390fd5b3334808273ffffffffffffffffffffffffffffffffffffffff16311015611938576040517f08c379a000000000000000000000000000000000000000000000000000000000815260040180806020018281038252603581526020018061505d6035913960400191505060405180910390fd5b6119ac3460086000600660009054906101000a900473ffffffffffffffffffffffffffffffffffffffff1673ffffffffffffffffffffffffffffffffffffffff1673ffffffffffffffffffffffffffffffffffffffff16815260200190815260200160002054611f7290919063ffffffff16565b60086000600660009054906101000a900473ffffffffffffffffffffffffffffffffffffffff1673ffffffffffffffffffffffffffffffffffffffff1673ffffffffffffffffffffffffffffffffffffffff168152602001908152602001600020819055507f932461ba6e96b11d9e6e7794a08b1d4a8e6dfd4f1f2d93be10af806b75431e74346040518082815260200191505060405180910390a15050565b6000809054906101000a900473ffffffffffffffffffffffffffffffffffffffff1673ffffffffffffffffffffffffffffffffffffffff163373ffffffffffffffffffffffffffffffffffffffff1614611af1576040517f08c379a000000000000000000000000000000000000000000000000000000000815260040180806020018281038252602e81526020018061502f602e913960400191505060405180910390fd5b600073ffffffffffffffffffffffffffffffffffffffff168173ffffffffffffffffffffffffffffffffffffffff161415611b2b57600080fd5b806000806101000a81548173ffffffffffffffffffffffffffffffffffffffff021916908373ffffffffffffffffffffffffffffffffffffffff16021790555050565b600660009054906101000a900473ffffffffffffffffffffffffffffffffffffffff1681565b60008073ffffffffffffffffffffffffffffffffffffffff16600260009054906101000a900473ffffffffffffffffffffffffffffffffffffffff1673ffffffffffffffffffffffffffffffffffffffff161480611c1c57506000611c1a600260009054906101000a900473ffffffffffffffffffffffffffffffffffffffff16612a6b565b145b15611c2d57611c2b6000612a76565b505b600260009054906101000a900473ffffffffffffffffffffffffffffffffffffffff1673ffffffffffffffffffffffffffffffffffffffff166338cc48316040518163ffffffff1660e01b8152600401602060405180830381600087803b158015611c9757600080fd5b505af1158015611cab573d6000803e3d6000fd5b505050506040513d6020811015611cc157600080fd5b810190808051906020019092919050505073ffffffffffffffffffffffffffffffffffffffff16600160009054906101000a900473ffffffffffffffffffffffffffffffffffffffff1673ffffffffffffffffffffffffffffffffffffffff1614611e0c57600260009054906101000a900473ffffffffffffffffffffffffffffffffffffffff1673ffffffffffffffffffffffffffffffffffffffff166338cc48316040518163ffffffff1660e01b8152600401602060405180830381600087803b158015611d9057600080fd5b505af1158015611da4573d6000803e3d6000fd5b505050506040513d6020811015611dba57600080fd5b8101908080519060200190929190505050600160006101000a81548173ffffffffffffffffffffffffffffffffffffffff021916908373ffffffffffffffffffffffffffffffffffffffff1602179055505b600160009054906101000a900473ffffffffffffffffffffffffffffffffffffffff1673ffffffffffffffffffffffffffffffffffffffff1663524f3889836040518263ffffffff1660e01b81526004018080602001828103825283818151815260200191508051906020019080838360005b83811015611e9a578082015181840152602081019050611e7f565b50505050905090810190601f168015611ec75780820380516001836020036101000a031916815260200191505b5092505050602060405180830381600087803b158015611ee657600080fd5b505af1158015611efa573d6000803e3d6000fd5b505050506040513d6020811015611f1057600080fd5b81019080805190602001909291905050509050919050565b6000611f6a83836040518060400160405280601e81526020017f536166654d6174683a207375627472616374696f6e206f766572666c6f770000815250612a87565b905092915050565b600080828401905083811015611ff0576040517f08c379a000000000000000000000000000000000000000000000000000000000815260040180806020018281038252601b8152602001807f536166654d6174683a206164646974696f6e206f766572666c6f77000000000081525060200191505060405180910390fd5b8091505092915050565b60008073ffffffffffffffffffffffffffffffffffffffff16600260009054906101000a900473ffffffffffffffffffffffffffffffffffffffff1673ffffffffffffffffffffffffffffffffffffffff16148061208257506000612080600260009054906101000a900473ffffffffffffffffffffffffffffffffffffffff16612a6b565b145b15612093576120916000612a76565b505b600260009054906101000a900473ffffffffffffffffffffffffffffffffffffffff1673ffffffffffffffffffffffffffffffffffffffff166338cc48316040518163ffffffff1660e01b8152600401602060405180830381600087803b1580156120fd57600080fd5b505af1158015612111573d6000803e3d6000fd5b505050506040513d602081101561212757600080fd5b810190808051906020019092919050505073ffffffffffffffffffffffffffffffffffffffff16600160009054906101000a900473ffffffffffffffffffffffffffffffffffffffff1673ffffffffffffffffffffffffffffffffffffffff161461227257600260009054906101000a900473ffffffffffffffffffffffffffffffffffffffff1673ffffffffffffffffffffffffffffffffffffffff166338cc48316040518163ffffffff1660e01b8152600401602060405180830381600087803b1580156121f657600080fd5b505af115801561220a573d6000803e3d6000fd5b505050506040513d602081101561222057600080fd5b8101908080519060200190929190505050600160006101000a81548173ffffffffffffffffffffffffffffffffffffffff021916908373ffffffffffffffffffffffffffffffffffffffff1602179055505b600160009054906101000a900473ffffffffffffffffffffffffffffffffffffffff1673ffffffffffffffffffffffffffffffffffffffff1663c281d19e6040518163ffffffff1660e01b815260040160206040518083038186803b1580156122da57600080fd5b505afa1580156122ee573d6000803e3d6000fd5b505050506040513d602081101561230457600080fd5b8101908080519060200190929190505050905090565b60007f4c000000000000000000000000000000000000000000000000000000000000008260008151811061234a57fe5b602001015160f81c60f81b7effffffffffffffffffffffffffffffffffffffffffffffffffffffffffffff19161415806123dd57507f5000000000000000000000000000000000000000000000000000000000000000826001815181106123ad57fe5b602001015160f81c60f81b7effffffffffffffffffffffffffffffffffffffffffffffffffffffffffffff191614155b806124095750600160ff16826002815181106123f557fe5b602001015160f81c60f81b60f81c60ff1614155b156124175760019050612443565b600061242c838686612427612b47565b612be9565b90508061243d576002915050612443565b60009150505b9392505050565b60008083141561245d57600090506124ca565b600082840290508284828161246e57fe5b04146124c5576040517f08c379a00000000000000000000000000000000000000000000000000000000081526004018080602001828103825260218152602001806150da6021913960400191505060405180910390fd5b809150505b92915050565b600080831180156124e2575060208311155b6124eb57600080fd5b600a84029350606060016040519080825280601f01601f1916602001820160405280156125275781602001600182028038833980820191505090505b5090508360f81b8160008151811061253b57fe5b60200101907effffffffffffffffffffffffffffffffffffffffffffffffffffffffffffff1916908160001a905350606060206040519080825280601f01601f1916602001820160405280156125a05781602001600182028038833980820191505090505b509050606060206040519080825280601f01601f1916602001820160405280156125d95781602001600182028038833980820191505090505b50905060006125e6613294565b905060208352424118600143034018602084015260208252806020830152606060206040519080825280601f01601f19166020018201604052801561263a5781602001600182028038833980820191505090505b509050886020820152606060086040519080825280601f01601f1916602001820160405280156126795781602001600182028038833980820191505090505b50905061268c82601860088460006135b4565b50612695614f48565b604051806080016040528087815260200188815260200186815260200184815250905060006126fa6040518060400160405280600681526020017f72616e646f6d0000000000000000000000000000000000000000000000000000815250838c613613565b9050606060086040519080825280601f01601f1916602001820160405280156127325781602001600182028038833980820191505090505b50905060208401517f0100000000000000000000000000000000000000000000000000000000000000810460278301537e01000000000000000000000000000000000000000000000000000000000000810460268301537d010000000000000000000000000000000000000000000000000000000000810460258301537c0100000000000000000000000000000000000000000000000000000000810460248301537b01000000000000000000000000000000000000000000000000000000810460238301537a010000000000000000000000000000000000000000000000000000810460228301537901000000000000000000000000000000000000000000000000008104602183015378010000000000000000000000000000000000000000000000008104602083015350612a5882828560016004811061287157fe5b602002015160028760006004811061288557fe5b60200201516040518082805190602001908083835b602083106128bd578051825260208201915060208101905060208303925061289a565b6001836020036101000a038019825116818451168082178552505050505050905001915050602060405180830381855afa1580156128ff573d6000803e3d6000fd5b5050506040513d602081101561291457600080fd5b81019080805190602001909291905050508760026004811061293257fe5b60200201516040516020018085805190602001908083835b6020831061296d578051825260208201915060208101905060208303925061294a565b6001836020036101000a03801982511681845116808217855250505050505090500184805190602001908083835b602083106129be578051825260208201915060208101905060208303925061299b565b6001836020036101000a03801982511681845116808217855250505050505090500183815260200182805190602001908083835b60208310612a1557805182526020820191506020810190506020830392506129f2565b6001836020036101000a03801982511681845116808217855250505050505090500194505050505060405160208183030381529060405280519060200120613982565b8199505050505050505050509392505050565b6000813b9050919050565b6000612a8061399e565b9050919050565b6000838311158290612b34576040517f08c379a00000000000000000000000000000000000000000000000000000000081526004018080602001828103825283818151815260200191508051906020019080838360005b83811015612af9578082015181840152602081019050612ade565b50505050905090810190601f168015612b265780820380516001836020036101000a031916815260200191505b509250505060405180910390fd5b5060008385039050809150509392505050565b606060038054600181600116156101000203166002900480601f016020809104026020016040519081016040528092919081815260200182805460018160011615610100020316600290048015612bdf5780601f10612bb457610100808354040283529160200191612bdf565b820191906000526020600020905b815481529060010190602001808311612bc257829003601f168201915b5050505050905090565b6000806020600287604581518110612bfd57fe5b602001015160f81c60f81b60f81c60ff1601604401019050606060206040519080825280601f01601f191660200182016040528015612c4b5781602001600182028038833980820191505090505b509050612c5d878360208460006135b4565b50600284876040516020018083805190602001908083835b60208310612c985780518252602082019150602081019050602083039250612c75565b6001836020036101000a038019825116818451168082178552505050505050905001828152602001925050506040516020818303038152906040526040518082805190602001908083835b60208310612d065780518252602082019150602081019050602083039250612ce3565b6001836020036101000a038019825116818451168082178552505050505050905001915050602060405180830381855afa158015612d48573d6000803e3d6000fd5b5050506040513d6020811015612d5d57600080fd5b81019080805190602001909291905050506040516020018082815260200191505060405160208183030381529060405280519060200120818051906020012014612dac5760009250505061328c565b60606002886001604986010181518110612dc257fe5b602001015160f81c60f81b60f81c60ff16016040519080825280601f01601f191660200182016040528015612e065781602001600182028038833980820191505090505b509050612e1b886049850183518460006135b4565b50612ee66002826040518082805190602001908083835b60208310612e555780518252602082019150602081019050602083039250612e32565b6001836020036101000a038019825116818451168082178552505050505050905001915050602060405180830381855afa158015612e97573d6000803e3d6000fd5b5050506040513d6020811015612eac57600080fd5b8101908080519060200190929190505050878a6008602088010181518110612ed057fe5b602001015160f81c60f81b60f81c60ff16613ef5565b612ef6576000935050505061328c565b606060296040519080825280601f01601f191660200182016040528015612f2c5781602001600182028038833980820191505090505b509050612f41896020860160298460006135b4565b506060604080519080825280601f01601f191660200182016040528015612f775781602001600182028038833980820191505090505b5090506000604184516029602089010101019050612f9d8b6040830360408560006135b4565b5060006002836040518082805190602001908083835b60208310612fd65780518252602082019150602081019050602083039250612fb3565b6001836020036101000a038019825116818451168082178552505050505050905001915050602060405180830381855afa158015613018573d6000803e3d6000fd5b5050506040513d602081101561302d57600080fd5b8101908080519060200190929190505050905083816040516020018083805190602001908083835b602083106130785780518252602082019150602081019050602083039250613055565b6001836020036101000a0380198251168184511680821785525050505050509050018281526020019250505060405160208183030381529060405280519060200120600460008d81526020019081526020016000205414156130f057600460008c815260200190815260200160002060009055613100565b600097505050505050505061328c565b606060496040519080825280601f01601f1916602001820160405280156131365781602001600182028038833980820191505090505b5090506131488d8960498460006135b4565b506131f16002826040518082805190602001908083835b60208310613182578051825260208201915060208101905060208303925061315f565b6001836020036101000a038019825116818451168082178552505050505050905001915050602060405180830381855afa1580156131c4573d6000803e3d6000fd5b5050506040513d60208110156131d957600080fd5b81019080805190602001909291905050508786613fa5565b6132065760009850505050505050505061328c565b6005600083815260200190815260200160002060009054906101000a900460ff16613260576132358d84614163565b6005600084815260200190815260200160002060006101000a81548160ff0219169083151502179055505b6005600083815260200190815260200160002060009054906101000a900460ff16985050505050505050505b949350505050565b60008073ffffffffffffffffffffffffffffffffffffffff16600260009054906101000a900473ffffffffffffffffffffffffffffffffffffffff1673ffffffffffffffffffffffffffffffffffffffff16148061331c5750600061331a600260009054906101000a900473ffffffffffffffffffffffffffffffffffffffff16612a6b565b145b1561332d5761332b6000612a76565b505b600260009054906101000a900473ffffffffffffffffffffffffffffffffffffffff1673ffffffffffffffffffffffffffffffffffffffff166338cc48316040518163ffffffff1660e01b8152600401602060405180830381600087803b15801561339757600080fd5b505af11580156133ab573d6000803e3d6000fd5b505050506040513d60208110156133c157600080fd5b810190808051906020019092919050505073ffffffffffffffffffffffffffffffffffffffff16600160009054906101000a900473ffffffffffffffffffffffffffffffffffffffff1673ffffffffffffffffffffffffffffffffffffffff161461350c57600260009054906101000a900473ffffffffffffffffffffffffffffffffffffffff1673ffffffffffffffffffffffffffffffffffffffff166338cc48316040518163ffffffff1660e01b8152600401602060405180830381600087803b15801561349057600080fd5b505af11580156134a4573d6000803e3d6000fd5b505050506040513d60208110156134ba57600080fd5b8101908080519060200190929190505050600160006101000a81548173ffffffffffffffffffffffffffffffffffffffff021916908373ffffffffffffffffffffffffffffffffffffffff1602179055505b600160009054906101000a900473ffffffffffffffffffffffffffffffffffffffff1673ffffffffffffffffffffffffffffffffffffffff1663abaa5f3e6040518163ffffffff1660e01b815260040160206040518083038186803b15801561357457600080fd5b505afa158015613588573d6000803e3d6000fd5b505050506040513d602081101561359e57600080fd5b8101908080519060200190929190505050905090565b60606000828501905080845110156135cb57600080fd5b600086602001905060008460200190505b86886020010182101561360457818901518082880152506020820191506020810190506135dc565b85935050505095945050505050565b60008073ffffffffffffffffffffffffffffffffffffffff16600260009054906101000a900473ffffffffffffffffffffffffffffffffffffffff1673ffffffffffffffffffffffffffffffffffffffff16148061369b57506000613699600260009054906101000a900473ffffffffffffffffffffffffffffffffffffffff16612a6b565b145b156136ac576136aa6000612a76565b505b600260009054906101000a900473ffffffffffffffffffffffffffffffffffffffff1673ffffffffffffffffffffffffffffffffffffffff166338cc48316040518163ffffffff1660e01b8152600401602060405180830381600087803b15801561371657600080fd5b505af115801561372a573d6000803e3d6000fd5b505050506040513d602081101561374057600080fd5b810190808051906020019092919050505073ffffffffffffffffffffffffffffffffffffffff16600160009054906101000a900473ffffffffffffffffffffffffffffffffffffffff1673ffffffffffffffffffffffffffffffffffffffff161461388b57600260009054906101000a900473ffffffffffffffffffffffffffffffffffffffff1673ffffffffffffffffffffffffffffffffffffffff166338cc48316040518163ffffffff1660e01b8152600401602060405180830381600087803b15801561380f57600080fd5b505af1158015613823573d6000803e3d6000fd5b505050506040513d602081101561383957600080fd5b8101908080519060200190929190505050600160006101000a81548173ffffffffffffffffffffffffffffffffffffffff021916908373ffffffffffffffffffffffffffffffffffffffff1602179055505b606060046040519080825280602002602001820160405280156138c257816020015b60608152602001906001900390816138ad5790505b509050836000600481106138d257fe5b6020020151816000815181106138e457fe5b6020026020010181905250836001600481106138fc57fe5b60200201518160018151811061390e57fe5b60200260200101819052508360026004811061392657fe5b60200201518160028151811061393857fe5b60200260200101819052508360036004811061395057fe5b60200201518160038151811061396257fe5b602002602001018190525061397885828561457b565b9150509392505050565b8060046000848152602001908152602001600020819055505050565b6000806139be731d3b2638a7cc9f2cb3d298a3da7a90b67e5506ed612a6b565b1115613a6057731d3b2638a7cc9f2cb3d298a3da7a90b67e5506ed600260006101000a81548173ffffffffffffffffffffffffffffffffffffffff021916908373ffffffffffffffffffffffffffffffffffffffff160217905550613a576040518060400160405280600b81526020017f6574685f6d61696e6e6574000000000000000000000000000000000000000000815250614ae1565b60019050613ef2565b6000613a7f73c03a2615d5efaf5f49f60b7bb6583eaec212fdf1612a6b565b1115613b215773c03a2615d5efaf5f49f60b7bb6583eaec212fdf1600260006101000a81548173ffffffffffffffffffffffffffffffffffffffff021916908373ffffffffffffffffffffffffffffffffffffffff160217905550613b186040518060400160405280600c81526020017f6574685f726f707374656e330000000000000000000000000000000000000000815250614ae1565b60019050613ef2565b6000613b4073b7a07bcf2ba2f2703b24c0691b5278999c59ac7e612a6b565b1115613be25773b7a07bcf2ba2f2703b24c0691b5278999c59ac7e600260006101000a81548173ffffffffffffffffffffffffffffffffffffffff021916908373ffffffffffffffffffffffffffffffffffffffff160217905550613bd96040518060400160405280600981526020017f6574685f6b6f76616e0000000000000000000000000000000000000000000000815250614ae1565b60019050613ef2565b6000613c0173146500cfd35b22e4a392fe0adc06de1a1368ed48612a6b565b1115613ca35773146500cfd35b22e4a392fe0adc06de1a1368ed48600260006101000a81548173ffffffffffffffffffffffffffffffffffffffff021916908373ffffffffffffffffffffffffffffffffffffffff160217905550613c9a6040518060400160405280600b81526020017f6574685f72696e6b656279000000000000000000000000000000000000000000815250614ae1565b60019050613ef2565b6000613cc273a2998efd205fb9d4b4963afb70778d6354ad3a41612a6b565b1115613d645773a2998efd205fb9d4b4963afb70778d6354ad3a41600260006101000a81548173ffffffffffffffffffffffffffffffffffffffff021916908373ffffffffffffffffffffffffffffffffffffffff160217905550613d5b6040518060400160405280600a81526020017f6574685f676f65726c6900000000000000000000000000000000000000000000815250614ae1565b60019050613ef2565b6000613d83736f485c8bf6fc43ea212e93bbf8ce046c7f1cb475612a6b565b1115613de757736f485c8bf6fc43ea212e93bbf8ce046c7f1cb475600260006101000a81548173ffffffffffffffffffffffffffffffffffffffff021916908373ffffffffffffffffffffffffffffffffffffffff16021790555060019050613ef2565b6000613e067320e12a1f859b3feae5fb2a0a32c18f5a65555bbf612a6b565b1115613e6a577320e12a1f859b3feae5fb2a0a32c18f5a65555bbf600260006101000a81548173ffffffffffffffffffffffffffffffffffffffff021916908373ffffffffffffffffffffffffffffffffffffffff16021790555060019050613ef2565b6000613e897351efaf4c8b3c9afbd5ab9f4bbc82784ab6ef8faa612a6b565b1115613eed577351efaf4c8b3c9afbd5ab9f4bbc82784ab6ef8faa600260006101000a81548173ffffffffffffffffffffffffffffffffffffffff021916908373ffffffffffffffffffffffffffffffffffffffff16021790555060019050613ef2565b600090505b90565b6000806001905082845114613f0957600080fd5b60008090505b83811015613f9957848181518110613f2357fe5b602001015160f81c60f81b7effffffffffffffffffffffffffffffffffffffffffffffffffffffffffffff1916868260208110613f5c57fe5b1a60f81b7effffffffffffffffffffffffffffffffffffffffffffffffffffffffffffff191614613f8c57600091505b8080600101915050613f0f565b50809150509392505050565b6000806000806000606060206040519080825280601f01601f191660200182016040528015613fe35781602001600182028038833980820191505090505b5090506000602089600381518110613ff757fe5b602001015160f81c60f81b60f81c60ff1603600401905061401d898260208560006135b4565b9150606060206040519080825280601f01601f1916602001820160405280156140555781602001600182028038833980820191505090505b5090506022820191506140918a60208c600186038151811061407357fe5b602001015160f81c60f81b60f81c60ff1603840160208460006135b4565b905060208301519450602081015193506140ae8b601b8787614afb565b80975081985050508573ffffffffffffffffffffffffffffffffffffffff16898051906020012060001c73ffffffffffffffffffffffffffffffffffffffff16141561410457600197505050505050505061415c565b6141118b601c8787614afb565b80975081985050508573ffffffffffffffffffffffffffffffffffffffff16898051906020012060001c73ffffffffffffffffffffffffffffffffffffffff16149750505050505050505b9392505050565b6000806060600285600186018151811061417957fe5b602001015160f81c60f81b60f81c60ff16016040519080825280601f01601f1916602001820160405280156141bd5781602001600182028038833980820191505090505b5090506141cf858583518460006135b4565b506060604080519080825280601f01601f1916602001820160405280156142055781602001600182028038833980820191505090505b50905061421886600460408460006135b4565b50606060626040519080825280601f01601f19166020018201604052801561424f5781602001600182028038833980820191505090505b509050600160f81b8160008151811061426457fe5b60200101907effffffffffffffffffffffffffffffffffffffffffffffffffffffffffffff1916908160001a9053506142a5876041880360418460016135b4565b5060606040518060400160405280602081526020017ffd94fa71bc0ba10d39d464d0d8f465efeef0a2764e3887fcc9df41ded20f505c81525090506142f081600060208560426135b4565b506143996002836040518082805190602001908083835b6020831061432a5780518252602082019150602081019050602083039250614307565b6001836020036101000a038019825116818451168082178552505050505050905001915050602060405180830381855afa15801561436c573d6000803e3d6000fd5b5050506040513d602081101561438157600080fd5b81019080805190602001909291905050508585613fa5565b9450846143ae57600095505050505050614575565b606060405180606001604052806040815260200161511c604091399050606060426040519080825280601f01601f1916602001820160405280156144015781602001600182028038833980820191505090505b50905060fe60f81b8160008151811061441657fe5b60200101907effffffffffffffffffffffffffffffffffffffffffffffffffffffffffffff1916908160001a9053506144558a600360418460016135b4565b50606060028b60458151811061446757fe5b602001015160f81c60f81b60f81c60ff16016040519080825280601f01601f1916602001820160405280156144ab5781602001600182028038833980820191505090505b5090506144be8b604483518460006135b4565b506145676002836040518082805190602001908083835b602083106144f857805182526020820191506020810190506020830392506144d5565b6001836020036101000a038019825116818451168082178552505050505050905001915050602060405180830381855afa15801561453a573d6000803e3d6000fd5b5050506040513d602081101561454f57600080fd5b81019080805190602001909291905050508285613fa5565b975087985050505050505050505b92915050565b60008073ffffffffffffffffffffffffffffffffffffffff16600260009054906101000a900473ffffffffffffffffffffffffffffffffffffffff1673ffffffffffffffffffffffffffffffffffffffff16148061460357506000614601600260009054906101000a900473ffffffffffffffffffffffffffffffffffffffff16612a6b565b145b15614614576146126000612a76565b505b600260009054906101000a900473ffffffffffffffffffffffffffffffffffffffff1673ffffffffffffffffffffffffffffffffffffffff166338cc48316040518163ffffffff1660e01b8152600401602060405180830381600087803b15801561467e57600080fd5b505af1158015614692573d6000803e3d6000fd5b505050506040513d60208110156146a857600080fd5b810190808051906020019092919050505073ffffffffffffffffffffffffffffffffffffffff16600160009054906101000a900473ffffffffffffffffffffffffffffffffffffffff1673ffffffffffffffffffffffffffffffffffffffff16146147f357600260009054906101000a900473ffffffffffffffffffffffffffffffffffffffff1673ffffffffffffffffffffffffffffffffffffffff166338cc48316040518163ffffffff1660e01b8152600401602060405180830381600087803b15801561477757600080fd5b505af115801561478b573d6000803e3d6000fd5b505050506040513d60208110156147a157600080fd5b8101908080519060200190929190505050600160006101000a81548173ffffffffffffffffffffffffffffffffffffffff021916908373ffffffffffffffffffffffffffffffffffffffff1602179055505b6000600160009054906101000a900473ffffffffffffffffffffffffffffffffffffffff1673ffffffffffffffffffffffffffffffffffffffff16632ef3accc86856040518363ffffffff1660e01b81526004018080602001838152602001828103825284818151815260200191508051906020019080838360005b8381101561488a57808201518184015260208101905061486f565b50505050905090810190601f1680156148b75780820380516001836020036101000a031916815260200191505b509350505050602060405180830381600087803b1580156148d757600080fd5b505af11580156148eb573d6000803e3d6000fd5b505050506040513d602081101561490157600080fd5b81019080805190602001909291905050509050823a02670de0b6b3a764000001811115614934576000801b915050614ada565b606061493f85614b3f565b9050600160009054906101000a900473ffffffffffffffffffffffffffffffffffffffff1673ffffffffffffffffffffffffffffffffffffffff1663c55c1cb68360008985896040518663ffffffff1660e01b8152600401808581526020018060200180602001848152602001838103835286818151815260200191508051906020019080838360005b838110156149e45780820151818401526020810190506149c9565b50505050905090810190601f168015614a115780820380516001836020036101000a031916815260200191505b50838103825285818151815260200191508051906020019080838360005b83811015614a4a578082015181840152602081019050614a2f565b50505050905090810190601f168015614a775780820380516001836020036101000a031916815260200191505b5096505050505050506020604051808303818588803b158015614a9957600080fd5b505af1158015614aad573d6000803e3d6000fd5b50505050506040513d6020811015614ac457600080fd5b8101908080519060200190929190505050925050505b9392505050565b8060039080519060200190614af7929190614f6f565b5050565b60008060008060405188815287602082015286604082015285606082015260208160808360006001610bb8f192508051915050818193509350505094509492505050565b6060614b49614bbf565b614b51614fef565b614b5d81610400614bcb565b614b6681614c15565b60008090505b8351811015614ba857614b9b848281518110614b8457fe5b602002602001015183614c2390919063ffffffff16565b8080600101915050614b6c565b50614bb281614c48565b8060000151915050919050565b60405180590338823950565b6000819050600060208281614bdc57fe5b0614614bf55760208181614bec57fe5b06602003810190505b808360200181815250506040518084526000815281810160405250505050565b614c20816004614c56565b50565b614c308260028351614c77565b614c438183614db790919063ffffffff16565b505050565b614c53816007614c56565b50565b614c73601f60058360ff16901b1783614e6290919063ffffffff16565b5050565b60178111614ca357614c9e8160058460ff16901b60ff161784614e6290919063ffffffff16565b614db2565b60ff8111614ce457614cc8601860058460ff16901b1784614e6290919063ffffffff16565b614cde81600185614ea29092919063ffffffff16565b50614db1565b61ffff8111614d2657614d0a601960058460ff16901b1784614e6290919063ffffffff16565b614d2081600285614ea29092919063ffffffff16565b50614db0565b63ffffffff8111614d6a57614d4e601a60058460ff16901b1784614e6290919063ffffffff16565b614d6481600485614ea29092919063ffffffff16565b50614daf565b67ffffffffffffffff8111614dae57614d96601b60058460ff16901b1784614e6290919063ffffffff16565b614dac81600885614ea29092919063ffffffff16565b505b5b5b5b5b505050565b614dbf614fef565b82602001518360000151518351011115614def57614dee836002614de886602001518651614f09565b02614f25565b5b60008060008451905085518051602081830101945086518101825260208701935050505b60208110614e365781518352602083019250602082019150602081039050614e13565b60006001826020036101000a039050801983511681855116818117865250508694505050505092915050565b81602001516001836000015151011115614e8857614e87826002846020015102614f25565b5b815180516020818301018381536001820183525050505050565b614eaa614fef565b836020015184600001515183011115614ed857614ed7846002614ed1876020015186614f09565b02614f25565b5b60006001836101000a0390508451805184818301018684198251161781528582018352505050849150509392505050565b600081831115614f1b57829050614f1f565b8190505b92915050565b606082600001519050614f388383614bcb565b614f428382614db7565b50505050565b60405180608001604052806004905b6060815260200190600190039081614f575790505090565b828054600181600116156101000203166002900490600052602060002090601f016020900481019282601f10614fb057805160ff1916838001178555614fde565b82800160010185558215614fde579182015b82811115614fdd578251825591602001919060010190614fc2565b5b509050614feb9190615009565b5090565b604051806040016040528060608152602001600081525090565b61502b91905b8082111561502757600081600090555060010161500f565b5090565b9056fe596f7520617265206e6f7420656e7469746c656420746f206578656375746520746869732066756e6374696f6e2e546865726520617265206e6f7420656e6f7567682066756e647320746f206372656174652074686973207472616e73616374696f6e596f75206d7573742073656e642074686520726571756972656420636f7374206f72206d6f7265546865206265742077617320756e61626c6520746f206265207665726966696564536166654d6174683a206d756c7469706c69636174696f6e206f766572666c6f77596f752063616e2774207761676572206d6f7265207468616e20352065746865727fb956469c5c9b89840d55b43537e66a98dd4811ea0a27224272c2e5622911e8537a2f8e86a46baec82864e98dd01e9ccc2f8bc5dfc9cbe5a91a290498dd96e450726f7661626c65207175657279207761732073656e742c207374616e64696e6720627920666f722074686520616e737765722e2e2ea265627a7a72315820136c6b367cf75a2076f504b590ebae1f016d79e9662c95496ab433bfa04a08bc64736f6c634300050c003250726f7661626c65207175657279207761732073656e742c207374616e64696e6720627920666f722074686520616e737765722e2e2e",
  "source": "import './Ownable.sol';\nimport './Betting.sol';\n\n\npragma solidity 0.5.12;\n\ncontract CoinFlip is Ownable, Betting {\n\n    event ContractFunded(uint amount);\n\n    function fundContract() public payable onlyOwner mustHaveRequiredFunds(msg.sender, msg.value) {\n        balances[contractAddress] = balances[contractAddress].add(msg.value);\n        emit ContractFunded(msg.value);\n    }\n\n    function withdrawBalance() public {\n        require(balances[msg.sender] > 0, \"There are no funds to withdraw\");\n        uint withdrawal = balances[msg.sender];\n        balances[msg.sender] = 0;\n        msg.sender.transfer(withdrawal);\n    }\n\n    function withdrawContract() public onlyOwner {\n        assert(msg.sender == owner);\n        uint withdrawalAmount = balances[contractAddress];\n        balances[contractAddress] = 0;\n        msg.sender.transfer(withdrawalAmount);\n    }\n\n    function getContract() public view returns (address, uint) {\n        return (contractAddress, contractAddress.balance);\n    }\n\n    function getBalance() public view returns (uint) {\n        return balances[msg.sender];\n    }\n}\n",
  "sourcePath": "/Users/Sant/Desktop/code/projects/blockchain/ivanontechacademy/coinflip/contracts/CoinFlip.sol",
  "compiler": {
    "name": "solc",
    "version": "0.5.12+commit.7709ece9.Emscripten.clang"
  },
  "schemaVersion": "3.0.19",
  "updatedAt": "2020-02-05T01:14:36.118Z",
  "networkType": "ethereum",
  "devdoc": {
    "methods": {
      "__callback(bytes32,string)": {
        "details": "The following `__callback` functions are just placeholders ideally     meant to be defined in child contract when proofs are used.     The function bodies simply silence compiler warnings."
      }
    }
  },
  "userdoc": {
    "methods": {}
  }
}