{
  "contractName": "CoinFlip",
  "abi": [
    {
      "anonymous": false,
      "inputs": [
        {
          "indexed": false,
          "internalType": "bytes32",
          "name": "queryId",
          "type": "bytes32"
        },
        {
          "indexed": false,
          "internalType": "address",
          "name": "player",
          "type": "address"
        },
        {
          "indexed": false,
          "internalType": "uint256",
          "name": "amount",
          "type": "uint256"
        },
        {
          "indexed": false,
          "internalType": "bool",
          "name": "betWon",
          "type": "bool"
        }
      ],
      "name": "BetComplete",
      "type": "event"
    },
    {
      "anonymous": false,
      "inputs": [
        {
          "indexed": false,
          "internalType": "bytes32",
          "name": "queryId",
          "type": "bytes32"
        },
        {
          "indexed": false,
          "internalType": "string",
          "name": "reason",
          "type": "string"
        }
      ],
      "name": "BetFailed",
      "type": "event"
    },
    {
      "anonymous": false,
      "inputs": [
        {
          "indexed": false,
          "internalType": "bytes32",
          "name": "queryId",
          "type": "bytes32"
        },
        {
          "indexed": false,
          "internalType": "address",
          "name": "player",
          "type": "address"
        },
        {
          "indexed": false,
          "internalType": "uint256",
          "name": "amount",
          "type": "uint256"
        }
      ],
      "name": "BetPlaced",
      "type": "event"
    },
    {
      "anonymous": false,
      "inputs": [
        {
          "indexed": false,
          "internalType": "address",
          "name": "funder",
          "type": "address"
        },
        {
          "indexed": false,
          "internalType": "uint256",
          "name": "amount",
          "type": "uint256"
        }
      ],
      "name": "ContractFunded",
      "type": "event"
    },
    {
      "anonymous": false,
      "inputs": [
        {
          "indexed": false,
          "internalType": "string",
          "name": "description",
          "type": "string"
        }
      ],
      "name": "LogNewProvableQuery",
      "type": "event"
    },
    {
      "constant": false,
      "inputs": [
        {
          "internalType": "bytes32",
          "name": "_myid",
          "type": "bytes32"
        },
        {
          "internalType": "string",
          "name": "_result",
          "type": "string"
        }
      ],
      "name": "__callback",
      "outputs": [],
      "payable": false,
      "stateMutability": "nonpayable",
      "type": "function"
    },
    {
      "constant": false,
      "inputs": [
        {
          "internalType": "bytes32",
          "name": "_queryId",
          "type": "bytes32"
        },
        {
          "internalType": "string",
          "name": "_result",
          "type": "string"
        },
        {
          "internalType": "bytes",
          "name": "_proof",
          "type": "bytes"
        }
      ],
      "name": "__callback",
      "outputs": [],
      "payable": false,
      "stateMutability": "nonpayable",
      "type": "function"
    },
    {
      "constant": false,
      "inputs": [
        {
          "internalType": "uint256",
          "name": "_amount",
          "type": "uint256"
        }
      ],
      "name": "bet",
      "outputs": [],
      "payable": true,
      "stateMutability": "payable",
      "type": "function"
    },
    {
      "constant": true,
      "inputs": [
        {
          "internalType": "uint256",
          "name": "",
          "type": "uint256"
        }
      ],
      "name": "betToPlayer",
      "outputs": [
        {
          "internalType": "address",
          "name": "",
          "type": "address"
        }
      ],
      "payable": false,
      "stateMutability": "view",
      "type": "function"
    },
    {
      "constant": true,
      "inputs": [
        {
          "internalType": "uint256",
          "name": "",
          "type": "uint256"
        }
      ],
      "name": "bets",
      "outputs": [
        {
          "internalType": "bytes32",
          "name": "queryId",
          "type": "bytes32"
        },
        {
          "internalType": "address payable",
          "name": "player",
          "type": "address"
        },
        {
          "internalType": "uint256",
          "name": "amount",
          "type": "uint256"
        },
        {
          "internalType": "bool",
          "name": "betWon",
          "type": "bool"
        },
        {
          "internalType": "bool",
          "name": "isPending",
          "type": "bool"
        }
      ],
      "payable": false,
      "stateMutability": "view",
      "type": "function"
    },
    {
      "constant": true,
      "inputs": [],
      "name": "getBetCount",
      "outputs": [
        {
          "internalType": "uint256",
          "name": "",
          "type": "uint256"
        }
      ],
      "payable": false,
      "stateMutability": "view",
      "type": "function"
    },
    {
      "constant": true,
      "inputs": [],
      "name": "owner",
      "outputs": [
        {
          "internalType": "address payable",
          "name": "",
          "type": "address"
        }
      ],
      "payable": false,
      "stateMutability": "view",
      "type": "function"
    },
    {
      "constant": true,
      "inputs": [
        {
          "internalType": "address",
          "name": "",
          "type": "address"
        }
      ],
      "name": "playerBetCount",
      "outputs": [
        {
          "internalType": "uint256",
          "name": "",
          "type": "uint256"
        }
      ],
      "payable": false,
      "stateMutability": "view",
      "type": "function"
    },
    {
      "constant": false,
      "inputs": [
        {
          "internalType": "address payable",
          "name": "newOwner",
          "type": "address"
        }
      ],
      "name": "transferOwnership",
      "outputs": [],
      "payable": false,
      "stateMutability": "nonpayable",
      "type": "function"
    },
    {
      "constant": false,
      "inputs": [],
      "name": "update",
      "outputs": [
        {
          "internalType": "bytes32",
          "name": "",
          "type": "bytes32"
        }
      ],
      "payable": true,
      "stateMutability": "payable",
      "type": "function"
    },
    {
      "constant": false,
      "inputs": [],
      "name": "fundContract",
      "outputs": [],
      "payable": true,
      "stateMutability": "payable",
      "type": "function"
    },
    {
      "constant": false,
      "inputs": [
        {
          "internalType": "uint256",
          "name": "_amount",
          "type": "uint256"
        }
      ],
      "name": "withdraw",
      "outputs": [],
      "payable": false,
      "stateMutability": "nonpayable",
      "type": "function"
    },
    {
      "constant": false,
      "inputs": [],
      "name": "withdrawAll",
      "outputs": [],
      "payable": false,
      "stateMutability": "nonpayable",
      "type": "function"
    },
    {
      "constant": true,
      "inputs": [],
      "name": "getContract",
      "outputs": [
        {
          "internalType": "address",
          "name": "",
          "type": "address"
        },
        {
          "internalType": "uint256",
          "name": "",
          "type": "uint256"
        }
      ],
      "payable": false,
      "stateMutability": "view",
      "type": "function"
    },
    {
      "constant": true,
      "inputs": [],
      "name": "getOwner",
      "outputs": [
        {
          "internalType": "address",
          "name": "",
          "type": "address"
        },
        {
          "internalType": "uint256",
          "name": "",
          "type": "uint256"
        }
      ],
      "payable": false,
      "stateMutability": "view",
      "type": "function"
    }
  ],
  "bytecode": "0x6080604052336000806101000a81548173ffffffffffffffffffffffffffffffffffffffff021916908373ffffffffffffffffffffffffffffffffffffffff16021790555062000059603060f81b6200007060201b60201c565b62000069620003d660201b60201c565b5062002309565b600073ffffffffffffffffffffffffffffffffffffffff16600260009054906101000a900473ffffffffffffffffffffffffffffffffffffffff1673ffffffffffffffffffffffffffffffffffffffff1614806200010057506000620000fe600260009054906101000a900473ffffffffffffffffffffffffffffffffffffffff166200045260201b60201c565b145b156200011a576200011860006200045d60201b60201c565b505b600260009054906101000a900473ffffffffffffffffffffffffffffffffffffffff1673ffffffffffffffffffffffffffffffffffffffff166338cc48316040518163ffffffff1660e01b8152600401602060405180830381600087803b1580156200018557600080fd5b505af11580156200019a573d6000803e3d6000fd5b505050506040513d6020811015620001b157600080fd5b810190808051906020019092919050505073ffffffffffffffffffffffffffffffffffffffff16600160009054906101000a900473ffffffffffffffffffffffffffffffffffffffff1673ffffffffffffffffffffffffffffffffffffffff16146200030057600260009054906101000a900473ffffffffffffffffffffffffffffffffffffffff1673ffffffffffffffffffffffffffffffffffffffff166338cc48316040518163ffffffff1660e01b8152600401602060405180830381600087803b1580156200028257600080fd5b505af115801562000297573d6000803e3d6000fd5b505050506040513d6020811015620002ae57600080fd5b8101908080519060200190929190505050600160006101000a81548173ffffffffffffffffffffffffffffffffffffffff021916908373ffffffffffffffffffffffffffffffffffffffff1602179055505b600160009054906101000a900473ffffffffffffffffffffffffffffffffffffffff1673ffffffffffffffffffffffffffffffffffffffff1663688dcfd7826040518263ffffffff1660e01b815260040180827effffffffffffffffffffffffffffffffffffffffffffffffffffffffffffff19167effffffffffffffffffffffffffffffffffffffffffffffffffffffffffffff19168152602001915050600060405180830381600087803b158015620003ba57600080fd5b505af1158015620003cf573d6000803e3d6000fd5b5050505050565b60008060009050600062030d4090506000620003fb836001846200047660201b60201c565b90507fc4dc360d0a9c0677a3379ae0a3d81e887f761e65fdf3d7e00859d1bcd3c4738960405180806020018281038252603681526020018062006af56036913960400191505060405180910390a180935050505090565b6000813b9050919050565b60006200046f62000a4960201b60201c565b9050919050565b6000808311801562000489575060208311155b6200049357600080fd5b600a84029350606060016040519080825280601f01601f191660200182016040528015620004d05781602001600182028038833980820191505090505b5090508360f81b81600081518110620004e557fe5b60200101907effffffffffffffffffffffffffffffffffffffffffffffffffffffffffffff1916908160001a905350606060206040519080825280601f01601f1916602001820160405280156200054b5781602001600182028038833980820191505090505b509050606060206040519080825280601f01601f191660200182016040528015620005855781602001600182028038833980820191505090505b50905060006200059a6200101860201b60201c565b905060208352424118600143034018602084015260208252806020830152606060206040519080825280601f01601f191660200182016040528015620005ef5781602001600182028038833980820191505090505b509050886020820152606060086040519080825280601f01601f1916602001820160405280156200062f5781602001600182028038833980820191505090505b5090506200064a82601860088460006200135460201b60201c565b506200065562002218565b60405180608001604052808781526020018881526020018681526020018481525090506000620006c26040518060400160405280600681526020017f72616e646f6d0000000000000000000000000000000000000000000000000000815250838c620013b660201b60201c565b9050606060086040519080825280601f01601f191660200182016040528015620006fb5781602001600182028038833980820191505090505b50905060208401517f0100000000000000000000000000000000000000000000000000000000000000810460278301537e01000000000000000000000000000000000000000000000000000000000000810460268301537d010000000000000000000000000000000000000000000000000000000000810460258301537c0100000000000000000000000000000000000000000000000000000000810460248301537b01000000000000000000000000000000000000000000000000000000810460238301537a01000000000000000000000000000000000000000000000000000081046022830153790100000000000000000000000000000000000000000000000000810460218301537801000000000000000000000000000000000000000000000000810460208301535062000a368282856001600481106200083c57fe5b60200201516002876000600481106200085157fe5b60200201516040518082805190602001908083835b602083106200088b578051825260208201915060208101905060208303925062000866565b6001836020036101000a038019825116818451168082178552505050505050905001915050602060405180830381855afa158015620008ce573d6000803e3d6000fd5b5050506040513d6020811015620008e457600080fd5b8101908080519060200190929190505050876002600481106200090357fe5b60200201516040516020018085805190602001908083835b602083106200094057805182526020820191506020810190506020830392506200091b565b6001836020036101000a03801982511681845116808217855250505050505090500184805190602001908083835b602083106200099357805182526020820191506020810190506020830392506200096e565b6001836020036101000a03801982511681845116808217855250505050505090500183815260200182805190602001908083835b60208310620009ec5780518252602082019150602081019050602083039250620009c7565b6001836020036101000a038019825116818451168082178552505050505050905001945050505050604051602081830303815290604052805190602001206200175060201b60201c565b8199505050505050505050509392505050565b60008062000a71731d3b2638a7cc9f2cb3d298a3da7a90b67e5506ed6200045260201b60201c565b111562000b1d57731d3b2638a7cc9f2cb3d298a3da7a90b67e5506ed600260006101000a81548173ffffffffffffffffffffffffffffffffffffffff021916908373ffffffffffffffffffffffffffffffffffffffff16021790555062000b136040518060400160405280600b81526020017f6574685f6d61696e6e65740000000000000000000000000000000000000000008152506200176c60201b60201c565b6001905062001015565b600062000b4473c03a2615d5efaf5f49f60b7bb6583eaec212fdf16200045260201b60201c565b111562000bf05773c03a2615d5efaf5f49f60b7bb6583eaec212fdf1600260006101000a81548173ffffffffffffffffffffffffffffffffffffffff021916908373ffffffffffffffffffffffffffffffffffffffff16021790555062000be66040518060400160405280600c81526020017f6574685f726f707374656e3300000000000000000000000000000000000000008152506200176c60201b60201c565b6001905062001015565b600062000c1773b7a07bcf2ba2f2703b24c0691b5278999c59ac7e6200045260201b60201c565b111562000cc35773b7a07bcf2ba2f2703b24c0691b5278999c59ac7e600260006101000a81548173ffffffffffffffffffffffffffffffffffffffff021916908373ffffffffffffffffffffffffffffffffffffffff16021790555062000cb96040518060400160405280600981526020017f6574685f6b6f76616e00000000000000000000000000000000000000000000008152506200176c60201b60201c565b6001905062001015565b600062000cea73146500cfd35b22e4a392fe0adc06de1a1368ed486200045260201b60201c565b111562000d965773146500cfd35b22e4a392fe0adc06de1a1368ed48600260006101000a81548173ffffffffffffffffffffffffffffffffffffffff021916908373ffffffffffffffffffffffffffffffffffffffff16021790555062000d8c6040518060400160405280600b81526020017f6574685f72696e6b6562790000000000000000000000000000000000000000008152506200176c60201b60201c565b6001905062001015565b600062000dbd73a2998efd205fb9d4b4963afb70778d6354ad3a416200045260201b60201c565b111562000e695773a2998efd205fb9d4b4963afb70778d6354ad3a41600260006101000a81548173ffffffffffffffffffffffffffffffffffffffff021916908373ffffffffffffffffffffffffffffffffffffffff16021790555062000e5f6040518060400160405280600a81526020017f6574685f676f65726c69000000000000000000000000000000000000000000008152506200176c60201b60201c565b6001905062001015565b600062000e90736f485c8bf6fc43ea212e93bbf8ce046c7f1cb4756200045260201b60201c565b111562000ef657736f485c8bf6fc43ea212e93bbf8ce046c7f1cb475600260006101000a81548173ffffffffffffffffffffffffffffffffffffffff021916908373ffffffffffffffffffffffffffffffffffffffff1602179055506001905062001015565b600062000f1d7320e12a1f859b3feae5fb2a0a32c18f5a65555bbf6200045260201b60201c565b111562000f83577320e12a1f859b3feae5fb2a0a32c18f5a65555bbf600260006101000a81548173ffffffffffffffffffffffffffffffffffffffff021916908373ffffffffffffffffffffffffffffffffffffffff1602179055506001905062001015565b600062000faa7351efaf4c8b3c9afbd5ab9f4bbc82784ab6ef8faa6200045260201b60201c565b111562001010577351efaf4c8b3c9afbd5ab9f4bbc82784ab6ef8faa600260006101000a81548173ffffffffffffffffffffffffffffffffffffffff021916908373ffffffffffffffffffffffffffffffffffffffff1602179055506001905062001015565b600090505b90565b60008073ffffffffffffffffffffffffffffffffffffffff16600260009054906101000a900473ffffffffffffffffffffffffffffffffffffffff1673ffffffffffffffffffffffffffffffffffffffff161480620010a957506000620010a7600260009054906101000a900473ffffffffffffffffffffffffffffffffffffffff166200045260201b60201c565b145b15620010c357620010c160006200045d60201b60201c565b505b600260009054906101000a900473ffffffffffffffffffffffffffffffffffffffff1673ffffffffffffffffffffffffffffffffffffffff166338cc48316040518163ffffffff1660e01b8152600401602060405180830381600087803b1580156200112e57600080fd5b505af115801562001143573d6000803e3d6000fd5b505050506040513d60208110156200115a57600080fd5b810190808051906020019092919050505073ffffffffffffffffffffffffffffffffffffffff16600160009054906101000a900473ffffffffffffffffffffffffffffffffffffffff1673ffffffffffffffffffffffffffffffffffffffff1614620012a957600260009054906101000a900473ffffffffffffffffffffffffffffffffffffffff1673ffffffffffffffffffffffffffffffffffffffff166338cc48316040518163ffffffff1660e01b8152600401602060405180830381600087803b1580156200122b57600080fd5b505af115801562001240573d6000803e3d6000fd5b505050506040513d60208110156200125757600080fd5b8101908080519060200190929190505050600160006101000a81548173ffffffffffffffffffffffffffffffffffffffff021916908373ffffffffffffffffffffffffffffffffffffffff1602179055505b600160009054906101000a900473ffffffffffffffffffffffffffffffffffffffff1673ffffffffffffffffffffffffffffffffffffffff1663abaa5f3e6040518163ffffffff1660e01b815260040160206040518083038186803b1580156200131257600080fd5b505afa15801562001327573d6000803e3d6000fd5b505050506040513d60208110156200133e57600080fd5b8101908080519060200190929190505050905090565b60606000828501905080845110156200136c57600080fd5b600086602001905060008460200190505b868860200101821015620013a757818901518082880152506020820191506020810190506200137d565b85935050505095945050505050565b60008073ffffffffffffffffffffffffffffffffffffffff16600260009054906101000a900473ffffffffffffffffffffffffffffffffffffffff1673ffffffffffffffffffffffffffffffffffffffff161480620014475750600062001445600260009054906101000a900473ffffffffffffffffffffffffffffffffffffffff166200045260201b60201c565b145b1562001461576200145f60006200045d60201b60201c565b505b600260009054906101000a900473ffffffffffffffffffffffffffffffffffffffff1673ffffffffffffffffffffffffffffffffffffffff166338cc48316040518163ffffffff1660e01b8152600401602060405180830381600087803b158015620014cc57600080fd5b505af1158015620014e1573d6000803e3d6000fd5b505050506040513d6020811015620014f857600080fd5b810190808051906020019092919050505073ffffffffffffffffffffffffffffffffffffffff16600160009054906101000a900473ffffffffffffffffffffffffffffffffffffffff1673ffffffffffffffffffffffffffffffffffffffff16146200164757600260009054906101000a900473ffffffffffffffffffffffffffffffffffffffff1673ffffffffffffffffffffffffffffffffffffffff166338cc48316040518163ffffffff1660e01b8152600401602060405180830381600087803b158015620015c957600080fd5b505af1158015620015de573d6000803e3d6000fd5b505050506040513d6020811015620015f557600080fd5b8101908080519060200190929190505050600160006101000a81548173ffffffffffffffffffffffffffffffffffffffff021916908373ffffffffffffffffffffffffffffffffffffffff1602179055505b606060046040519080825280602002602001820160405280156200168057816020015b60608152602001906001900390816200166a5790505b509050836000600481106200169157fe5b602002015181600081518110620016a457fe5b602002602001018190525083600160048110620016bd57fe5b602002015181600181518110620016d057fe5b602002602001018190525083600260048110620016e957fe5b602002015181600281518110620016fc57fe5b6020026020010181905250836003600481106200171557fe5b6020020151816003815181106200172857fe5b6020026020010181905250620017468582856200178860201b60201c565b9150509392505050565b8060046000848152602001908152602001600020819055505050565b80600390805190602001906200178492919062002240565b5050565b60008073ffffffffffffffffffffffffffffffffffffffff16600260009054906101000a900473ffffffffffffffffffffffffffffffffffffffff1673ffffffffffffffffffffffffffffffffffffffff161480620018195750600062001817600260009054906101000a900473ffffffffffffffffffffffffffffffffffffffff166200045260201b60201c565b145b1562001833576200183160006200045d60201b60201c565b505b600260009054906101000a900473ffffffffffffffffffffffffffffffffffffffff1673ffffffffffffffffffffffffffffffffffffffff166338cc48316040518163ffffffff1660e01b8152600401602060405180830381600087803b1580156200189e57600080fd5b505af1158015620018b3573d6000803e3d6000fd5b505050506040513d6020811015620018ca57600080fd5b810190808051906020019092919050505073ffffffffffffffffffffffffffffffffffffffff16600160009054906101000a900473ffffffffffffffffffffffffffffffffffffffff1673ffffffffffffffffffffffffffffffffffffffff161462001a1957600260009054906101000a900473ffffffffffffffffffffffffffffffffffffffff1673ffffffffffffffffffffffffffffffffffffffff166338cc48316040518163ffffffff1660e01b8152600401602060405180830381600087803b1580156200199b57600080fd5b505af1158015620019b0573d6000803e3d6000fd5b505050506040513d6020811015620019c757600080fd5b8101908080519060200190929190505050600160006101000a81548173ffffffffffffffffffffffffffffffffffffffff021916908373ffffffffffffffffffffffffffffffffffffffff1602179055505b6000600160009054906101000a900473ffffffffffffffffffffffffffffffffffffffff1673ffffffffffffffffffffffffffffffffffffffff16632ef3accc86856040518363ffffffff1660e01b81526004018080602001838152602001828103825284818151815260200191508051906020019080838360005b8381101562001ab257808201518184015260208101905062001a95565b50505050905090810190601f16801562001ae05780820380516001836020036101000a031916815260200191505b509350505050602060405180830381600087803b15801562001b0157600080fd5b505af115801562001b16573d6000803e3d6000fd5b505050506040513d602081101562001b2d57600080fd5b81019080805190602001909291905050509050823a02670de0b6b3a76400000181111562001b62576000801b91505062001d19565b606062001b758562001d2060201b60201c565b9050600160009054906101000a900473ffffffffffffffffffffffffffffffffffffffff1673ffffffffffffffffffffffffffffffffffffffff1663c55c1cb68360008985896040518663ffffffff1660e01b8152600401808581526020018060200180602001848152602001838103835286818151815260200191508051906020019080838360005b8381101562001c1c57808201518184015260208101905062001bff565b50505050905090810190601f16801562001c4a5780820380516001836020036101000a031916815260200191505b50838103825285818151815260200191508051906020019080838360005b8381101562001c8557808201518184015260208101905062001c68565b50505050905090810190601f16801562001cb35780820380516001836020036101000a031916815260200191505b5096505050505050506020604051808303818588803b15801562001cd657600080fd5b505af115801562001ceb573d6000803e3d6000fd5b50505050506040513d602081101562001d0357600080fd5b8101908080519060200190929190505050925050505b9392505050565b606062001d3262001ddb60201b60201c565b62001d3c620022c7565b62001d558161040062001de760201b620041e11760201c565b62001d6b8162001e3460201b6200422b1760201c565b60008090505b835181101562001db75762001da984828151811062001d8c57fe5b60200260200101518362001e4a60201b620042391790919060201c565b808060010191505062001d71565b5062001dce8162001e7e60201b6200425e1760201c565b8060000151915050919050565b60405180590338823950565b600081905060006020828162001df957fe5b061462001e14576020818162001e0b57fe5b06602003810190505b808360200181815250506040518084526000815281810160405250505050565b62001e4781600462001e9460201b60201c565b50565b62001e5f826002835162001ebc60201b60201c565b62001e7981836200204460201b620043cd1790919060201c565b505050565b62001e9181600762001e9460201b60201c565b50565b62001eb8601f60058360ff16901b17836200210460201b620044781790919060201c565b5050565b6017811162001ef15762001eeb8160058460ff16901b60ff1617846200210460201b620044781790919060201c565b6200203f565b60ff811162001f425762001f1e601860058460ff16901b17846200210460201b620044781790919060201c565b62001f3b816001856200214d60201b620044b8179092919060201c565b506200203e565b61ffff811162001f945762001f70601960058460ff16901b17846200210460201b620044781790919060201c565b62001f8d816002856200214d60201b620044b8179092919060201c565b506200203d565b63ffffffff811162001fe85762001fc4601a60058460ff16901b17846200210460201b620044781790919060201c565b62001fe1816004856200214d60201b620044b8179092919060201c565b506200203c565b67ffffffffffffffff81116200203b576200201c601b60058460ff16901b17846200210460201b620044781790919060201c565b62002039816008856200214d60201b620044b8179092919060201c565b505b5b5b5b5b505050565b6200204e620022c7565b826020015183600001515183510111156200208f576200208e8360026200208186602001518651620021c760201b60201c565b02620021e560201b60201c565b5b60008060008451905085518051602081830101945086518101825260208701935050505b60208110620020d85781518352602083019250602082019150602081039050620020b3565b60006001826020036101000a039050801983511681855116818117865250508694505050505092915050565b81602001516001836000015151011115620021335762002132826002846020015102620021e560201b60201c565b5b815180516020818301018381536001820183525050505050565b62002157620022c7565b83602001518460000151518301111562002196576200219584600262002188876020015186620021c760201b60201c565b02620021e560201b60201c565b5b60006001836101000a0390508451805184818301018684198251161781528582018352505050849150509392505050565b600081831115620021db57829050620021df565b8190505b92915050565b60608260000151905062002200838362001de760201b60201c565b6200221283826200204460201b60201c565b50505050565b60405180608001604052806004905b6060815260200190600190039081620022275790505090565b828054600181600116156101000203166002900490600052602060002090601f016020900481019282601f106200228357805160ff1916838001178555620022b4565b82800160010185558215620022b4579182015b82811115620022b357825182559160200191906001019062002296565b5b509050620022c39190620022e1565b5090565b604051806040016040528060608152602001600081525090565b6200230691905b8082111562002302576000816000905550600101620022e8565b5090565b90565b6147dc80620023196000396000f3fe6080604052600436106100e85760003560e01c8063893d20e81161008a578063a95783b511610059578063a95783b5146105f3578063b93dab0b14610658578063bd097e2114610683578063f2fde38b1461068d576100e8565b8063893d20e8146104c25780638da5cb5b14610520578063958f85bd14610577578063a2e62045146105d5576100e8565b806338bbfa50116100c657806338bbfa50146102995780634eb393c6146104025780637365870b1461047d578063853828b6146104ab576100e8565b806322af00fa146100ed57806327dc297e1461018c5780632e1a7d4d1461025e575b600080fd5b3480156100f957600080fd5b506101266004803603602081101561011057600080fd5b81019080803590602001909291905050506106de565b604051808681526020018573ffffffffffffffffffffffffffffffffffffffff1673ffffffffffffffffffffffffffffffffffffffff16815260200184815260200183151515158152602001821515151581526020019550505050505060405180910390f35b34801561019857600080fd5b5061025c600480360360408110156101af57600080fd5b8101908080359060200190929190803590602001906401000000008111156101d657600080fd5b8201836020820111156101e857600080fd5b8035906020019184600183028401116401000000008311171561020a57600080fd5b91908080601f016020809104026020016040519081016040528093929190818152602001838380828437600081840152601f19601f82011690508083019250505050505050919291929050505061075b565b005b34801561026a57600080fd5b506102976004803603602081101561028157600080fd5b810190808035906020019092919050505061079e565b005b3480156102a557600080fd5b50610400600480360360608110156102bc57600080fd5b8101908080359060200190929190803590602001906401000000008111156102e357600080fd5b8201836020820111156102f557600080fd5b8035906020019184600183028401116401000000008311171561031757600080fd5b91908080601f016020809104026020016040519081016040528093929190818152602001838380828437600081840152601f19601f8201169050808301925050505050505091929192908035906020019064010000000081111561037a57600080fd5b82018360208201111561038c57600080fd5b803590602001918460018302840111640100000000831117156103ae57600080fd5b91908080601f016020809104026020016040519081016040528093929190818152602001838380828437600081840152601f19601f8201169050808301925050505050505091929192905050506109b7565b005b34801561040e57600080fd5b5061043b6004803603602081101561042557600080fd5b8101908080359060200190929190505050610dca565b604051808273ffffffffffffffffffffffffffffffffffffffff1673ffffffffffffffffffffffffffffffffffffffff16815260200191505060405180910390f35b6104a96004803603602081101561049357600080fd5b8101908080359060200190929190505050610dfd565b005b3480156104b757600080fd5b506104c06111e0565b005b3480156104ce57600080fd5b506104d7611383565b604051808373ffffffffffffffffffffffffffffffffffffffff1673ffffffffffffffffffffffffffffffffffffffff1681526020018281526020019250505060405180910390f35b34801561052c57600080fd5b506105356113ec565b604051808273ffffffffffffffffffffffffffffffffffffffff1673ffffffffffffffffffffffffffffffffffffffff16815260200191505060405180910390f35b34801561058357600080fd5b5061058c611411565b604051808373ffffffffffffffffffffffffffffffffffffffff1673ffffffffffffffffffffffffffffffffffffffff1681526020018281526020019250505060405180910390f35b6105dd611435565b6040518082815260200191505060405180910390f35b3480156105ff57600080fd5b506106426004803603602081101561061657600080fd5b81019080803573ffffffffffffffffffffffffffffffffffffffff1690602001909291905050506114a8565b6040518082815260200191505060405180910390f35b34801561066457600080fd5b5061066d6114c0565b6040518082815260200191505060405180910390f35b61068b6114cd565b005b34801561069957600080fd5b506106dc600480360360208110156106b057600080fd5b81019080803573ffffffffffffffffffffffffffffffffffffffff1690602001909291905050506115ae565b005b600681815481106106eb57fe5b90600052602060002090600402016000915090508060000154908060010160009054906101000a900473ffffffffffffffffffffffffffffffffffffffff16908060020154908060030160009054906101000a900460ff16908060030160019054906101000a900460ff16905085565b61079a828260006040519080825280601f01601f1916602001820160405280156107945781602001600182028038833980820191505090505b506109b7565b5050565b6000809054906101000a900473ffffffffffffffffffffffffffffffffffffffff1673ffffffffffffffffffffffffffffffffffffffff163373ffffffffffffffffffffffffffffffffffffffff1614610843576040517f08c379a000000000000000000000000000000000000000000000000000000000815260040180806020018281038252602e815260200180614645602e913960400191505060405180910390fd5b3081808273ffffffffffffffffffffffffffffffffffffffff163110156108b5576040517f08c379a00000000000000000000000000000000000000000000000000000000081526004018080602001828103825260358152602001806146736035913960400191505060405180910390fd5b6000809054906101000a900473ffffffffffffffffffffffffffffffffffffffff1673ffffffffffffffffffffffffffffffffffffffff163373ffffffffffffffffffffffffffffffffffffffff161461090b57fe5b60003073ffffffffffffffffffffffffffffffffffffffff163190506000809054906101000a900473ffffffffffffffffffffffffffffffffffffffff1673ffffffffffffffffffffffffffffffffffffffff166108fc859081150290604051600060405180830381858888f1935050505015801561098e573d6000803e3d6000fd5b508381033073ffffffffffffffffffffffffffffffffffffffff1631146109b157fe5b50505050565b6109bf6116d0565b73ffffffffffffffffffffffffffffffffffffffff163373ffffffffffffffffffffffffffffffffffffffff16146109f657600080fd5b6000610a038484846119f0565b60ff1614610a63577f81816b50aae098d98a0f7930cfef379261913e37ed33759052b5eff95fbb8d5f836040518082815260200180602001828103825260218152602001806146cf602191396040019250505060405180910390a1610dc5565b60006001806101000a039050600081846040516020018082805190602001908083835b60208310610aa95780518252602082019150602081019050602083039250610a86565b6001836020036101000a0380198251168184511680821785525050505050509050019150506040516020818303038152906040528051906020012060001c81610aee57fe5b06905060008090505b600680549050811015610dc157600060068281548110610b1357fe5b90600052602060002090600402019050868160000154148015610b4b5750600115158160030160019054906101000a900460ff161515145b15610db35760008160030160016101000a81548160ff02191690831515021790555060808311610c4f5760008160030160006101000a81548160ff0219169083151502179055507f0948ef2cfa8c16c7422087516e87bcd3f20c04fe0409205ee89a8b70a1059e91878260010160009054906101000a900473ffffffffffffffffffffffffffffffffffffffff1683600201548460030160009054906101000a900460ff16604051808581526020018473ffffffffffffffffffffffffffffffffffffffff1673ffffffffffffffffffffffffffffffffffffffff1681526020018381526020018215151515815260200194505050505060405180910390a1610db2565b60818310610db1576000610c7160028360020154611b2090919063ffffffff16565b905060018260030160006101000a81548160ff0219169083151502179055508160010160009054906101000a900473ffffffffffffffffffffffffffffffffffffffff1673ffffffffffffffffffffffffffffffffffffffff166108fc829081150290604051600060405180830381858888f19350505050158015610cfa573d6000803e3d6000fd5b507f0948ef2cfa8c16c7422087516e87bcd3f20c04fe0409205ee89a8b70a1059e91888360010160009054906101000a900473ffffffffffffffffffffffffffffffffffffffff16838560030160009054906101000a900460ff16604051808581526020018473ffffffffffffffffffffffffffffffffffffffff1673ffffffffffffffffffffffffffffffffffffffff1681526020018381526020018215151515815260200194505050505060405180910390a1505b5b5b508080600101915050610af7565b5050505b505050565b60076020528060005260406000206000915054906101000a900473ffffffffffffffffffffffffffffffffffffffff1681565b662386f26fc1000080341015610e5e576040517f08c379a00000000000000000000000000000000000000000000000000000000081526004018080602001828103825260278152602001806146a86027913960400191505060405180910390fd5b674563918244f40000341115610ebf576040517f08c379a00000000000000000000000000000000000000000000000000000000081526004018080602001828103825260218152602001806147116021913960400191505060405180910390fd5b3382808273ffffffffffffffffffffffffffffffffffffffff16311015610f31576040517f08c379a00000000000000000000000000000000000000000000000000000000081526004018080602001828103825260358152602001806146736035913960400191505060405180910390fd5b3084808273ffffffffffffffffffffffffffffffffffffffff16311015610fa3576040517f08c379a00000000000000000000000000000000000000000000000000000000081526004018080602001828103825260358152602001806146736035913960400191505060405180910390fd5b6000610fad611435565b90506000600160066040518060a001604052808581526020013373ffffffffffffffffffffffffffffffffffffffff1681526020018b815260200160001515815260200160011515815250908060018154018082558091505090600182039060005260206000209060040201600090919290919091506000820151816000015560208201518160010160006101000a81548173ffffffffffffffffffffffffffffffffffffffff021916908373ffffffffffffffffffffffffffffffffffffffff1602179055506040820151816002015560608201518160030160006101000a81548160ff02191690831515021790555060808201518160030160016101000a81548160ff0219169083151502179055505050039050336007600083815260200190815260200160002060006101000a81548173ffffffffffffffffffffffffffffffffffffffff021916908373ffffffffffffffffffffffffffffffffffffffff1602179055506001600860003373ffffffffffffffffffffffffffffffffffffffff1673ffffffffffffffffffffffffffffffffffffffff168152602001908152602001600020600082825401925050819055507fcd5f79909b53eb4c55b0a2d7004914519bad1e3ade1b3dae6005d528d83da31e82338a604051808481526020018373ffffffffffffffffffffffffffffffffffffffff1673ffffffffffffffffffffffffffffffffffffffff168152602001828152602001935050505060405180910390a15050505050505050565b6000809054906101000a900473ffffffffffffffffffffffffffffffffffffffff1673ffffffffffffffffffffffffffffffffffffffff163373ffffffffffffffffffffffffffffffffffffffff1614611285576040517f08c379a000000000000000000000000000000000000000000000000000000000815260040180806020018281038252602e815260200180614645602e913960400191505060405180910390fd5b6000809054906101000a900473ffffffffffffffffffffffffffffffffffffffff1673ffffffffffffffffffffffffffffffffffffffff163373ffffffffffffffffffffffffffffffffffffffff16146112db57fe5b60003073ffffffffffffffffffffffffffffffffffffffff163190506000809054906101000a900473ffffffffffffffffffffffffffffffffffffffff1673ffffffffffffffffffffffffffffffffffffffff166108fc829081150290604051600060405180830381858888f1935050505015801561135e573d6000803e3d6000fd5b5060003073ffffffffffffffffffffffffffffffffffffffff16311461138057fe5b50565b6000806000809054906101000a900473ffffffffffffffffffffffffffffffffffffffff166000809054906101000a900473ffffffffffffffffffffffffffffffffffffffff1673ffffffffffffffffffffffffffffffffffffffff1631819150915091509091565b6000809054906101000a900473ffffffffffffffffffffffffffffffffffffffff1681565b600080303073ffffffffffffffffffffffffffffffffffffffff1631915091509091565b60008060009050600062030d409050600061145283600184611ba6565b90507fc4dc360d0a9c0677a3379ae0a3d81e887f761e65fdf3d7e00859d1bcd3c473896040518080602001828103825260368152602001806147726036913960400191505060405180910390a180935050505090565b60086020528060005260406000206000915090505481565b6000600680549050905090565b3334808273ffffffffffffffffffffffffffffffffffffffff1631101561153f576040517f08c379a00000000000000000000000000000000000000000000000000000000081526004018080602001828103825260358152602001806146736035913960400191505060405180910390fd5b7f0939f6f4877faf071412e527bc4c6d0bd65ad077e52b57334f7765265647a7f13334604051808373ffffffffffffffffffffffffffffffffffffffff1673ffffffffffffffffffffffffffffffffffffffff1681526020018281526020019250505060405180910390a15050565b6000809054906101000a900473ffffffffffffffffffffffffffffffffffffffff1673ffffffffffffffffffffffffffffffffffffffff163373ffffffffffffffffffffffffffffffffffffffff1614611653576040517f08c379a000000000000000000000000000000000000000000000000000000000815260040180806020018281038252602e815260200180614645602e913960400191505060405180910390fd5b600073ffffffffffffffffffffffffffffffffffffffff168173ffffffffffffffffffffffffffffffffffffffff16141561168d57600080fd5b806000806101000a81548173ffffffffffffffffffffffffffffffffffffffff021916908373ffffffffffffffffffffffffffffffffffffffff16021790555050565b60008073ffffffffffffffffffffffffffffffffffffffff16600260009054906101000a900473ffffffffffffffffffffffffffffffffffffffff1673ffffffffffffffffffffffffffffffffffffffff16148061175857506000611756600260009054906101000a900473ffffffffffffffffffffffffffffffffffffffff16612141565b145b1561176957611767600061214c565b505b600260009054906101000a900473ffffffffffffffffffffffffffffffffffffffff1673ffffffffffffffffffffffffffffffffffffffff166338cc48316040518163ffffffff1660e01b8152600401602060405180830381600087803b1580156117d357600080fd5b505af11580156117e7573d6000803e3d6000fd5b505050506040513d60208110156117fd57600080fd5b810190808051906020019092919050505073ffffffffffffffffffffffffffffffffffffffff16600160009054906101000a900473ffffffffffffffffffffffffffffffffffffffff1673ffffffffffffffffffffffffffffffffffffffff161461194857600260009054906101000a900473ffffffffffffffffffffffffffffffffffffffff1673ffffffffffffffffffffffffffffffffffffffff166338cc48316040518163ffffffff1660e01b8152600401602060405180830381600087803b1580156118cc57600080fd5b505af11580156118e0573d6000803e3d6000fd5b505050506040513d60208110156118f657600080fd5b8101908080519060200190929190505050600160006101000a81548173ffffffffffffffffffffffffffffffffffffffff021916908373ffffffffffffffffffffffffffffffffffffffff1602179055505b600160009054906101000a900473ffffffffffffffffffffffffffffffffffffffff1673ffffffffffffffffffffffffffffffffffffffff1663c281d19e6040518163ffffffff1660e01b815260040160206040518083038186803b1580156119b057600080fd5b505afa1580156119c4573d6000803e3d6000fd5b505050506040513d60208110156119da57600080fd5b8101908080519060200190929190505050905090565b60007f4c0000000000000000000000000000000000000000000000000000000000000082600081518110611a2057fe5b602001015160f81c60f81b7effffffffffffffffffffffffffffffffffffffffffffffffffffffffffffff1916141580611ab357507f500000000000000000000000000000000000000000000000000000000000000082600181518110611a8357fe5b602001015160f81c60f81b7effffffffffffffffffffffffffffffffffffffffffffffffffffffffffffff191614155b80611adf5750600160ff1682600281518110611acb57fe5b602001015160f81c60f81b60f81c60ff1614155b15611aed5760019050611b19565b6000611b02838686611afd61215d565b6121ff565b905080611b13576002915050611b19565b60009150505b9392505050565b600080831415611b335760009050611ba0565b6000828402905082848281611b4457fe5b0414611b9b576040517f08c379a00000000000000000000000000000000000000000000000000000000081526004018080602001828103825260218152602001806146f06021913960400191505060405180910390fd5b809150505b92915050565b60008083118015611bb8575060208311155b611bc157600080fd5b600a84029350606060016040519080825280601f01601f191660200182016040528015611bfd5781602001600182028038833980820191505090505b5090508360f81b81600081518110611c1157fe5b60200101907effffffffffffffffffffffffffffffffffffffffffffffffffffffffffffff1916908160001a905350606060206040519080825280601f01601f191660200182016040528015611c765781602001600182028038833980820191505090505b509050606060206040519080825280601f01601f191660200182016040528015611caf5781602001600182028038833980820191505090505b5090506000611cbc6128aa565b905060208352424118600143034018602084015260208252806020830152606060206040519080825280601f01601f191660200182016040528015611d105781602001600182028038833980820191505090505b509050886020820152606060086040519080825280601f01601f191660200182016040528015611d4f5781602001600182028038833980820191505090505b509050611d628260186008846000612bca565b50611d6b61455e565b60405180608001604052808781526020018881526020018681526020018481525090506000611dd06040518060400160405280600681526020017f72616e646f6d0000000000000000000000000000000000000000000000000000815250838c612c29565b9050606060086040519080825280601f01601f191660200182016040528015611e085781602001600182028038833980820191505090505b50905060208401517f0100000000000000000000000000000000000000000000000000000000000000810460278301537e01000000000000000000000000000000000000000000000000000000000000810460268301537d010000000000000000000000000000000000000000000000000000000000810460258301537c0100000000000000000000000000000000000000000000000000000000810460248301537b01000000000000000000000000000000000000000000000000000000810460238301537a01000000000000000000000000000000000000000000000000000081046022830153790100000000000000000000000000000000000000000000000000810460218301537801000000000000000000000000000000000000000000000000810460208301535061212e828285600160048110611f4757fe5b6020020151600287600060048110611f5b57fe5b60200201516040518082805190602001908083835b60208310611f935780518252602082019150602081019050602083039250611f70565b6001836020036101000a038019825116818451168082178552505050505050905001915050602060405180830381855afa158015611fd5573d6000803e3d6000fd5b5050506040513d6020811015611fea57600080fd5b81019080805190602001909291905050508760026004811061200857fe5b60200201516040516020018085805190602001908083835b602083106120435780518252602082019150602081019050602083039250612020565b6001836020036101000a03801982511681845116808217855250505050505090500184805190602001908083835b602083106120945780518252602082019150602081019050602083039250612071565b6001836020036101000a03801982511681845116808217855250505050505090500183815260200182805190602001908083835b602083106120eb57805182526020820191506020810190506020830392506120c8565b6001836020036101000a03801982511681845116808217855250505050505090500194505050505060405160208183030381529060405280519060200120612f98565b8199505050505050505050509392505050565b6000813b9050919050565b6000612156612fb4565b9050919050565b606060038054600181600116156101000203166002900480601f0160208091040260200160405190810160405280929190818152602001828054600181600116156101000203166002900480156121f55780601f106121ca576101008083540402835291602001916121f5565b820191906000526020600020905b8154815290600101906020018083116121d857829003601f168201915b5050505050905090565b600080602060028760458151811061221357fe5b602001015160f81c60f81b60f81c60ff1601604401019050606060206040519080825280601f01601f1916602001820160405280156122615781602001600182028038833980820191505090505b50905061227387836020846000612bca565b50600284876040516020018083805190602001908083835b602083106122ae578051825260208201915060208101905060208303925061228b565b6001836020036101000a038019825116818451168082178552505050505050905001828152602001925050506040516020818303038152906040526040518082805190602001908083835b6020831061231c57805182526020820191506020810190506020830392506122f9565b6001836020036101000a038019825116818451168082178552505050505050905001915050602060405180830381855afa15801561235e573d6000803e3d6000fd5b5050506040513d602081101561237357600080fd5b810190808051906020019092919050505060405160200180828152602001915050604051602081830303815290604052805190602001208180519060200120146123c2576000925050506128a2565b606060028860016049860101815181106123d857fe5b602001015160f81c60f81b60f81c60ff16016040519080825280601f01601f19166020018201604052801561241c5781602001600182028038833980820191505090505b50905061243188604985018351846000612bca565b506124fc6002826040518082805190602001908083835b6020831061246b5780518252602082019150602081019050602083039250612448565b6001836020036101000a038019825116818451168082178552505050505050905001915050602060405180830381855afa1580156124ad573d6000803e3d6000fd5b5050506040513d60208110156124c257600080fd5b8101908080519060200190929190505050878a60086020880101815181106124e657fe5b602001015160f81c60f81b60f81c60ff1661350b565b61250c57600093505050506128a2565b606060296040519080825280601f01601f1916602001820160405280156125425781602001600182028038833980820191505090505b50905061255789602086016029846000612bca565b506060604080519080825280601f01601f19166020018201604052801561258d5781602001600182028038833980820191505090505b50905060006041845160296020890101010190506125b38b604083036040856000612bca565b5060006002836040518082805190602001908083835b602083106125ec57805182526020820191506020810190506020830392506125c9565b6001836020036101000a038019825116818451168082178552505050505050905001915050602060405180830381855afa15801561262e573d6000803e3d6000fd5b5050506040513d602081101561264357600080fd5b8101908080519060200190929190505050905083816040516020018083805190602001908083835b6020831061268e578051825260208201915060208101905060208303925061266b565b6001836020036101000a0380198251168184511680821785525050505050509050018281526020019250505060405160208183030381529060405280519060200120600460008d815260200190815260200160002054141561270657600460008c815260200190815260200160002060009055612716565b60009750505050505050506128a2565b606060496040519080825280601f01601f19166020018201604052801561274c5781602001600182028038833980820191505090505b50905061275e8d896049846000612bca565b506128076002826040518082805190602001908083835b602083106127985780518252602082019150602081019050602083039250612775565b6001836020036101000a038019825116818451168082178552505050505050905001915050602060405180830381855afa1580156127da573d6000803e3d6000fd5b5050506040513d60208110156127ef57600080fd5b810190808051906020019092919050505087866135bb565b61281c576000985050505050505050506128a2565b6005600083815260200190815260200160002060009054906101000a900460ff166128765761284b8d84613779565b6005600084815260200190815260200160002060006101000a81548160ff0219169083151502179055505b6005600083815260200190815260200160002060009054906101000a900460ff16985050505050505050505b949350505050565b60008073ffffffffffffffffffffffffffffffffffffffff16600260009054906101000a900473ffffffffffffffffffffffffffffffffffffffff1673ffffffffffffffffffffffffffffffffffffffff16148061293257506000612930600260009054906101000a900473ffffffffffffffffffffffffffffffffffffffff16612141565b145b1561294357612941600061214c565b505b600260009054906101000a900473ffffffffffffffffffffffffffffffffffffffff1673ffffffffffffffffffffffffffffffffffffffff166338cc48316040518163ffffffff1660e01b8152600401602060405180830381600087803b1580156129ad57600080fd5b505af11580156129c1573d6000803e3d6000fd5b505050506040513d60208110156129d757600080fd5b810190808051906020019092919050505073ffffffffffffffffffffffffffffffffffffffff16600160009054906101000a900473ffffffffffffffffffffffffffffffffffffffff1673ffffffffffffffffffffffffffffffffffffffff1614612b2257600260009054906101000a900473ffffffffffffffffffffffffffffffffffffffff1673ffffffffffffffffffffffffffffffffffffffff166338cc48316040518163ffffffff1660e01b8152600401602060405180830381600087803b158015612aa657600080fd5b505af1158015612aba573d6000803e3d6000fd5b505050506040513d6020811015612ad057600080fd5b8101908080519060200190929190505050600160006101000a81548173ffffffffffffffffffffffffffffffffffffffff021916908373ffffffffffffffffffffffffffffffffffffffff1602179055505b600160009054906101000a900473ffffffffffffffffffffffffffffffffffffffff1673ffffffffffffffffffffffffffffffffffffffff1663abaa5f3e6040518163ffffffff1660e01b815260040160206040518083038186803b158015612b8a57600080fd5b505afa158015612b9e573d6000803e3d6000fd5b505050506040513d6020811015612bb457600080fd5b8101908080519060200190929190505050905090565b6060600082850190508084511015612be157600080fd5b600086602001905060008460200190505b868860200101821015612c1a5781890151808288015250602082019150602081019050612bf2565b85935050505095945050505050565b60008073ffffffffffffffffffffffffffffffffffffffff16600260009054906101000a900473ffffffffffffffffffffffffffffffffffffffff1673ffffffffffffffffffffffffffffffffffffffff161480612cb157506000612caf600260009054906101000a900473ffffffffffffffffffffffffffffffffffffffff16612141565b145b15612cc257612cc0600061214c565b505b600260009054906101000a900473ffffffffffffffffffffffffffffffffffffffff1673ffffffffffffffffffffffffffffffffffffffff166338cc48316040518163ffffffff1660e01b8152600401602060405180830381600087803b158015612d2c57600080fd5b505af1158015612d40573d6000803e3d6000fd5b505050506040513d6020811015612d5657600080fd5b810190808051906020019092919050505073ffffffffffffffffffffffffffffffffffffffff16600160009054906101000a900473ffffffffffffffffffffffffffffffffffffffff1673ffffffffffffffffffffffffffffffffffffffff1614612ea157600260009054906101000a900473ffffffffffffffffffffffffffffffffffffffff1673ffffffffffffffffffffffffffffffffffffffff166338cc48316040518163ffffffff1660e01b8152600401602060405180830381600087803b158015612e2557600080fd5b505af1158015612e39573d6000803e3d6000fd5b505050506040513d6020811015612e4f57600080fd5b8101908080519060200190929190505050600160006101000a81548173ffffffffffffffffffffffffffffffffffffffff021916908373ffffffffffffffffffffffffffffffffffffffff1602179055505b60606004604051908082528060200260200182016040528015612ed857816020015b6060815260200190600190039081612ec35790505b50905083600060048110612ee857fe5b602002015181600081518110612efa57fe5b602002602001018190525083600160048110612f1257fe5b602002015181600181518110612f2457fe5b602002602001018190525083600260048110612f3c57fe5b602002015181600281518110612f4e57fe5b602002602001018190525083600360048110612f6657fe5b602002015181600381518110612f7857fe5b6020026020010181905250612f8e858285613b91565b9150509392505050565b8060046000848152602001908152602001600020819055505050565b600080612fd4731d3b2638a7cc9f2cb3d298a3da7a90b67e5506ed612141565b111561307657731d3b2638a7cc9f2cb3d298a3da7a90b67e5506ed600260006101000a81548173ffffffffffffffffffffffffffffffffffffffff021916908373ffffffffffffffffffffffffffffffffffffffff16021790555061306d6040518060400160405280600b81526020017f6574685f6d61696e6e65740000000000000000000000000000000000000000008152506140f7565b60019050613508565b600061309573c03a2615d5efaf5f49f60b7bb6583eaec212fdf1612141565b11156131375773c03a2615d5efaf5f49f60b7bb6583eaec212fdf1600260006101000a81548173ffffffffffffffffffffffffffffffffffffffff021916908373ffffffffffffffffffffffffffffffffffffffff16021790555061312e6040518060400160405280600c81526020017f6574685f726f707374656e3300000000000000000000000000000000000000008152506140f7565b60019050613508565b600061315673b7a07bcf2ba2f2703b24c0691b5278999c59ac7e612141565b11156131f85773b7a07bcf2ba2f2703b24c0691b5278999c59ac7e600260006101000a81548173ffffffffffffffffffffffffffffffffffffffff021916908373ffffffffffffffffffffffffffffffffffffffff1602179055506131ef6040518060400160405280600981526020017f6574685f6b6f76616e00000000000000000000000000000000000000000000008152506140f7565b60019050613508565b600061321773146500cfd35b22e4a392fe0adc06de1a1368ed48612141565b11156132b95773146500cfd35b22e4a392fe0adc06de1a1368ed48600260006101000a81548173ffffffffffffffffffffffffffffffffffffffff021916908373ffffffffffffffffffffffffffffffffffffffff1602179055506132b06040518060400160405280600b81526020017f6574685f72696e6b6562790000000000000000000000000000000000000000008152506140f7565b60019050613508565b60006132d873a2998efd205fb9d4b4963afb70778d6354ad3a41612141565b111561337a5773a2998efd205fb9d4b4963afb70778d6354ad3a41600260006101000a81548173ffffffffffffffffffffffffffffffffffffffff021916908373ffffffffffffffffffffffffffffffffffffffff1602179055506133716040518060400160405280600a81526020017f6574685f676f65726c69000000000000000000000000000000000000000000008152506140f7565b60019050613508565b6000613399736f485c8bf6fc43ea212e93bbf8ce046c7f1cb475612141565b11156133fd57736f485c8bf6fc43ea212e93bbf8ce046c7f1cb475600260006101000a81548173ffffffffffffffffffffffffffffffffffffffff021916908373ffffffffffffffffffffffffffffffffffffffff16021790555060019050613508565b600061341c7320e12a1f859b3feae5fb2a0a32c18f5a65555bbf612141565b1115613480577320e12a1f859b3feae5fb2a0a32c18f5a65555bbf600260006101000a81548173ffffffffffffffffffffffffffffffffffffffff021916908373ffffffffffffffffffffffffffffffffffffffff16021790555060019050613508565b600061349f7351efaf4c8b3c9afbd5ab9f4bbc82784ab6ef8faa612141565b1115613503577351efaf4c8b3c9afbd5ab9f4bbc82784ab6ef8faa600260006101000a81548173ffffffffffffffffffffffffffffffffffffffff021916908373ffffffffffffffffffffffffffffffffffffffff16021790555060019050613508565b600090505b90565b600080600190508284511461351f57600080fd5b60008090505b838110156135af5784818151811061353957fe5b602001015160f81c60f81b7effffffffffffffffffffffffffffffffffffffffffffffffffffffffffffff191686826020811061357257fe5b1a60f81b7effffffffffffffffffffffffffffffffffffffffffffffffffffffffffffff1916146135a257600091505b8080600101915050613525565b50809150509392505050565b6000806000806000606060206040519080825280601f01601f1916602001820160405280156135f95781602001600182028038833980820191505090505b509050600060208960038151811061360d57fe5b602001015160f81c60f81b60f81c60ff1603600401905061363389826020856000612bca565b9150606060206040519080825280601f01601f19166020018201604052801561366b5781602001600182028038833980820191505090505b5090506022820191506136a78a60208c600186038151811061368957fe5b602001015160f81c60f81b60f81c60ff160384016020846000612bca565b905060208301519450602081015193506136c48b601b8787614111565b80975081985050508573ffffffffffffffffffffffffffffffffffffffff16898051906020012060001c73ffffffffffffffffffffffffffffffffffffffff16141561371a576001975050505050505050613772565b6137278b601c8787614111565b80975081985050508573ffffffffffffffffffffffffffffffffffffffff16898051906020012060001c73ffffffffffffffffffffffffffffffffffffffff16149750505050505050505b9392505050565b6000806060600285600186018151811061378f57fe5b602001015160f81c60f81b60f81c60ff16016040519080825280601f01601f1916602001820160405280156137d35781602001600182028038833980820191505090505b5090506137e585858351846000612bca565b506060604080519080825280601f01601f19166020018201604052801561381b5781602001600182028038833980820191505090505b50905061382e8660046040846000612bca565b50606060626040519080825280601f01601f1916602001820160405280156138655781602001600182028038833980820191505090505b509050600160f81b8160008151811061387a57fe5b60200101907effffffffffffffffffffffffffffffffffffffffffffffffffffffffffffff1916908160001a9053506138bb87604188036041846001612bca565b5060606040518060400160405280602081526020017ffd94fa71bc0ba10d39d464d0d8f465efeef0a2764e3887fcc9df41ded20f505c81525090506139068160006020856042612bca565b506139af6002836040518082805190602001908083835b60208310613940578051825260208201915060208101905060208303925061391d565b6001836020036101000a038019825116818451168082178552505050505050905001915050602060405180830381855afa158015613982573d6000803e3d6000fd5b5050506040513d602081101561399757600080fd5b810190808051906020019092919050505085856135bb565b9450846139c457600095505050505050613b8b565b6060604051806060016040528060408152602001614732604091399050606060426040519080825280601f01601f191660200182016040528015613a175781602001600182028038833980820191505090505b50905060fe60f81b81600081518110613a2c57fe5b60200101907effffffffffffffffffffffffffffffffffffffffffffffffffffffffffffff1916908160001a905350613a6b8a60036041846001612bca565b50606060028b604581518110613a7d57fe5b602001015160f81c60f81b60f81c60ff16016040519080825280601f01601f191660200182016040528015613ac15781602001600182028038833980820191505090505b509050613ad48b60448351846000612bca565b50613b7d6002836040518082805190602001908083835b60208310613b0e5780518252602082019150602081019050602083039250613aeb565b6001836020036101000a038019825116818451168082178552505050505050905001915050602060405180830381855afa158015613b50573d6000803e3d6000fd5b5050506040513d6020811015613b6557600080fd5b810190808051906020019092919050505082856135bb565b975087985050505050505050505b92915050565b60008073ffffffffffffffffffffffffffffffffffffffff16600260009054906101000a900473ffffffffffffffffffffffffffffffffffffffff1673ffffffffffffffffffffffffffffffffffffffff161480613c1957506000613c17600260009054906101000a900473ffffffffffffffffffffffffffffffffffffffff16612141565b145b15613c2a57613c28600061214c565b505b600260009054906101000a900473ffffffffffffffffffffffffffffffffffffffff1673ffffffffffffffffffffffffffffffffffffffff166338cc48316040518163ffffffff1660e01b8152600401602060405180830381600087803b158015613c9457600080fd5b505af1158015613ca8573d6000803e3d6000fd5b505050506040513d6020811015613cbe57600080fd5b810190808051906020019092919050505073ffffffffffffffffffffffffffffffffffffffff16600160009054906101000a900473ffffffffffffffffffffffffffffffffffffffff1673ffffffffffffffffffffffffffffffffffffffff1614613e0957600260009054906101000a900473ffffffffffffffffffffffffffffffffffffffff1673ffffffffffffffffffffffffffffffffffffffff166338cc48316040518163ffffffff1660e01b8152600401602060405180830381600087803b158015613d8d57600080fd5b505af1158015613da1573d6000803e3d6000fd5b505050506040513d6020811015613db757600080fd5b8101908080519060200190929190505050600160006101000a81548173ffffffffffffffffffffffffffffffffffffffff021916908373ffffffffffffffffffffffffffffffffffffffff1602179055505b6000600160009054906101000a900473ffffffffffffffffffffffffffffffffffffffff1673ffffffffffffffffffffffffffffffffffffffff16632ef3accc86856040518363ffffffff1660e01b81526004018080602001838152602001828103825284818151815260200191508051906020019080838360005b83811015613ea0578082015181840152602081019050613e85565b50505050905090810190601f168015613ecd5780820380516001836020036101000a031916815260200191505b509350505050602060405180830381600087803b158015613eed57600080fd5b505af1158015613f01573d6000803e3d6000fd5b505050506040513d6020811015613f1757600080fd5b81019080805190602001909291905050509050823a02670de0b6b3a764000001811115613f4a576000801b9150506140f0565b6060613f5585614155565b9050600160009054906101000a900473ffffffffffffffffffffffffffffffffffffffff1673ffffffffffffffffffffffffffffffffffffffff1663c55c1cb68360008985896040518663ffffffff1660e01b8152600401808581526020018060200180602001848152602001838103835286818151815260200191508051906020019080838360005b83811015613ffa578082015181840152602081019050613fdf565b50505050905090810190601f1680156140275780820380516001836020036101000a031916815260200191505b50838103825285818151815260200191508051906020019080838360005b83811015614060578082015181840152602081019050614045565b50505050905090810190601f16801561408d5780820380516001836020036101000a031916815260200191505b5096505050505050506020604051808303818588803b1580156140af57600080fd5b505af11580156140c3573d6000803e3d6000fd5b50505050506040513d60208110156140da57600080fd5b8101908080519060200190929190505050925050505b9392505050565b806003908051906020019061410d929190614585565b5050565b60008060008060405188815287602082015286604082015285606082015260208160808360006001610bb8f192508051915050818193509350505094509492505050565b606061415f6141d5565b614167614605565b614173816104006141e1565b61417c8161422b565b60008090505b83518110156141be576141b184828151811061419a57fe5b60200260200101518361423990919063ffffffff16565b8080600101915050614182565b506141c88161425e565b8060000151915050919050565b60405180590338823950565b60008190506000602082816141f257fe5b061461420b576020818161420257fe5b06602003810190505b808360200181815250506040518084526000815281810160405250505050565b61423681600461426c565b50565b614246826002835161428d565b61425981836143cd90919063ffffffff16565b505050565b61426981600761426c565b50565b614289601f60058360ff16901b178361447890919063ffffffff16565b5050565b601781116142b9576142b48160058460ff16901b60ff16178461447890919063ffffffff16565b6143c8565b60ff81116142fa576142de601860058460ff16901b178461447890919063ffffffff16565b6142f4816001856144b89092919063ffffffff16565b506143c7565b61ffff811161433c57614320601960058460ff16901b178461447890919063ffffffff16565b614336816002856144b89092919063ffffffff16565b506143c6565b63ffffffff811161438057614364601a60058460ff16901b178461447890919063ffffffff16565b61437a816004856144b89092919063ffffffff16565b506143c5565b67ffffffffffffffff81116143c4576143ac601b60058460ff16901b178461447890919063ffffffff16565b6143c2816008856144b89092919063ffffffff16565b505b5b5b5b5b505050565b6143d5614605565b82602001518360000151518351011115614405576144048360026143fe8660200151865161451f565b0261453b565b5b60008060008451905085518051602081830101945086518101825260208701935050505b6020811061444c5781518352602083019250602082019150602081039050614429565b60006001826020036101000a039050801983511681855116818117865250508694505050505092915050565b8160200151600183600001515101111561449e5761449d82600284602001510261453b565b5b815180516020818301018381536001820183525050505050565b6144c0614605565b8360200151846000015151830111156144ee576144ed8460026144e787602001518661451f565b0261453b565b5b60006001836101000a0390508451805184818301018684198251161781528582018352505050849150509392505050565b60008183111561453157829050614535565b8190505b92915050565b60608260000151905061454e83836141e1565b61455883826143cd565b50505050565b60405180608001604052806004905b606081526020019060019003908161456d5790505090565b828054600181600116156101000203166002900490600052602060002090601f016020900481019282601f106145c657805160ff19168380011785556145f4565b828001600101855582156145f4579182015b828111156145f35782518255916020019190600101906145d8565b5b509050614601919061461f565b5090565b604051806040016040528060608152602001600081525090565b61464191905b8082111561463d576000816000905550600101614625565b5090565b9056fe596f7520617265206e6f7420656e7469746c656420746f206578656375746520746869732066756e6374696f6e2e546865726520617265206e6f7420656e6f7567682066756e647320746f206372656174652074686973207472616e73616374696f6e596f75206d7573742073656e642074686520726571756972656420636f7374206f72206d6f7265546865206265742077617320756e61626c6520746f206265207665726966696564536166654d6174683a206d756c7469706c69636174696f6e206f766572666c6f77596f752063616e2774207761676572206d6f7265207468616e20352065746865727fb956469c5c9b89840d55b43537e66a98dd4811ea0a27224272c2e5622911e8537a2f8e86a46baec82864e98dd01e9ccc2f8bc5dfc9cbe5a91a290498dd96e450726f7661626c65207175657279207761732073656e742c207374616e64696e6720627920666f722074686520616e737765722e2e2ea265627a7a723158204612dd055d2405553c2f22b240847b1d29199e336f53e082f5fa7e7635e75ed564736f6c634300050c003250726f7661626c65207175657279207761732073656e742c207374616e64696e6720627920666f722074686520616e737765722e2e2e",
  "source": "import './Ownable.sol';\nimport './Betting.sol';\n\n\npragma solidity 0.5.12;\n\ncontract CoinFlip is Ownable, Betting {\n\n    event ContractFunded(address funder, uint amount);\n\n    function fundContract() public payable mustHaveRequiredFunds(msg.sender, msg.value) {\n        emit ContractFunded(msg.sender, msg.value);\n    }\n\n    function withdraw(uint _amount) public onlyOwner mustHaveRequiredFunds(address(this), _amount) {\n        assert(msg.sender == owner);\n        uint contractBalanceBefore = address(this).balance;\n        owner.transfer(_amount);\n        assert(address(this).balance == contractBalanceBefore - _amount);\n    }\n\n    function withdrawAll() public onlyOwner {\n        assert(msg.sender == owner);\n        uint withdrawalAmount = address(this).balance;\n        owner.transfer(withdrawalAmount);\n        assert(address(this).balance == 0);\n    }\n\n    function getContract() public view returns (address, uint) {\n        return (address(this), address(this).balance);\n    }\n\n    function getOwner() public view returns (address, uint) {\n        return (address(owner), address(owner).balance);\n    }\n}\n",
  "sourcePath": "/Users/Sant/Desktop/code/projects/blockchain/ivanontechacademy/coinflip/contracts/CoinFlip.sol",
  "compiler": {
    "name": "solc",
    "version": "0.5.12+commit.7709ece9.Emscripten.clang"
  },
  "schemaVersion": "3.0.19",
  "updatedAt": "2020-01-31T23:54:25.947Z",
  "networkType": "ethereum",
  "devdoc": {
    "methods": {
      "__callback(bytes32,string)": {
        "details": "The following `__callback` functions are just placeholders ideally     meant to be defined in child contract when proofs are used.     The function bodies simply silence compiler warnings."
      }
    }
  },
  "userdoc": {
    "methods": {}
  }
}