{
  "contractName": "CoinFlip",
  "abi": [
    {
      "anonymous": false,
      "inputs": [
        {
          "indexed": false,
          "internalType": "bytes32",
          "name": "queryId",
          "type": "bytes32"
        },
        {
          "indexed": false,
          "internalType": "address",
          "name": "player",
          "type": "address"
        },
        {
          "indexed": false,
          "internalType": "uint256",
          "name": "amount",
          "type": "uint256"
        },
        {
          "indexed": false,
          "internalType": "bool",
          "name": "betWon",
          "type": "bool"
        }
      ],
      "name": "BetComplete",
      "type": "event"
    },
    {
      "anonymous": false,
      "inputs": [
        {
          "indexed": false,
          "internalType": "bytes32",
          "name": "queryId",
          "type": "bytes32"
        },
        {
          "indexed": false,
          "internalType": "string",
          "name": "reason",
          "type": "string"
        }
      ],
      "name": "BetFailed",
      "type": "event"
    },
    {
      "anonymous": false,
      "inputs": [
        {
          "indexed": false,
          "internalType": "bytes32",
          "name": "queryId",
          "type": "bytes32"
        },
        {
          "indexed": false,
          "internalType": "address",
          "name": "player",
          "type": "address"
        },
        {
          "indexed": false,
          "internalType": "uint256",
          "name": "amount",
          "type": "uint256"
        }
      ],
      "name": "BetPlaced",
      "type": "event"
    },
    {
      "anonymous": false,
      "inputs": [
        {
          "indexed": false,
          "internalType": "address",
          "name": "funder",
          "type": "address"
        },
        {
          "indexed": false,
          "internalType": "uint256",
          "name": "amount",
          "type": "uint256"
        }
      ],
      "name": "ContractFunded",
      "type": "event"
    },
    {
      "anonymous": false,
      "inputs": [
        {
          "indexed": false,
          "internalType": "string",
          "name": "description",
          "type": "string"
        }
      ],
      "name": "LogNewProvableQuery",
      "type": "event"
    },
    {
      "constant": false,
      "inputs": [
        {
          "internalType": "bytes32",
          "name": "_myid",
          "type": "bytes32"
        },
        {
          "internalType": "string",
          "name": "_result",
          "type": "string"
        }
      ],
      "name": "__callback",
      "outputs": [],
      "payable": false,
      "stateMutability": "nonpayable",
      "type": "function"
    },
    {
      "constant": false,
      "inputs": [
        {
          "internalType": "bytes32",
          "name": "_queryId",
          "type": "bytes32"
        },
        {
          "internalType": "string",
          "name": "_result",
          "type": "string"
        },
        {
          "internalType": "bytes",
          "name": "_proof",
          "type": "bytes"
        }
      ],
      "name": "__callback",
      "outputs": [],
      "payable": false,
      "stateMutability": "nonpayable",
      "type": "function"
    },
    {
      "constant": false,
      "inputs": [
        {
          "internalType": "uint256",
          "name": "_amount",
          "type": "uint256"
        }
      ],
      "name": "bet",
      "outputs": [],
      "payable": true,
      "stateMutability": "payable",
      "type": "function"
    },
    {
      "constant": true,
      "inputs": [
        {
          "internalType": "uint256",
          "name": "",
          "type": "uint256"
        }
      ],
      "name": "betToPlayer",
      "outputs": [
        {
          "internalType": "address",
          "name": "",
          "type": "address"
        }
      ],
      "payable": false,
      "stateMutability": "view",
      "type": "function"
    },
    {
      "constant": true,
      "inputs": [
        {
          "internalType": "uint256",
          "name": "",
          "type": "uint256"
        }
      ],
      "name": "bets",
      "outputs": [
        {
          "internalType": "bytes32",
          "name": "queryId",
          "type": "bytes32"
        },
        {
          "internalType": "address payable",
          "name": "player",
          "type": "address"
        },
        {
          "internalType": "uint256",
          "name": "amount",
          "type": "uint256"
        },
        {
          "internalType": "bool",
          "name": "betWon",
          "type": "bool"
        },
        {
          "internalType": "bool",
          "name": "isPending",
          "type": "bool"
        }
      ],
      "payable": false,
      "stateMutability": "view",
      "type": "function"
    },
    {
      "constant": true,
      "inputs": [],
      "name": "owner",
      "outputs": [
        {
          "internalType": "address payable",
          "name": "",
          "type": "address"
        }
      ],
      "payable": false,
      "stateMutability": "view",
      "type": "function"
    },
    {
      "constant": true,
      "inputs": [
        {
          "internalType": "address",
          "name": "",
          "type": "address"
        }
      ],
      "name": "playerBetCount",
      "outputs": [
        {
          "internalType": "uint256",
          "name": "",
          "type": "uint256"
        }
      ],
      "payable": false,
      "stateMutability": "view",
      "type": "function"
    },
    {
      "constant": false,
      "inputs": [
        {
          "internalType": "address payable",
          "name": "newOwner",
          "type": "address"
        }
      ],
      "name": "transferOwnership",
      "outputs": [],
      "payable": false,
      "stateMutability": "nonpayable",
      "type": "function"
    },
    {
      "constant": false,
      "inputs": [],
      "name": "update",
      "outputs": [
        {
          "internalType": "bytes32",
          "name": "",
          "type": "bytes32"
        }
      ],
      "payable": true,
      "stateMutability": "payable",
      "type": "function"
    },
    {
      "constant": false,
      "inputs": [],
      "name": "fundContract",
      "outputs": [],
      "payable": true,
      "stateMutability": "payable",
      "type": "function"
    },
    {
      "constant": false,
      "inputs": [
        {
          "internalType": "uint256",
          "name": "_amount",
          "type": "uint256"
        }
      ],
      "name": "withdraw",
      "outputs": [],
      "payable": false,
      "stateMutability": "nonpayable",
      "type": "function"
    },
    {
      "constant": false,
      "inputs": [],
      "name": "withdrawAll",
      "outputs": [],
      "payable": false,
      "stateMutability": "nonpayable",
      "type": "function"
    },
    {
      "constant": true,
      "inputs": [],
      "name": "getContract",
      "outputs": [
        {
          "internalType": "address",
          "name": "",
          "type": "address"
        },
        {
          "internalType": "uint256",
          "name": "",
          "type": "uint256"
        }
      ],
      "payable": false,
      "stateMutability": "view",
      "type": "function"
    },
    {
      "constant": true,
      "inputs": [],
      "name": "getOwner",
      "outputs": [
        {
          "internalType": "address",
          "name": "",
          "type": "address"
        },
        {
          "internalType": "uint256",
          "name": "",
          "type": "uint256"
        }
      ],
      "payable": false,
      "stateMutability": "view",
      "type": "function"
    }
  ],
  "bytecode": "0x6080604052336000806101000a81548173ffffffffffffffffffffffffffffffffffffffff021916908373ffffffffffffffffffffffffffffffffffffffff16021790555062000059603060f81b6200007060201b60201c565b62000069620003d660201b60201c565b5062002309565b600073ffffffffffffffffffffffffffffffffffffffff16600260009054906101000a900473ffffffffffffffffffffffffffffffffffffffff1673ffffffffffffffffffffffffffffffffffffffff1614806200010057506000620000fe600260009054906101000a900473ffffffffffffffffffffffffffffffffffffffff166200045260201b60201c565b145b156200011a576200011860006200045d60201b60201c565b505b600260009054906101000a900473ffffffffffffffffffffffffffffffffffffffff1673ffffffffffffffffffffffffffffffffffffffff166338cc48316040518163ffffffff1660e01b8152600401602060405180830381600087803b1580156200018557600080fd5b505af11580156200019a573d6000803e3d6000fd5b505050506040513d6020811015620001b157600080fd5b810190808051906020019092919050505073ffffffffffffffffffffffffffffffffffffffff16600160009054906101000a900473ffffffffffffffffffffffffffffffffffffffff1673ffffffffffffffffffffffffffffffffffffffff16146200030057600260009054906101000a900473ffffffffffffffffffffffffffffffffffffffff1673ffffffffffffffffffffffffffffffffffffffff166338cc48316040518163ffffffff1660e01b8152600401602060405180830381600087803b1580156200028257600080fd5b505af115801562000297573d6000803e3d6000fd5b505050506040513d6020811015620002ae57600080fd5b8101908080519060200190929190505050600160006101000a81548173ffffffffffffffffffffffffffffffffffffffff021916908373ffffffffffffffffffffffffffffffffffffffff1602179055505b600160009054906101000a900473ffffffffffffffffffffffffffffffffffffffff1673ffffffffffffffffffffffffffffffffffffffff1663688dcfd7826040518263ffffffff1660e01b815260040180827effffffffffffffffffffffffffffffffffffffffffffffffffffffffffffff19167effffffffffffffffffffffffffffffffffffffffffffffffffffffffffffff19168152602001915050600060405180830381600087803b158015620003ba57600080fd5b505af1158015620003cf573d6000803e3d6000fd5b5050505050565b60008060009050600062030d4090506000620003fb836001846200047660201b60201c565b90507fc4dc360d0a9c0677a3379ae0a3d81e887f761e65fdf3d7e00859d1bcd3c4738960405180806020018281038252603681526020018062006ab26036913960400191505060405180910390a180935050505090565b6000813b9050919050565b60006200046f62000a4960201b60201c565b9050919050565b6000808311801562000489575060208311155b6200049357600080fd5b600a84029350606060016040519080825280601f01601f191660200182016040528015620004d05781602001600182028038833980820191505090505b5090508360f81b81600081518110620004e557fe5b60200101907effffffffffffffffffffffffffffffffffffffffffffffffffffffffffffff1916908160001a905350606060206040519080825280601f01601f1916602001820160405280156200054b5781602001600182028038833980820191505090505b509050606060206040519080825280601f01601f191660200182016040528015620005855781602001600182028038833980820191505090505b50905060006200059a6200101860201b60201c565b905060208352424118600143034018602084015260208252806020830152606060206040519080825280601f01601f191660200182016040528015620005ef5781602001600182028038833980820191505090505b509050886020820152606060086040519080825280601f01601f1916602001820160405280156200062f5781602001600182028038833980820191505090505b5090506200064a82601860088460006200135460201b60201c565b506200065562002218565b60405180608001604052808781526020018881526020018681526020018481525090506000620006c26040518060400160405280600681526020017f72616e646f6d0000000000000000000000000000000000000000000000000000815250838c620013b660201b60201c565b9050606060086040519080825280601f01601f191660200182016040528015620006fb5781602001600182028038833980820191505090505b50905060208401517f0100000000000000000000000000000000000000000000000000000000000000810460278301537e01000000000000000000000000000000000000000000000000000000000000810460268301537d010000000000000000000000000000000000000000000000000000000000810460258301537c0100000000000000000000000000000000000000000000000000000000810460248301537b01000000000000000000000000000000000000000000000000000000810460238301537a01000000000000000000000000000000000000000000000000000081046022830153790100000000000000000000000000000000000000000000000000810460218301537801000000000000000000000000000000000000000000000000810460208301535062000a368282856001600481106200083c57fe5b60200201516002876000600481106200085157fe5b60200201516040518082805190602001908083835b602083106200088b578051825260208201915060208101905060208303925062000866565b6001836020036101000a038019825116818451168082178552505050505050905001915050602060405180830381855afa158015620008ce573d6000803e3d6000fd5b5050506040513d6020811015620008e457600080fd5b8101908080519060200190929190505050876002600481106200090357fe5b60200201516040516020018085805190602001908083835b602083106200094057805182526020820191506020810190506020830392506200091b565b6001836020036101000a03801982511681845116808217855250505050505090500184805190602001908083835b602083106200099357805182526020820191506020810190506020830392506200096e565b6001836020036101000a03801982511681845116808217855250505050505090500183815260200182805190602001908083835b60208310620009ec5780518252602082019150602081019050602083039250620009c7565b6001836020036101000a038019825116818451168082178552505050505050905001945050505050604051602081830303815290604052805190602001206200175060201b60201c565b8199505050505050505050509392505050565b60008062000a71731d3b2638a7cc9f2cb3d298a3da7a90b67e5506ed6200045260201b60201c565b111562000b1d57731d3b2638a7cc9f2cb3d298a3da7a90b67e5506ed600260006101000a81548173ffffffffffffffffffffffffffffffffffffffff021916908373ffffffffffffffffffffffffffffffffffffffff16021790555062000b136040518060400160405280600b81526020017f6574685f6d61696e6e65740000000000000000000000000000000000000000008152506200176c60201b60201c565b6001905062001015565b600062000b4473c03a2615d5efaf5f49f60b7bb6583eaec212fdf16200045260201b60201c565b111562000bf05773c03a2615d5efaf5f49f60b7bb6583eaec212fdf1600260006101000a81548173ffffffffffffffffffffffffffffffffffffffff021916908373ffffffffffffffffffffffffffffffffffffffff16021790555062000be66040518060400160405280600c81526020017f6574685f726f707374656e3300000000000000000000000000000000000000008152506200176c60201b60201c565b6001905062001015565b600062000c1773b7a07bcf2ba2f2703b24c0691b5278999c59ac7e6200045260201b60201c565b111562000cc35773b7a07bcf2ba2f2703b24c0691b5278999c59ac7e600260006101000a81548173ffffffffffffffffffffffffffffffffffffffff021916908373ffffffffffffffffffffffffffffffffffffffff16021790555062000cb96040518060400160405280600981526020017f6574685f6b6f76616e00000000000000000000000000000000000000000000008152506200176c60201b60201c565b6001905062001015565b600062000cea73146500cfd35b22e4a392fe0adc06de1a1368ed486200045260201b60201c565b111562000d965773146500cfd35b22e4a392fe0adc06de1a1368ed48600260006101000a81548173ffffffffffffffffffffffffffffffffffffffff021916908373ffffffffffffffffffffffffffffffffffffffff16021790555062000d8c6040518060400160405280600b81526020017f6574685f72696e6b6562790000000000000000000000000000000000000000008152506200176c60201b60201c565b6001905062001015565b600062000dbd73a2998efd205fb9d4b4963afb70778d6354ad3a416200045260201b60201c565b111562000e695773a2998efd205fb9d4b4963afb70778d6354ad3a41600260006101000a81548173ffffffffffffffffffffffffffffffffffffffff021916908373ffffffffffffffffffffffffffffffffffffffff16021790555062000e5f6040518060400160405280600a81526020017f6574685f676f65726c69000000000000000000000000000000000000000000008152506200176c60201b60201c565b6001905062001015565b600062000e90736f485c8bf6fc43ea212e93bbf8ce046c7f1cb4756200045260201b60201c565b111562000ef657736f485c8bf6fc43ea212e93bbf8ce046c7f1cb475600260006101000a81548173ffffffffffffffffffffffffffffffffffffffff021916908373ffffffffffffffffffffffffffffffffffffffff1602179055506001905062001015565b600062000f1d7320e12a1f859b3feae5fb2a0a32c18f5a65555bbf6200045260201b60201c565b111562000f83577320e12a1f859b3feae5fb2a0a32c18f5a65555bbf600260006101000a81548173ffffffffffffffffffffffffffffffffffffffff021916908373ffffffffffffffffffffffffffffffffffffffff1602179055506001905062001015565b600062000faa7351efaf4c8b3c9afbd5ab9f4bbc82784ab6ef8faa6200045260201b60201c565b111562001010577351efaf4c8b3c9afbd5ab9f4bbc82784ab6ef8faa600260006101000a81548173ffffffffffffffffffffffffffffffffffffffff021916908373ffffffffffffffffffffffffffffffffffffffff1602179055506001905062001015565b600090505b90565b60008073ffffffffffffffffffffffffffffffffffffffff16600260009054906101000a900473ffffffffffffffffffffffffffffffffffffffff1673ffffffffffffffffffffffffffffffffffffffff161480620010a957506000620010a7600260009054906101000a900473ffffffffffffffffffffffffffffffffffffffff166200045260201b60201c565b145b15620010c357620010c160006200045d60201b60201c565b505b600260009054906101000a900473ffffffffffffffffffffffffffffffffffffffff1673ffffffffffffffffffffffffffffffffffffffff166338cc48316040518163ffffffff1660e01b8152600401602060405180830381600087803b1580156200112e57600080fd5b505af115801562001143573d6000803e3d6000fd5b505050506040513d60208110156200115a57600080fd5b810190808051906020019092919050505073ffffffffffffffffffffffffffffffffffffffff16600160009054906101000a900473ffffffffffffffffffffffffffffffffffffffff1673ffffffffffffffffffffffffffffffffffffffff1614620012a957600260009054906101000a900473ffffffffffffffffffffffffffffffffffffffff1673ffffffffffffffffffffffffffffffffffffffff166338cc48316040518163ffffffff1660e01b8152600401602060405180830381600087803b1580156200122b57600080fd5b505af115801562001240573d6000803e3d6000fd5b505050506040513d60208110156200125757600080fd5b8101908080519060200190929190505050600160006101000a81548173ffffffffffffffffffffffffffffffffffffffff021916908373ffffffffffffffffffffffffffffffffffffffff1602179055505b600160009054906101000a900473ffffffffffffffffffffffffffffffffffffffff1673ffffffffffffffffffffffffffffffffffffffff1663abaa5f3e6040518163ffffffff1660e01b815260040160206040518083038186803b1580156200131257600080fd5b505afa15801562001327573d6000803e3d6000fd5b505050506040513d60208110156200133e57600080fd5b8101908080519060200190929190505050905090565b60606000828501905080845110156200136c57600080fd5b600086602001905060008460200190505b868860200101821015620013a757818901518082880152506020820191506020810190506200137d565b85935050505095945050505050565b60008073ffffffffffffffffffffffffffffffffffffffff16600260009054906101000a900473ffffffffffffffffffffffffffffffffffffffff1673ffffffffffffffffffffffffffffffffffffffff161480620014475750600062001445600260009054906101000a900473ffffffffffffffffffffffffffffffffffffffff166200045260201b60201c565b145b1562001461576200145f60006200045d60201b60201c565b505b600260009054906101000a900473ffffffffffffffffffffffffffffffffffffffff1673ffffffffffffffffffffffffffffffffffffffff166338cc48316040518163ffffffff1660e01b8152600401602060405180830381600087803b158015620014cc57600080fd5b505af1158015620014e1573d6000803e3d6000fd5b505050506040513d6020811015620014f857600080fd5b810190808051906020019092919050505073ffffffffffffffffffffffffffffffffffffffff16600160009054906101000a900473ffffffffffffffffffffffffffffffffffffffff1673ffffffffffffffffffffffffffffffffffffffff16146200164757600260009054906101000a900473ffffffffffffffffffffffffffffffffffffffff1673ffffffffffffffffffffffffffffffffffffffff166338cc48316040518163ffffffff1660e01b8152600401602060405180830381600087803b158015620015c957600080fd5b505af1158015620015de573d6000803e3d6000fd5b505050506040513d6020811015620015f557600080fd5b8101908080519060200190929190505050600160006101000a81548173ffffffffffffffffffffffffffffffffffffffff021916908373ffffffffffffffffffffffffffffffffffffffff1602179055505b606060046040519080825280602002602001820160405280156200168057816020015b60608152602001906001900390816200166a5790505b509050836000600481106200169157fe5b602002015181600081518110620016a457fe5b602002602001018190525083600160048110620016bd57fe5b602002015181600181518110620016d057fe5b602002602001018190525083600260048110620016e957fe5b602002015181600281518110620016fc57fe5b6020026020010181905250836003600481106200171557fe5b6020020151816003815181106200172857fe5b6020026020010181905250620017468582856200178860201b60201c565b9150509392505050565b8060046000848152602001908152602001600020819055505050565b80600390805190602001906200178492919062002240565b5050565b60008073ffffffffffffffffffffffffffffffffffffffff16600260009054906101000a900473ffffffffffffffffffffffffffffffffffffffff1673ffffffffffffffffffffffffffffffffffffffff161480620018195750600062001817600260009054906101000a900473ffffffffffffffffffffffffffffffffffffffff166200045260201b60201c565b145b1562001833576200183160006200045d60201b60201c565b505b600260009054906101000a900473ffffffffffffffffffffffffffffffffffffffff1673ffffffffffffffffffffffffffffffffffffffff166338cc48316040518163ffffffff1660e01b8152600401602060405180830381600087803b1580156200189e57600080fd5b505af1158015620018b3573d6000803e3d6000fd5b505050506040513d6020811015620018ca57600080fd5b810190808051906020019092919050505073ffffffffffffffffffffffffffffffffffffffff16600160009054906101000a900473ffffffffffffffffffffffffffffffffffffffff1673ffffffffffffffffffffffffffffffffffffffff161462001a1957600260009054906101000a900473ffffffffffffffffffffffffffffffffffffffff1673ffffffffffffffffffffffffffffffffffffffff166338cc48316040518163ffffffff1660e01b8152600401602060405180830381600087803b1580156200199b57600080fd5b505af1158015620019b0573d6000803e3d6000fd5b505050506040513d6020811015620019c757600080fd5b8101908080519060200190929190505050600160006101000a81548173ffffffffffffffffffffffffffffffffffffffff021916908373ffffffffffffffffffffffffffffffffffffffff1602179055505b6000600160009054906101000a900473ffffffffffffffffffffffffffffffffffffffff1673ffffffffffffffffffffffffffffffffffffffff16632ef3accc86856040518363ffffffff1660e01b81526004018080602001838152602001828103825284818151815260200191508051906020019080838360005b8381101562001ab257808201518184015260208101905062001a95565b50505050905090810190601f16801562001ae05780820380516001836020036101000a031916815260200191505b509350505050602060405180830381600087803b15801562001b0157600080fd5b505af115801562001b16573d6000803e3d6000fd5b505050506040513d602081101562001b2d57600080fd5b81019080805190602001909291905050509050823a02670de0b6b3a76400000181111562001b62576000801b91505062001d19565b606062001b758562001d2060201b60201c565b9050600160009054906101000a900473ffffffffffffffffffffffffffffffffffffffff1673ffffffffffffffffffffffffffffffffffffffff1663c55c1cb68360008985896040518663ffffffff1660e01b8152600401808581526020018060200180602001848152602001838103835286818151815260200191508051906020019080838360005b8381101562001c1c57808201518184015260208101905062001bff565b50505050905090810190601f16801562001c4a5780820380516001836020036101000a031916815260200191505b50838103825285818151815260200191508051906020019080838360005b8381101562001c8557808201518184015260208101905062001c68565b50505050905090810190601f16801562001cb35780820380516001836020036101000a031916815260200191505b5096505050505050506020604051808303818588803b15801562001cd657600080fd5b505af115801562001ceb573d6000803e3d6000fd5b50505050506040513d602081101562001d0357600080fd5b8101908080519060200190929190505050925050505b9392505050565b606062001d3262001ddb60201b60201c565b62001d3c620022c7565b62001d558161040062001de760201b6200419e1760201c565b62001d6b8162001e3460201b620041e81760201c565b60008090505b835181101562001db75762001da984828151811062001d8c57fe5b60200260200101518362001e4a60201b620041f61790919060201c565b808060010191505062001d71565b5062001dce8162001e7e60201b6200421b1760201c565b8060000151915050919050565b60405180590338823950565b600081905060006020828162001df957fe5b061462001e14576020818162001e0b57fe5b06602003810190505b808360200181815250506040518084526000815281810160405250505050565b62001e4781600462001e9460201b60201c565b50565b62001e5f826002835162001ebc60201b60201c565b62001e7981836200204460201b6200438a1790919060201c565b505050565b62001e9181600762001e9460201b60201c565b50565b62001eb8601f60058360ff16901b17836200210460201b620044351790919060201c565b5050565b6017811162001ef15762001eeb8160058460ff16901b60ff1617846200210460201b620044351790919060201c565b6200203f565b60ff811162001f425762001f1e601860058460ff16901b17846200210460201b620044351790919060201c565b62001f3b816001856200214d60201b62004475179092919060201c565b506200203e565b61ffff811162001f945762001f70601960058460ff16901b17846200210460201b620044351790919060201c565b62001f8d816002856200214d60201b62004475179092919060201c565b506200203d565b63ffffffff811162001fe85762001fc4601a60058460ff16901b17846200210460201b620044351790919060201c565b62001fe1816004856200214d60201b62004475179092919060201c565b506200203c565b67ffffffffffffffff81116200203b576200201c601b60058460ff16901b17846200210460201b620044351790919060201c565b62002039816008856200214d60201b62004475179092919060201c565b505b5b5b5b5b505050565b6200204e620022c7565b826020015183600001515183510111156200208f576200208e8360026200208186602001518651620021c760201b60201c565b02620021e560201b60201c565b5b60008060008451905085518051602081830101945086518101825260208701935050505b60208110620020d85781518352602083019250602082019150602081039050620020b3565b60006001826020036101000a039050801983511681855116818117865250508694505050505092915050565b81602001516001836000015151011115620021335762002132826002846020015102620021e560201b60201c565b5b815180516020818301018381536001820183525050505050565b62002157620022c7565b83602001518460000151518301111562002196576200219584600262002188876020015186620021c760201b60201c565b02620021e560201b60201c565b5b60006001836101000a0390508451805184818301018684198251161781528582018352505050849150509392505050565b600081831115620021db57829050620021df565b8190505b92915050565b60608260000151905062002200838362001de760201b60201c565b6200221283826200204460201b60201c565b50505050565b60405180608001604052806004905b6060815260200190600190039081620022275790505090565b828054600181600116156101000203166002900490600052602060002090601f016020900481019282601f106200228357805160ff1916838001178555620022b4565b82800160010185558215620022b4579182015b82811115620022b357825182559160200191906001019062002296565b5b509050620022c39190620022e1565b5090565b604051806040016040528060608152602001600081525090565b6200230691905b8082111562002302576000816000905550600101620022e8565b5090565b90565b61479980620023196000396000f3fe6080604052600436106100dd5760003560e01c8063893d20e81161007f578063a2e6204511610059578063a2e62045146105ca578063a95783b5146105e8578063bd097e211461064d578063f2fde38b14610657576100dd565b8063893d20e8146104b75780638da5cb5b14610515578063958f85bd1461056c576100dd565b806338bbfa50116100bb57806338bbfa501461028e5780634eb393c6146103f75780637365870b14610472578063853828b6146104a0576100dd565b806322af00fa146100e257806327dc297e146101815780632e1a7d4d14610253575b600080fd5b3480156100ee57600080fd5b5061011b6004803603602081101561010557600080fd5b81019080803590602001909291905050506106a8565b604051808681526020018573ffffffffffffffffffffffffffffffffffffffff1673ffffffffffffffffffffffffffffffffffffffff16815260200184815260200183151515158152602001821515151581526020019550505050505060405180910390f35b34801561018d57600080fd5b50610251600480360360408110156101a457600080fd5b8101908080359060200190929190803590602001906401000000008111156101cb57600080fd5b8201836020820111156101dd57600080fd5b803590602001918460018302840111640100000000831117156101ff57600080fd5b91908080601f016020809104026020016040519081016040528093929190818152602001838380828437600081840152601f19601f820116905080830192505050505050509192919290505050610725565b005b34801561025f57600080fd5b5061028c6004803603602081101561027657600080fd5b8101908080359060200190929190505050610768565b005b34801561029a57600080fd5b506103f5600480360360608110156102b157600080fd5b8101908080359060200190929190803590602001906401000000008111156102d857600080fd5b8201836020820111156102ea57600080fd5b8035906020019184600183028401116401000000008311171561030c57600080fd5b91908080601f016020809104026020016040519081016040528093929190818152602001838380828437600081840152601f19601f8201169050808301925050505050505091929192908035906020019064010000000081111561036f57600080fd5b82018360208201111561038157600080fd5b803590602001918460018302840111640100000000831117156103a357600080fd5b91908080601f016020809104026020016040519081016040528093929190818152602001838380828437600081840152601f19601f820116905080830192505050505050509192919290505050610981565b005b34801561040357600080fd5b506104306004803603602081101561041a57600080fd5b8101908080359060200190929190505050610d94565b604051808273ffffffffffffffffffffffffffffffffffffffff1673ffffffffffffffffffffffffffffffffffffffff16815260200191505060405180910390f35b61049e6004803603602081101561048857600080fd5b8101908080359060200190929190505050610dc7565b005b3480156104ac57600080fd5b506104b56111aa565b005b3480156104c357600080fd5b506104cc61134d565b604051808373ffffffffffffffffffffffffffffffffffffffff1673ffffffffffffffffffffffffffffffffffffffff1681526020018281526020019250505060405180910390f35b34801561052157600080fd5b5061052a6113b6565b604051808273ffffffffffffffffffffffffffffffffffffffff1673ffffffffffffffffffffffffffffffffffffffff16815260200191505060405180910390f35b34801561057857600080fd5b506105816113db565b604051808373ffffffffffffffffffffffffffffffffffffffff1673ffffffffffffffffffffffffffffffffffffffff1681526020018281526020019250505060405180910390f35b6105d26113ff565b6040518082815260200191505060405180910390f35b3480156105f457600080fd5b506106376004803603602081101561060b57600080fd5b81019080803573ffffffffffffffffffffffffffffffffffffffff169060200190929190505050611472565b6040518082815260200191505060405180910390f35b61065561148a565b005b34801561066357600080fd5b506106a66004803603602081101561067a57600080fd5b81019080803573ffffffffffffffffffffffffffffffffffffffff16906020019092919050505061156b565b005b600681815481106106b557fe5b90600052602060002090600402016000915090508060000154908060010160009054906101000a900473ffffffffffffffffffffffffffffffffffffffff16908060020154908060030160009054906101000a900460ff16908060030160019054906101000a900460ff16905085565b610764828260006040519080825280601f01601f19166020018201604052801561075e5781602001600182028038833980820191505090505b50610981565b5050565b6000809054906101000a900473ffffffffffffffffffffffffffffffffffffffff1673ffffffffffffffffffffffffffffffffffffffff163373ffffffffffffffffffffffffffffffffffffffff161461080d576040517f08c379a000000000000000000000000000000000000000000000000000000000815260040180806020018281038252602e815260200180614602602e913960400191505060405180910390fd5b3081808273ffffffffffffffffffffffffffffffffffffffff1631101561087f576040517f08c379a00000000000000000000000000000000000000000000000000000000081526004018080602001828103825260358152602001806146306035913960400191505060405180910390fd5b6000809054906101000a900473ffffffffffffffffffffffffffffffffffffffff1673ffffffffffffffffffffffffffffffffffffffff163373ffffffffffffffffffffffffffffffffffffffff16146108d557fe5b60003073ffffffffffffffffffffffffffffffffffffffff163190506000809054906101000a900473ffffffffffffffffffffffffffffffffffffffff1673ffffffffffffffffffffffffffffffffffffffff166108fc859081150290604051600060405180830381858888f19350505050158015610958573d6000803e3d6000fd5b508381033073ffffffffffffffffffffffffffffffffffffffff16311461097b57fe5b50505050565b61098961168d565b73ffffffffffffffffffffffffffffffffffffffff163373ffffffffffffffffffffffffffffffffffffffff16146109c057600080fd5b60006109cd8484846119ad565b60ff1614610a2d577f81816b50aae098d98a0f7930cfef379261913e37ed33759052b5eff95fbb8d5f8360405180828152602001806020018281038252602181526020018061468c602191396040019250505060405180910390a1610d8f565b60006001806101000a039050600081846040516020018082805190602001908083835b60208310610a735780518252602082019150602081019050602083039250610a50565b6001836020036101000a0380198251168184511680821785525050505050509050019150506040516020818303038152906040528051906020012060001c81610ab857fe5b06905060008090505b600680549050811015610d8b57600060068281548110610add57fe5b90600052602060002090600402019050868160000154148015610b155750600115158160030160019054906101000a900460ff161515145b15610d7d5760008160030160016101000a81548160ff02191690831515021790555060808311610c195760008160030160006101000a81548160ff0219169083151502179055507f0948ef2cfa8c16c7422087516e87bcd3f20c04fe0409205ee89a8b70a1059e91878260010160009054906101000a900473ffffffffffffffffffffffffffffffffffffffff1683600201548460030160009054906101000a900460ff16604051808581526020018473ffffffffffffffffffffffffffffffffffffffff1673ffffffffffffffffffffffffffffffffffffffff1681526020018381526020018215151515815260200194505050505060405180910390a1610d7c565b60818310610d7b576000610c3b60028360020154611add90919063ffffffff16565b905060018260030160006101000a81548160ff0219169083151502179055508160010160009054906101000a900473ffffffffffffffffffffffffffffffffffffffff1673ffffffffffffffffffffffffffffffffffffffff166108fc829081150290604051600060405180830381858888f19350505050158015610cc4573d6000803e3d6000fd5b507f0948ef2cfa8c16c7422087516e87bcd3f20c04fe0409205ee89a8b70a1059e91888360010160009054906101000a900473ffffffffffffffffffffffffffffffffffffffff16838560030160009054906101000a900460ff16604051808581526020018473ffffffffffffffffffffffffffffffffffffffff1673ffffffffffffffffffffffffffffffffffffffff1681526020018381526020018215151515815260200194505050505060405180910390a1505b5b5b508080600101915050610ac1565b5050505b505050565b60076020528060005260406000206000915054906101000a900473ffffffffffffffffffffffffffffffffffffffff1681565b662386f26fc1000080341015610e28576040517f08c379a00000000000000000000000000000000000000000000000000000000081526004018080602001828103825260278152602001806146656027913960400191505060405180910390fd5b674563918244f40000341115610e89576040517f08c379a00000000000000000000000000000000000000000000000000000000081526004018080602001828103825260218152602001806146ce6021913960400191505060405180910390fd5b3382808273ffffffffffffffffffffffffffffffffffffffff16311015610efb576040517f08c379a00000000000000000000000000000000000000000000000000000000081526004018080602001828103825260358152602001806146306035913960400191505060405180910390fd5b3084808273ffffffffffffffffffffffffffffffffffffffff16311015610f6d576040517f08c379a00000000000000000000000000000000000000000000000000000000081526004018080602001828103825260358152602001806146306035913960400191505060405180910390fd5b6000610f776113ff565b90506000600160066040518060a001604052808581526020013373ffffffffffffffffffffffffffffffffffffffff1681526020018b815260200160001515815260200160011515815250908060018154018082558091505090600182039060005260206000209060040201600090919290919091506000820151816000015560208201518160010160006101000a81548173ffffffffffffffffffffffffffffffffffffffff021916908373ffffffffffffffffffffffffffffffffffffffff1602179055506040820151816002015560608201518160030160006101000a81548160ff02191690831515021790555060808201518160030160016101000a81548160ff0219169083151502179055505050039050336007600083815260200190815260200160002060006101000a81548173ffffffffffffffffffffffffffffffffffffffff021916908373ffffffffffffffffffffffffffffffffffffffff1602179055506001600860003373ffffffffffffffffffffffffffffffffffffffff1673ffffffffffffffffffffffffffffffffffffffff168152602001908152602001600020600082825401925050819055507fcd5f79909b53eb4c55b0a2d7004914519bad1e3ade1b3dae6005d528d83da31e82338a604051808481526020018373ffffffffffffffffffffffffffffffffffffffff1673ffffffffffffffffffffffffffffffffffffffff168152602001828152602001935050505060405180910390a15050505050505050565b6000809054906101000a900473ffffffffffffffffffffffffffffffffffffffff1673ffffffffffffffffffffffffffffffffffffffff163373ffffffffffffffffffffffffffffffffffffffff161461124f576040517f08c379a000000000000000000000000000000000000000000000000000000000815260040180806020018281038252602e815260200180614602602e913960400191505060405180910390fd5b6000809054906101000a900473ffffffffffffffffffffffffffffffffffffffff1673ffffffffffffffffffffffffffffffffffffffff163373ffffffffffffffffffffffffffffffffffffffff16146112a557fe5b60003073ffffffffffffffffffffffffffffffffffffffff163190506000809054906101000a900473ffffffffffffffffffffffffffffffffffffffff1673ffffffffffffffffffffffffffffffffffffffff166108fc829081150290604051600060405180830381858888f19350505050158015611328573d6000803e3d6000fd5b5060003073ffffffffffffffffffffffffffffffffffffffff16311461134a57fe5b50565b6000806000809054906101000a900473ffffffffffffffffffffffffffffffffffffffff166000809054906101000a900473ffffffffffffffffffffffffffffffffffffffff1673ffffffffffffffffffffffffffffffffffffffff1631819150915091509091565b6000809054906101000a900473ffffffffffffffffffffffffffffffffffffffff1681565b600080303073ffffffffffffffffffffffffffffffffffffffff1631915091509091565b60008060009050600062030d409050600061141c83600184611b63565b90507fc4dc360d0a9c0677a3379ae0a3d81e887f761e65fdf3d7e00859d1bcd3c4738960405180806020018281038252603681526020018061472f6036913960400191505060405180910390a180935050505090565b60086020528060005260406000206000915090505481565b3334808273ffffffffffffffffffffffffffffffffffffffff163110156114fc576040517f08c379a00000000000000000000000000000000000000000000000000000000081526004018080602001828103825260358152602001806146306035913960400191505060405180910390fd5b7f0939f6f4877faf071412e527bc4c6d0bd65ad077e52b57334f7765265647a7f13334604051808373ffffffffffffffffffffffffffffffffffffffff1673ffffffffffffffffffffffffffffffffffffffff1681526020018281526020019250505060405180910390a15050565b6000809054906101000a900473ffffffffffffffffffffffffffffffffffffffff1673ffffffffffffffffffffffffffffffffffffffff163373ffffffffffffffffffffffffffffffffffffffff1614611610576040517f08c379a000000000000000000000000000000000000000000000000000000000815260040180806020018281038252602e815260200180614602602e913960400191505060405180910390fd5b600073ffffffffffffffffffffffffffffffffffffffff168173ffffffffffffffffffffffffffffffffffffffff16141561164a57600080fd5b806000806101000a81548173ffffffffffffffffffffffffffffffffffffffff021916908373ffffffffffffffffffffffffffffffffffffffff16021790555050565b60008073ffffffffffffffffffffffffffffffffffffffff16600260009054906101000a900473ffffffffffffffffffffffffffffffffffffffff1673ffffffffffffffffffffffffffffffffffffffff16148061171557506000611713600260009054906101000a900473ffffffffffffffffffffffffffffffffffffffff166120fe565b145b15611726576117246000612109565b505b600260009054906101000a900473ffffffffffffffffffffffffffffffffffffffff1673ffffffffffffffffffffffffffffffffffffffff166338cc48316040518163ffffffff1660e01b8152600401602060405180830381600087803b15801561179057600080fd5b505af11580156117a4573d6000803e3d6000fd5b505050506040513d60208110156117ba57600080fd5b810190808051906020019092919050505073ffffffffffffffffffffffffffffffffffffffff16600160009054906101000a900473ffffffffffffffffffffffffffffffffffffffff1673ffffffffffffffffffffffffffffffffffffffff161461190557600260009054906101000a900473ffffffffffffffffffffffffffffffffffffffff1673ffffffffffffffffffffffffffffffffffffffff166338cc48316040518163ffffffff1660e01b8152600401602060405180830381600087803b15801561188957600080fd5b505af115801561189d573d6000803e3d6000fd5b505050506040513d60208110156118b357600080fd5b8101908080519060200190929190505050600160006101000a81548173ffffffffffffffffffffffffffffffffffffffff021916908373ffffffffffffffffffffffffffffffffffffffff1602179055505b600160009054906101000a900473ffffffffffffffffffffffffffffffffffffffff1673ffffffffffffffffffffffffffffffffffffffff1663c281d19e6040518163ffffffff1660e01b815260040160206040518083038186803b15801561196d57600080fd5b505afa158015611981573d6000803e3d6000fd5b505050506040513d602081101561199757600080fd5b8101908080519060200190929190505050905090565b60007f4c00000000000000000000000000000000000000000000000000000000000000826000815181106119dd57fe5b602001015160f81c60f81b7effffffffffffffffffffffffffffffffffffffffffffffffffffffffffffff1916141580611a7057507f500000000000000000000000000000000000000000000000000000000000000082600181518110611a4057fe5b602001015160f81c60f81b7effffffffffffffffffffffffffffffffffffffffffffffffffffffffffffff191614155b80611a9c5750600160ff1682600281518110611a8857fe5b602001015160f81c60f81b60f81c60ff1614155b15611aaa5760019050611ad6565b6000611abf838686611aba61211a565b6121bc565b905080611ad0576002915050611ad6565b60009150505b9392505050565b600080831415611af05760009050611b5d565b6000828402905082848281611b0157fe5b0414611b58576040517f08c379a00000000000000000000000000000000000000000000000000000000081526004018080602001828103825260218152602001806146ad6021913960400191505060405180910390fd5b809150505b92915050565b60008083118015611b75575060208311155b611b7e57600080fd5b600a84029350606060016040519080825280601f01601f191660200182016040528015611bba5781602001600182028038833980820191505090505b5090508360f81b81600081518110611bce57fe5b60200101907effffffffffffffffffffffffffffffffffffffffffffffffffffffffffffff1916908160001a905350606060206040519080825280601f01601f191660200182016040528015611c335781602001600182028038833980820191505090505b509050606060206040519080825280601f01601f191660200182016040528015611c6c5781602001600182028038833980820191505090505b5090506000611c79612867565b905060208352424118600143034018602084015260208252806020830152606060206040519080825280601f01601f191660200182016040528015611ccd5781602001600182028038833980820191505090505b509050886020820152606060086040519080825280601f01601f191660200182016040528015611d0c5781602001600182028038833980820191505090505b509050611d1f8260186008846000612b87565b50611d2861451b565b60405180608001604052808781526020018881526020018681526020018481525090506000611d8d6040518060400160405280600681526020017f72616e646f6d0000000000000000000000000000000000000000000000000000815250838c612be6565b9050606060086040519080825280601f01601f191660200182016040528015611dc55781602001600182028038833980820191505090505b50905060208401517f0100000000000000000000000000000000000000000000000000000000000000810460278301537e01000000000000000000000000000000000000000000000000000000000000810460268301537d010000000000000000000000000000000000000000000000000000000000810460258301537c0100000000000000000000000000000000000000000000000000000000810460248301537b01000000000000000000000000000000000000000000000000000000810460238301537a0100000000000000000000000000000000000000000000000000008104602283015379010000000000000000000000000000000000000000000000000081046021830153780100000000000000000000000000000000000000000000000081046020830153506120eb828285600160048110611f0457fe5b6020020151600287600060048110611f1857fe5b60200201516040518082805190602001908083835b60208310611f505780518252602082019150602081019050602083039250611f2d565b6001836020036101000a038019825116818451168082178552505050505050905001915050602060405180830381855afa158015611f92573d6000803e3d6000fd5b5050506040513d6020811015611fa757600080fd5b810190808051906020019092919050505087600260048110611fc557fe5b60200201516040516020018085805190602001908083835b602083106120005780518252602082019150602081019050602083039250611fdd565b6001836020036101000a03801982511681845116808217855250505050505090500184805190602001908083835b60208310612051578051825260208201915060208101905060208303925061202e565b6001836020036101000a03801982511681845116808217855250505050505090500183815260200182805190602001908083835b602083106120a85780518252602082019150602081019050602083039250612085565b6001836020036101000a03801982511681845116808217855250505050505090500194505050505060405160208183030381529060405280519060200120612f55565b8199505050505050505050509392505050565b6000813b9050919050565b6000612113612f71565b9050919050565b606060038054600181600116156101000203166002900480601f0160208091040260200160405190810160405280929190818152602001828054600181600116156101000203166002900480156121b25780601f10612187576101008083540402835291602001916121b2565b820191906000526020600020905b81548152906001019060200180831161219557829003601f168201915b5050505050905090565b60008060206002876045815181106121d057fe5b602001015160f81c60f81b60f81c60ff1601604401019050606060206040519080825280601f01601f19166020018201604052801561221e5781602001600182028038833980820191505090505b50905061223087836020846000612b87565b50600284876040516020018083805190602001908083835b6020831061226b5780518252602082019150602081019050602083039250612248565b6001836020036101000a038019825116818451168082178552505050505050905001828152602001925050506040516020818303038152906040526040518082805190602001908083835b602083106122d957805182526020820191506020810190506020830392506122b6565b6001836020036101000a038019825116818451168082178552505050505050905001915050602060405180830381855afa15801561231b573d6000803e3d6000fd5b5050506040513d602081101561233057600080fd5b8101908080519060200190929190505050604051602001808281526020019150506040516020818303038152906040528051906020012081805190602001201461237f5760009250505061285f565b6060600288600160498601018151811061239557fe5b602001015160f81c60f81b60f81c60ff16016040519080825280601f01601f1916602001820160405280156123d95781602001600182028038833980820191505090505b5090506123ee88604985018351846000612b87565b506124b96002826040518082805190602001908083835b602083106124285780518252602082019150602081019050602083039250612405565b6001836020036101000a038019825116818451168082178552505050505050905001915050602060405180830381855afa15801561246a573d6000803e3d6000fd5b5050506040513d602081101561247f57600080fd5b8101908080519060200190929190505050878a60086020880101815181106124a357fe5b602001015160f81c60f81b60f81c60ff166134c8565b6124c9576000935050505061285f565b606060296040519080825280601f01601f1916602001820160405280156124ff5781602001600182028038833980820191505090505b50905061251489602086016029846000612b87565b506060604080519080825280601f01601f19166020018201604052801561254a5781602001600182028038833980820191505090505b50905060006041845160296020890101010190506125708b604083036040856000612b87565b5060006002836040518082805190602001908083835b602083106125a95780518252602082019150602081019050602083039250612586565b6001836020036101000a038019825116818451168082178552505050505050905001915050602060405180830381855afa1580156125eb573d6000803e3d6000fd5b5050506040513d602081101561260057600080fd5b8101908080519060200190929190505050905083816040516020018083805190602001908083835b6020831061264b5780518252602082019150602081019050602083039250612628565b6001836020036101000a0380198251168184511680821785525050505050509050018281526020019250505060405160208183030381529060405280519060200120600460008d81526020019081526020016000205414156126c357600460008c8152602001908152602001600020600090556126d3565b600097505050505050505061285f565b606060496040519080825280601f01601f1916602001820160405280156127095781602001600182028038833980820191505090505b50905061271b8d896049846000612b87565b506127c46002826040518082805190602001908083835b602083106127555780518252602082019150602081019050602083039250612732565b6001836020036101000a038019825116818451168082178552505050505050905001915050602060405180830381855afa158015612797573d6000803e3d6000fd5b5050506040513d60208110156127ac57600080fd5b81019080805190602001909291905050508786613578565b6127d95760009850505050505050505061285f565b6005600083815260200190815260200160002060009054906101000a900460ff16612833576128088d84613736565b6005600084815260200190815260200160002060006101000a81548160ff0219169083151502179055505b6005600083815260200190815260200160002060009054906101000a900460ff16985050505050505050505b949350505050565b60008073ffffffffffffffffffffffffffffffffffffffff16600260009054906101000a900473ffffffffffffffffffffffffffffffffffffffff1673ffffffffffffffffffffffffffffffffffffffff1614806128ef575060006128ed600260009054906101000a900473ffffffffffffffffffffffffffffffffffffffff166120fe565b145b15612900576128fe6000612109565b505b600260009054906101000a900473ffffffffffffffffffffffffffffffffffffffff1673ffffffffffffffffffffffffffffffffffffffff166338cc48316040518163ffffffff1660e01b8152600401602060405180830381600087803b15801561296a57600080fd5b505af115801561297e573d6000803e3d6000fd5b505050506040513d602081101561299457600080fd5b810190808051906020019092919050505073ffffffffffffffffffffffffffffffffffffffff16600160009054906101000a900473ffffffffffffffffffffffffffffffffffffffff1673ffffffffffffffffffffffffffffffffffffffff1614612adf57600260009054906101000a900473ffffffffffffffffffffffffffffffffffffffff1673ffffffffffffffffffffffffffffffffffffffff166338cc48316040518163ffffffff1660e01b8152600401602060405180830381600087803b158015612a6357600080fd5b505af1158015612a77573d6000803e3d6000fd5b505050506040513d6020811015612a8d57600080fd5b8101908080519060200190929190505050600160006101000a81548173ffffffffffffffffffffffffffffffffffffffff021916908373ffffffffffffffffffffffffffffffffffffffff1602179055505b600160009054906101000a900473ffffffffffffffffffffffffffffffffffffffff1673ffffffffffffffffffffffffffffffffffffffff1663abaa5f3e6040518163ffffffff1660e01b815260040160206040518083038186803b158015612b4757600080fd5b505afa158015612b5b573d6000803e3d6000fd5b505050506040513d6020811015612b7157600080fd5b8101908080519060200190929190505050905090565b6060600082850190508084511015612b9e57600080fd5b600086602001905060008460200190505b868860200101821015612bd75781890151808288015250602082019150602081019050612baf565b85935050505095945050505050565b60008073ffffffffffffffffffffffffffffffffffffffff16600260009054906101000a900473ffffffffffffffffffffffffffffffffffffffff1673ffffffffffffffffffffffffffffffffffffffff161480612c6e57506000612c6c600260009054906101000a900473ffffffffffffffffffffffffffffffffffffffff166120fe565b145b15612c7f57612c7d6000612109565b505b600260009054906101000a900473ffffffffffffffffffffffffffffffffffffffff1673ffffffffffffffffffffffffffffffffffffffff166338cc48316040518163ffffffff1660e01b8152600401602060405180830381600087803b158015612ce957600080fd5b505af1158015612cfd573d6000803e3d6000fd5b505050506040513d6020811015612d1357600080fd5b810190808051906020019092919050505073ffffffffffffffffffffffffffffffffffffffff16600160009054906101000a900473ffffffffffffffffffffffffffffffffffffffff1673ffffffffffffffffffffffffffffffffffffffff1614612e5e57600260009054906101000a900473ffffffffffffffffffffffffffffffffffffffff1673ffffffffffffffffffffffffffffffffffffffff166338cc48316040518163ffffffff1660e01b8152600401602060405180830381600087803b158015612de257600080fd5b505af1158015612df6573d6000803e3d6000fd5b505050506040513d6020811015612e0c57600080fd5b8101908080519060200190929190505050600160006101000a81548173ffffffffffffffffffffffffffffffffffffffff021916908373ffffffffffffffffffffffffffffffffffffffff1602179055505b60606004604051908082528060200260200182016040528015612e9557816020015b6060815260200190600190039081612e805790505b50905083600060048110612ea557fe5b602002015181600081518110612eb757fe5b602002602001018190525083600160048110612ecf57fe5b602002015181600181518110612ee157fe5b602002602001018190525083600260048110612ef957fe5b602002015181600281518110612f0b57fe5b602002602001018190525083600360048110612f2357fe5b602002015181600381518110612f3557fe5b6020026020010181905250612f4b858285613b4e565b9150509392505050565b8060046000848152602001908152602001600020819055505050565b600080612f91731d3b2638a7cc9f2cb3d298a3da7a90b67e5506ed6120fe565b111561303357731d3b2638a7cc9f2cb3d298a3da7a90b67e5506ed600260006101000a81548173ffffffffffffffffffffffffffffffffffffffff021916908373ffffffffffffffffffffffffffffffffffffffff16021790555061302a6040518060400160405280600b81526020017f6574685f6d61696e6e65740000000000000000000000000000000000000000008152506140b4565b600190506134c5565b600061305273c03a2615d5efaf5f49f60b7bb6583eaec212fdf16120fe565b11156130f45773c03a2615d5efaf5f49f60b7bb6583eaec212fdf1600260006101000a81548173ffffffffffffffffffffffffffffffffffffffff021916908373ffffffffffffffffffffffffffffffffffffffff1602179055506130eb6040518060400160405280600c81526020017f6574685f726f707374656e3300000000000000000000000000000000000000008152506140b4565b600190506134c5565b600061311373b7a07bcf2ba2f2703b24c0691b5278999c59ac7e6120fe565b11156131b55773b7a07bcf2ba2f2703b24c0691b5278999c59ac7e600260006101000a81548173ffffffffffffffffffffffffffffffffffffffff021916908373ffffffffffffffffffffffffffffffffffffffff1602179055506131ac6040518060400160405280600981526020017f6574685f6b6f76616e00000000000000000000000000000000000000000000008152506140b4565b600190506134c5565b60006131d473146500cfd35b22e4a392fe0adc06de1a1368ed486120fe565b11156132765773146500cfd35b22e4a392fe0adc06de1a1368ed48600260006101000a81548173ffffffffffffffffffffffffffffffffffffffff021916908373ffffffffffffffffffffffffffffffffffffffff16021790555061326d6040518060400160405280600b81526020017f6574685f72696e6b6562790000000000000000000000000000000000000000008152506140b4565b600190506134c5565b600061329573a2998efd205fb9d4b4963afb70778d6354ad3a416120fe565b11156133375773a2998efd205fb9d4b4963afb70778d6354ad3a41600260006101000a81548173ffffffffffffffffffffffffffffffffffffffff021916908373ffffffffffffffffffffffffffffffffffffffff16021790555061332e6040518060400160405280600a81526020017f6574685f676f65726c69000000000000000000000000000000000000000000008152506140b4565b600190506134c5565b6000613356736f485c8bf6fc43ea212e93bbf8ce046c7f1cb4756120fe565b11156133ba57736f485c8bf6fc43ea212e93bbf8ce046c7f1cb475600260006101000a81548173ffffffffffffffffffffffffffffffffffffffff021916908373ffffffffffffffffffffffffffffffffffffffff160217905550600190506134c5565b60006133d97320e12a1f859b3feae5fb2a0a32c18f5a65555bbf6120fe565b111561343d577320e12a1f859b3feae5fb2a0a32c18f5a65555bbf600260006101000a81548173ffffffffffffffffffffffffffffffffffffffff021916908373ffffffffffffffffffffffffffffffffffffffff160217905550600190506134c5565b600061345c7351efaf4c8b3c9afbd5ab9f4bbc82784ab6ef8faa6120fe565b11156134c0577351efaf4c8b3c9afbd5ab9f4bbc82784ab6ef8faa600260006101000a81548173ffffffffffffffffffffffffffffffffffffffff021916908373ffffffffffffffffffffffffffffffffffffffff160217905550600190506134c5565b600090505b90565b60008060019050828451146134dc57600080fd5b60008090505b8381101561356c578481815181106134f657fe5b602001015160f81c60f81b7effffffffffffffffffffffffffffffffffffffffffffffffffffffffffffff191686826020811061352f57fe5b1a60f81b7effffffffffffffffffffffffffffffffffffffffffffffffffffffffffffff19161461355f57600091505b80806001019150506134e2565b50809150509392505050565b6000806000806000606060206040519080825280601f01601f1916602001820160405280156135b65781602001600182028038833980820191505090505b50905060006020896003815181106135ca57fe5b602001015160f81c60f81b60f81c60ff160360040190506135f089826020856000612b87565b9150606060206040519080825280601f01601f1916602001820160405280156136285781602001600182028038833980820191505090505b5090506022820191506136648a60208c600186038151811061364657fe5b602001015160f81c60f81b60f81c60ff160384016020846000612b87565b905060208301519450602081015193506136818b601b87876140ce565b80975081985050508573ffffffffffffffffffffffffffffffffffffffff16898051906020012060001c73ffffffffffffffffffffffffffffffffffffffff1614156136d757600197505050505050505061372f565b6136e48b601c87876140ce565b80975081985050508573ffffffffffffffffffffffffffffffffffffffff16898051906020012060001c73ffffffffffffffffffffffffffffffffffffffff16149750505050505050505b9392505050565b6000806060600285600186018151811061374c57fe5b602001015160f81c60f81b60f81c60ff16016040519080825280601f01601f1916602001820160405280156137905781602001600182028038833980820191505090505b5090506137a285858351846000612b87565b506060604080519080825280601f01601f1916602001820160405280156137d85781602001600182028038833980820191505090505b5090506137eb8660046040846000612b87565b50606060626040519080825280601f01601f1916602001820160405280156138225781602001600182028038833980820191505090505b509050600160f81b8160008151811061383757fe5b60200101907effffffffffffffffffffffffffffffffffffffffffffffffffffffffffffff1916908160001a90535061387887604188036041846001612b87565b5060606040518060400160405280602081526020017ffd94fa71bc0ba10d39d464d0d8f465efeef0a2764e3887fcc9df41ded20f505c81525090506138c38160006020856042612b87565b5061396c6002836040518082805190602001908083835b602083106138fd57805182526020820191506020810190506020830392506138da565b6001836020036101000a038019825116818451168082178552505050505050905001915050602060405180830381855afa15801561393f573d6000803e3d6000fd5b5050506040513d602081101561395457600080fd5b81019080805190602001909291905050508585613578565b94508461398157600095505050505050613b48565b60606040518060600160405280604081526020016146ef604091399050606060426040519080825280601f01601f1916602001820160405280156139d45781602001600182028038833980820191505090505b50905060fe60f81b816000815181106139e957fe5b60200101907effffffffffffffffffffffffffffffffffffffffffffffffffffffffffffff1916908160001a905350613a288a60036041846001612b87565b50606060028b604581518110613a3a57fe5b602001015160f81c60f81b60f81c60ff16016040519080825280601f01601f191660200182016040528015613a7e5781602001600182028038833980820191505090505b509050613a918b60448351846000612b87565b50613b3a6002836040518082805190602001908083835b60208310613acb5780518252602082019150602081019050602083039250613aa8565b6001836020036101000a038019825116818451168082178552505050505050905001915050602060405180830381855afa158015613b0d573d6000803e3d6000fd5b5050506040513d6020811015613b2257600080fd5b81019080805190602001909291905050508285613578565b975087985050505050505050505b92915050565b60008073ffffffffffffffffffffffffffffffffffffffff16600260009054906101000a900473ffffffffffffffffffffffffffffffffffffffff1673ffffffffffffffffffffffffffffffffffffffff161480613bd657506000613bd4600260009054906101000a900473ffffffffffffffffffffffffffffffffffffffff166120fe565b145b15613be757613be56000612109565b505b600260009054906101000a900473ffffffffffffffffffffffffffffffffffffffff1673ffffffffffffffffffffffffffffffffffffffff166338cc48316040518163ffffffff1660e01b8152600401602060405180830381600087803b158015613c5157600080fd5b505af1158015613c65573d6000803e3d6000fd5b505050506040513d6020811015613c7b57600080fd5b810190808051906020019092919050505073ffffffffffffffffffffffffffffffffffffffff16600160009054906101000a900473ffffffffffffffffffffffffffffffffffffffff1673ffffffffffffffffffffffffffffffffffffffff1614613dc657600260009054906101000a900473ffffffffffffffffffffffffffffffffffffffff1673ffffffffffffffffffffffffffffffffffffffff166338cc48316040518163ffffffff1660e01b8152600401602060405180830381600087803b158015613d4a57600080fd5b505af1158015613d5e573d6000803e3d6000fd5b505050506040513d6020811015613d7457600080fd5b8101908080519060200190929190505050600160006101000a81548173ffffffffffffffffffffffffffffffffffffffff021916908373ffffffffffffffffffffffffffffffffffffffff1602179055505b6000600160009054906101000a900473ffffffffffffffffffffffffffffffffffffffff1673ffffffffffffffffffffffffffffffffffffffff16632ef3accc86856040518363ffffffff1660e01b81526004018080602001838152602001828103825284818151815260200191508051906020019080838360005b83811015613e5d578082015181840152602081019050613e42565b50505050905090810190601f168015613e8a5780820380516001836020036101000a031916815260200191505b509350505050602060405180830381600087803b158015613eaa57600080fd5b505af1158015613ebe573d6000803e3d6000fd5b505050506040513d6020811015613ed457600080fd5b81019080805190602001909291905050509050823a02670de0b6b3a764000001811115613f07576000801b9150506140ad565b6060613f1285614112565b9050600160009054906101000a900473ffffffffffffffffffffffffffffffffffffffff1673ffffffffffffffffffffffffffffffffffffffff1663c55c1cb68360008985896040518663ffffffff1660e01b8152600401808581526020018060200180602001848152602001838103835286818151815260200191508051906020019080838360005b83811015613fb7578082015181840152602081019050613f9c565b50505050905090810190601f168015613fe45780820380516001836020036101000a031916815260200191505b50838103825285818151815260200191508051906020019080838360005b8381101561401d578082015181840152602081019050614002565b50505050905090810190601f16801561404a5780820380516001836020036101000a031916815260200191505b5096505050505050506020604051808303818588803b15801561406c57600080fd5b505af1158015614080573d6000803e3d6000fd5b50505050506040513d602081101561409757600080fd5b8101908080519060200190929190505050925050505b9392505050565b80600390805190602001906140ca929190614542565b5050565b60008060008060405188815287602082015286604082015285606082015260208160808360006001610bb8f192508051915050818193509350505094509492505050565b606061411c614192565b6141246145c2565b6141308161040061419e565b614139816141e8565b60008090505b835181101561417b5761416e84828151811061415757fe5b6020026020010151836141f690919063ffffffff16565b808060010191505061413f565b506141858161421b565b8060000151915050919050565b60405180590338823950565b60008190506000602082816141af57fe5b06146141c857602081816141bf57fe5b06602003810190505b808360200181815250506040518084526000815281810160405250505050565b6141f3816004614229565b50565b614203826002835161424a565b614216818361438a90919063ffffffff16565b505050565b614226816007614229565b50565b614246601f60058360ff16901b178361443590919063ffffffff16565b5050565b60178111614276576142718160058460ff16901b60ff16178461443590919063ffffffff16565b614385565b60ff81116142b75761429b601860058460ff16901b178461443590919063ffffffff16565b6142b1816001856144759092919063ffffffff16565b50614384565b61ffff81116142f9576142dd601960058460ff16901b178461443590919063ffffffff16565b6142f3816002856144759092919063ffffffff16565b50614383565b63ffffffff811161433d57614321601a60058460ff16901b178461443590919063ffffffff16565b614337816004856144759092919063ffffffff16565b50614382565b67ffffffffffffffff811161438157614369601b60058460ff16901b178461443590919063ffffffff16565b61437f816008856144759092919063ffffffff16565b505b5b5b5b5b505050565b6143926145c2565b826020015183600001515183510111156143c2576143c18360026143bb866020015186516144dc565b026144f8565b5b60008060008451905085518051602081830101945086518101825260208701935050505b6020811061440957815183526020830192506020820191506020810390506143e6565b60006001826020036101000a039050801983511681855116818117865250508694505050505092915050565b8160200151600183600001515101111561445b5761445a8260028460200151026144f8565b5b815180516020818301018381536001820183525050505050565b61447d6145c2565b8360200151846000015151830111156144ab576144aa8460026144a48760200151866144dc565b026144f8565b5b60006001836101000a0390508451805184818301018684198251161781528582018352505050849150509392505050565b6000818311156144ee578290506144f2565b8190505b92915050565b60608260000151905061450b838361419e565b614515838261438a565b50505050565b60405180608001604052806004905b606081526020019060019003908161452a5790505090565b828054600181600116156101000203166002900490600052602060002090601f016020900481019282601f1061458357805160ff19168380011785556145b1565b828001600101855582156145b1579182015b828111156145b0578251825591602001919060010190614595565b5b5090506145be91906145dc565b5090565b604051806040016040528060608152602001600081525090565b6145fe91905b808211156145fa5760008160009055506001016145e2565b5090565b9056fe596f7520617265206e6f7420656e7469746c656420746f206578656375746520746869732066756e6374696f6e2e546865726520617265206e6f7420656e6f7567682066756e647320746f206372656174652074686973207472616e73616374696f6e596f75206d7573742073656e642074686520726571756972656420636f7374206f72206d6f7265546865206265742077617320756e61626c6520746f206265207665726966696564536166654d6174683a206d756c7469706c69636174696f6e206f766572666c6f77596f752063616e2774207761676572206d6f7265207468616e20352065746865727fb956469c5c9b89840d55b43537e66a98dd4811ea0a27224272c2e5622911e8537a2f8e86a46baec82864e98dd01e9ccc2f8bc5dfc9cbe5a91a290498dd96e450726f7661626c65207175657279207761732073656e742c207374616e64696e6720627920666f722074686520616e737765722e2e2ea265627a7a72315820456bcef111ed80f034e07c2ce945277c006eb19645fcb71087b4a50669dd528e64736f6c634300050c003250726f7661626c65207175657279207761732073656e742c207374616e64696e6720627920666f722074686520616e737765722e2e2e",
  "source": "import './Ownable.sol';\nimport './Betting.sol';\n\n\npragma solidity 0.5.12;\n\ncontract CoinFlip is Ownable, Betting {\n\n    event ContractFunded(address funder, uint amount);\n\n    function fundContract() public payable mustHaveRequiredFunds(msg.sender, msg.value) {\n        emit ContractFunded(msg.sender, msg.value);\n    }\n\n    function withdraw(uint _amount) public onlyOwner mustHaveRequiredFunds(address(this), _amount) {\n        assert(msg.sender == owner);\n        uint contractBalanceBefore = address(this).balance;\n        owner.transfer(_amount);\n        assert(address(this).balance == contractBalanceBefore - _amount);\n    }\n\n    function withdrawAll() public onlyOwner {\n        assert(msg.sender == owner);\n        uint withdrawalAmount = address(this).balance;\n        owner.transfer(withdrawalAmount);\n        assert(address(this).balance == 0);\n    }\n\n    function getContract() public view returns (address, uint) {\n        return (address(this), address(this).balance);\n    }\n\n    function getOwner() public view returns (address, uint) {\n        return (address(owner), address(owner).balance);\n    }\n}\n",
  "sourcePath": "/Users/Sant/Desktop/code/projects/blockchain/ivanontechacademy/coinflip/contracts/CoinFlip.sol",
  "compiler": {
    "name": "solc",
    "version": "0.5.12+commit.7709ece9.Emscripten.clang"
  },
  "schemaVersion": "3.0.19",
  "updatedAt": "2020-01-31T17:07:50.436Z",
  "networkType": "ethereum",
  "devdoc": {
    "methods": {
      "__callback(bytes32,string)": {
        "details": "The following `__callback` functions are just placeholders ideally     meant to be defined in child contract when proofs are used.     The function bodies simply silence compiler warnings."
      }
    }
  },
  "userdoc": {
    "methods": {}
  }
}