{
  "contractName": "CoinFlip2",
  "abi": [
    {
      "anonymous": false,
      "inputs": [
        {
          "indexed": false,
          "internalType": "address",
          "name": "gambler",
          "type": "address"
        },
        {
          "indexed": false,
          "internalType": "uint256",
          "name": "amount",
          "type": "uint256"
        },
        {
          "indexed": false,
          "internalType": "bool",
          "name": "betWon",
          "type": "bool"
        }
      ],
      "name": "BetPlaced",
      "type": "event"
    },
    {
      "anonymous": false,
      "inputs": [
        {
          "indexed": false,
          "internalType": "address",
          "name": "funder",
          "type": "address"
        },
        {
          "indexed": false,
          "internalType": "uint256",
          "name": "amount",
          "type": "uint256"
        }
      ],
      "name": "ContractFunded",
      "type": "event"
    },
    {
      "constant": true,
      "inputs": [],
      "name": "contractAddress",
      "outputs": [
        {
          "internalType": "address payable",
          "name": "",
          "type": "address"
        }
      ],
      "payable": false,
      "stateMutability": "view",
      "type": "function"
    },
    {
      "constant": true,
      "inputs": [],
      "name": "owner",
      "outputs": [
        {
          "internalType": "address payable",
          "name": "",
          "type": "address"
        }
      ],
      "payable": false,
      "stateMutability": "view",
      "type": "function"
    },
    {
      "constant": true,
      "inputs": [],
      "name": "random",
      "outputs": [
        {
          "internalType": "uint256",
          "name": "",
          "type": "uint256"
        }
      ],
      "payable": false,
      "stateMutability": "view",
      "type": "function"
    },
    {
      "constant": false,
      "inputs": [
        {
          "internalType": "address payable",
          "name": "newOwner",
          "type": "address"
        }
      ],
      "name": "transferOwnership",
      "outputs": [],
      "payable": false,
      "stateMutability": "nonpayable",
      "type": "function"
    },
    {
      "constant": false,
      "inputs": [
        {
          "internalType": "address payable",
          "name": "_gambler",
          "type": "address"
        },
        {
          "internalType": "uint256",
          "name": "_amount",
          "type": "uint256"
        }
      ],
      "name": "bet",
      "outputs": [],
      "payable": true,
      "stateMutability": "payable",
      "type": "function"
    },
    {
      "constant": false,
      "inputs": [],
      "name": "fundContract",
      "outputs": [],
      "payable": true,
      "stateMutability": "payable",
      "type": "function"
    },
    {
      "constant": false,
      "inputs": [
        {
          "internalType": "uint256",
          "name": "_amount",
          "type": "uint256"
        }
      ],
      "name": "withdraw",
      "outputs": [],
      "payable": false,
      "stateMutability": "nonpayable",
      "type": "function"
    },
    {
      "constant": false,
      "inputs": [],
      "name": "withdrawAll",
      "outputs": [],
      "payable": false,
      "stateMutability": "nonpayable",
      "type": "function"
    },
    {
      "constant": true,
      "inputs": [],
      "name": "getContract",
      "outputs": [
        {
          "internalType": "address",
          "name": "",
          "type": "address"
        },
        {
          "internalType": "uint256",
          "name": "",
          "type": "uint256"
        }
      ],
      "payable": false,
      "stateMutability": "view",
      "type": "function"
    },
    {
      "constant": true,
      "inputs": [],
      "name": "getOwner",
      "outputs": [
        {
          "internalType": "address",
          "name": "",
          "type": "address"
        },
        {
          "internalType": "uint256",
          "name": "",
          "type": "uint256"
        }
      ],
      "payable": false,
      "stateMutability": "view",
      "type": "function"
    }
  ],
  "bytecode": "0x608060405230600160006101000a81548173ffffffffffffffffffffffffffffffffffffffff021916908373ffffffffffffffffffffffffffffffffffffffff160217905550336000806101000a81548173ffffffffffffffffffffffffffffffffffffffff021916908373ffffffffffffffffffffffffffffffffffffffff160217905550610efc806100946000396000f3fe6080604052600436106100915760003560e01c8063958f85bd11610059578063958f85bd146101c8578063bd097e2114610226578063f2fde38b14610230578063f6b4dfb414610281578063f846cabc146102d857610091565b80632e1a7d4d146100965780635ec01e4d146100d1578063853828b6146100fc578063893d20e8146101135780638da5cb5b14610171575b600080fd5b3480156100a257600080fd5b506100cf600480360360208110156100b957600080fd5b8101908080359060200190929190505050610326565b005b3480156100dd57600080fd5b506100e66105a5565b6040518082815260200191505060405180910390f35b34801561010857600080fd5b506101116105b7565b005b34801561011f57600080fd5b5061012861079e565b604051808373ffffffffffffffffffffffffffffffffffffffff1673ffffffffffffffffffffffffffffffffffffffff1681526020018281526020019250505060405180910390f35b34801561017d57600080fd5b50610186610807565b604051808273ffffffffffffffffffffffffffffffffffffffff1673ffffffffffffffffffffffffffffffffffffffff16815260200191505060405180910390f35b3480156101d457600080fd5b506101dd61082c565b604051808373ffffffffffffffffffffffffffffffffffffffff1673ffffffffffffffffffffffffffffffffffffffff1681526020018281526020019250505060405180910390f35b61022e610897565b005b34801561023c57600080fd5b5061027f6004803603602081101561025357600080fd5b81019080803573ffffffffffffffffffffffffffffffffffffffff169060200190929190505050610978565b005b34801561028d57600080fd5b50610296610a9a565b604051808273ffffffffffffffffffffffffffffffffffffffff1673ffffffffffffffffffffffffffffffffffffffff16815260200191505060405180910390f35b610324600480360360408110156102ee57600080fd5b81019080803573ffffffffffffffffffffffffffffffffffffffff16906020019092919080359060200190929190505050610ac0565b005b6000809054906101000a900473ffffffffffffffffffffffffffffffffffffffff1673ffffffffffffffffffffffffffffffffffffffff163373ffffffffffffffffffffffffffffffffffffffff16146103cb576040517f08c379a000000000000000000000000000000000000000000000000000000000815260040180806020018281038252602e815260200180610df8602e913960400191505060405180910390fd5b600160009054906101000a900473ffffffffffffffffffffffffffffffffffffffff1681808273ffffffffffffffffffffffffffffffffffffffff1631101561045f576040517f08c379a0000000000000000000000000000000000000000000000000000000008152600401808060200182810382526035815260200180610e4a6035913960400191505060405180910390fd5b6000809054906101000a900473ffffffffffffffffffffffffffffffffffffffff1673ffffffffffffffffffffffffffffffffffffffff163373ffffffffffffffffffffffffffffffffffffffff16146104b557fe5b6000600160009054906101000a900473ffffffffffffffffffffffffffffffffffffffff1673ffffffffffffffffffffffffffffffffffffffff163190506000809054906101000a900473ffffffffffffffffffffffffffffffffffffffff1673ffffffffffffffffffffffffffffffffffffffff166108fc859081150290604051600060405180830381858888f1935050505015801561055a573d6000803e3d6000fd5b50838103600160009054906101000a900473ffffffffffffffffffffffffffffffffffffffff1673ffffffffffffffffffffffffffffffffffffffff16311461059f57fe5b50505050565b6000600242816105b157fe5b06905090565b6000809054906101000a900473ffffffffffffffffffffffffffffffffffffffff1673ffffffffffffffffffffffffffffffffffffffff163373ffffffffffffffffffffffffffffffffffffffff161461065c576040517f08c379a000000000000000000000000000000000000000000000000000000000815260040180806020018281038252602e815260200180610df8602e913960400191505060405180910390fd5b6000809054906101000a900473ffffffffffffffffffffffffffffffffffffffff1673ffffffffffffffffffffffffffffffffffffffff163373ffffffffffffffffffffffffffffffffffffffff16146106b257fe5b6000600160009054906101000a900473ffffffffffffffffffffffffffffffffffffffff1673ffffffffffffffffffffffffffffffffffffffff163190506000809054906101000a900473ffffffffffffffffffffffffffffffffffffffff1673ffffffffffffffffffffffffffffffffffffffff166108fc829081150290604051600060405180830381858888f19350505050158015610757573d6000803e3d6000fd5b506000600160009054906101000a900473ffffffffffffffffffffffffffffffffffffffff1673ffffffffffffffffffffffffffffffffffffffff16311461079b57fe5b50565b6000806000809054906101000a900473ffffffffffffffffffffffffffffffffffffffff166000809054906101000a900473ffffffffffffffffffffffffffffffffffffffff1673ffffffffffffffffffffffffffffffffffffffff1631819150915091509091565b6000809054906101000a900473ffffffffffffffffffffffffffffffffffffffff1681565b600080600160009054906101000a900473ffffffffffffffffffffffffffffffffffffffff16600160009054906101000a900473ffffffffffffffffffffffffffffffffffffffff1673ffffffffffffffffffffffffffffffffffffffff1631819150915091509091565b3334808273ffffffffffffffffffffffffffffffffffffffff16311015610909576040517f08c379a0000000000000000000000000000000000000000000000000000000008152600401808060200182810382526035815260200180610e4a6035913960400191505060405180910390fd5b7f0939f6f4877faf071412e527bc4c6d0bd65ad077e52b57334f7765265647a7f13334604051808373ffffffffffffffffffffffffffffffffffffffff1673ffffffffffffffffffffffffffffffffffffffff1681526020018281526020019250505060405180910390a15050565b6000809054906101000a900473ffffffffffffffffffffffffffffffffffffffff1673ffffffffffffffffffffffffffffffffffffffff163373ffffffffffffffffffffffffffffffffffffffff1614610a1d576040517f08c379a000000000000000000000000000000000000000000000000000000000815260040180806020018281038252602e815260200180610df8602e913960400191505060405180910390fd5b600073ffffffffffffffffffffffffffffffffffffffff168173ffffffffffffffffffffffffffffffffffffffff161415610a5757600080fd5b806000806101000a81548173ffffffffffffffffffffffffffffffffffffffff021916908373ffffffffffffffffffffffffffffffffffffffff16021790555050565b600160009054906101000a900473ffffffffffffffffffffffffffffffffffffffff1681565b662386f26fc1000080341015610b21576040517f08c379a0000000000000000000000000000000000000000000000000000000008152600401808060200182810382526027815260200180610e7f6027913960400191505060405180910390fd5b81803414610b7a576040517f08c379a0000000000000000000000000000000000000000000000000000000008152600401808060200182810382526022815260200180610ea66022913960400191505060405180910390fd5b833373ffffffffffffffffffffffffffffffffffffffff168173ffffffffffffffffffffffffffffffffffffffff1614610bff576040517f08c379a0000000000000000000000000000000000000000000000000000000008152600401808060200182810382526024815260200180610e266024913960400191505060405180910390fd5b8484808273ffffffffffffffffffffffffffffffffffffffff16311015610c71576040517f08c379a0000000000000000000000000000000000000000000000000000000008152600401808060200182810382526035815260200180610e4a6035913960400191505060405180910390fd5b600160009054906101000a900473ffffffffffffffffffffffffffffffffffffffff1686808273ffffffffffffffffffffffffffffffffffffffff16311015610d05576040517f08c379a0000000000000000000000000000000000000000000000000000000008152600401808060200182810382526035815260200180610e4a6035913960400191505060405180910390fd5b600080610d106105a5565b90506001811415610d6e578a73ffffffffffffffffffffffffffffffffffffffff166108fc60028c029081150290604051600060405180830381858888f19350505050158015610d64573d6000803e3d6000fd5b5060019150610d73565b600091505b7ff8e99859e696debf4ef1752d671f759f7f63a1116efe995d789edfb3849c35498b8b84604051808473ffffffffffffffffffffffffffffffffffffffff1673ffffffffffffffffffffffffffffffffffffffff16815260200183815260200182151515158152602001935050505060405180910390a1505050505050505050505056fe596f7520617265206e6f7420656e7469746c656420746f206578656375746520746869732066756e6374696f6e2e596f752063616e27742075736520736f6d656f6e6520656c736527732061646472657373546865726520617265206e6f7420656e6f7567682066756e647320746f206372656174652074686973207472616e73616374696f6e596f75206d7573742073656e642074686520726571756972656420636f7374206f72206d6f7265596f75206d7573742073656e642074686520616d6f756e7420737065636966696564a265627a7a72315820eb6d8ca7557476ce7a12bac39514996b01c67b04115d25ff4945f23271ed1d0764736f6c634300050c0032",
  "source": "import './PseudoRandomness.sol';\nimport './Ownable.sol';\nimport './Modifiers.sol';\n\n\npragma solidity 0.5.12;\n\ncontract CoinFlip2 is PseudoRandomness, Ownable, Modifiers {\n\n    address payable public contractAddress = address(uint160(address(this)));\n\n    event BetPlaced(address gambler, uint amount, bool betWon);\n    event ContractFunded(address funder, uint amount);\n\n    function bet(address payable _gambler, uint _amount) public payable\n        costs(0.01 ether)\n        amountSentMustMatch(_amount)\n        onlySender(_gambler)\n        mustHaveRequiredFunds(_gambler, _amount)\n        mustHaveRequiredFunds(contractAddress, _amount)\n    {\n        bool _betWon;\n        uint rand = random();\n\n        if (rand == 1) {\n            _gambler.transfer(_amount * 2);\n            _betWon = true;\n        } else {\n            _betWon = false;\n        }\n\n        emit BetPlaced(_gambler, _amount, _betWon);\n    }\n\n    function fundContract() public payable mustHaveRequiredFunds(msg.sender, msg.value) {\n        emit ContractFunded(msg.sender, msg.value);\n    }\n\n    function withdraw(uint _amount) public onlyOwner mustHaveRequiredFunds(contractAddress, _amount) {\n        assert(msg.sender == owner);\n        uint contractBalanceBefore = contractAddress.balance;\n        owner.transfer(_amount);\n        assert(contractAddress.balance == contractBalanceBefore - _amount);\n   }\n\n    function withdrawAll() public onlyOwner {\n        assert(msg.sender == owner);\n        uint withdrawalAmount = contractAddress.balance;\n        owner.transfer(withdrawalAmount);\n        assert(contractAddress.balance == 0);\n   }\n\n    function getContract() public view returns (address, uint) {\n        return (contractAddress, contractAddress.balance);\n    }\n\n    function getOwner() public view returns (address, uint) {\n        return (address(owner), address(owner).balance);\n    }\n}\n",
  "sourcePath": "/Users/Sant/Desktop/code/projects/blockchain/ivanontechacademy/project-phase-1/contracts/CoinFlip.sol",
  "compiler": {
    "name": "solc",
    "version": "0.5.12+commit.7709ece9.Emscripten.clang"
  },
  "schemaVersion": "3.0.19",
  "updatedAt": "2020-01-26T02:57:41.327Z",
  "devdoc": {
    "methods": {}
  },
  "userdoc": {
    "methods": {}
  }
}