{
  "contractName": "PseudoRandomness",
  "abi": [
    {
      "constant": true,
      "inputs": [],
      "name": "random",
      "outputs": [
        {
          "internalType": "uint256",
          "name": "",
          "type": "uint256"
        }
      ],
      "payable": false,
      "stateMutability": "view",
      "type": "function"
    }
  ],
  "bytecode": "0x6080604052348015600f57600080fd5b50608f8061001e6000396000f3fe6080604052348015600f57600080fd5b506004361060285760003560e01c80635ec01e4d14602d575b600080fd5b60336049565b6040518082815260200191505060405180910390f35b600060024281605457fe5b0690509056fea265627a7a723158207352c20984f825984fe2939d49ed04df83bcf97ba1635d1c6a94e3329c529cc164736f6c634300050c0032",
  "source": "pragma solidity 0.5.12;\n\ncontract PseudoRandomness {\n  function random() public view returns (uint256) {\n    return now % 2;\n  }\n}\n",
  "sourcePath": "/Users/sdeleon/Desktop/code/projects/blockchain/coinflip/contracts/PseudoRandomness.sol",
  "compiler": {
    "name": "solc",
    "version": "0.5.12+commit.7709ece9.Emscripten.clang"
  },
  "schemaVersion": "3.0.20",
  "updatedAt": "2020-01-28T18:08:32.245Z",
  "devdoc": {
    "methods": {}
  },
  "userdoc": {
    "methods": {}
  }
}